:020000040800F2
:10000000380500209D010008BB06000877040008A1
:10001000B9060008E5010008CD1C0008000000003A
:10002000000000000000000000000000C50F0008F4
:10003000E701000800000000510E0008BB11000895
:10004000B7010008B7010008B7010008B7010008B0
:10005000B7010008B7010008B7010008B7010008A0
:10006000B7010008B7010008B7010008B701000890
:10007000B7010008B7010008B7010008B701000880
:10008000B7010008B7010008B7010008B701000870
:10009000B7010008B7010008B7010008B701000860
:1000A000B7010008B7010008B7010008B701000850
:1000B000B7010008B7010008B7010008B701000840
:1000C000B7010008B7010008B7010008B701000830
:1000D000B7010008B7010008B7010008091B0008B4
:1000E000E9010008B7010008B7010008B7010008DE
:1000F000B7010008B7010008B7010008B701000800
:10010000B7010008B7010008B7010008B7010008EF
:10011000B7010008B7010008B7010008C1120008C4
:10012000B7010008B7010008B7010008B7010008CF
:10013000B7010008B7010008B7010008B7010008BF
:10014000B7010008B7010008B7010008B7010008AF
:10015000B7010008B7010008B7010008B70100089F
:10016000B7010008B7010008B7010008B70100088F
:10017000B7010008B7010008B7010008B70100087F
:10018000B7010008B7010008DFF80CD000F018F83C
:1001900000480047592100083805002006488047DC
:1001A00006480047FEE7FEE7FEE7FEE7FEE7FEE75C
:1001B000FEE7FEE7FEE7FEE7BD1100088901000843
:1001C000064C074D06E0E06840F0010394E80700A4
:1001D00098471034AC42F6D3FFF7DAFFC027000887
:1001E000E0270008FEE7704770B50A2001F0E0FD47
:1001F0004FF4006000F086F8374D60B1E9142846EE
:1002000000F030F918B935490868401C08604FF40F
:10021000006000F071F84FF4005000F073F868B11E
:100220004FF40051284600F01DF918B92C49086810
:10023000401C08604FF4005000F05EF84FF400409E
:1002400000F060F868B14FF40041264800F00AF968
:1002500018B925490868401C08604FF4004000F0B8
:100260004BF84FF4806000F04DF8012458B1A10222
:10027000284600F0F7F8002804BF1C4804704FF42B
:10028000806000F039F84FF4805000F03BF860B126
:100290004FF48051284600F0E5F8002804BF1448C8
:1002A00004704FF4805000F027F84FF4804000F0C5
:1002B00029F8002808BF70BD4FF48041284600F09F
:1002C000D1F8002804BF0B4804704FF48040BDE80B
:1002D000704000F011B80000001002400000002043
:1002E0000400002000040240080000200C00002050
:1002F0000D0000200E00002001490860704700003A
:10030000143C0140034A0146002012680A4218BF0B
:1003100001207047143C0140837921490268002B79
:1003200034D00B6823EA02020A60091D0A680368D8
:100330009A430A60017901F1804101F59E310A6812
:1003400003681A430A60174B1968026891431960E1
:100350001A1D1168D0F800C021EA0C011160417922
:10036000102908D001F1804101F59E310A6800682A
:100370001043086070471968D0F800C041EA0C01CA
:10038000196011680068084310607047007900F137
:10039000804000F59E300168914301607047000085
:1003A000003C0140083C01402DE9F00100220125FC
:1003B0005FF00306D1F800C005FA02F30CEA030C63
:1003C0009C4537D107684FEA420C06FA0CF4A74364
:1003D00007600F79D0F8008007FA0CF747EA0807A2
:1003E00007600F79012F18BF022F17D1876827EAFE
:1003F000040787604F79D0F8088007FA0CF747EABE
:1004000008078760476827EA0303436043688F79DA
:1004100007FA02F7BFB243EA07034360C36823EA5F
:100420000403C360CB7903FA0CF3D0F80CC043EAA1
:100430000C03C36002F10102102ABBD3BDE8F00136
:1004400070474B07DB0E9A40C90800EB8100016A38
:100450004FF00F0C0CFA03F399430162016A114348
:10046000016270470246002012690A4218BF01204B
:10047000704741837047FEE710B582B00121082024
:1004800000F0E8FC4FF4A060012400908DF80440D7
:1004900000208DF8060003208DF805008DF8074038
:1004A00069460548FFF780FF0448C0F8A842C0F835
:1004B000A04202B010BD0000000C0240008041428A
:1004C0002DE9F04105461648016821F440710160AC
:1004D000016841F480710160124E0027C6F8A872CD
:1004E0003C464FF0010800BF15F0800F14BFC6F85E
:1004F000A082C6F8A0726806050E052001F0A2FCD5
:10050000C6F8A882052001F09DFCC6F8A872052057
:1005100001F098FC601CC4B2082CE5D3BDE8F08162
:10052000000C02400080414270B50D48016821F482
:1005300040710160016841F480710160094C012043
:10054000C4F8A002C4F8A802022004F5287401F03F
:1005500079FC00252560022001F074FCA56070BDC7
:10056000000C0240008041420E4810B5016821F4A1
:1005700040710160016841F4807101600A4C002003
:10058000C4F8A802C4F8A002022004F5287401F0FF
:1005900059FC0120A0602060BDE81040022001F05D
:1005A00051BC0000000C0240008041422DE9F041A6
:1005B0001E4E0024306820F4407030603068306097
:1005C0001B4D0127C5F8A072384601F03BFCC5F869
:1005D000A872012001F036FCD5F82002002100B3FA
:1005E000601CC4B2FA2C18D9306820F44070306016
:1005F000306840F480703060C5F8A812C5F8A012C9
:10060000022001F01FFCC5F8A872C5F8A0720220F4
:1006100001F018FC0120BDE8F081D5F82002002887
:10062000DED1C5F8A8120020BDE8F081000C024020
:100630000080414270B586B00121102000F00AFC14
:1006400000248DF8044003208DF805004FF4A846DF
:10065000012500968DF8075069461648FFF7A4FE5D
:100660000121880300F01AFC0A21042000F0ABFCF1
:100670000C21042000F0A7FC0E21042000F0A3FCB4
:100680008DF80C400C208DF80D0002968DF80E5060
:1006900002A8FFF741FE28208DF810008DF81140C8
:1006A00002208DF812008DF8135004A800F006F80F
:1006B00006B070BD00100240FEE7704710B4C2786B
:1006C00001780F244FF0010C0AB3174A126801F1A8
:1006D000E02102F4E062C2F5E062C2F30722C2F157
:1006E0000403D44042789A40837823401A4312018D
:1006F00081F80024007800F01F010CFA01F1400994
:10070000800000F1E020C0F8001110BC704701F03B
:100710001F000CFA00F04909890001F1E021C1F83D
:10072000800110BC704700000CED00E0034940F070
:10073000FD7040F080600860704700000CED00E044
:1007400070B5002606F1B000C4B2FFF7EDFE7820C8
:10075000FFF7B6FEFFF72AFF00B1FEE70020FFF724
:10076000AFFEFFF723FF2046FFF7AAFEFFF71EFFAD
:10077000FFF7FAFE0124FFF7D7FE7820FFF7A0FE6F
:10078000FFF714FF00B1FEE70020FFF799FEFFF727
:100790000DFF2046FFF794FEFFF708FFFFF7E4FE8A
:1007A0001024FFF7C1FE7820FFF78AFEFFF7FEFE58
:1007B00000B1FEE70020FFF783FEFFF7F7FE2046BB
:1007C000FFF77EFEFFF7F2FEFFF7CEFE00240025C6
:1007D000FFF7AAFE7820FFF773FEFFF7E7FE402041
:1007E000FFF76EFEFFF7E2FE2846FFF769FEFFF710
:1007F000DDFEFFF7B9FE601CC4B2802CE7D3701C8D
:10080000C6B2082E9ED370BD70B54FF4FA7001F0D9
:10081000CFFAAE24FFF788FE7820FFF751FEFFF7EE
:10082000C5FE00B1FEE70020FFF74AFEFFF7BEFE5F
:100830002046FFF745FEFFF7B9FEFFF795FE0024BF
:10084000FFF772FE7820FFF73BFEFFF7AFFE00B127
:10085000FEE70020FFF734FEFFF7A8FE2046FFF773
:100860002FFEFFF7A3FEFFF77FFE1024FFF75CFECD
:100870007820FFF725FEFFF799FE00B1FEE7002084
:10088000FFF71EFEFFF792FE2046FFF719FEFFF767
:100890008DFEFFF769FE4024FFF746FE7820FFF744
:1008A0000FFEFFF783FE00B1FEE70020FFF708FE12
:1008B000FFF77CFE2046FFF703FEFFF777FEFFF70A
:1008C00053FE8124FFF730FE7820FFF7F9FDFFF794
:1008D0006DFE00B1FEE70020FFF7F2FDFFF766FEB8
:1008E0002046FFF7EDFDFFF761FEFFF73DFECF2449
:1008F000FFF71AFE7820FFF7E3FDFFF757FE00B180
:10090000FEE70020FFF7DCFDFFF750FE2046FFF773
:10091000D7FDFFF74BFEFFF727FEA124FFF704FEEC
:100920007820FFF7CDFDFFF741FE00B1FEE7002084
:10093000FFF7C6FDFFF73AFE2046FFF7C1FDFFF7C0
:1009400035FEFFF711FEC824FFF7EEFD7820FFF714
:10095000B7FDFFF72BFE00B1FEE70020FFF7B0FD6B
:10096000FFF724FE2046FFF7ABFDFFF71FFEFFF762
:10097000FBFDA624FFF7D8FD7820FFF7A1FDFFF7C8
:1009800015FE00B1FEE70020FFF79AFDFFF70EFE0F
:100990002046FFF795FDFFF709FEFFF7E5FDA824C8
:1009A000FFF7C2FD7820FFF78BFDFFF7FFFD00B1D9
:1009B000FEE70020FFF784FDFFF7F8FD2046FFF774
:1009C0007FFDFFF7F3FDFFF7CFFD3F24FFF7ACFD01
:1009D0007820FFF775FDFFF7E9FD00B1FEE7002085
:1009E000FFF76EFDFFF7E2FD2046FFF769FDFFF719
:1009F000DDFDFFF7B9FDD324FFF796FD7820FFF763
:100A00005FFDFFF7D3FD00B1FEE70020FFF758FDC3
:100A1000FFF7CCFD2046FFF753FDFFF7C7FDFFF7BB
:100A2000A3FD0024FFF780FD7820FFF749FDFFF7C5
:100A3000BDFD00B1FEE70020FFF742FDFFF7B6FD68
:100A40002046FFF73DFDFFF7B1FDFFF78DFDD524F3
:100A5000FFF76AFD7820FFF733FDFFF7A7FD00B130
:100A6000FEE70020FFF72CFDFFF7A0FD2046FFF773
:100A700027FDFFF79BFDFFF777FD8024FFF754FD6F
:100A80007820FFF71DFDFFF791FD00B1FEE7002084
:100A9000FFF716FDFFF78AFD2046FFF711FDFFF770
:100AA00085FDFFF761FDD924FFF73EFD7820FFF7B4
:100AB00007FDFFF77BFD00B1FEE70020FFF700FD1B
:100AC000FFF774FD2046FFF7FBFCFFF76FFDFFF714
:100AD0004BFDF124FFF728FD7820FFF7F1FCFFF72D
:100AE00065FD00B1FEE70020FFF7EAFCFFF75EFDC1
:100AF0002046FFF7E5FCFFF759FDFFF735FDDA2447
:100B0000FFF712FD7820FFF7DBFCFFF74FFD00B188
:100B1000FEE70020FFF7D4FCFFF748FD2046FFF773
:100B2000CFFCFFF743FDFFF71FFD1224FFF7FCFC8E
:100B30007820FFF7C5FCFFF739FD00B1FEE7002084
:100B4000FFF7BEFCFFF732FD2046FFF7B9FCFFF7C9
:100B50002DFDFFF709FDDB24FFF7E6FC7820FFF70A
:100B6000AFFCFFF723FD00B1FEE70020FFF7A8FC74
:100B7000FFF71CFD2046FFF7A3FCFFF717FDFFF76B
:100B8000F3FC4024FFF7D0FC7820FFF799FCFFF737
:100B90000DFD00B1FEE70020FFF792FCFFF706FD18
:100BA0002046FFF78DFCFFF701FDFFF7DDFC202459
:100BB000FFF7BAFC7820FFF783FCFFF7F7FC00B1E2
:100BC000FEE70020FFF77CFCFFF7F0FC2046FFF774
:100BD00077FCFFF7EBFCFFF7C7FC0224FFF7A4FC50
:100BE0007820FFF76DFCFFF7E1FC00B1FEE7002085
:100BF000FFF766FCFFF7DAFC2046FFF761FCFFF722
:100C0000D5FCFFF7B1FC8D24FFF78EFC7820FFF7B1
:100C100057FCFFF7CBFC00B1FEE70020FFF750FCCC
:100C2000FFF7C4FC2046FFF74BFCFFF7BFFCFFF7C4
:100C30009BFC1424FFF778FC7820FFF741FCFFF7BA
:100C4000B5FC00B1FEE70020FFF73AFCFFF7AEFC71
:100C50002046FFF735FCFFF7A9FCFFF785FCA4242D
:100C6000FFF762FC7820FFF72BFCFFF79FFC00B139
:100C7000FEE70020FFF724FCFFF798FC2046FFF773
:100C80001FFCFFF793FCFFF76FFCA624FFF74CFC5B
:100C90007820FFF715FCFFF789FC00B1FEE7002084
:100CA000FFF70EFCFFF782FC2046FFF709FCFFF779
:100CB0007DFCFFF759FCAF24FFF736FC7820FFF7E7
:100CC000FFFBFFF773FC00B1FEE70020FFF7F8FB26
:100CD000FFF76CFC2046FFF7F3FBFFF767FCFFF71D
:100CE00043FC00254FEA050606F1B000C4B2FFF749
:100CF0001BFC7820FFF7E4FBFFF758FC00B1FEE790
:100D00000020FFF7DDFBFFF751FC2046FFF7D8FB83
:100D1000FFF74CFCFFF728FC0124FFF705FC7820C7
:100D2000FFF7CEFBFFF742FC00B1FEE70020FFF724
:100D3000C7FBFFF73BFC2046FFF7C2FBFFF736FC83
:100D4000FFF712FC1024FFF7EFFB7820FFF7B8FB4A
:100D5000FFF72CFC00B1FEE70020FFF7B1FBFFF727
:100D600025FC2046FFF7ACFBFFF720FCFFF7FCFB60
:100D70005FF00004FFF7D8FB7820FFF7A1FBFFF737
:100D800015FC4020FFF79CFBFFF710FC2846FFF7FF
:100D900097FBFFF70BFCFFF7E7FB601CC4B2802C4E
:100DA000E8D3701CC6B2082E9ED3BDE87040002167
:100DB0000846AFF3008070B5044601F1B000C5B23B
:100DC000FFF7B2FB7820FFF77BFBFFF7EFFB00B1EB
:100DD000FEE70020FFF774FBFFF7E8FB2846FFF76C
:100DE0006FFBFFF7E3FBFFF7BFFB102040EA141592
:100DF000FFF79AFB7820FFF763FBFFF7D7FB00B103
:100E0000FEE70020FFF75CFBFFF7D0FB2846FFF76B
:100E100057FBFFF7CBFBFFF7A7FB04F00F0040F0F9
:100E20000104FFF781FB7820FFF74AFBFFF7BEFBC9
:100E300000B1FEE70020FFF743FBFFF7B7FB2046BA
:100E4000FFF73EFBFFF7B2FBBDE87040FFF78CBB3E
:100E500070470000044A0029116814BF084321EAC2
:100E6000000010607047000030380240044A00293A
:100E7000116814BF084321EA0000106070470000A9
:100E800040380240044A0029116814BF084321EA8F
:100E9000000010607047000020380240044A00291A
:100EA000116814BF084321EA000010607047000079
:100EB00044380240044A0029116814BF084321EA5B
:100EC000000010607047000024380240254A30B40A
:100ED0001168254B11F00C0106D0244C042908BFE1
:100EE000046002D008291ED0036011680F2303EAB2
:100EF00011111F4B595CD0F800C02CFA01F1416070
:100F0000D2F800C0072404EA9C2C13F80CC021FA84
:100F10000CFCC0F808C0126804EA52329A5CD14056
:100F2000C16030BC70471349D1F800C0CCF3805584
:100F3000D1F800C0002D0CF03F0C14BFB4FBFCF343
:100F4000B3FBFCF3D1F800C00968CCF3881C03FBA9
:100F50000CF3C1F30141491C4900B3FBF1F10160FD
:100F6000C3E70000083802400024F40040787D0107
:100F70002600002004380240002101280CD002285D
:100F800010D0032813D004281CBF002070470A4A41
:100F90001068116000B270474FF08042506A516291
:100FA00000B27047054A1068116000B27047044AE9
:100FB0001068116000B2704724040040240800400B
:100FC000240C004070478A0721F0030101F18041A1
:100FD00001F59831120F0F23D1F808C893402CEA7D
:100FE0000303C1F80838D1F8083890401843C1F815
:100FF0000808704770B586B001211020FFF72AFF5E
:1010000000248DF8044003208DF805004FF4284695
:10101000012500968DF8075069461648FFF7C4F978
:1010200001218803FFF73AFF0B210420FFF7CBFFD4
:101030000D210420FFF7C7FF0F210420FFF7C3FF96
:101040008DF80C400C208DF80D0002968DF80E5096
:1010500002A8FFF761F928208DF810008DF81140E3
:1010600002208DF812008DF8135004A8FFF726FB1C
:1010700006B070BD0010024000B583B0012102200F
:10108000FFF7E8FE4FF40050009000208DF80400B8
:1010900003208DF8050001208DF8070069460248FD
:1010A000FFF782F903B000BD0004024000B583B031
:1010B00001210820FFF7CEFE4FF4205000900020C1
:1010C0008DF8040003208DF8050001208DF807003D
:1010D00069460248FFF768F903B000BD000C024002
:1010E00070B586B001210220FFF7B4FE00248DF810
:1010F000044003208DF805004FF4004601250096BA
:101100008DF8075069461248FFF74EF90121880310
:10111000FFF7C4FE0F210120FFF755FF8DF80C40AB
:101120000C208DF80D0002968DF80E5002A8FFF7E6
:10113000F3F828208DF810008DF8114002208DF86A
:1011400012008DF8135004A8FFF7B8FA06B070BD6E
:101150000004024000EB800000F59671014800F0A9
:10116000E4BB00000000014000EB800000F5967138
:10117000014800F0DCBB00000000014000EB8000F3
:1011800000F59671014800F0D4BB0000000001405A
:1011900000EB800000F59671014800F0CCBB000028
:1011A000000001404FF0E021042808690CBF40F026
:1011B000040020F00400086170477047374882B08F
:1011C000016841F4700101603548016841F0010196
:1011D0000160344900230B60026822F4102222F0DF
:1011E0008072026000F1040C2F4ACCF800200268E3
:1011F00022F4802202600A1D1360019300930268AA
:1012000042F480320260026802F400320092019AD5
:10121000521C0192009A1AB9019AB2F5A04FF2D16C
:10122000026812F4003F08BF009331D001220092FF
:101230001E4A136843F0805313601D4A136843F439
:10124000404313600A680A600A6842F400420A6078
:101250000A6842F4A0520A60164ACCF800200268DC
:1012600042F080720260026812F0007FFBD0124AE6
:1012700040F205701060086820F0030008600868FC
:1012800040F002000860086800F00C000828FAD15D
:101290000A494FF00060086002B0704788ED00E036
:1012A0000038024008380240103000244038024024
:1012B0000070004019544007003C024008ED00E077
:1012C00010B5104C0121204600F065F9012812D11B
:1012D000FFF752FE0C4908600220FFF74DFE0B4954
:1012E00008600320FFF748FE094908600420FFF763
:1012F00043FE084908602046BDE81040012100F087
:101300003BB8000000140040100000201400002032
:10131000180000201C00002030B50C46054685B0A2
:1013200001212020FFF7A2FDADF800400020114C64
:10133000ADF80200ADF8080001956946204600F0BE
:10134000FDFA01221146204600F0CBF937208DF836
:101350000C0001218DF80D1003208DF80E008DF882
:101360000F1003A8FFF7AAF90121204600F007F8A3
:1013700005B030BD00140040C94301827047002908
:10138000018814BF41F0010121F001010180704783
:101390000029B0F8441014BF41F40041C1F30E011C
:1013A000A0F84410704710B5A0F18041B1F580312C
:1013B0004AD0B0F1804F5BD0A0F18041B1F580619F
:1013C0004CD0A0F18041B1F500615BD0A0F180412B
:1013D000B1F5406160D0A0F18041B1F5805165D098
:1013E000A0F18041B1F5A0516AD0A0F18041B1F5E2
:1013F00082316FD0A0F18041B1F5A03174D0A0F15D
:101400008041B1F5A2317AD0A0F18041B1F5A4318B
:101410007DD0A0F18041B1F5C05179D0A0F18041DB
:10142000B1F5E05175D0A0F18041B1F5005118BF80
:1014300010BD01210802FFF725FDBDE81040002185
:101440004FF48070FFF71EBD01210846FFF732FD03
:101450000021BDE810400120FFF72CBD0121022032
:10146000FFF710FD0021BDE810400220FFF70ABD84
:1014700001210846FFF706FD0021BDE810400120CC
:10148000FFF700BD01210420FFF7FCFC0021BDE8AF
:1014900010400420FFF7F6BC01210820FFF7F2FC02
:1014A0000021BDE810400820FFF7ECBC012110200E
:1014B000FFF7E8FC0021BDE810401020FFF7E2BC78
:1014C00001212020FFF7DEFC0021BDE81040202094
:1014D000FFF7D8BC01210220FFF7ECFC0021BDE89A
:1014E00010400220FFF7E6BC01210804FFF7E2FCF0
:1014F000BDE8104000214FF48030FFF7DBBC012134
:101500004804FFF7D7FC00214FF4003002E005E06B
:101510000FE018E0BDE81040FFF7CCBC01218804C3
:10152000FFF7C8FCBDE8104000214FF48020FFF712
:10153000C1BC01214020FFF7A5FC0021BDE81040FF
:101540004020FFF79FBC01218020FFF79BFC00217A
:10155000BDE810408020FFF795BC30B40589B0F895
:1015600018C0048C25F0070529432CF0030C2CF43B
:10157000407C40F201154CEA050C4FF6FF7505EA78
:10158000031324F022041A4322430181A0F818C057
:10159000028430BC7047038A002280890B4200EA33
:1015A00001001CBF002801221046704770B40D884E
:1015B0004C88B1F804C00B894FF6FF7255B3042D67
:1015C00044D0082D058C67D025F480550584868B82
:1015D000058C26F4734602EA0C2C4CEA060C02EA4F
:1015E000033343EA0C0302EA043425F4204C4CEAAA
:1015F000040C4CF4805C8383A0F820C08979838B31
:1016000023F440638383838B02EA0121194381839E
:1016100070BC7047058C25F001050584068B058C90
:1016200002EA031226F0F30642EA0C02324325F0E6
:101630000A03234343F0010302830384C988028B16
:1016400022F00C020283028B114322E0058C25F06C
:1016500010050584068B058C26F4734602EA0333D5
:10166000334302EA0C2C4CEA030302EA041425F08B
:10167000A00C4CEA040C4CF0100C0383A0F820C022
:101680008979038B23F440630383038B02EA0121EE
:101690001943018370BC704725F480750584868BDF
:1016A000058C02EA042402EA031226F0F30642EA59
:1016B0000C02324325F42063234343F48073828376
:1016C0000384C988828B22F00C028283828B1143AF
:1016D0009DE700210180418001228280C18001813B
:1016E0007047002A828914BF114322EA01018181D7
:1016F000704710B4028C22F001020284038C8288AD
:10170000B0F818C00C882CF0730C44EA0C0C8C89CF
:1017100023F0020323434C882343A0F18044B4F513
:1017200080341CBFA0F18044B4F582340DD1CC8943
:1017300023F0080323438C8823F0040323430C8AFB
:1017400022F4407222434C8A22438280A0F818C0BF
:1017500089684163038410BC7047028B22F0080241
:1017600011430183704730B4028C22F010020284CE
:10177000038CB0F804C0028B0D8822F4E6444FF6C7
:10178000FF7202EA05252C438D8923F0200302EA2B
:1017900005152B434D8802EA05152B43A0F1804522
:1017A000B5F580351CBFA0F18045B5F5823517D160
:1017B000CD8923F0800302EA05152B438D8823F0A1
:1017C000400302EA05152B430D8A2CF4406C02EA13
:1017D000850545EA0C0C4D8A02EA850242EA0C0CAA
:1017E000A0F804C0048389688163038430BC704717
:1017F000028B4FF6FF7322F4006203EA01211143CA
:101800000183704730B4028C22F480720284028C0F
:101810008388B0F81CC00C882CF0730C44EA0C04CC
:1018200022F4007C8D894FF6FF7202EA052545EA15
:101830000C0C4D8802EA052545EA0C0CA0F1804508
:10184000B5F580351CBFA0F18045B5F5823517D1BF
:10185000CD892CF4006C02EA052545EA0C0C8D8834
:101860002CF4806C02EA052545EA0C0C0D8A23F461
:10187000405302EA05152B434D8A02EA0512134331
:10188000838084838968C163A0F820C030BC70471E
:10189000828B22F0080211438183704730B4028C9E
:1018A00022F480520284048C8288838B0D8823F476
:1018B000E64C4FF6FF7303EA052545EA0C0C8D89CB
:1018C00024F4005403EA05352C434D8803EA05351A
:1018D0002C43A0F18045B5F580351CBFA0F18045B3
:1018E000B5F5823505D10D8A22F4804203EA8513CD
:1018F0001A438280A0F81CC089680164048430BC4B
:101900007047828B4FF6FF7322F4006203EA0121D5
:101910001143818370470021018041808180816073
:101920008181C18101824182704741637047816337
:101930007047C163704701647047000010B40288AB
:101940001C4BDFF874C0984218BF604511D0B0F14D
:10195000804F1CBFA0F18044B4F5806409D0A0F191
:101960008044B4F500641CBFA0F18044B4F5406429
:1019700003D14C8822F070022243A0F18044B4F5D8
:1019800080541CBFA0F18044B4F5A05403D00C894E
:1019900022F44072224302804A68C2620A880285A9
:1019A000984212BF6045897A01864FF00101818219
:1019B00010BC704700000140000401402DE9F14FC8
:1019C0004FF400614948FEF74DFDDFF828810024FF
:1019D0000125474E484FDFF824A108F10409A8F17A
:1019E000040B012805D141034048FEF73BFD0128C7
:1019F00006D04FF400613D48FEF734FD30BB1EE0D9
:101A00000098C6F88852C6F88042C8F80000C6F8A8
:101A10008452C6F88C42C9F80000C7F88842CAF858
:101A2000A05200F11901CBF80010C7F880423449E8
:101A3000C1F89052811C33480160BDE8F88F4FF423
:101A400000512A48FEF70EFD01282FD04FF4006107
:101A50002648FEF707FD012818BFBDE8F88F4FF4B0
:101A600000512248FEF7FEFC002818BFBDE8F88FA1
:101A70009620C6F88852C6F88042C8F80000C6F81A
:101A80008442C6F88C528C21C9F80010C7F88842ED
:101A9000CAF8A052AA21CBF80010C7F88052184902
:101AA000C1F8904217490860BDE8F88F9620C6F843
:101AB0008842C6F88052B421C8F80010C6F8845293
:101AC000C6F88C42C9F80000C7F88852CAF8A0428C
:101AD000AA20CBF80000C7F880420948C0F890520D
:101AE000084898210160BDE8F88F0000000C024012
:101AF000008041423C0401400080404200004242DC
:101B0000000041423404014010B5194C40F2255107
:101B1000204600F03CF8002808BF10BD204600F029
:101B2000D1F8C2B21348018811F4004F18BF10BD9C
:101B300011F4804F4FF0000306D00A2A08BF41F489
:101B4000004112D0038010BD0D2A08BF41F480412E
:101B50000BD0C1F30D0C084C491C89B204F80C20C1
:101B60000180FE2998BF10BDECE7018010BD000088
:101B70000048004020000020380000200029818912
:101B800014BF41F4005121F400518181704710B419
:101B900001F01F0201240023C1F3421C04FA02F2E7
:101BA000BCF1010F04BFB0F80CC00CEA020208D06F
:101BB000BCF1020F0CBFB0F810C0B0F814C00CEAB2
:101BC0000202090A008804FA01F10840002A1CBF39
:101BD00000280123184610BC7047C1F3421301F0DE
:101BE0001F014FF0010C0CFA01F1012B08BF0C3062
:101BF00003D0022B0CBF10301430002A026814BF2F
:101C0000114322EA010101607047000030B504462B
:101C1000008A85B00D46C98820F4405008432082D0
:101C2000A089A9882A8920F4037011436A8920F4C5
:101C3000A05010430843A081A08AA98920F44070D5
:101C40000843A0826846FFF741F9A4F18040B0F54F
:101C500088301BBFA4F18040B0F58A300398029809
:101C6000A18911F4004F00EBC00101EB00102968BD
:101C700014BF49008900B0FBF1F0114A6FF0180C55
:101C8000A2FB0031490909010B0903FB0CF300EB2E
:101C90008300A38913F4004F4FF0320314BF03EB0A
:101CA000C00003EB0010A2FB00204FEA501014BF4D
:101CB00000F0070000F00F000843208105B030BDA0
:101CC0001F85EB518088C0F308007047FEE702E0F3
:101CD00008C8121F08C1002AFAD1704770470020B7
:101CE00001E001C1121F002AFBD1704710B5A020EE
:101CF000FFF73AFA2820FFF741FAB420FFF748FA35
:101D0000BDE810403C20FFF725BA000010B582B0B6
:101D100001211020FFF79EF801218DF80410002109
:101D20008DF80610032102208DF80510064C009056
:101D30008DF8070069462046FEF736FB0221204653
:101D4000FEF797FB02B010BD0010024070B50C4CBE
:101D50000025C4F88452642004F5217400F028F8AA
:101D600001262660642000F023F82560642000F03E
:101D70001FF82660642000F01BF8256070BD00008D
:101D80000000424210B504466FF00400FFF70AFA63
:101D90000648E10801EB41020170C2EBC1114FF6A8
:101DA000FF7202EAC101418010BD00002200002044
:101DB0004FF40771B0FBF1F212F0FF0CB0FBF1F23F
:101DC00070B401FB12041E4E4FF000034FF0E020F0
:101DD0001BD071884FF4077201FB02F545618361E6
:101DE000016941F001010161016911F0010F02D0A7
:101DF00011F4803FF8D0016921F001010161836194
:101E0000ACF1010111F0FF0CE8D1002C04BF70BC53
:101E100070477188614341618361016941F001014B
:101E20000161016911F0010F02D011F4803FF8D077
:101E3000016921F001010161836170BC70470000FC
:101E4000220000200C49097841434FF0E020416115
:101E500000238361016941F001010161016911F011
:101E6000010F02D011F4803FF8D0016921F0010187
:101E7000016183617047000022000020F0B501215C
:101E80008BB00846FEF7F2FF01210846FEF7E2FF9D
:101E900001210220FEF7DEFF274E01220F213046EE
:101EA000FEF7CFFA254F012203213846FEF7C9FA83
:101EB00002244FF400408DF81440012504908DF861
:101EC00017508DF8154004A93046FEF76DFA08202A
:101ED0008DF81C4006908DF81F508DF81D4006A906
:101EE0003846FEF761FA6007FFF75DFA00244FF607
:101EF000FF70ADF800400190ADF80840ADF8024029
:101F00006946A807FFF71AFD0A231A460321580756
:101F1000FFF723FB08A8FFF7DCFB0620ADF828003D
:101F200008A9A807FFF742FBA80744620121FFF7B1
:101F300026FA0BB0F0BD0000000002400004024091
:101F400030B589B001210220FEF790FF012108463B
:101F5000FEF780FF214C022206212046FEF771FA8F
:101F6000022207212046FEF76CFAC02002210490CD
:101F70008DF8141001208DF817008DF8151004A9A4
:101F80002046FEF711FA164D2846FFF70CFA0024FA
:101F90004FF6FF70ADF800400190ADF80840ADF885
:101FA000024069462846FFF7C9FC0A231A46032166
:101FB0002846FFF7D2FA06A8FFF78BFB0620ADF8FC
:101FC000200006A92846FFF7F1FA0648046001211F
:101FD0002846FFF7D4F909B030BD000000000240E8
:101FE000000400402404004030B589B001210420E1
:101FF000FEF73CFF01210220FEF72CFF214C0222BC
:1020000006212046FEF71DFA022207212046FEF790
:1020100018FAC020022104908DF8141001208DF8C8
:1020200017008DF8151004A92046FEF7BDF9164DCE
:102030002846FFF7B8F900244FF6FF70ADF80040CE
:102040000190ADF80840ADF8024069462846FFF718
:1020500075FC0A231A4603212846FFF77EFA06A8D4
:10206000FFF737FB0620ADF8200006A92846FFF74A
:102070009DFA0648046001212846FFF780F909B05F
:1020800030BD000000040240000800402408004069
:1020900030B589B001210820FEF7E8FE012108468D
:1020A000FEF7D8FE214C022200212046FEF7C9F996
:1020B000022201212046FEF7C4F9032002210490E8
:1020C0008DF8141001208DF817008DF8151004A953
:1020D0002046FEF769F9164D2846FFF764F90024FB
:1020E0004FF6FF70ADF800400190ADF80840ADF834
:1020F000024069462846FFF721FC0A231A460321BD
:102100002846FFF72AFA06A8FFF7E3FA0620ADF8FB
:10211000200006A92846FFF749FA06480460012175
:102120002846FFF72CF909B030BD0000000002403E
:10213000000C0040240C004010B50020FFF70AF806
:102140003220FFF711F88C20FFF718F8BDE8104097
:10215000B420FFF71DB8000082B0A820FFF712FEE0
:102160004FF4A060FEF7E2FA4FF4165000F0CEFAFA
:1021700040F24F1142F20F7000F032FA42F2CF01FA
:102180003120FFF7C9F8532140F2E73000F00AF997
:1021900000F084F9FFF7BAFDFEF74CFAFEF76CF990
:1021A000FEF732FBFEF7CCFAFEF724FFFEF798FFAE
:1021B000FEF77CFFFEF760FFFFF760FEFFF7C0FE53
:1021C000FFF712FFFFF764FFDFF8BC91DFF8B0B153
:1021D00001246C4D6D4EC82709F1040A4FF0D20856
:1021E000C5F8884267490020C1F88002C9F800702C
:1021F000C1F88402C1F88C42CAF80070C6F888029F
:102200006348C0F8A0426348C0F80080C6F8804226
:1022100061480021C0F890126048C0F80080C114E5
:102220005846FEF71FF90128DAD1C1025846FEF7D9
:1022300019F90128D4D100F0B5F903204FF0000BB3
:102240000090C820FFF7B4FD00980BF1010B834507
:10225000F7DBDFF84CB10020CBF800006FF018017D
:1022600041434FF4167000EB8100FFF7A7FBDBF84A
:1022700000000628F2DB00F095F9494900200860CB
:1022800000F090F9FFF762FD04204FF0000B009082
:10229000C820FFF78DFD00980BF1010B8345F7DB9C
:1022A000FFF74AFF05204FF0000B0090C820FFF712
:1022B0007FFD00980BF1010B8345F7DBDFF8E0B001
:1022C000C82000F037F9DBF800000328F8DB00F045
:1022D00069F9334900200860FFF708FD08204FF036
:1022E000000B0090C820FFF763FD00980BF1010B75
:1022F0008345F7DB00F056F9FFF728FD2849002059
:102300004FF0000B086004200090C820FFF750FD3C
:1023100000980BF1010B8345F7DB21491D4B002091
:102320001B4ADFF874C0A3F1040B0860C5F88842AB
:10233000C5F88002BE21C9F80010C5F88402C5F8AE
:102340008C42CAF80070C6F88802C2F8A042C3F8EE
:102350000080C6F88042CCF89002F021CBF8001043
:102360000328E3DB00F01EF900F01CF9042500242B
:10237000C820FFF71DFD641CAC42F9DBF4E7000048
:10238000000C0240008041423C0401400080404279
:102390000000424238040140000041423404014040
:1023A000000000202DE9F0410D4606468CB00121C9
:1023B0000220FEF773FD01210420FEF74BFDDFF83C
:1023C000D480032206214046FEF73BF80322072172
:1023D0004046FEF736F8032208214046FEF731F862
:1023E000032209214046FEF72CF84FF47F70069037
:1023F00002208DF81C008DF81D0000248DF81E4071
:1024000001278DF81F7006A94046FDF7CDFFADF8F6
:102410002050214DADF822400996ADF8284008A97A
:102420002846FFF78BFA6846FFF775FA6020ADF88B
:1024300000000294ADF80270ADF80C4069462846E1
:10244000FFF757F908212846FFF787F9694628461C
:10245000FFF789F908212846FFF7CAF96946284697
:10246000FFF7D0F908212846FFF712FA69462846F7
:10247000FFF714FA08212846FFF743FA01212846FE
:10248000FEF77DFF01212846FEF782FF0CB0BDE874
:10249000F0810000000802400004014070B588B0DF
:1024A00001211E20FEF7D6FC01248DF804400225F0
:1024B0000F208DF80550002600908DF806608DF8ED
:1024C000074069461748FDF76FFF8DF80C4005205F
:1024D0008DF80D5002908DF80E608DF80F4002A916
:1024E0001148FDF761FF8DF8144010208DF815504C
:1024F00004908DF816608DF8174004A90B48FDF77D
:1025000053FF8DF81C4020028DF81D5006908DF869
:102510001E608DF81F4006A90548FDF745FF08B06D
:1025200070BD0000000C02400004024000080240A0
:1025300000100240164B10B40021C3F8881201228B
:10254000C3F88022134C00F11E0CC4F800C0C3F87D
:102550008412C3F88C2204F1040CA0F11E03CCF801
:1025600000300D4BC3F88822DFF830C0CCF8A01241
:10257000241F00F10A0CC4F800C0C3F88022084AE6
:10258000C2F89012211F1430086010BC7047000080
:10259000008041423C040140008040420000424231
:1025A000000041420A490020C1F88802C1F88002B7
:1025B000C1F88402C1F88C020649C1F88802064AB3
:1025C000C2F8A002C1F880020449C1F89002704725
:1025D00000804142008040420000424200004142EF
:1025E000F0B50D46064601218BB00846FEF756FCB5
:1025F00001210804FEF752FC01210846FEF72AFCDF
:102600003F4F012208213846FDF71BFF0122092117
:102610003846FDF716FF01220A213846FDF711FF63
:1026200001220B213846FDF70CFF03220221384618
:10263000FDF707FF40F60470089002208DF8240093
:102640008DF8250000248DF8264008A93846FDF7AE
:10265000ABFEADF814502B4DADF816400696ADF814
:102660001C4005A92846FFF769F9274E05A9304601
:10267000FFF764F96846FFF74EF96020ADF80000F7
:102680000120ADF802000294ADF80C4069462846DE
:10269000FFF72FF808212846FFF75FF8694628461C
:1026A000FFF761F808212846FFF7A2F86946284697
:1026B000FFF7A8F808212846FFF7EAF869462846F8
:1026C000FFF7ECF808212846FFF71BF9694630466A
:1026D000FFF70FF808213046FFF73FF801212846A1
:1026E000FEF74DFE01212846FEF752FE012130463D
:1026F000FEF745FE01213046FEF74AFE0BB0F0BD65
:102700000000024000000140004001402DE9F0417E
:10271000074688B001210220FEF79CFB01218804B6
:10272000FEF7A4FBDFF8908007220A214046FDF760
:1027300088FE07220B214046FDF783FE02258DF817
:1027400014504FF440608DF81550002404908DF81B
:10275000164001268DF8176004A94046FDF724FEB7
:10276000DFF85880012240F225514046FFF735FA44
:1027700027208DF8180003208DF819008DF81A50C5
:102780008DF81B6006A8FDF799FFADF808400C20F6
:10279000ADF80440ADF80A000097ADF80640ADF87A
:1027A0000C4069464046FFF731FA01214046FFF7E9
:1027B000E5F908B0BDE8F08100040240004800409F
:1027C000E02700080000002038000000CE1C0008B0
:1027D000182800083800002000050000DE1C000852
:1027E00000000000000000000000000000000000E9
:1027F00000000000000000000000000000000000D9
:1028000000000000000000000000010203040102BB
:0828100003040607080900009B
:040000050800018965
:00000001FF
