:020000040800F2
:100000002000012081020008D53E010841140108AA
:10001000C53D01088D3000089DB6010800000000B4
:10002000000000000000000000000000B302000813
:10003000A56A00080000000081200008955A010808
:10004000BB020008BB020008BB020008BB0200089C
:10005000BB020008BB020008BB020008BB0200088C
:10006000BB020008BB020008BB020008BB0200087C
:10007000BB020008BB020008BB020008BB0200086C
:10008000BB020008BB02000885230008BB02000871
:10009000BB020008BB020008BB020008BB0200084C
:1000A000BB020008BB020008BB020008BB0200083C
:1000B000BB020008BB020008BB020008BB0200082C
:1000C000BB020008BB020008BB020008BB0200081C
:1000D000BB02000839B40108BB020008BB020008DB
:1000E000BB020008BB020008BB020008BB020008FC
:1000F00065A70108BB020008BB020008BB0200089C
:10010000BB02000849870108BB020008BB020008C7
:10011000BB020008BB020008BB020008BB020008CB
:10012000BB020008BB020008BB020008AD3C00088F
:10013000BB020008BB020008BB020008BB020008AB
:10014000BB020008BB020008BB020008BB0200089B
:10015000BB020008BB020008BB020008BB0200088B
:10016000BB020008BB020008BB020008BB0200087B
:10017000BB020008BB020008BB020008BB0200086B
:10018000BB020008BB020008BB020008BB0200085B
:10019000BB020008BB020008BB020008BB0200084B
:1001A00055390108BB020008A13C00084B1C012B7B
:1001B00098BF70472DE9F003911C9B08B1F80480AB
:1001C000B1F802900A8831F802CC8044814402449C
:1001D0008444D9F80070D8F800601568DCF8004055
:1001E000C9F80060C8F80070CCF800501460D9F865
:1001F0000470D8F804605568DCF80440C9F804605D
:10020000C8F80470CCF80450546008315B1ED5D196
:10021000BDE8F00370474B1C012B98BF70472DE9D8
:10022000F003911C9B08B1F80480B1F802900A8891
:1002300031F802CC00EB580800EB590900EB5202F0
:1002400000EB5C0CD9F80070D8F800601568DCF899
:100250000040C9F80060C8F80070CCF80050146085
:1002600008315B1EDFD1BDE8F0037047DFF80CD02A
:1002700001F004FE0048004755C902082000012093
:100280000E488047DFF83800016841F470010160D2
:10029000BFF34F8FDFF82C00016821F0404101606F
:1002A000BFF36F8F08480047FEE7FEE7FEE7FEE773
:1002B000FEE7FEE7FEE7FEE7FEE7FEE71DA2010818
:1002C00088ED00E034EF00E06D02000872B6704780
:1002D00062B67047EFF3108072B6704780F31088F3
:1002E000704730BF704720BF7047B0FA80F070474A
:1002F00090FAA0F0B0FA80F0704790FAA0F0704742
:100300009FED3D0A5FEA920C57D000BFD0ED000A86
:1003100090ED011A0B1D60EEA00A083041EE010AB3
:10032000F5EEC00AF1EE10FAA6BFB1EEE01A81EDCB
:10033000001A81ED000AD0ED000A90ED011A191D96
:1003400060EEA00A083041EE010AF5EEC00AF1EEB7
:1003500010FAA6BFB1EEE01A83ED001A83ED000A91
:10036000D0ED000A90ED011A0B1D60EEA00A0830D6
:1003700041EE010AF5EEC00AF1EE10FAA6BFB1EEA9
:10038000E01A81ED001A81ED000A90ED001AD0ED1F
:10039000010A191D21EE011A083000EEA01AB5EE6F
:1003A000C01AF1EE10FAA6BFF1EEC10AC3ED000AC1
:1003B00083ED000ABCF1010CA8D112F0030208BFC2
:1003C000704700BFD0ED000A90ED011A0B4660EEB9
:1003D000A00A091D083041EE010AF5EEC00AF1EE4F
:1003E00010FAA6BFB1EEE01A83ED001A83ED000A01
:1003F000521EE7D170470000000000002DE9F00F09
:100400006FF003042DED0C8B5FEAD30AD0E901C72E
:10041000B0F8009004EB89040CEB04089FEDFE9A01
:1004200018BF4FEAD90B00F0C18100BF91ED000A5F
:10043000B0EE493A88ED000A91ED010AF0EE430A68
:1004400088ED010A91ED020AB0EE431A88ED020A26
:1004500091ED030AF0EE431A88ED030A91ED040AC8
:10046000B0EE432A88ED040A91ED050AF0EE432A26
:1004700088ED050A91ED060AF0EE433A88ED060A8A
:1004800091ED070A203188ED070ADCED007A9CED3A
:10049000017ADCED026A9CED036ADCED045A9CED06
:1004A000055ADCED064AB0EE434A3D460CF11C0409
:1004B00008F120085FEA0B0600F02681D5ED008ADE
:1004C00094ED008A26EE280A65EEA89A25EE28AA61
:1004D00027EEA8BA64EEA8AA67EE28BA26EEA8CA44
:1004E00068EE28CAD5ED018A32EE000A32EEA92A5A
:1004F00073EE0A2A30EE8BBA33EEAA3AD5ED020A31
:1005000074EE2C3A71EE8C1AD4ED017A31EE2B1A7E
:1005100027EE28DA26EEA8CA66EE28BA25EEA84A03
:1005200065EE289A24EEA8AA68EE28AA67EEA8CA63
:1005300094ED027A7BEE0D8A31EE0C1A71EEAB1A55
:1005400030EE040A32EE292A72EE8A2A33EE2A3A73
:1005500073EEAC3A66EEA0CA66EE20BA65EEA09ADB
:1005600025EE20AA24EEA04A68EE20AA27EEA0BA23
:1005700027EE20CAD5ED030AD4ED036A30EE0A0A4D
:1005800032EE042A78EEAC8A31EE2B1A71EEA91AFB
:1005900072EEAA2A33EE0B3A73EE8C3A66EE20CA5C
:1005A00065EEA0BA65EE209A24EEA04A28EE20AAB5
:1005B00067EEA0AA27EE20BA26EEA0CAD5ED040A5F
:1005C00078EEAC8A31EE2B1A71EEA91A30EE040ADD
:1005D00032EE0A2A72EEAA2A33EE0B3A73EE8C3A06
:1005E00065EEA0CA94ED046A65EE20BA24EEA0BAC6
:1005F00028EE204A67EEA09A27EE20AA66EEA0AA6F
:1006000026EE20CAD5ED050AD4ED055A31EE2B1A97
:1006100071EE8B1A78EEAC8A30EE040A32EE292A9B
:1006200072EE8A2A33EE2A3A73EE8C3A65EE20CACD
:1006300024EEA0BA68EE20BA27EEA04A67EE209A10
:1006400026EEA0AA66EE20AA25EEA0CAD5ED060ADF
:1006500030EE040A32EE292A27EE204A94ED065A9B
:1006600072EE8A2A66EEA09A78EEAC8A31EE0B1A08
:1006700071EEAB1A33EE2A3A73EE8C3A26EE20AACC
:1006800065EEA0AA64EEA0BA28EE20CA27EEA0BAB2
:1006900065EE20CAD5ED070A30EE040A32EE294A8B
:1006A00072EE8A9A33EE2AAAD4ED074A31EE0C1A7A
:1006B00078EEAB8A28EE20CA71EE8B1A73EEACAAE4
:1006C00066EE202A67EEA0BA27EE20BA26EEA02A10
:1006D00025EEA03A65EE203A24EEA08A74EE222A96
:1006E00078EE8C0A31EE2B1A71EE8B1A30EE022A5C
:1006F00039EE833A7AEE233A3AEE884A20342035AE
:10070000761E7FF4DBAE00BF19F0070636D000BFBF
:1007100095ED008A94ED000A241D67EE889A67EE35
:10072000088A26EE88AA66EE08AA25EE88BA65EE43
:1007300008BA24EE88CA20EE088AF0EE477AB0EEB6
:10074000667AF0EE466AB0EE656AF0EE455A70EEF3
:10075000A90A31EE281A71EE8A1A32EE2A2A72EEAE
:100760008B2A33EE2B3A73EE8C3A34EE084AB0EE15
:10077000645A2D1DF0EE404A761EC9D1C2ED000A22
:1007800082ED011AC2ED021A82ED032AC2ED042A9B
:1007900082ED053AC2ED063A82ED074A2032BAF1FF
:1007A000010A0CF1200C7FF441AE00BF13F0070AE0
:1007B00043D000BFB1EC010A3E1D0CF10404B9F1B5
:1007C0000103A8EC010ADCED000A97ED001AB0EE77
:1007D000490A00EE810A29D0B3F1004F7DD2002BE7
:1007E00024DD251F341F13F0010F07D0D5ED010ABA
:1007F00094ED011A241D2D1D00EE810A5B1015D009
:10080000D5ED010A94ED011A00EE810AD5ED020A38
:1008100094ED021A02E000000000000000EE810AE0
:100820005B1E04F1080405F10805E9D1A2EC010AF8
:10083000BAF1010A0CF1040CBCD14068A9F1010421
:10084000A3081FD0B3F1004F54D2002B1ADD62462B
:1008500001461D4692ED000A81ED000A92ED010A63
:1008600081ED010A92ED020A81ED020A92ED030A7E
:10087000103281ED030A10316D1EEBD10CEB031C1D
:1008800000EB031014F0030202BFBDEC0C8BBDE8BB
:10089000F00F7047B2F1004F42D2002A1ADD001F5C
:1008A000ACF1040112F0010F05D091ED010A80EDC9
:1008B000010A001D091D52080CD000BF91ED010A6C
:1008C00080ED010A91ED020A083180ED020A08303C
:1008D000521EF3D1BDEC0C8B00E002E0BDE8F00F3E
:1008E0007047F4EC010A5B1EB6EC011A00EE810AB7
:1008F000F7D19BE79CED000A80ED000A9CED010A10
:1009000080ED010A9CED020A80ED020A9CED030ACB
:100910000CF1100C80ED030A10305B1EEAD1B1E738
:10092000BCEC010A521EA0EC010AF9D1D2E770B565
:1009300004460498218008448000011F1D46184683
:10094000A26001F02DF8656070BD91ED000AD1ED57
:10095000010AD0F814C030EE001A70EEA00A008828
:10096000B6EE000A431E71EE201A71EE600A0CF119
:10097000080001EBC30C61EE801A60EE800A0831BA
:10098000C2ED001AC2ED010A08329CED003A91ED69
:10099000001ADCED010AD1ED011A73EE413AD0EDF7
:1009A000002A90ED012A30EEA14A62EEA34A31EE10
:1009B000031A62EE233A71EEE00A22EE042A31EEC7
:1009C000241A62EE842A70EEA30A083031EE021A6D
:1009D000083170EEE20AACF1080C21EE001A60EE6C
:1009E000800A82ED001AC2ED010A08325B1ECCD1EA
:1009F0007047D1ED000A91ED011AD0F814C00088BB
:100A000070EE811A70EEC10AB6EE000A431E61EE66
:100A1000801A60EE800A0CF10800C2ED001AC2EDE7
:100A2000010A01EBC30C01F1080102F1080208BF41
:100A30007047DCED010A9CED003A91ED002A91ED42
:100A4000011A90ED004A72EE431AD0ED013A71EEB0
:100A5000202A32EE032A64EE214A63EEA11A71EED7
:100A6000600A23EEA25A32EE642A64EE222A70EE65
:100A7000A10A083032EE452A083170EEE20AACF1E4
:100A8000080C22EE002A60EE800A82ED002AC2EDF8
:100A9000010A08325B1ECCD170472DE9F0410446B3
:100AA000008A1D004FEA500016460F4620800AD0EB
:100AB0002046FFF79EFF2A4631462046BDE8F0411A
:100AC000012300F001BC01232A46204600F0FCFB74
:100AD000324639462046BDE8F04136E74A08002351
:100AE00002800182B2F5807F31D008DC102A4FD01D
:100AF000202A45D0402A3BD0802A31D008E0B2F5E8
:100B0000007F1BD0B2F5806F0FD0B2F5006F03D01D
:100B10004FF0FF33184670474FF46E628281214ACE
:100B20008260214A2149426039E04FF4E1628281CA
:100B30001F4A82601F4A2049426030E04FF4E07251
:100B400082811E4A82601E4A1E49426027E04FF49D
:100B5000DC7282811C4A82601C4A1D4942601EE090
:100B6000D02282811B4A82601B4A1C49426016E0E7
:100B7000382282811A4A82601A4A1B4942600EE07A
:100B800030228281194A8260194A1A49426006E07D
:100B900014228281184A8260184A194942604161D0
:100BA000B8E7000024C705088C6F05086424060810
:100BB00014B905088C4F05086404060894B50508A7
:100BC0008C3F050864F4050824B205088C37050835
:100BD00064EC050884B005088C33050864E8050852
:100BE00014B005088C31050864E60508B4AF0508A3
:100BF0008C30050864E505088CAF05080C30050845
:100C0000E4E405089FED391A10B4B0EE410A5FEA3A
:100C1000910C1ED0BCF1004F4CD2BCF1000FC4BFF0
:100C20000346644615DD00BFD3ED000A00EEA00ABE
:100C3000D3ED010A00EEA00AD3ED020A00EEA00AED
:100C4000D3ED030A1033641E00EEA00AECD100EBD2
:100C50000C1011F003031AD0B3F1004F3FD2002B58
:100C600015DD001F13F0010F04D0D0ED010A001DA7
:100C700000EEA00A5B080AD0D0ED010A00EEA00A3F
:100C8000D0ED020A08305B1E00EEA00AF4D100EE9F
:100C9000901AF8EE601AC0EE210AF5EEC00AF1EEE5
:100CA00010FAA6BFB1EEE00A82ED000A82ED001A4A
:100CB00010BC7047D0ED000A00EEA00AD0ED010A8A
:100CC00000EEA00AD0ED020A00EEA00AD0ED030A61
:100CD0001030BCF1010C00EEA00AEBD1B9E7F0EC4A
:100CE000010A5B1E00EEA00AF9D1D0E70000000067
:100CF0002DE9F04106462DED028B8C460088736885
:100D000001EB80044508274601EB850004EB8502D2
:100D10005FEA95087DD000BFD1ED003AD4ED001A0E
:100D200091ED012A94ED013A73EEA16A91ED024A28
:100D300091ED031AD4ED022AD4ED035A90ED008A06
:100D400090ED017A90ED020A90ED036A92ED005A5F
:100D5000D2ED014AD2ED027AD2ED030AC1ED006A6A
:100D600072EE036A73EEE13A74EEC71AC1ED016ADE
:100D700074EE226A74EE622A37EEC04AC1ED026A4E
:100D800071EE256AC1ED036A72EE436A31EE652A9F
:100D900038EE051A35EE483A80ED001A37EE241A7F
:100DA00080ED011A30EE271A80ED021A36EE201A75
:100DB00080ED031A30EEC61A93ED000AD3ED010A56
:100DC00063EE804A26EEA05A66EE805A63EEA03AA1
:100DD00074EE854A75EEE33AC4ED004A63EE204AAC
:100DE000C4ED013A61EE803A61EEA00A23EE000AFA
:100DF00074EEE31A30EE800AC2ED001A82ED010AA9
:100E000093ED020AD3ED030A62EE803A22EE203A15
:100E100000E024E062EEA01A22EE002A73EE832A9C
:100E20001030103172EE611AC4ED022A24EE202A2D
:100E3000C4ED031A61EE001A61EE200A24EE000AE6
:100E4000103332EE611A103430EE800A82ED021A4D
:100E500082ED030A1032B8F101087FF45DAF294634
:100E600002236046726800F0D5FA72682946BDEC2C
:100E7000028B3846BDE8F041022300F0CBBA2DE9E1
:100E8000F34F2DED048B87B00B980088470801EBDA
:100E9000870000EB870606EB8705CDE90056DDF8F5
:100EA0002C80A5F1040C0CEB8703CDE902014FEA7D
:100EB0005709D8F804800427CDE90497D1ED000A3A
:100EC00096ED000A90ED011A95ED013A70EE802A38
:100ED00070EEC03AD1ED010A96ED010A041F321FEF
:100EE00030EE802A70EEC01A31EE230AD0ED000AEF
:100EF00032EE415A33EEC11A30EE434A71EEE04A07
:100F000095ED000A70EEA11A35EE435A74EE805A40
:100F100072EEE04A70EEA20A71EEC01A31EE031AC8
:100F200074EEC04A30EE800A062708F1080A81ED07
:100F3000000A90ED010AD5ED010A08F1100B30EE20
:100F4000020A08F1180830EE200A81ED010A80ED4E
:100F5000004AC0ED015AC6ED004A86ED015A85ED02
:100F6000001AC5ED011ADDF8109008300831083577
:100F70000836A9F102095FEA590900F0078100BFAC
:100F8000D1ED000A96ED000AD0ED011AD5ED014A27
:100F900030EE802A30EEC05AD1ED010A96ED010AFA
:100FA00070EE802A30EEC01A31EE850AD5ED000AC7
:100FB00030EE644A90ED000A31EE403A30EE011A0C
:100FC00073EE205A32EE403A30EE020A31EE601AE9
:100FD00073EE603A30EE200A32EEE13A75EE611AB5
:100FE00081ED000A90ED010AD5ED010A33EE643A75
:100FF00030EE220A71EEA41A30EE200A81ED010AC9
:10100000D4ED002ADCED004A54ED010A1CED010A82
:1010100032EEA47A32EEE49A72EEE42A52ED018ABC
:1010200070EE807A30EEC02A72EEE82AD2ED000A25
:1010300093ED000A13ED018A30EEC05A72EE886A11
:1010400077EEE82A35EE026A32EEC85A77EE602A69
:1010500072EEC04A70EEC02A70EE870A72EEC22AA3
:1010600030EE800A38EE682A84ED000A12ED010A9B
:1010700053ED010A32EE492A30EE270A30EE200AFB
:1010800004ED010A9AED000ADAED010A64EE007A35
:1010900025EEA07A65EE805A24EE204A37EE877A54
:1010A00035EEC44A80ED007A80ED014A26EEA04A72
:1010B00066EE005A66EE200A26EE800A083034EE0C
:1010C000654A083130EE800A82ED004A083C02EDA4
:1010D000010A9BED000ADBED010ADDF814E023EEC6
:1010E000804A63EE205A23EE003A63EEA03A083AB3
:1010F00034EE254A0BEB8E0B33EE633A86ED004A55
:101100000AF1080A86ED013AB1EE643A083663EE58
:10111000003A25EE203A25EE000A64EEA00A33EEEE
:10112000C33A30EEC00A8CED003A0CED010A98ED9E
:10113000000AD8ED010A08EB870861EE803A21EE3B
:10114000203A21EE001A61EEA01AACF1080C33EE41
:10115000833A31EE611A85ED003A62EE801A85ED30
:10116000011A22EE201A62EEA00A22EE000A0835C9
:1011700031EE611A30EE800A83ED001A03ED010AA8
:10118000083BB9F101097FF4FBAE00BFD1ED000AC5
:1011900096ED000A91ED011AD0ED015A30EE802A49
:1011A00070EEC00A96ED010A95ED015A042371EE26
:1011B000001A71EE404A35EEA00A90ED001A31EEA9
:1011C000E54A70EEE50A30EE453A95ED000A34EE58
:1011D000454A30EE855A74EEC12A72EE413A71EEFC
:1011E000240A31EE021A72EE802A73EEC03A70EED3
:1011F000C00A31EE000A81ED000A90ED010A95ED7A
:10120000011A30EE210A30EE010A81ED010A9AED51
:10121000000A9AED011A63EE001A22EE812A22EEEC
:10122000800A23EE011A71EE821A30EE410AC0EDF7
:10123000001A80ED010A9BED000A9BED011A63EE96
:10124000801A24EE012A24EE000A23EE811A71EEA0
:10125000821A30EE410AC6ED001A86ED010A98EDB9
:10126000010A98ED001A60EE801A25EE012A60EE60
:10127000810A25EE000A32EE211A30EEC00A85ED11
:10128000001A85ED010A0B984268DDE9030100F0C0
:10129000C1F80B98042304994268029800F0BAF848
:1012A0000B98042304994268019800F0B3F80B9856
:1012B000049904234268009807B0BDEC048B02B087
:1012C000BDE8F04F00F0A6B82DE9F041048898463B
:1012D00017460D460646012A20D1281DF4B1A0F17B
:1012E000080114F0010F06D091ED020AB1EE400A98
:1012F00081ED020A08315FEA540C0FD091ED020A29
:10130000B1EE400A81ED020A91ED040AB1EE400A05
:1013100081ED040A1031BCF1010CEFD1B4F5807FEE
:101320001BD008DC102C13D0202C16D0402C19D048
:10133000802C0DD01CE0B4F5007F13D0B4F5806F85
:1013400006D0B4F5006F08D0B4F5805F0AD00FE086
:1013500029463046FFF7CCFC0AE029463046FFF725
:101360008EFD05E0214601232846726800F052F800
:10137000B8F1000F04D0B1892846B268FEF716FF15
:10138000012F18BFBDE8F08100EE104AB7EE001A39
:10139000002CF8EE400A81EE200A08BFBDE8F0817B
:1013A000A5F1080014F0010F0ED0D0ED020A60EE96
:1013B000800AC0ED020AD0ED030AF1EE600A60EE89
:1013C000800AC0ED030A0830610808BFBDE8F0815B
:1013D000D0ED020A60EE800AC0ED020AD0ED030AE9
:1013E000F1EE600A60EE800AC0ED030AD0ED040A57
:1013F00060EE800AC0ED040AD0ED050AF1EE600A45
:1014000060EE800AC0ED050A1030491EE0D1BDE84B
:10141000F08100002DE9FF4F2DED108B82B09FED84
:10142000FEFA0B461C46DB084FF0000C0CEB0305E4
:1014300005EB030808EB030909EB030606EB030AB7
:1014400000EBCC0700EBC60697ED001AD6ED000ABC
:101450000AEB030B00EBC50500EBCA0A31EE200ACC
:1014600071EE601A95ED002ADAED000A0BEB030E1F
:1014700000EBC80832EE201A00EBCB0B32EE602AEC
:10148000D8ED002ADBED000A00EBC90900EBCE0E17
:1014900099ED003A9EED004A72EEA03A72EEE02A13
:1014A00073EE040A33EE443A70EE636A70EE233A48
:1014B00031EE600A71EE200A33EEA01A73EEE00AF4
:1014C00087ED001AC6ED000A97ED011AD6ED010A64
:1014D000D5ED013A98ED014A31EE206A71EE600ACD
:1014E0009AED011A99ED015A73EE814A73EEC13AF1
:1014F0009BED011A34EE017A34EE411A9EED014A59
:1015000075EE045A35EE444A36EE475A36EE076A0F
:1015100034EEE57A74EEA54A76EE245A76EE644A05
:10152000C7ED015AC6ED014A76EE874AC8ED004A7A
:1015300076EEC74ACBED004A75EE404A35EE000A1A
:10154000C8ED014A8BED010A32EE430A32EE032A5E
:1015500020EE0F0A62EE0F4A33EEC42AA4448C45F3
:1015600022EE0F3A33EE842A30EEC34A62EE0F3A8F
:1015700030EE833A31EEC02A31EE800A71EE630A12
:1015800031EE231A72EEE41A72EEA42A70EE013ADA
:1015900030EE410AC5ED003A8EED000A32EE200A27
:1015A0008AED000A32EE600A89ED000A33EE620A23
:1015B00085ED010A33EE220A8EED010A34EE610A4E
:1015C0008AED010A34EE210A89ED010AFFF42EAFFB
:1015D000082B3FBF02B0BDEC108B04B0BDE8F08F0C
:1015E0004FF0000CCDF804C04FF0010CCDF800C056
:1015F000DDF804C0159DAC444FEA8C0505EB0C07E3
:10160000CDF804C007EB0C094FEA4C0808EB0C06B8
:1016100009EB0C0A02EBCC0C02EBC80802EBC60685
:1016200002EBC50502EBC70702EBC90902EBCA0AC8
:101630009CED00DA9CED018AD8ED00CA96ED00CA57
:10164000D5ED00BA97ED00BAD9ED00AADAED008A1F
:10165000D8ED017A96ED01AA95ED017AD7ED016AF0
:1016600099ED016ADAED019ADDF800C00CEB030791
:10167000FD1805EB030A0AEB030808EB030606EB6B
:10168000030B00EBCC0900EBC808D9ED000A98ED7C
:10169000000A00EBC70700EBC606D7ED001A96ED6F
:1016A000001A70EE803A0BEB030E70EEC00A31EEBA
:1016B000810A00EBC50500EBCB0B31EEC11AD5ED6D
:1016C000001A9BED002A00EBCA0A00EBCE0E31EEA9
:1016D000824A71EEC21A9AED002ADEED002A32EE3D
:1016E000223A32EE622A73EEC42A73EE843A30EE66
:1016F000435A30EE030A33EE803A73EEC0DA89EDD6
:10170000003A99ED010A98ED013AD7ED013A95EDCD
:10171000014A70EE03EA30EE433A96ED010A9AED83
:1017200001EADEED014A33EE809A73EEC03A9BED9A
:10173000010A74EE005A34EE404A3EEE240A7EEE70
:10174000644A3EEEE5EA7EEEA55A79EE40EA39EECD
:10175000009A32EEAE0A72EEEE2A75EE89EA35EEA6
:10176000C99A7EEE455AC9ED01EA3EEE055A2BEEC6
:10177000ADEA67EE09EA2BEE899A67EE2DDA3EEEC6
:101780002EEA39EE6D9A88ED00EA67EEA5DA88ED6B
:10179000019A2CEE809A6CEEA55A27EE800A39EE5B
:1017A0002D9A35EEC00A85ED009A66EE055A85ED54
:1017B000010A2AEEA20A2AEE855A66EE222A30EEA5
:1017C000250A8BED000A35EE620A73EEA42A8BED32
:1017D000010A31EE420A31EE021A33EEE42A62EED9
:1017E0008F3A20EE0F0A21EE0F1A22EE0F2A70EE2A
:1017F000C02A30EE800A71EEC10A71EE811A33EE12
:10180000421A33EE022A34EE633A34EE234A70EE83
:10181000043A30EE444A01E0F304353F72EE834A65
:1018200072EEC32A32EE613A32EE210A71EE601A8C
:1018300071EE200A2DEE232A28EE031A2DEE033A2C
:1018400068EE233AA44432EE011A28EE842A8C452D
:1018500087ED001A33EE631A29EE843A87ED011AF8
:1018600029EE801A28EE800A32EE011A30EE430A81
:1018700026EEA42A8EED001A8EED010A2BEE240A24
:1018800026EEA11A6BEE211A30EE010A2CEE221A76
:1018900086ED000A31EEC20A6AEE221A86ED010ACE
:1018A0002AEE200A6CEE200A31EE000A8AED000AC8
:1018B00030EEE10A8AED010AFFF4D8AEDDF800C08F
:1018C0000CF1010CCDF800C063453FF691AEDDF898
:1018D00054C04FF6FF7404EACC0CCDF854C0072B6B
:1018E0003FF6A0AD02B0BDEC108B04B0BDE8F08FA8
:1018F0002DE9F05F0546002092469B468846064645
:10190000814640241BE0284641464746224600F0D7
:10191000B6F853465A46C01A914110D3114618469C
:10192000224600F09DF82D1A67EB01084F4622462B
:101930000120002100F094F817EB00094E41201E11
:10194000A4F10104DFDC484631462A464346BDE89F
:10195000F09F10B5431A934209D28318881803E008
:1019600010F8011D03F8011D521EF9D210BD40EA06
:1019700001039B0703D009E008C9121F08C0042A0D
:10198000FAD203E011F8013B00F8013B521EF9D2F4
:1019900010BDD2B201E000F8012B491EFBD2704706
:1019A0000022F6E710B513460A4604461946FFF72B
:1019B000F0FF204610BD421C10F8011B0029FBD18E
:1019C000801A7047034611F8012B00F8012B002AFA
:1019D000F9D11846704700F0004230F000400AD0BC
:1019E000C10D01F56071C0F3160042EA0151C20851
:1019F00040071143704700200146704701F0004343
:101A000030B421F0004150EA010206D00A0DA2F5DF
:101A10006072C1F31301002A02DC30BC0020704761
:101A2000440F44EAC104C100E01830BC00EBC250CE
:101A300000F035B830B50B460146002020220124C5
:101A400009E021FA02F59D4205D303FA02F5491B8C
:101A500004FA02F52844151EA2F10102F1DC30BDA2
:101A6000202A04DB203A00FA02F10020704791405E
:101A7000C2F1200320FA03F3194390407047202A53
:101A800004DB203A21FA02F00021704721FA02F328
:101A9000D040C2F120029140084319467047002906
:101AA000A8BF7047401C490008BF20F001007047E4
:101AB00010B4B0FA80FC00FA0CF050EA010404BF44
:101AC00010BC704749B1CCF1200421FA04F411FA9A
:101AD0000CF118BF012121430843A3EB0C01CB1DDE
:101AE0004FEA00614FEA102042BF002010BC70474F
:101AF00000EBC35010440029A4BF10BC7047401C29
:101B0000490008BF20F0010010BC70472DE9FE4FCE
:101B1000804681EA0300C00F0C46009021F000418E
:101B200023F00045B8EB0200A94105D2404621460A
:101B300090461C460B46024623F00040104347D017
:101B4000270DC7F30A00C3F30A510290401A01900F
:101B500040286BDAC3F3130040F4801B00989246D0
:101B600020B10023D2EB030A63EB0B0B019859461B
:101B7000C0F140025046FFF773FF06460D4650463F
:101B80005946019A00F08CF910EB080061410024DD
:101B900087EA115284EAE7731A4340D0009A62B38D
:101BA000019A012A4FEA075215DC001B61EB020182
:101BB0004FF0004202EA0752CDE90042001C41F515
:101BC000801132462B4600F08CF903B0BDE8F08F4F
:101BD00040462146F9E7001B61EB0201001C41F57C
:101BE000801300185B412018A2F5001747EB030192
:101BF00040EAD570B6196D4111E06D084FEA36061E
:101C000045EAC0754FEA0752001B61EB0201001C58
:101C100041F5801149084FEA300000195141324620
:101C20002B4603B0BDE8F04F00F04CB900980122FC
:101C300040000023D0EB020263EBE07300982146E2
:101C40004FEAE074B8EB000061EB0401E9E783F0D0
:101C500000435BE781F0004158E72DE9FE4F81EA40
:101C6000030404F0004421F0004100944FF0000B05
:101C700023F0004350EA01045ED052EA03045BD033
:101C8000C3F30A54C1F30A552C44A4F2F33401946B
:101C9000A0FB0254C1F3130141F48011C3F31303F9
:101CA00043F4801301FB024400FB034E840A970AAD
:101CB00044EA815447EA8357A4FB076802958D0ADA
:101CC00005FB07854FEA932C04FB0C542705029D66
:101CD0004FEA065847EA1637B5EB08056EEB070CD6
:101CE000870E920E47EA811742EA8312A7FB020190
:101CF000B6EB0B0164EB00042B0D43EA0C335E18CA
:101D000044EB1C50DA465146E7FB0201C5F31304CD
:101D10004FEA0B3343EA14534FEA0432019C43EA7F
:101D20000603A4F10C040294009CCDE900B400F079
:101D3000D8F803B0BDE8F08F00200146F9E72DE99F
:101D4000F04D81EA030404F0004B21F000451446F5
:101D50004FF0000A23F0004150EA050220D054EA77
:101D600001021DD0C5F30A570246C5F31303C1F3A0
:101D70001300C1F30A5640F4801543F48013A7EB17
:101D80000608101BD64608F2FD3873EB050002D397
:101D900008F1010801E092185B41B8F1000F03DA85
:101DA00000200146BDE8F08D00204FF4801106466A
:101DB00084460EE0171B73EB050705D3121B63EB7C
:101DC000050306434CEA010C49084FEA300092181B
:101DD0005B4150EA0107EDD152EA030012D082EADA
:101DE000040083EA0501084305D0101BAB4106D26D
:101DF0000122002306E000224FF0004302E06FF0D2
:101E0000010253101AEB06004CEB085110EB0A00CC
:101E100041EB0B01BDE8F04D00F054B8C1F30A529C
:101E2000C1F3130140F2FF3341F480119A4202DA08
:101E300000200146704740F233439A42A2F23342F7
:101E400002DC5242FFF71BBEFFF70ABE30B5041E8C
:101E500071F1000404DB4FF00044404264EB0101E7
:101E6000141E73F1000405DB1C464FF00043524280
:101E700063EB0403994208BF904230BD064C074D06
:101E800006E0E06840F0010394E80700984710344A
:101E9000AC42F6D3FEF7EEF984740608A474060883
:101EA000202A06DBCB17203A41FA02F043EAE0731E
:101EB00006E041FA02F3D040C2F12002914008430B
:101EC0001946704710B5141E73F1000408DA401C5F
:101ED00041F1000192185B411A4301D120F0010049
:101EE00010BD2DE9F04D92469B4611B1B1FA81F239
:101EF00002E0B0FA80F220329046FFF7B1FD0446CE
:101F00000F4640EA0A0041EA0B0153465A4608438D
:101F100013D0114653EA010019D0C8F140025046CF
:101F2000FFF7ADFD05460E46504659464246FFF7BF
:101F300097FD084305D0012004E020463946BDE85E
:101F4000F08D0020054346EAE0762C4337430A989B
:101F50006305E40AA0EB08000022FD0A44EA4754A6
:101F60000A3002D500200146E9E701051019694150
:101F7000DDE9084500196941BDE8F04DA2E770B5FB
:101F80008C1810F8015B15F0070301D110F8013B24
:101F90002A1106D110F8012B03E010F8016B01F8AB
:101FA000016B5B1EF9D12B0705D40023521E0DD403
:101FB00001F8013BFAE710F8013BCB1A921C03E051
:101FC00013F8015B01F8015B521EF9D5A142D8D389
:101FD000002070BDEFF3098141B1F1EE101A40F815
:101FE000041D20ED200A3A490A6810607047B0ECE1
:101FF000200A02C8E1EE101A36490A6810607047DC
:1020000072B64EF62250CEF2000040F2FF01C0F24E
:102010000001017040F2B810C2F20000016881F3C3
:10202000088840F22E10C2F2000040F22F11C2F2D6
:1020300000010A78027040F2B015C2F2000540F2C9
:10204000B411C2F200010A682A60106880F309889E
:102050004FF0020080F31488BFF36F8FBDE8F00FDC
:102060000FBCBDE8005006BC62B608471A484FF0E6
:1020700080510160704718484FF0805101607047EF
:1020800072B6EFF3098020E9F00F40F2B015C2F20A
:1020900000052E683060744613F002FC40F22E10EA
:1020A000C2F2000040F22F11C2F200010A78027061
:1020B00040F2B411C2F200010A682A6044F0F40E42
:1020C0001068B0E8F00F80F3098862B6704700002E
:1020D000B0010020B401002004ED00E0426822F4C9
:1020E000007222F44002114341607047426822F0BE
:1020F0001F021143416070474162826270470029AC
:10210000816814BF41F0010121F001018160704735
:102110000849D1F80423084B1A40D0E9003C43EAAF
:102120000C03D0E902C04CEA000018431043C1F888
:102130000403704700200140E030FCFF0029816863
:1021400014BF41F4807121F48071816070470029CF
:10215000816814BF41F4007121F4007181607047FF
:1021600010B500210A4818F0A9FB0021094801F028
:10217000C7FD0021084801F0C3FD00210748FFF713
:10218000BEFFBDE8104000210548FFF7B8BF0000C2
:102190000000014028640240106402400020014019
:1021A000002201402DE9F04FDFF820B193B05846EE
:1021B00001F0B0FD4FF08060009000244448019091
:1021C0004448CDE902044FF480677D00CDE90675EF
:1021D0004FF42056CDE904644FF0030ACDE90CA476
:1021E0004FF480784FF400390E94CDE90A94CDE98C
:1021F00008586946584601F079FE0121584601F019
:102200007FFDDFF8D4B0584601F084FD33486946BD
:10221000CDE900403248CDE90204CDE90675CDE9AB
:102220000464CDE90CA40E94CDE90A94CDE90858D4
:10223000584601F05BFE0121584601F061FD294D31
:10224000002301220A21284600F020F90121284616
:10225000FFF755FF244D002301220D21284600F0F1
:1022600015F901212846FFF74AFF18F0C9F91F4860
:102270000088002804BF13B0BDE8F08F1C481D4D36
:102280008480284618F02EFB1C481B4990F900203A
:1022900051F83200401E109001EBC2000FA9808857
:1022A000ADF84440401EADF83C00ADF83E40284635
:1022B00018F020FD01221146284618F0F8FB0021F5
:1022C000284618F0FBFA13B0BDE8F08F28640240EE
:1022D0004C2201403E600020106402404C2001402E
:1022E0003E10002000220140002001407E0300201B
:1022F000840000200004014084CE02087C030020FA
:10230000C06C80B270470246002012680A4218BFB3
:10231000012070472DE9F0414FF00008164E174F8D
:102320004546304600F0FBF802213046FFF7EBFF50
:102330000028F9D03046FFF7E3FF27F81500681CA6
:10234000C5B2282DEDD338887A8800EB080100202B
:102350003C46132334F804CF1144628860445B1E6A
:10236000F8D10844B7F84E1008440549A1FB001005
:10237000C0F34F10BDE8F0810021014048F8002073
:10238000CDCCCCCC1E4800681F4983B21D480380C9
:10239000D1F8002212F0010F08BF70471B4AB3F5B5
:1023A000205F04BFB2F8FC2F42800ED0A3F51C5C66
:1023B000BCF1FF0C08BFB2F8FE2F05D042F2FE724E
:1023C000D21A134B33F812204280124A4088126806
:1023D000128982420DD3D1F8040220F04000C1F8E6
:1023E00004020D4A012010800C48028842F00102CC
:1023F0000280D1F8000200F0FE00C1F80002704730
:102400002C64024084000020002001403EA00020F7
:102410003E600020880300207E030020000401406D
:10242000012303FA01F1002A426814BF114322EA92
:10243000010141607047000010B4426891F804C087
:1024400022F4807222F040720B6842EA0C221A4396
:10245000426082680C4B4C791A40D1E903C343EACD
:102460000C03D1F808C04CEA440C43EA0C031A43AD
:102470008260C26A097D22F47002491EC9B242EA32
:102480000151C16210BC7047FDF7FFC030B4072492
:1024900009290DD9C568A1F10A0C0CEB4C0C04FA02
:1024A0000CF425EA040403FA0CF32343C3600AE0A6
:1024B000056901EB410C04FA0CF425EA040403FA63
:1024C0000CF3234303611F23072A0CD2D0F834C036
:1024D000521E02EB820293402CEA030391401943FF
:1024E000416330BC70470D2A0CD2D0F830C0D21FE7
:1024F00002EB820293402CEA0303914019430163EB
:1025000030BC7047D0F82CC00D3A02EB82029340E9
:102510002CEA030391401943C16230BC70478168C3
:1025200041F08041816070472DED028B6B49A2B074
:10253000002008604FF400616948FEF7CFFADFF829
:10254000A4910DF1640819AF0DF17C0B18AE0DF1DB
:10255000800A03AD9FED648A00211DAB1EAA0846C8
:10256000CDF8008012F0E8FDBDF864100029F3D129
:102570000168B1F5005F28D0B1F5804F20D0B1F5EA
:10258000004F03D059A000F055FAE5E75C48006819
:102590005C4CC0F52050216808835B4800685B49AB
:1025A000C0F5205080B20968088302F00FF8206857
:1025B000008B01F011FE01F06FFF01F0D3FCCBE7BF
:1025C000FFF7A8FE52490880C6E7FDF783FE00909A
:1025D00001F0F2F9D9F8004001F0FEF90098FDF79A
:1025E0007DFE4C4A3B46512103A8189224F0CAFBB9
:1025F00000231A4619464848CDF800B012F098F961
:1026000003A946A024F09AFB1FAA0021424812F019
:1026100051FA43A23346512102A8179224F0B2FB8B
:1026200000231A4619463C48CDF800A012F080F964
:1026300002A93AA024F082FB20AA0021364812F019
:1026400039FA43A22B46512103A8029224F09AFBA7
:1026500021A8002300901A4619462F4812F068F965
:1026600003A92EA024F06AFB21AA00212A4812F017
:1026700021FA002C3FF470AFB4F8900000EE100A7D
:10268000F8EE400A80EE880A10EE100AFFF7A3F970
:10269000D4E92C234FF0640E02EB030C02FB0EFE78
:1026A000BEFBFCFCD4F808E0CDE90201CDF810E057
:1026B000CDF800C094F8371031A000F0BBF9FDF759
:1026C00009FE009001F078F9D4F8C44001F084F9D3
:1026D0000098FDF703FE002CCED13DE7000000205E
:1026E000200B0020740100200000C8422A756352AC
:1026F000656365697665203D2025780D0A00000038
:102700002C640240900300201464024094030020D3
:10271000E4040020F06C0608F80A0020257300008D
:1027200020D3C5CFC8BCB620CAB9D3C3D5BB20CA35
:10273000A3D3E0D5BB20B0D9B7D6B1C820C0FBD356
:10274000C3C2CA202020C8CECEF1C3FB0D0A0000B0
:1027500020205072696F2020205573656420204628
:10276000726565202020506572202020204350553E
:1027700020202020205461736B6E616D650D0A006E
:102780002020202532642020253564202025356432
:1027900020202025303264252520202025352E328A
:1027A00066252520202025730D0A000011F042FA2D
:1027B000FCE7000088B0194D002406AF00231A463C
:1027C00019461748009712F0B3F8BDF81800002812
:1027D000F4D1224613A101A824F0C0FA06A813F0F0
:1027E00009F9064614A029F01BF828700A2201A94D
:1027F000144829F055F928701249134808F0B8FC1C
:10280000104828F0E1FF287006A813F0F3F8811BA8
:102810000EA000F00FF9601CC4B2CFE72C0000201E
:10282000D00A0020303A2F506963536176652F2516
:10283000642E626D70000000303A2F50696353615E
:1028400076650000380B0020F56B0208BDD8CDBCC2
:10285000CDEAB3C9A3ACBAC4CAB1203D2025646D8A
:10286000730D0A008CB0002501F026F827F00EFD4C
:1028700000F00AF909A812F049FA01F077F86B465E
:10288000012247A14A4812F00DF86B46002249A1E7
:102890004B4812F007F800244FF00708494ECDE9E5
:1028A00006480AAF089705944FF0330AB069CDE99E
:1028B000010A04204FF400790090CDE903942346E7
:1028C000414A42A1706912F087FA0320CDE906401F
:1028D00008970594306ACDF808A0CDE903944FF02D
:1028E0000509CDE9009000233C4A3DA1F06912F0B2
:1028F00073FACDE90648089705944FF0660BB06A65
:10290000CDE9010B1C204FF4806A0090CDE903A4AF
:102910000023374A37A1706A12F05EFACDE9064803
:1029200008970594B068CDE9010B02200090CDE92D
:1029300003A90023334A34A1706812F04DFA364ED1
:10294000364F374C96F82800012803D038780128F4
:1029500018D10EE018F0F0FB681CC5B20A2D04BFB8
:10296000002528F055F909AA0021012012F0F4FFF2
:10297000ECE728F04DF906F041FF09AA00210A20F2
:1029800012F0EAFF60780128DCD128F041F905F067
:10299000BDF809AA00210A2012F0DEFFD2E70000EC
:1029A0004170705072696E746653656D70000000FE
:1029B000F80A002053454D5F53594E43480000002C
:1029C000D00A002000000020B527000841707020C8
:1029D0005461736B204D736750726F00252A000895
:1029E000417070205461736B2055736572494600C5
:1029F000AD270008417070205461736B2047554922
:102A00000000000029250008417070205461736B9C
:102A10002044534F0000000068D10020F8D100206E
:102A20001CD2002082B06A4600214FF47A7012F066
:102A300093FFF8E70FB400B597B019AB512101A887
:102A4000189A24F09FF916A8002300901A461946F8
:102A5000074811F06DFF01A9064824F06FF916AA86
:102A60000021034812F026F817B05DF814FB0000AF
:102A7000F80A00201C27000800B585B0684615F04C
:102A80008FF8019805B000BD00B585B0684615F017
:102A900087F805490198096805B0B0FBF1F05DF8C9
:102AA00004EB13F00FB8000060D0020838B544689A
:102AB00005460146204618F00DFE002808BF38BD27
:102AC000464A286811280DD006DC0B282AD00E288B
:102AD00038D00F2817D07CE0282873D0B0F5107FAD
:102AE0000AD076E09268002A08BF38BD294601B0B6
:102AF0002046BDE830401047526801B029462046C4
:102B0000BDE8304010472546204608F0FBF800900D
:102B1000406E0468684608F08DF9002C1CBF2846FA
:102B2000A04738BD204608F0EDF80090683007F067
:102B3000EBFF009803216C3008F014F8684608F0A9
:102B400079F946E0E968486809680D2902D020292A
:102B500018D037E0002835DD4FF48071204618F09A
:102B600084FE204608F0CEF8009090F82850684681
:102B700008F060F915F0020F1ED0012120461AF06E
:102B800076FC19E0002817DD25464FF480712046B9
:102B900018F06BFE284608F0B5F8009090F8284031
:102BA000684608F047F914F0020F08BF38BD01214C
:102BB00028461AF05CFC38BD2046BDE838400221AA
:102BC00022F0A6B9E86820B920464FF4807118F0C9
:102BD00066FD2846BDE8384019F0D0BA0C06002042
:102BE00030B585B04FF0000CDDE90845CDE900C5F2
:102BF000CDE902C400F002F805B030BD2DE9F04780
:102C000086B00646DDE90E59884617469A46119C5D
:102C10000AF0B2F94C201749CDE90210CDE900596C
:102C200053463A464146304619F0ECF905001BD0B0
:102C300008F068F810222146049018F0E3FF0E4CCB
:102C40000499B4E8CD133431A1E8CD1394E80D1004
:102C5000A1E80D1054F82C0D086004A808F0EAF85B
:102C600020684168284688470CF00CFC06B02846CE
:102C7000BDE8F087AD2A00081806002070B50446AC
:102C800086B08069B4F908C0658A00260091CDE954
:102C90000165CDE903C0B4F90C00B4F91050C118B6
:102CA000B4F90A00B4F90EC010442B46624600F095
:102CB00007F80546616800F0BDF906B0284670BD0A
:102CC0002DE9F04F85B09846DDE91164DDE90E5736
:102CD00091468A4683460AF04FF904F14C001749A1
:102CE000CDE90210CDE9005743464A4651465846C1
:102CF00019F088F905001BD008F004F810223146BD
:102D0000049018F07FFF0E4C0499B4E8CD133431D1
:102D1000A1E8CD1394E80D10A1E80D1054F82C0D86
:102D2000086004A808F086F82068416828468847AB
:102D30000CF0A8FB05B02846BDE8F08FAD2A0008CE
:102D400018060020F0B5044680688C4989B051F817
:102D500020506068002800F00A81052806D0062867
:102D60007DD0122800F0B48000F004B9E869002892
:102D700008BF002651D0D5E90012AB688DE80F00DE
:102D800004F110010FC90DF079FA002655F826005C
:102D90000BF09BFFA169E8690A1A21690144606987
:102DA000304409F023FBA169E8690A1A216901444A
:102DB000E069801B09F01AFBE169E8690A1A616998
:102DC00001442069304409F029FDE169E8690A1AE3
:102DD00061690144A069801B09F020FD761C022E68
:102DE000D4DBA8680BF071FFE069E969D4F814C07E
:102DF000431A206942186144801C521E09F0C6FD26
:102E0000E169E869A2690B1A61690144101A401C62
:102E1000921E09F0BBFDEE6911E055F826000BF09B
:102E200054FFE069831BA069821B606981192069D6
:102E3000304409F0D1FB761C022EEEDB0226D5E9E8
:102E40000301CDE90001E169606901444B10A1690A
:102E50008A1B811C2069304409F00CF800E011E065
:102E6000D5E90501CDE90001E0696169831E0144EE
:102E70000122A06902EB6101821B2069304408F045
:102E8000F9FF77E0206807F03DFF049020681BF011
:102E9000D9FB50B1A068002818BF00200AD10498BF
:102EA000006F002818BF012004E00498406F00283C
:102EB00018BF0220049901EB8000C56E04A807F03A
:102EC000B9FF00231A462846216808F0D7FB51E0D5
:102ED000206807F017FF0490866E002E08BF04A834
:102EE00042D0A168B0F95C70002908BF012103D06D
:102EF00003290CBF0221002100EB8101406D0C6C05
:102F00000BF00CFF20460BF0E0FE06A809F080FE57
:102F1000BDF81810A88B0144ADF81810BDF81C10AE
:102F2000081AADF81C00BDF81A00801CADF81A0094
:102F3000BDF81E00801EADF81E000498B0F9602098
:102F4000B0F95E1006A80BF0A7FA04A807F072FF0C
:102F500002200BF061FF304607F0D4FE3A4606A986
:102F6000059008F0C7FC05A807F064FF02E02068A0
:102F70001AF048FD09B00020F0BD00004C2F0508F4
:102F8000F0B583B016460D46040004BF03B0F0BD93
:102F900009F0F2FF204607F0B5FE0190806E002791
:102FA000002808BF2F7011D007F0ACFE0090FEF78C
:102FB00002FD0446701E84420FDC2246284600991A
:102FC000FEF7C7FC684607F035FF2F5501A807F04C
:102FD00031FF0CF057FA03B0F0BD0446EDE738B509
:102FE00005004FF000040DD009F0C6FF284607F099
:102FF00089FE0090408EC0F30024684607F01AFF57
:103000000CF040FA204638BD002808BF704738B59C
:103010000C46054609F0B0FF284607F073FE009005
:103020004465684607F006FF28461AF065F90CF07B
:1030300029FA38BDF0B583B00F4605004FF0010402
:1030400021D009F099FF284607F05CFE0190866EBA
:1030500001A8009607F0EEFE394668460EF04EF8DD
:1030600078B100980024B04208D0284607F04AFE04
:1030700001900099816601A807F0DCFE28461AF04D
:103080003BF90CF0FFF903B02046F0BDFEE72DE957
:10309000F84F446805460146204618F01BFB0028FF
:1030A00008BFBDE8F88F28680B2873D00E2805D01C
:1030B0000F2823D0B0F5107F30D075E0204607F000
:1030C00021FE009090F8746090F87570684607F0E3
:1030D000B1FE20461BF0B6FA002865D0E8684168CA
:1030E000002961DD006820285ED1781CB0FBF6F174
:1030F00006FB1101204600F016FB55E02546204650
:1031000007F000FE0090006F0468684607F092FE2A
:10311000002C1CBF2846A047BDE8F88F2646002794
:10312000204607F0EFFD009090F8749090F87580BD
:10313000B0F930A0684607F07DFEEC6824B3304655
:1031400019F0AAFF20B1394630461AF090F92BE069
:10315000207A88B1012130461AF04AFB08F10100BB
:10316000B0FBF9F109FB1101304600F0DCFA012156
:1031700030461AF07CF917E0022130461AF077F950
:1031800050460BF061FE0FE0032130461AF06FF954
:103190000AE0FFE7204607F0B5FD0090783007F021
:1031A000B3FC684607F046FE2846BDE8F84F18F025
:1031B000E5BF70B586B0B0F90840458AD0F818C0B0
:1031C0000026CDE90254CDE90016CDF810C0B0F9C3
:1031D0000C10B0F91040B0F90EC0B0F90A00194453
:1031E00010442346624600F003F806B070BD0000AC
:1031F0002DE9FF4F85B01D46DDE912A7DDE91589F0
:1032000016468B4609F0B8FE264C0EB135B10AE0E1
:103210002068806800688047064625B92068806875
:1032200000688047054620486FF07041C0688842BA
:1032300008BF47F0010709F154011C48CDE900A778
:10324000CDE902012B4632465946059818F0DAFEC0
:10325000050021D007F056FD10224146049018F0D9
:10326000D1FC241D0499B4E8CD133431A1E8CD1369
:1032700094E8CD11A1E8CD1154F8240D41F870095E
:10328000022081F874000F20C86704A807F0D2FD5F
:1032900020684168284688470CF0F4F809B02846B1
:1032A000BDE8F08FC0080020C40800208F3000085F
:1032B0002DE9F04F0446006899B028B11BF0C2F91F
:1032C000002808BF012500D00025FD4850F82560E2
:1032D00060680A2800F0708108DC002800F0DB81BB
:1032E00006283ED007280CD000F0E6B9122800F0DE
:1032F0002D81192802BFB06919B0BDE8F08F00F028
:10330000DBB9256809F038FE284607F0FBFC009081
:10331000C76F684607F08EFD0CF0B4F85FF000054B
:1033200056F825000BF0D1FC2069C119491B4B1E32
:1033300061691A462944284409F04EF96D1C032D91
:10334000EED3D6E90301CDE900012069C119491B7B
:103350004B1E61691A462944284408F08BFD00F091
:10336000ABB9A068401E1590246809F005FE204600
:1033700007F0C8FC0090C46F684607F05BFD0CF0D6
:1033800081F8DFF8409359F82570002F1CBF15987D
:1033900000EB80010DD000BFB7F84800A04205D176
:1033A00007EB8100806808B11FB1C5E0FF6C002FFA
:1033B000F2D1502007F014FC070000F07D8150226C
:1033C00000210DF029FF70697864A7F8484059F88A
:1033D0002500F864A4F10608BB4849F8257080FB75
:1033E00008104110A1EBE071032010900120129011
:1033F00007F14000159D119005EB850007EB80005B
:10340000029005EB450007EB800028300D9008EB9B
:10341000D8704210401000EBD073A0EB6300461848
:10342000501A0A9008F10700C11700EB51704FEADB
:10343000E00A0AFB08F4CDF82480204607F0D0FB10
:103440005FEA000978D0224600210DF0E5FE0A98D7
:10345000129A012826DD109B012130463344834215
:103460001BDD4FEAE27C02EB5C7E02F0070C80245D
:1034700024FA0CFC404509DA0AFB00F404EBEE04E4
:1034800019F804B04BEA0C0B09F804B06940401C71
:10349000834202DD0029F9D0ECE70A98521C761C21
:1034A0009042D8DC12990998401A0A90904226DD81
:1034B0001099012034463144A1421BDDD31702EBA1
:1034C000537E02F007034FF0800C2CFA03F34445BF
:1034D00009DA0AFB04FC0CEBEE0C19F80CB04BEA11
:1034E000030B09F80CB06840641CA14202DD0028FF
:1034F000F9D0ECE70A98521C761E9042D8DC0D9861
:10350000022101600D99012008710D9A11999160B5
:103510000299C88002980021A0F804A00298C0F87F
:1035200008900298016102990D98C8600299099863
:1035300008800298A0F802801598032200EB800012
:1035400007EB8000114608F0A1FAB5E0206807F00B
:10355000D9FB0290B0F9546090F85670D0F84490BE
:10356000D0F8348002A807F065FC256809F004FD56
:10357000284607F0C7FB0390B0F87C5003A807F07B
:1035800059FC0BF07FFF684619F010F9BDF80000F8
:10359000E9190844ADF80000246A40460BF0BEFB70
:1035A00002200BF039FC48460BF08FFB324669468F
:1035B000204608F09FF97FE0206807F0A3FB049005
:1035C000B0F9546090F85690D0F83480876C04A815
:1035D00007F030FC256809F0CFFC284607F092FB85
:1035E0000390B0F87C5003A807F024FC0BF04AFFCE
:1035F000684619F0DBF8BDF8000005EB0901084446
:10360000ADF80000206A09F0A1FB0446404609F02D
:10361000C7FB26F00301042904BFBDF80610091AF0
:1036200008D00C2908D1BDF90610091A491C01EB74
:10363000D1714910ADF8021026F00C0101290CD00F
:10364000022913D1BDF90410BDF90020891A091B04
:1036500001EBD17102EB610106E0BDF80420BDF879
:103660000010521A121B1144ADF80010BDF80010E2
:10367000621E1144ADF80410BDF80210401E08444B
:10368000ADF8060038460BF020FB4FF0FF316846DE
:1036900008F0A2FA10E020681AF0B4F9206807F0E8
:1036A00031FB0590B0F90610B0F90220891A491CC7
:1036B000C16705A807F0BEFB19B00020BDE8F08F78
:1036C000CC6C0608540A00206766666638B50500AB
:1036D0004FF000040CD009F04FFC284607F012FB15
:1036E000009090F87540684607F0A4FB0BF0CAFE06
:1036F000204638BD002808BF704738B50C4605463F
:1037000009F03AFC284607F0FDFA0090416BA1420F
:1037100003D04463284619F0EFFD684607F08AFBA2
:103720000BF0B0FE38BD002808BF704738B50C4616
:10373000054609F021FC284607F0E4FA009090F8CD
:103740007410A1420CD980F87540684607F072FBEE
:10375000284619F0D1FD0521284619F088FE02E01F
:10376000684607F067FB0BF08DFE38BD002814BFDC
:103770000029704770B582B00D46044609F0FCFB85
:10378000204607F0BFFA0190866F01A8009607F067
:1037900051FB294668460DF0B1FC70B10098B0426B
:1037A00008D0204607F0AEFA01900099816701A881
:1037B00007F040FB204619F09FFD0BF063FE02B0BE
:1037C00070BD002808BF704738B50C46054609F0A3
:1037D000D3FB284607F096FA0090416CA14203D033
:1037E0004464284619F088FD684607F023FB0BF077
:1037F00049FE38BD00B589B00020009002900390CA
:1038000004900590069007900890192001900448B4
:103810000068806841686846884709B000BD0000BC
:10382000C008002070B5234C054682B02068418C4A
:10383000B0F84C2011444184818CB0F850201144E0
:103840008184284609F0BEF92168498CADF8001042
:10385000461828460DF088FA3044401EADF80400A2
:1038600009F028FA2168898CADF802100844401E3E
:10387000ADF8060068461AF01BFD30B1284604F08A
:10388000FFFA1AF031FB0028F8D10A2D04D0BDF858
:1038900004002168401C48842068418CB0F84C200A
:1038A000891A4184818CB0F85020891A818402B031
:1038B00070BD0000540500202DE9F041294C00277F
:1038C000676000F0ADF827806780A760E7606761F8
:1038D000A76100262761FCF7FDFC80460025676193
:1038E0002088401C2080608810B900F0B1F8A060EA
:1038F00060880004000C60800AD100F0A9F8E06044
:10390000A168411A6069884227D3A069884226D3FA
:1039100060690644681C05042D0CE0D0C4E9046706
:103920004046A761FCF7DAFCFCF7D4FC054620888A
:10393000401C2080608810B900F08AF8A060608880
:103940001021401C6080084810F03EFA00F044F856
:103950002846BDE8F041FCF7C1BC6161D5E7A16133
:10396000D6E70000C800002034BA002070B5FCF78C
:10397000B1FC084D6C69FCF7B1FC286984428CBF2E
:10398000241A0024FCF7A6FC00216961FCF7A6FCC0
:10399000204670BDC800002070B5FCF79BFC054DAB
:1039A000AC69FCF79BFC286984428CBF201A00207C
:1039B00070BD0000C800002010B5064C2088401CD7
:1039C0002080608810B900F043F8A0606088401C37
:1039D000608010BDC800002010B50C4C6088401EEF
:1039E0000004000C608018BF10BD00F031F8E060EA
:1039F000A168401A6169814203D3A169814202D35F
:103A000010BD6061F9E7A06110BD0000C800002092
:103A1000FEE700000149486070470000C800002030
:103A200010B5FFF729F808490A6842F080720A6069
:103A3000064900224A600A6842F001020A60BDE8B5
:103A40001040FFF7E7BF0000FCED00E0001000E0D1
:103A50000148406870470000001000E070B546491A
:103A600005460024086810F0450F03D1086810F0DF
:103A7000450FFBD010F0040F05D00324042014F0F0
:103A8000FBFD204670BD10F0010F05D0012420463B
:103A900014F0F2FD204670BD14F02AFEA84234D185
:103AA00040F2FF5014F0E8FD002014F043FE3349CB
:103AB00008425ED010F0004F1CBF1C2070BD10F0FB
:103AC000804F1CBF092070BD10F0005F1CBF0A2092
:103AD00070BD10F0805F1CBF0B2070BD10F0006F38
:103AE0001CBF0C2070BD10F0806F1CBF0D2070BD7E
:103AF00010F0807F1CBF0E2070BD10F4000F1CBFA3
:103B00000F2070BD10F4800F01D0102070BD10F494
:103B1000001F1CBF112070BD10F4801F1CBF12209D
:103B200070BD10F4002F1CBF132070BD10F4802F47
:103B30001CBF142070BD10F4003F1CBF152070BDC9
:103B400010F4803F1CBF162070BD10F4004F1CBF46
:103B5000172070BD10F4804F1CBF182070BD10F4EA
:103B6000005F1CBF192070BD10F0080F1CBF1A2089
:103B700070BD204670BD0000342C014008E0FFFD00
:103B800000B583B00020009003460190034A052150
:103B9000034807F0DFFB03B000BD0000A97A02086C
:103BA000F8F5020800B583B00020009003460190AC
:103BB000034A0521034807F0CDFB03B000BD000018
:103BC000698002085CF9020800B583B0002000900B
:103BD00003460190034A1121034807F0BBFB03B0E1
:103BE00000BD00006D81020884F6020800B583B0B4
:103BF0000020009003460190034A0921034807F082
:103C0000A9FB03B000BD00003984020860F8020877
:103C100000B583B00020009003460190034A0621BE
:103C2000034807F097FB03B000BD0000B58502080C
:103C3000E8F90208054A012303FA00F00029116897
:103C400014BF084321EA0000106070470074004070
:103C5000054A931403FA00F00029116814BF0843C1
:103C600021EA000010607047007400400B4B10B454
:103C70001A6840F6FE7C0CFA00FC22EA0C02D1E93C
:103C800000C44CEA040CD1E9024121434CEA010191
:103C900001FA00F01043186010BC70470074004037
:103CA000014902208860704700B002400648006861
:103CB00010F0C05F08BF70470120044948614FF011
:103CC000C251034800F006B8006402408C00002096
:103CD00058640240064A904234BF0648064811F034
:103CE000005F064A01EA020114BFC16081607047AB
:103CF0001064024000600240006402407D0F7D0FAE
:103D00000029016814BF41F0010121F001010160A7
:103D1000704700002DE9F003016821F00101016006
:103D20000021016041608160C16001612121416128
:103D3000434A3D244349904202BF8C60BDE8F003F2
:103D40007047414A4FF47465904202BF8D60BDE8F0
:103D5000F00370473D4A4FF47418904202BFC1F817
:103D60000880BDE8F0037047394A4FF0746690420E
:103D700002BF8E60BDE8F0037047364B364A98426A
:103D800002BFCA60BDE8F0037047DFF8D0C0344B13
:103D9000604502BFCB60BDE8F0037047314FDFF8EC
:103DA000C8C0B84202BFC1F80CC0BDE8F0037047FC
:103DB000DFF8B8904FF03D57484502BFCF60BDE8EF
:103DC000F0037047DFF8A8902A49484502BF0C600D
:103DD000BDE8F0037047284CA04202BF0D60BDE86B
:103DE000F0037047254CA04202BFC1F80080BDE837
:103DF000F0037047224CA04202BF0E60BDE8F00302
:103E00007047204C2049A04202BF0A60BDE8F00381
:103E100070471E4A904202BF0B60BDE8F003704736
:103E20001B4A904202BFC1F800C0BDE8F0037047D2
:103E3000184A904208BF0F60BDE8F00370470000C9
:103E40001060024000600240286002404060024072
:103E500058600240706002403D00002088600240CF
:103E6000400F0020A060024000003D20B8600240EA
:103E7000106402400864024028640240406402402A
:103E800058640240706402400C640240886402403E
:103E9000A0640240B86402400029016814BF41F0E8
:103EA000200121F020010160704711F0800F01F026
:103EB0001E0306D072B1D0F814C04CF0800CC0F8CC
:103EC00014C0802908BF7047002A1CBF016819432D
:103ED00007D008E0426922F080024261802908BFD1
:103EE00070470168994301607047000010B4026890
:103EF0001B4BD1F80CC01A400B6843EA0C03D1E904
:103F000005C44CEA040C43EA0C03D1F81CC043EA94
:103F10000C03D1F820C043EA0C03D1F824C043EAD3
:103F20000C03D1F828C043EA0C03D1F834C043EAAB
:103F30000C03D1F838C043EA0C031A43026042690B
:103F4000D1E90B3C22F0070243EA0C031A43426119
:103F50000A6942604A6882608968C16010BC704723
:103F60003F801CF02DE9F04100262DED028B9FEDE6
:103F70008D8A8D4C206880ED048A9FED8C0A8C49D7
:103F800080ED030A80ED000A098800297DD1894D62
:103F900095F900100A2978DAB0F8D824864F00EE97
:103FA000102A40F2FF3C3968B8EE400A81ED000A61
:103FB000B0F8DA2400F59B6000EE102A30F8043FD8
:103FC000B8EE400A81ED010A00EE103A4288B8EEE0
:103FD000400A81ED020A0831BCF1010CECD12168E4
:103FE00040F2FF7001F6FE71DFF8D481B1F8D81409
:103FF00000EE101A3968B8EE400A01EB800080ED3F
:10400000000A6E48D8F8002003786E48FCF745FD9A
:104010004FF480623968D8F80000FCF771F938680D
:10402000002140F2FE3290ED010A0830BCEEC00AD9
:10403000D0ED000AB8EE401AF4EEC10AF1EE10FA23
:10404000C4BFBCEEE00A8E1C001D491C521E1204A7
:10405000120CEDD15C4995F9000051F83010714314
:10406000CA0A21680128CA6105D141F2FC40405CBE
:1040700058B101F041FB2878042809D1206800F5E7
:10408000805090F8FD0400B100E00DE001F0F6FB77
:104090002878072808D1206800F5805090F8FE04A1
:1040A000002818BF01F0B2FCDFF820C100214FF456
:1040B0001675DCF80020206800EB4103D0ED000A03
:1040C0001E8D00EE106AB8EE400A30EE800A80EDD8
:1040D000000A188D00EE100AB8EE400AA2EC010AA0
:1040E000206800EB4106338D00EE103AF8EE400AEE
:1040F00090ED040AF4EEC00AF1EE10FADCBF00EE17
:10410000103AB8EE400A80ED040A338D00EE103A02
:10411000F8EE400A90ED030AF4EEC00AF1EE10FA50
:10412000C4BF00EE103AB8EE400A80ED030A491C05
:104130006D1EC0D120684FF4167100F11402DCF836
:104140000000FCF75FFD20689FED210ADFED211ADA
:10415000D0ED050A60EE800A80EE881A80ED051A1F
:1041600090ED001AC1EE210A60EE800A80EE881AF6
:1041700080ED001AD0ED030A20EE801AC1EE080A85
:10418000C0ED030A90ED041A21EE001A81EE080A30
:1041900080ED040A30EEC00A80ED010ABDEC028B0E
:1041A000BDE8F08100F07F45900300200000000092
:1041B0007E0300207C0300209803002000000020E4
:1041C000DC030020200B0020DCF40208E8040020BF
:1041D00033335340000016442DE9F041A74E00222E
:1041E000A74C31880125E9B1A64802290068C570AD
:1041F00018BFBDE8F081C27041F2F84120684FF469
:104200009662095E00EB4101283001F52861FDF757
:10421000A0FB3580BDE8F04101224FF483719A483C
:10422000FEF7FEB89949964B91F9002098491B6812
:104230000A2A7DDAB0F5006F47D200F5005292B23B
:10424000B2F5205F2AD201EB4201C2F52055891E4A
:104250004FF0000C15F0010F05D031F802CFA3F894
:10426000D8C44FF0010CC5F34F05BDB102EB0C06ED
:10427000B61A1FFA86F8761C03EB48084F88B6B2C8
:10428000A8F8D87403EB46066D1E31F8047F2D04A0
:10429000A6F8D8740CF1020C2D0CE7D1C0F5006122
:1042A0001FFA81FC00281CBF794A002118D000BFEA
:1042B0000CEB010603EB460632F8025BA6F8D85475
:1042C000401E01F10101F3D10AE0A0F5006080B2C7
:1042D00001EB40014FF4805203F59B60FDF739FB81
:1042E0006C490020236809680246B1F808C003EB56
:1042F0004201401CB1F8D84480B2A4453CBFB1F89B
:10430000DA14614504D3511C8AB2B2F5B56FEED30D
:1043100003F5805100B2A1F8F604B1F9F824D042B7
:1043200044BF4242A1F8F824B1F9F824024400E065
:1043300015E0B2F5B56FC4BFC0F5B562A1F8F824B9
:10434000B1F9F814BDE8F041084403EB400000F572
:104350009B614FF4966203F12800FDF7FABA03F56A
:10436000805C9CF8FF24EAB3B0F5167F5AD242F283
:10437000A852024492B2B2F5205F2BD201EB420167
:10438000C2F52055891E4FF0000C15F0010F05D025
:1043900031F802CFA3F8D8C44FF0010CC5F34F0594
:1043A000C5B100BF02EB0C06B61A1FFA86F8761CE0
:1043B00003EB48084F88B6B2A8F8D87403EB46065A
:1043C0006D1E31F8047F2D04A6F8D8740CF1020C90
:1043D0002D0CE7D1C0F516711FFA81FC002818BF1B
:1043E0002B4A00E00FE018BF002126D00CEB01069D
:1043F00003EB460632F8025BA6F8D854401E01F1E2
:104400000101F3D119E058621A6A9042A0EB02024E
:1044100038BF02F520525A62B2F5167F28BF8CF8D9
:10442000FF54A1E7A0F5167080B201EB40014FF4F4
:10443000966203F59B60FDF78CFA00202168024626
:1044400040F25723A3EB000C01EB4C0C01EB4004B2
:10445000BCF8D8C4A4F828C0401CA3EB000C01EBA6
:104460004C0C01EB4004BCF8D8C4401C921CA4F8CE
:1044700028C0B2F5167FE5DBBDE8F0817E030020A1
:104480009003002084030020002201407C030020D0
:104490003E6000208803002070B52DED028B9FED5B
:1044A000448A4448006880ED048A9FED430A434DE6
:1044B00080ED030A80ED000A414C2A6800214FF488
:1044C000167C206800EB4103D0ED000A1E8D00EE43
:1044D000106AB8EE400A30EE800A80ED000A188DAE
:1044E00000EE100AB8EE400AA2EC010A206800EBC8
:1044F0004106338D00EE103AF8EE400A90ED040AC2
:10450000F4EEC00AF1EE10FADCBF00EE103AB8EE9D
:10451000400A80ED040A338D00EE103AF8EE400AAE
:1045200090ED030AF4EEC00AF1EE10FAC4BF00EEFB
:10453000103AB8EE400A80ED030A491CBCF1010CA8
:10454000BFD120684FF4167100F114022868FCF7FF
:1045500059FB20689FED1B0ADFED1B1AD0ED050A01
:1045600060EE800A80EE881A80ED051A90ED001A40
:10457000C1EE210A60EE800A80EE881A80ED001AF2
:10458000D0ED030A20EE801AC1EE080AC0ED030A3E
:1045900090ED041A21EE001A81EE080A80ED040A5B
:1045A00030EEC00A80ED010ABDEC028B70BD000048
:1045B00000F07F459003002000000000E804002088
:1045C0009403002033335340000016442DE9F0419A
:1045D00090480088002818BFBDE8F0818E48006828
:1045E000904CC0F5205081B28C488D4A90F9003033
:1045F00020680A2B7CDAB1F5006F48D201F5005330
:104600009BB2B3F5205F2BD202EB4302C3F52055DA
:10461000921E4FF0000C15F0010F05D032F802CFBA
:10462000A0F8D8C44FF0010CC5F34F05C5B100BFC9
:1046300003EB0C06F61A1FFA86F8761C00EB480806
:104640005788B6B2A8F8D87400EB46066D1E32F84B
:10465000047F2D04A6F8D8740CF1020C2D0CE7D1C0
:10466000C1F500621FFA82FC00291CBF6C4B0022BE
:1046700018D000BF0CEB020600EB460633F8025BD5
:10468000A6F8D854491E02F10102F3D10AE0A1F5BF
:10469000006189B202EB41014FF4805200F59B604A
:1046A000FDF757F960480022114600680389206829
:1046B000521C00EB410C92B2BCF8D844A3423CBF60
:1046C000BCF8DAC49C4504D3491C89B2B1F5B56F76
:1046D000EED311B241F2F6421152BDE8F04100EBC7
:1046E00041014FF49662283001F59B61FDF731B925
:1046F00000F5805C9CF8FF34F3B300BFB1F5167F82
:104700005BD242F2A8530B449BB2B3F5205F2BD28D
:1047100002EB4302C3F52055921E4FF0000C15F03A
:10472000010F05D032F802CFA0F8D8C44FF0010C29
:10473000C5F34F05C5B100BF03EB0C06F61A1FFA0F
:1047400086F8761C00EB48085788B6B2A8F8D874EB
:1047500000EB46066D1E32F8047F2D04A6F8D874CF
:104760000CF1020C2D0CE7D1C1F516721FFA82FC78
:10477000002918BF2A4B00E00FE018BF002227D005
:104780000CEB020600EB460633F8025BA6F8D854A1
:10479000491E02F10102F3D11AE04162036A994213
:1047A000A1EB030338BF03F520534362B3F5167F33
:1047B00024BF01238CF8FF34A0E7A1F5167189B25C
:1047C00002EB41014FF4966200F59B60FDF7C1F8E2
:1047D0000020D4F80010024640F25723A3EB000C4F
:1047E00001EB4C0C01EB4004BCF8D8C4A4F828C081
:1047F000401CA3EB000C01EB4C0C01EB4004BCF89B
:10480000D8C4401C921CA4F828C0B2F5167FE5DB82
:10481000BDE8F0817E030020146402407C03002088
:104820003E1000209403002088030020F0B583B0E0
:104830000121672013F06CF901208DF8040000219C
:104840008DF806108DF807108DF805008024694654
:104850001748009404F040F9164E4025694630464A
:10486000009504F039F9144F69463846009504F074
:1048700033F969463846009404F02EF9E0000090C0
:1048800069460E4804F028F9202000906946304619
:1048900004F022F90A48048075830021012002F007
:1048A000B3F80021022002F0AFF803B0F0BD000021
:1048B00000040240000002400008024000180240CC
:1048C0001A04024000B583B017F0B6FF0021009132
:1048D00003460191034A0821034806F03BFD03B05B
:1048E00000BD0000D177020848FE020800B583B081
:1048F00017F0A2FF0021009103460191034A0E2107
:10490000034806F027FD03B000BD0000A97B0208A4
:1049100028FF020800B583B017F08EFF0021009138
:1049200003460191034A0A21034806F013FD03B030
:1049300000BD0000AD870208B000030800B583B0D9
:1049400017F07AFF0021009103460191034A2221CA
:10495000034806F0FFFC03B000BD0000258C0208F0
:1049600090FA020800B583B017F066FF00210091AD
:1049700003460191034A0921034806F0EBFC03B00A
:1049800000BD0000C58D0208C80103082DE9F047ED
:104990000546984691460C4600200AF07FF94346AA
:1049A0004A462146284606F095FC6FF07F400AF003
:1049B0008CF9002707EBC70000EB0710002604EB7B
:1049C000400A06EB8600514605EB400007F090FDDB
:1049D000701C86B23D2EF4D3781C87B2092FE9D320
:1049E0005FF0000606EB860005EB4000414607F04D
:1049F0007FFD701C86B23D2EF4D3002707EBC70065
:104A000000EB0710002605EB400A00BF06EB86000E
:104A100004EB4001504607F06BFD701C86B2292E56
:104A2000F4D3781C87B20C2FE8D3002606EB86005F
:104A300004EB4001484607F033FD701C86B2292E76
:104A4000F4D3A8F10101A9F1010007F029FD002626
:104A500006EB860004EB40010F4605F22B1007F031
:104A60001FFD394605F22D1007F01AFD701C86B2A5
:104A7000292EEDD3414605F22B1007F011FD4146DA
:104A800005F22D1007F00CFD5FF0000606EB860026
:104A900005EB4000074604F1C70107F001FD384669
:104AA00004F1C90107F0FCFC701C86B23D2EEDD369
:104AB00004F1C701484607F0F3FC04F1C901484678
:104AC000BDE8F04707F0ECBC70B52DED028B90B05F
:104AD00044F2F0000AF0F9F8FE4C40F27F2228215F
:104AE0002068B0F9060007F081FC206840F27F22C0
:104AF0002821B0F90600401C07F078FC032500953A
:104B000020683D22B0F9060000F11203C11C3220DA
:104B100007F072FF206840F27F222821B0F90800D8
:104B200007F064FC206840F27F222821B0F90800D9
:104B3000401E07F05BFC009520683D22B0F908009C
:104B4000C31EA0F11201322007F056FF00200AF028
:104B5000BCF8E1480AF0E2F802200AF05DF92068AA
:104B60003321B0F90620612006F0D6FD20683321FC
:104B70000089133802B2622006F0CEFD00200AF050
:104B8000A4F80426872340F27B2237214FF4FA70E1
:104B9000009607F031FF6FF07F400AF096F8882307
:104BA0004FF41F72362140F2F310009607F066FDB5
:104BB00044F2F0000AF089F84D2340F207223E212A
:104BC0004FF4FE70009507F017FF692340F20722AB
:104BD0005A214FF4FE70009507F00EFF00200AF0F6
:104BE00074F8BE480AF09AF802200AF015F93B2240
:104BF00040F2FD11612006F08FFD582240F2FD11B8
:104C0000622006F089FD4FF6FF700AF05EF8B448A6
:104C10000AF084F8732240F2FF11232006F07CFD95
:104C20002068B14DAF4EB0F90210A1F5AA7295F906
:104C3000001036F821305A4300EE102AF8EEC00A70
:104C40009FEDAA8A80EE880A80ED030A06EB8100B8
:104C5000408801280CD0022817D0032822D004282D
:104C60002DD0052838D0062843D007284ED059E04B
:104C700010EE100AFCF7AFFE41EC100B9CA153ECB8
:104C8000102B01A822F06AF84CE010EE100AFCF795
:104C9000A2FE41EC100B98A153EC102B01A822F0BE
:104CA0005DF83FE010EE100AFCF795FE41EC100BAA
:104CB00093A153EC102B01A822F050F832E010EE33
:104CC000100AFCF788FE41EC100B8FA153EC102B5F
:104CD00001A822F043F825E010EE100AFCF77BFE55
:104CE00041EC100B8AA153EC102B01A822F036F8EE
:104CF00018E010EE100AFCF76EFE41EC100B86A1D6
:104D000053EC102B01A822F029F80BE010EE100A4A
:104D1000FCF761FE41EC100B81A153EC102B01A8B4
:104D200022F01CF83F2240F20B2101A806F0B4FD4E
:104D30002068B0F90410A1F5AA7295F9001036F8B0
:104D400021305A4300EE102AF8EEC00A80EE880A9D
:104D500080ED040A06EB8100408801280CD002286F
:104D600017D0032822D004282DD0052838D00628B3
:104D700043D007284ED059E010EE100AFCF72BFE66
:104D800041EC100B5AA153EC102B01A821F0E6FFC7
:104D90004CE010EE100AFCF71EFE41EC100B56A181
:104DA00053EC102B01A821F0D9FF3FE010EE100AC0
:104DB000FCF711FE41EC100B51A153EC102B01A894
:104DC00021F0CCFF32E010EE100AFCF704FE41ECBB
:104DD000100B4DA153EC102B01A821F0BFFF25E0D3
:104DE00010EE100AFCF7F7FD41EC100B48A153EC54
:104DF000102B01A821F0B2FF18E010EE100AFCF70A
:104E0000EAFD41EC100B44A153EC102B01A821F05A
:104E1000A5FF0BE010EE100AFCF7DDFD41EC100BD6
:104E20003FA153EC102B01A821F098FF5B2240F228
:104E30000B2101A806F030FD95F9000006EB80007B
:104E4000408801280CD002281ED0032830D0042826
:104E500071D0052869D0062868D0072867D0BDE042
:104E6000206890ED040AD0ED030A30EE600A10EEDF
:104E7000100AFCF7B0FD41EC100B1DA153EC102BF8
:104E800001A821F06BFFA9E0206890ED040AD0EDA5
:104E9000030A30EE600A10EE100AFCF79CFD41ECAC
:104EA000100B15A153EC102B01A821F057FF95E032
:104EB000206890ED040AD0ED030A30EE600A10EE8F
:104EC000100AFCF788FD41EC100B0DA153EC102BE0
:104ED00001A82DE08C0300207C030508ACF3040836
:104EE00040D8040884F502087C03002000007A44BE
:104EF00025352E316675730025352E33666D7300AA
:104F000025352E32666D730025352E31666D7300A2
:104F100025352E336673000025352E32667300006A
:104F200025352E316673000005E019E02DE041E0E3
:104F300021F014FF52E0206890ED040AD0ED030A3E
:104F400030EE600A10EE100AFCF745FD41EC100B44
:104F500053EC102BAFF2500101A821F0FFFE3DE011
:104F6000206890ED040AD0ED030A30EE600A10EEDE
:104F7000100AFCF730FD41EC100B53EC102BAFF294
:104F8000700101A821F0EAFE28E0206890ED040AF3
:104F9000D0ED030A30EE600A10EE100AFCF71BFD9C
:104FA00041EC100B53EC102BAFF2940101A821F04F
:104FB000D5FE13E0206890ED040AD0ED030A30EE30
:104FC000600A10EE100AFCF706FD41EC100B53ECE2
:104FD000102BAFF2B40101A821F0C0FE732240F201
:104FE0000B2101A806F058FC732240F24521232032
:104FF00006F092FB364E2068344D96F90020B0F949
:10500000061005EB8202C1F1F00152889FED318A52
:10501000514300EE101AF8EEC00A80EE880A80EDC7
:10502000030A10EE100AFCF7D6FC41EC100B2AA183
:1050300053EC102B01A821F091FE3F2240F24E21AB
:1050400001A806F029FC206896F9002005EB8202F1
:10505000B0F908105288C1F1F001514300EE101A66
:10506000F8EEC00A80EE880A80ED040A10EE100AFD
:10507000FCF7B1FC41EC100B17A153EC102B01A86D
:1050800021F06CFE5B224FF4137101A806F004FCC2
:10509000206890ED030AD0ED040A30EE600A10EEAD
:1050A000100AFCF798FC41EC100B0BA153EC102BF1
:1050B00001A821F053FE732240F24E2101A806F010
:1050C000EBFB10B0BDEC028B70BD00006CF402086D
:1050D0007D0300200050434725352E3366560000DF
:1050E00070B52DED028B90B044F2F00009F0EDFDAB
:1050F000FE4C40F2B71228212068B0F9020007F0F8
:105100008DFB206840F2B7122821B0F90200401C44
:1051100007F084FB0325009520683E232F21B0F97A
:10512000020000F11002401D07F066FC206840F20A
:10513000B7122821B0F9040007F070FB206840F294
:10514000B7122821B0F90400401E07F067FB009554
:1051500020683E232F21B0F90400421F103807F0C9
:105160004BFC002009F0B1FDE14809F0D7FD022019
:1051700009F052FE20682C224088801D01B2612077
:1051800006F0CAFA20682D2280880F3801B262200A
:1051900006F0C2FA002009F098FD0426872340F2A9
:1051A0007B2237214FF4FA70009607F025FC6FF050
:1051B0007F4009F08AFD88234FF41F72362140F2A8
:1051C000F310009607F05AFA44F2F00009F07DFD62
:1051D0004D2340F207223E214FF4FE70009507F068
:1051E0000BFC692340F207225A214FF4FE70009510
:1051F00007F002FC002009F068FDBE4809F08EFDB2
:10520000022009F009FE3B2240F2FD11612006F068
:1052100083FA582240F2FD11622006F07DFA4FF623
:10522000FF7009F052FDB44809F078FD732240F296
:105230000121232006F070FA2168B14DAF4EB1F97B
:105240000200A0F5AA7295F9000036F820305A4302
:1052500000EE102AF8EEC00A9FEDAA8A06EB800045
:1052600080EE880A81ED030A408801280CD00228CC
:1052700017D0032822D004282DD0052838D006289E
:1052800043D007284ED059E010EE100AFCF7A3FBDC
:1052900041EC100B9CA153EC102B01A821F05EFDFA
:1052A0004CE010EE100AFCF796FB41EC100B98A1B5
:1052B00053EC102B01A821F051FD3FE010EE100A35
:1052C000FCF789FB41EC100B93A153EC102B01A8C8
:1052D00021F044FD32E010EE100AFCF77CFB41ECBB
:1052E000100B8FA153EC102B01A821F037FD25E006
:1052F00010EE100AFCF76FFB41EC100B8AA153EC87
:10530000102B01A821F02AFD18E010EE100AFCF77E
:1053100062FB41EC100B86A153EC102B01A821F08D
:105320001DFD0BE010EE100AFCF755FB41EC100BD5
:1053300081A153EC102B01A821F010FD3F2240F277
:105340000B2101A806F0A8FA2068B0F90410A1F515
:10535000AA7295F9001036F821305A4300EE102A4F
:10536000F8EEC00A80EE880A80ED040A06EB8100A0
:10537000408801280CD0022817D0032822D0042806
:105380002DD0052838D0062843D007284ED059E024
:1053900010EE100AFCF71FFB41EC100B5AA153EC66
:1053A000102B01A821F0DAFC4CE010EE100AFCF7FB
:1053B00012FB41EC100B56A153EC102B01A821F06D
:1053C000CDFC3FE010EE100AFCF705FB41EC100BA2
:1053D00051A153EC102B01A821F0C0FC32E010EEDB
:1053E000100AFCF7F8FA41EC100B4DA153EC102B0E
:1053F00001A821F0B3FC25E010EE100AFCF7EBFA4F
:1054000041EC100B48A153EC102B01A821F0A6FC95
:1054100018E010EE100AFCF7DEFA41EC100B44A184
:1054200053EC102B01A821F099FC0BE010EE100AB0
:10543000FCF7D1FA41EC100B3FA153EC102B01A863
:1054400021F08CFC5B2240F20B2101A806F024FA2B
:1054500095F9000006EB8000408801280CD0022856
:105460001ED0032830D0042871D0052869D0062822
:1054700068D0072867D0BDE0206890ED040AD0ED21
:10548000030A30EE600A10EE100AFCF7A4FA41ECB1
:10549000100B1DA153EC102B01A821F05FFCA9E01B
:1054A000206890ED040AD0ED030A30EE600A10EE99
:1054B000100AFCF790FA41EC100B15A153EC102BDD
:1054C00001A821F04BFC95E0206890ED040AD0ED96
:1054D000030A30EE600A10EE100AFCF77CFA41EC89
:1054E000100B0DA153EC102B01A82DE08C03002014
:1054F0007C030508ACF3040840D8040884F50208CE
:105500007C03002000007A4425352E316675730037
:1055100025352E33666D730025352E32666D73008A
:1055200025352E31666D730025352E3366730000E8
:1055300025352E326673000025352E316673000046
:1055400005E019E02DE041E021F008FC52E0206880
:1055500090ED040AD0ED030A30EE600A10EE100A56
:10556000FCF739FA41EC100B53EC102BAFF2500161
:1055700001A821F0F3FB3DE0206890ED040AD0ED96
:10558000030A30EE600A10EE100AFCF724FA41EC30
:10559000100B53EC102BAFF2700101A821F0DEFBD1
:1055A00028E0206890ED040AD0ED030A30EE600A8E
:1055B00010EE100AFCF70FFA41EC100B53EC102B15
:1055C000AFF2940101A821F0C9FB13E0206890ED2F
:1055D000040AD0ED030A30EE600A10EE100AFCF760
:1055E000FAF941EC100B53EC102BAFF2B40101A807
:1055F00021F0B4FB732240F20B2101A806F04CF914
:10560000732240F24521232006F086F8364E2068AA
:10561000344D96F90020B0F9061005EB8202C1F175
:10562000F00152889FED318A514300EE101AF8EED6
:10563000C00A80EE880A80ED030A10EE100AFCF71B
:10564000CAF941EC100B2AA153EC102B01A821F050
:1056500085FB3F2240F24E2101A806F01DF920688B
:1056600096F9002005EB8202B0F908105288C1F1CA
:10567000F001514300EE101AF8EEC00A80EE880ADD
:1056800080ED040A10EE100AFCF7A5F941EC100BAE
:1056900017A153EC102B01A821F060FB5B224FF403
:1056A000137101A806F0F8F8206890ED030AD0ED18
:1056B000040A30EE600A10EE100AFCF78CF941EC97
:1056C000100B0BA153EC102B01A821F047FB732208
:1056D00040F24E2101A806F0DFF810B0BDEC028BBD
:1056E00070BD00006CF402087D03002000504347A9
:1056F00025352E336656000030B5584C564D85B0D2
:105700002268296802F58050B0F9F634B0F9F8043F
:10571000184402EB40004FF4A273B0F8D82400EE16
:10572000102AB8EE400A81ED000AB0F8DA2400F53C
:105730009B6000BF00EE102A30F804CFB8EE400A9C
:1057400081ED010A00EE10CA4288B8EE400A81EDF0
:10575000020A08315B1EEDD1216801F58050B0F9D5
:10576000F624B0F9F8341A4402F2892201EB42011E
:10577000B1F8D81400EE101A2968B8EE400A01F604
:10578000242181ED000A90F8FC0440F28A210128CE
:105790000CD0022812D0032818D004281ED00528C7
:1057A00024D006282AD0072830D036E000912C4A91
:1057B000512101A8AB68FBF7BAF82EE00091294A05
:1057C000512101A8AB68FBF7B2F826E00091264A08
:1057D000512101A8AB68FBF7AAF81EE00091234A0B
:1057E000512101A8AB68FBF7A2F816E00091204A0E
:1057F000512101A8AB68FBF79AF80EE000911D4A11
:10580000512101A8AB68FBF792F806E000911A4A13
:10581000512101A8AB68FBF78AF8D5E9001240F2E4
:105820008A2301A8FAF7EAFD6868D4F8003000F18D
:10583000C80100204FF41672B1EC010A03EB4004DA
:10584000401C521EBCEEC00A10EE10CAA4F828C0BC
:10585000F2D105B030BD0000EC0400209003002020
:105860007C140308C015030804170308481803082C
:105870008C190308D01A0308141C030870B5594C7E
:10588000574D84B02068296800F58052B2F9F6348B
:10589000B2F9F8241A4400EB42004FF4A273B0F8B6
:1058A000D82400EE102AB8EE400A81ED000AB0F8C4
:1058B000DA2400F59B6000BF00EE102A30F804CF18
:1058C000B8EE400A81ED010A00EE10CA4288B8EE37
:1058D000400A81ED020A08315B1EEDD1216801F515
:1058E0008050B0F9F624B0F9F8341A4402F2892253
:1058F00001EB42013C4AB1F8D81400EE101A2968B5
:10590000B8EE400A01F6242181ED000A90F8FD046A
:1059100040F28A2101280CD0022812D0032818D086
:1059200004281ED0052824D006282AD0072830D0E5
:1059300036E0009113682D4A512101A8FAF7F7FFCC
:105940002EE0009113682A4A512101A8FAF7EFFFCF
:1059500026E000911368274A512101A8FAF7E7FFD2
:105960001EE000911368244A512101A8FAF7DFFFD5
:1059700016E000911368214A512101A8FAF7D7FFD8
:105980000EE0009113681E4A512101A8FAF7CFFFDB
:1059900006E0009113681B4A512101A8FAF7C7FFDE
:1059A000194E40F28A2301A832682968FAF726FDC9
:1059B0003068D4F8003000F1C80100204FF41672AE
:1059C000B1EC010A03EB4004401C521EBCEEC00ABD
:1059D00010EE10CAA4F828C0F2D104B070BD0000C7
:1059E000EC04002090030020F4040020A00B030826
:1059F000E40C0308280E03086C0F0308B01003081A
:105A0000F411030838130308F004002070B5594C52
:105A1000574D84B02068296800F58052B2F9F634F9
:105A2000B2F9F8241A4400EB42004FF4A273B0F824
:105A3000D82400EE102AB8EE400A81ED000AB0F832
:105A4000DA2400F59B6000BF00EE102A30F804CF86
:105A5000B8EE400A81ED010A00EE10CA4288B8EEA5
:105A6000400A81ED020A08315B1EEDD1216801F583
:105A70008050B0F9F624B0F9F8341A4402F28922C1
:105A800001EB42013C4AB1F8D81400EE101A296823
:105A9000B8EE400A01F6242181ED000A90F8FE04D8
:105AA00040F28A2101280CD0022812D0032818D0F5
:105AB00004281ED0052824D006282AD0072830D054
:105AC00036E0009113682D4A512101A8FAF72FFF03
:105AD0002EE0009113682A4A512101A8FAF727FF06
