:020000040800F2
:10000000000B00209D010008191600082F100008A1
:1000100085140008D5080008ED370008000000002E
:10002000000000000000000000000000911B00081C
:10003000090B000800000000431A00089B25000877
:10004000B7010008B7010008B7010008B7010008B0
:10005000B7010008B70100080D0B0008B701000840
:10006000B7010008810B0008B7010008B7010008BC
:10007000B7010008B7010008B7010008B701000880
:10008000B7010008B7010008B7010008B701000870
:10009000B7010008B7010008B7010008B90B000854
:1000A000F1260008B7010008B7010008B7010008F1
:1000B000B7010008B7010008B7010008B701000840
:1000C000B7010008B7010008B7010008B701000830
:1000D000B7010008B7010008A93500081D3600085F
:1000E000450B0008B7010008B7010008B701000878
:1000F00049280008B7010008B7010008B701000847
:10010000B7010008B7010008B7010008B7010008EF
:10011000B701000845350008B70100082527000889
:10012000B7010008B7010008B7010008B7010008CF
:10013000B7010008B7010008B7010008B7010008BF
:10014000B7010008B7010008B7010008B7010008AF
:10015000B7010008B7010008B7010008B70100089F
:10016000B7010008B7010008B7010008B70100088F
:10017000B7010008B7010008B7010008B70100087F
:10018000B7010008B7010008DFF80CD000F064FAEE
:100190000048004725420008000B00200648804721
:1001A00006480047FEE7FEE7FEE7FEE7FEE7FEE75C
:1001B000FEE7FEE7FEE7FEE79D250008890100084F
:1001C000421C10F8011B0029FBD1801A704770B542
:1001D000064603F033FB046805460A220021304638
:1001E00000F049F82C6070BD30B50B460146002088
:1001F0002022012409E021FA02F59D4205D303FAE9
:1002000002F5491B04FA02F52844151EA2F1010269
:10021000F1DC30BD2DE9F05F0546002092469B469B
:1002200088460646814640241BE02846414647460C
:10023000224600F032FA53465A46C01A914110D372
:1002400011461846224600F019FA2D1A67EB0108EC
:100250004F4622460120002100F010FA17EB00095A
:100260004E41201EA4F10104DFDC484631462A46F7
:100270004346BDE8F09F2DE9F04791460F46804682
:100280000446002614F8015B2DB100F029FA00683D
:10029000405DC007F6D12B2D02D02D2D18D0641E45
:1002A0004A463946204600F01FFA27B13968A14274
:1002B00001D1C7F8008071054FF002040BD5404210
:1002C000002803DD03F0BAFA0460A007BDE8F08758
:1002D00046F48066E4E70028F8DA03F0AFFA046039
:1002E0006FF00040F2E72DE9FE4F804681EA0300FF
:1002F000C00F0C46009021F0004123F00045B8EB00
:100300000200A94105D24046214690461C460B46B4
:10031000024623F00040104347D0270DC7F30A00E0
:10032000C3F30A510290401A019040286BDAC3F3DC
:10033000130040F4801B0098924620B10023D2EBBA
:10034000030A63EB0B0B01985946C0F1400250467B
:1003500000F094F906460D4650465946019A00F0C1
:10036000ACF910EB08006141002487EA115284EADD
:10037000E7731A4340D0009A62B3019A012A4FEA08
:10038000075215DC001B61EB02014FF0004202EA4C
:100390000752CDE90042001C41F5801132462B4640
:1003A00000F000FA03B0BDE8F08F40462146F9E7BF
:1003B000001B61EB0201001C41F5801300185B413A
:1003C0002018A2F5001747EB030140EAD570B619D3
:1003D0006D4111E06D084FEA360645EAC0754FEAF7
:1003E0000752001B61EB0201001C41F58011490816
:1003F0004FEA30000019514132462B4603B0BDE8A8
:10040000F04F00F0C0B90098012240000023D0EB6B
:10041000020263EBE073009821464FEAE074B8EB08
:10042000000061EB0401E9E783F000435BE781F042
:10043000004158E72DE9FE4F81EA030404F000442F
:1004400021F0004100944FF0000B23F0004350EAEC
:1004500001045ED052EA03045BD0C3F30A54C1F333
:100460000A552C44A4F2F3340194A0FB0254C1F3C6
:10047000130141F48011C3F3130343F4801301FB10
:10048000024400FB034E840A970A44EA815447EA77
:100490008357A4FB076802958D0A05FB07854FEA81
:1004A000932C04FB0C542705029D4FEA065847EA9B
:1004B0001637B5EB08056EEB070C870E920E47EA70
:1004C000811742EA8312A7FB0201B6EB0B0164EB32
:1004D00000042B0D43EA0C335E1844EB1C50DA4643
:1004E0005146E7FB0201C5F313044FEA0B3343EA1D
:1004F00014534FEA0432019C43EA0603A4F10C04AE
:100500000294009CCDE900B400F04CF903B0BDE8C2
:10051000F08F00200146F9E72DE9F04D81EA030450
:1005200004F0004B21F0004514464FF0000A23F080
:10053000004150EA050220D054EA01021DD0C5F363
:100540000A570246C5F31303C1F31300C1F30A5659
:1005500040F4801543F48013A7EB0608101BD64621
:1005600008F2FD3873EB050002D308F1010801E041
:1005700092185B41B8F1000F03DA00200146BDE894
:10058000F08D00204FF48011064684460EE0171BC4
:1005900073EB050705D3121B63EB050306434CEA17
:1005A000010C49084FEA300092185B4150EA0107FC
:1005B000EDD152EA030012D082EA040083EA050179
:1005C000084305D0101BAB4106D20122002306E0F0
:1005D00000224FF0004302E06FF0010253101AEBCB
:1005E00006004CEB085110EB0A0041EB0B01BDE893
:1005F000F04D00F0C8B8C1F30A52C1F3130140F244
:10060000FF3341F480119A4202DA0020014670471C
:1006100040F233439A42A2F2334202DC524200F0EB
:100620003CB800F02BB8000030B5041E71F1000496
:1006300004DB4FF00044404264EB0101141E73F1EF
:10064000000405DB1C464FF00043524263EB0403F9
:10065000994208BF904230BD064C074D06E0E06865
:1006600040F0010394E8070098471034AC42F6D3F9
:10067000FFF78EFD4450000864500008202A04DB78
:10068000203A00FA02F1002070479140C2F12003A5
:1006900020FA03F3194390407047202A04DB203AE4
:1006A00021FA02F00021704721FA02F3D040C2F192
:1006B00020029140084319467047202A06DBCB17D9
:1006C000203A41FA02F043EAE07306E041FA02F30D
:1006D000D040C2F120029140084319467047000003
:1006E00000487047405000082DE9F05F82460078CE
:1006F000002715468B460AF10104B946302801D07F
:100700009DB113E014F8010B0127782803D0582875
:1007100001D045B10AE00DB1102D07D100271025F9
:1007200014F8010B02E0082500E00A250026B04677
:100730000EE005FB080005FB06F1012701EB104662
:100740001FFA80F8B6F5803F00D3B94614F8010BC4
:10075000294600F075F80028EBDABBF1000F05D050
:100760000FB1641E00E05446CBF80040B9F1000F11
:1007700006D003F063F802210160C81EBDE8F09FB7
:1007800048EA0640FAE710B5141E73F1000408DACF
:10079000401C41F1000192185B411A4301D120F045
:1007A000010010BD2DE9F04D92469B4611B1B1FA02
:1007B00081F202E0B0FA80F220329046FFF75EFF4D
:1007C00004460F4640EA0A0041EA0B0153465A46E6
:1007D000084313D0114653EA010019D0C8F1400272
:1007E0005046FFF75AFF05460E46504659464246C8
:1007F000FFF744FF084305D0012004E020463946B6
:10080000BDE8F08D0020054346EAE0762C433743EF
:100810000A986305E40AA0EB08000022FD0A44EAF6
:1008200047540A3002D500200146E9E701051019B6
:100830006941DDE9084500196941BDE8F04DA2E7CD
:100840003A2800D2303820F02002412A01D3A2F108
:100850003700884201D34FF0FF30704710B582B0A7
:100860000121102001F0EEF801218DF80410002183
:100870008DF80610032102208DF80510064C00901B
:100880008DF807006946204600F068FB02212046EB
:1008900000F0CBFB02B010BD0010024070B50C4C54
:1008A0000025C4F88452642004F5217403F04EFC42
:1008B00001262660642003F049FC2560642003F0D3
:1008C00045FC2660642003F041FC256070BD0000FB
:1008D00000004242FEE70000F0B41C4AD2F814C205
:1008E0001B4B4142BCF1000F04BFD3F804C2BCF162
:1008F000000F1ED0D2F81472164E174DDFF85CC0F0
:10090000174C012F04BFD3F80472002F16D0D2F871
:100910001412002907BFD3F804120129F0BC704754
:1009200030602860C0F10700CCF800002060F0BC07
:100930007047F0BC4FF0000000F08CBDC01F30606D
:100940002860CCF800102160F0BC704700004242E3
:100950000000414220000020240000202800002048
:100960002C00002070B41C49D1F814321B4A002B13
:1009700004BFD2F80C32002B1ED0D1F81462184CF0
:10098000184D194BDFF864C0002E04BFD2F80C627A
:10099000012E17D0D1F81412012907BFD2F80C127A
:1009A000002970BC7047C0F1070121602960186000
:1009B000CCF8000070BC704770BC01464FF00000DE
:1009C00000F048BD414221602960C01F1860CCF88A
:1009D000000070BC7047000000004042000041422F
:1009E0002000002024000020280000202C000020EF
:1009F0002DE9F0011D4BD3F81812DFF874C0424204
:100A0000002904BFDCF83C12002920D0D3F818825A
:100A1000184C194D194E1A4F00F10701B8F1010F8A
:100A200004BFDCF83C82B8F1000F17D0D3F81802ED
:100A3000002807BFDCF83C020128BDE8F001704740
:100A40002260296031603A60BDE8F0017047BDE87E
:100A5000F0014FF00001104600F0FCBC494221605B
:100A6000286030603960BDE8F00170470000424204
:100A70000000414220000020240000202800002027
:100A80002C00002070B41B4AD2F83412002904BF95
:100A9000D2F80012002920D0D2F83462164D174B3C
:100AA000DFF85CC0174C00F10701002E04BFD2F83C
:100AB0000062012E16D0D2F83462012E07BFD2F8A0
:100AC0000022002A70BC70472960C0F10000186045
:100AD000CCF80000216070BC704770BC4FF0000182
:100AE00000F0B8BC286049421960CCF800102060C2
:100AF00070BC70470000414220000020240000200C
:100B0000280000202C0000207047000010B50520B0
:100B100003F01CFB012000F071F8002808BF10BD95
:100B20000648D0F8000218B905480178491C017040
:100B3000BDE81040012000F05BB800000000414219
:100B40003300002010B5052003F000FB4FF40050E7
:100B500000F054F8002808BF10BD0748D0F8340250
:100B600018B906480178491C0170BDE810404FF4DF
:100B7000005000F03DB8000000004142320000206B
:100B800010B5052003F0E2FA082000F037F800283D
:100B900008BF10BD0648D0F80C0218B90548017806
:100BA000491C0170BDE81040082000F021B8000089
:100BB000000041423100002010B5052003F0C6FAC4
:100BC000202000F01BF8002808BF10BD0648D0F810
:100BD000140218B905480178491C0170BDE810409D
:100BE000202000F005B80000000040423000002046
:100BF0000149086070470000143C0140034A014667
:100C0000002012680A4218BF01207047143C0140BE
:100C10008379214A0168002B34D0136823EA01014B
:100C20001160111D0A6803689A430A60017901F195
:100C3000804101F59E310A6803681A430A60174A29
:100C40001168036899431160131D1968D0F800C03A
:100C500021EA0C0119604179102908D001F1804185
:100C600001F59E310A6800681043086070471168FA
:100C7000D0F800C041EA0C0111601968006808430F
:100C800018607047007900F1804000F59E300268DE
:100C900022EA010101607047003C0140083C01402C
:100CA000F0B501218BB0084600F0D8FE01210846BE
:100CB00000F0C8FE0121022000F0C4FE274F0122EF
:100CC0000F21384600F099F9254E012203213046C4
:100CD00000F093F902244FF400408DF814400125F0
:100CE00004908DF817508DF8154004A9384600F08F
:100CF00035F908208DF81C4006908DF81F508DF8AE
:100D00001D4006A9304600F029F9600701F0F9FD01
:100D100000244FF6FF70ADF800400190ADF8084098
:100D2000ADF802406946A80702F09CF80A231A466B
:100D30000321580701F0BFFE08A801F062FF06205A
:100D4000ADF8280008A9A80701F0DEFEA807446254
:100D5000012101F0C2FD0BB0F0BD00000000024017
:100D60000004024030B589B00121022000F076FE77
:100D70000121084600F066FE214C02220621204691
:100D800000F03BF902220721204600F036F9C0218D
:100D9000049102218DF8141001228DF817208DF88E
:100DA000151004A9204600F0D9F8164D284601F088
:100DB000A8FD00244FF6FF71ADF800400191ADF899
:100DC0000840ADF802406946284602F04BF80A2375
:100DD0001A460321284601F06EFE06A801F011FF15
:100DE0000621ADF8201006A9284601F08DFE064820
:100DF00004600121284601F070FD09B030BD0000FB
:100E000000000240000400402404004030B589B0D6
:100E10000121042000F022FE0121022000F012FE38
:100E2000214C02220621204600F0E7F80222072189
:100E3000204600F0E2F8C021049102218DF8141040
:100E400001228DF817208DF8151004A9204600F016
:100E500085F8164D284601F054FD00244FF6FF7129
:100E6000ADF800400191ADF80840ADF80240694688
:100E7000284601F0F7FF0A231A460321284601F00D
:100E80001AFE06A801F0BDFE0621ADF8201006A945
:100E9000284601F039FE064804600121284601F089
:100EA0001CFD09B030BD00000004024000080040F5
:100EB0002408004030B589B00121082000F0CEFDA3
:100EC0000121084600F0BEFD214C022200212046EF
:100ED00000F093F802220121204600F08EF8032151
:100EE000049102218DF8141001228DF817208DF83D
:100EF000151004A9204600F031F8164D284601F0DF
:100F000000FD00244FF6FF71ADF800400191ADF8EF
:100F10000840ADF802406946284601F0A3FF0A23C5
:100F20001A460321284601F0C6FD06A801F069FE15
:100F30000621ADF8201006A9284601F0E5FD064877
:100F400004600121284601F0C8FC09B030BD000052
:100F500000000240000C0040240C00402DE9F0018C
:100F60000022012603270B6806FA02FC03EA0C03A1
:100F700063453BD10568530007FA03F4A5430560B8
:100F80000D79D0F800809D4045EA080505600D798F
:100F9000012D18BF022D1AD1856825EA0405856048
:100FA0004D79D0F8088005FA03F545EA0805856013
:100FB000456825EA0C0CC0F804C0D0F804C08D794F
:100FC00005FA02F5ADB24CEA050CC0F804C0D0F841
:100FD0000CC02CEA040CC0F80CC091F807C00CFA45
:100FE00003F3D0F80CC043EA0C03C36002F1010222
:100FF000102AB8D3BDE8F00170474B07DB0E9A40CA
:10100000C90800EB8100016A4FF00F0C0CFA03F3E2
:1010100099430162016A1143016270470246002050
:1010200012690A4218BF0120704741837047FEE7EA
:1010300010B582B00121022000F004FD4FF4407091
:10104000012400908DF8044000208DF80600032054
:101050008DF805008DF8074069460548FFF77EFFCB
:101060000448C0F8A042C0F8A44202B010BD00007D
:1010700000040240008040422DE9F0410546164838
:10108000016821F440210160016841F48021016080
:10109000124E4FF00008C6F8A0824446012715F012
:1010A000800F14BFC6F8A472C6F8A4826806050EA5
:1010B000052003F07FF8C6F8A072052003F07AF847
:1010C000C6F8A082052003F075F8601CC4B2082C95
:1010D000E5D3BDE8F0810000000C024000804042F2
:1010E00070B50D48016821F440210160016841F4A8
:1010F00080210160094C0120C4F8A402C4F8A002B8
:10110000022004F5287403F055F8002565600220DC
:1011100003F050F8256070BD000C02400080404292
:101120000E4810B5016821F440210160016841F4C6
:10113000802101600A4C0020C4F8A002C4F8A40277
:10114000022004F5287403F035F801202060606067
:10115000BDE81040022003F02DB80000000C024052
:10116000008040422DE9F0411E4E0024306820F4FA
:1011700040203060306830601B4D0127C5F8A472F4
:10118000384603F017F8C5F8A072012003F012F8F2
:10119000D5F82402002100B3601CC4B2FA2C18D97F
:1011A000306820F440203060306840F480203060A7
:1011B000C5F8A012C5F8A412022002F0FBFFC5F882
:1011C000A072C5F8A472022002F0F4FF0120BDE86D
:1011D000F081D5F824020028DED1C5F8A012002045
:1011E000BDE8F081000C024000804042164A401ADF
:1011F0001169D2ED000A411A00EE101A92ED011A9F
:10120000B8EEC00A60EE200A00EE100AB8EEC00A7E
:1012100041EE000A92ED030AB8EEC00A30EE800AF1
:10122000BDEEC00A10EE101AC2E90310B1F57A7FC4
:10123000C8BF4FF47A7005DC11F57A7FB2BF03485E
:10124000D0687047D06070475000002018FCFFFF46
:10125000164A401AD169D2ED000A411A00EE101A5E
:1012600092ED011AB8EEC00A60EE200A00EE100AF4
:10127000B8EEC00A41EE000A92ED060AB8EEC00AC6
:1012800030EE800ABDEEC00A10EE101AC2E9061058
:10129000B1F57A7FC8BF4FF47A7005DC11F57A7F1B
:1012A000B2BF0348906970479061704750000020BA
:1012B00018FCFFFF164A401A916AD2ED000A411A43
:1012C00000EE101A92ED011AB8EEC00A60EE200A84
:1012D00000EE100AB8EEC00A41EE000A92ED090ACB
:1012E000B8EEC00A30EE800ABDEEC00A10EE101A49
:1012F000C2E90910B1F57A7FC8BF4FF47A7005DCF6
:1013000011F57A7FB2BF0348506A70475062704748
:101310005000002018FCFFFF164A401A516BD2ED16
:10132000000A411A00EE101A92ED011AB8EEC00A36
:1013300060EE200A00EE100AB8EEC00A41EE000A84
:1013400092ED0C0AB8EEC00A30EE800ABDEEC00A7B
:1013500010EE101AC2E90C10B1F57A7FC8BF4FF435
:101360007A7005DC11F57A7FB2BF0348106B7047C5
:10137000106370475000002018FCFFFF00B583B0D9
:101380000121102000F05EFB1520009000208DF858
:10139000040003208DF8050001208DF80700694640
:1013A0000248FFF7DBFD03B000BD00000010024063
:1013B00070B50125254C264E00280ABF20782570DF
:1013C00000280FD04FF001013046FFF727FE80B113
:1013D00004213046FFF722FE58B110213046FFF7B6
:1013E0001DFE30B101213046FFF718FE01282BD138
:1013F0001DE00A2002F0AAFE0020207001213046E4
:10140000FFF70CFE002804BF012070BD0421304608
:10141000FFF704FE002804BF022070BD10213046F3
:10142000FFF7FCFD002804BF032070BD0CE0042181
:101430003046FFF7F3FD012806D110213046FFF7B3
:10144000EDFD002808BF2570002070BD8800002039
:1014500000100240074B421A1A60DFF81CC0421805
:101460005342CCF80030081A04490860044802606E
:1014700070470000200000202400002028000020E9
:101480002C000020FEE700002DE9F0410D46074644
:101490008CB00121022000F0F9FA0121042000F0B3
:1014A000D1FADFF8D480032206214046FFF7A5FDDC
:1014B000032207214046FFF7A0FD032208214046F2
:1014C000FFF79BFD032209214046FFF796FD02220C
:1014D0008DF81C204FF47F708DF81D20002406909D
:1014E0008DF81E4001268DF81F6006A94046FFF7C3
:1014F00035FDADF82050214DADF822400997ADF8EB
:10150000284008A9284601F0ADFC684601F096FC89
:101510006021ADF800100294ADF80260ADF80C4007
:101520006946284601F07DFB0821284601F0ADFB05
:101530006946284601F0AFFB0821284601F0EEFB82
:101540006946284601F0F4FB0821284601F032FCE8
:101550006946284601F034FC0821284601F064FC65
:101560000121284601F0B9F90121284601F0BEF910
:101570000CB0BDE8F081000000080240000401400A
:1015800070B588B001211D2000F05CFA01248DF8AF
:10159000044003254FF480508DF80550002600903C
:1015A0008DF806608DF8074069461748FFF7D6FCAE
:1015B0008DF81C408DF81D508DF81E6006948DF836
:1015C0001F4006A91148FFF7C9FC8DF80C40A8027E
:1015D0008DF80D5002908DF80E608DF80F4002A925
:1015E0000B48FFF7BBFC8DF814404FF42C508DF8DE
:1015F000155004908DF816608DF8174004A9054821
:10160000FFF7ACFC08B070BD00000240000C0240C7
:1016100000080240001002407047000010B4C27879
:1016200001784FF00F0C01241AB3184A126801F127
:10163000E02102F4E062C2F5E062C2F30722C2F1E7
:1016400004032CFA02FC42789A40837803EA0C03E4
:101650001A43120181F80024007800F01F0104FAF7
:1016600001F14009800000F1E020C0F8001110BC39
:10167000704701F01F0004FA00F04909890001F1E8
:10168000E021C1F8800110BC704700000CED00E0C3
:10169000034940F0FD7040F0806008607047000032
:1016A0000CED00E070B5002505F1B000C0B200F00F
:1016B000AFF9012000F0ACF9102000F0A9F90024E6
:1016C0000026FFF70DFD7820FFF7D6FCFFF74AFD57
:1016D0004020FFF7D1FCFFF745FD3046FFF7CCFC7B
:1016E000FFF740FDFFF71CFD601CC4B2802CE7D360
:1016F000681CC5B2082DD7D370BD70B54FF4FA7011
:1017000002F024FDAE2000F083F9002000F080F903
:10171000102000F07DF9402000F07AF9812000F0DF
:1017200077F9CF2000F074F9A12000F071F9C820FA
:1017300000F06EF9A62000F06BF9A82000F068F91F
:101740003F2000F065F9D32000F062F9002000F09E
:101750005FF9D52000F05CF9802000F059F9D9201C
:1017600000F056F9F12000F053F9DA2000F050F9BA
:10177000122000F04DF9DB2000F04AF9402000F083
:1017800047F9202000F044F9022000F041F98D20B3
:1017900000F03EF9142000F03BF9A42000F038F9E5
:1017A000A62000F035F9AF2000F032F900263546CA
:1017B00005F1B000C0B200F02BF9012000F028F9CB
:1017C000102000F025F90024FFF78AFC7820FFF7AD
:1017D00053FCFFF7C7FC4020FFF74EFCFFF7C2FCAD
:1017E0003046FFF749FCFFF7BDFCFFF799FC611C91
:1017F000CCB2802CE8D3681CC5B2082DD8D3BDE884
:10180000704000210846AFF3008010B5044601F196
:10181000B000C0B200F0FCF8102040EA141000F054
:10182000F7F804F00F00BDE8104040F0010000F0B0
:10183000EFB800002DE9F0478846814600255401A5
:10184000FFF7E3FF1D4E375DFFF74AFC7820FFF7F7
:1018500013FCFFF787FC4020FFF70EFCFFF782FC2C
:101860003846FFF709FCFFF77DFCFFF759FC681CC1
:10187000C5B2641C102DE6D308F10100C1B2484680
:10188000FFF7C3FF0025375DFFF72AFC7820FFF73D
:10189000F3FBFFF767FC4020FFF7EEFBFFF762FC6E
:1018A0003846FFF7E9FBFFF75DFCFFF739FC681CE2
:1018B000C5B2641C102DE6D3BDE8F087C045000812
:1018C00070B582B0141E0E4605460DDA0DA200F06A
:1018D0001DF862420CA1684601F08AFF05F10C0078
:1018E000C0B26A46314609E0DCBF02B070BD06A155
:1018F000684601F07DFF6A463146284600F006F84A
:1019000002B070BD2D000000256400002DE9F04FED
:1019100005461078002783B092468846002812BFFB
:10192000DFF8E89003B0BDE8F08F1AF80700203820
:10193000C6B2782D04D908F10100002500F0FF0897
:1019400008F1B000C0B200F063F8102040EA151BA7
:10195000584600F05DF805F00F00019040F00100DE
:1019600000F056F8002404EB061019F8000000906F
:10197000FFF7B6FB7820FFF77FFBFFF7F3FB402074
:10198000FFF77AFBFFF7EEFB0098FFF775FBFFF719
:10199000E9FBFFF7C5FB601CC4B2082CE3D308F1D8
:1019A000B100C0B200F034F8584600F031F80198A8
:1019B00040F0010000F02CF8002404EB061048442D
:1019C00090F808B0FFF78CFB7820FFF755FBFFF786
:1019D000C9FB4020FFF750FBFFF7C4FB5846FFF759
:1019E0004BFBFFF7BFFBFFF79BFB601CC4B2082C4F
:1019F000E3D305F10800C5B2781CC7B21AF8070096
:101A0000002892D103B0BDE8F08F0000C84900085B
:101A100010B50446FFF764FB7820FFF72DFBFFF7B6
:101A2000A1FB00B1FEE70020FFF726FBFFF79AFBC2
:101A30002046FFF721FBFFF795FBBDE81040FFF7BD
:101A40006FBB7047044A0029116814BF084321EA9C
:101A5000000010607047000030380240044A00293E
:101A6000116814BF084321EA0000106070470000AD
:101A700040380240044A0029116814BF084321EA93
:101A8000000010607047000020380240044A00291E
:101A9000116814BF084321EA00001060704700007D
:101AA00044380240044A0029116814BF084321EA5F
:101AB00000001060704700002438024010B41D4C34
:101AC00021681D4A11F00C0118BF042901D0082912
:101AD00001D0026012E0194B1968196801F03F014A
:101AE000B2FBF1F11A68C2F3881251431A68C2F3CB
:101AF0000142521C5200B1FBF2F1016021680F2239
:101B00000F4B02EA1111595C026822FA01F141609F
:101B100022684FF0070C0CEA92229A5C21FA02F23A
:101B2000826022680CEA52329A5CD140C16010BCDB
:101B3000704700000838024040787D0104380240B8
:101B4000BC000020002101280CD0022810D003285E
:101B500013D004281CBF002070470A4A1068116087
:101B600000B270474FF08042506A516200B2704735
:101B7000054A1068116000B27047044A106811608D
:101B800000B270472404004024080040240C0040A8
:101B900070478A0721F0030101F1804101F5983176
:101BA000120F0F23D1F808C893402CEA0303C1F8A1
:101BB0000838D1F8083890401843C1F80808704731
:101BC00070B586B001211520FFF73CFF00254AF2D1
:101BD0000B008DF80C50032602908DF80D60012447
:101BE0008DF80F4002A93748FFF7B8F960208DF84B
:101BF0000C5002908DF80D608DF80F4002A932480C
:101C0000FFF7ACF920208DF80C5002908DF80D6094
:101C10008DF80F4002A92D48FFF7A0F90121880394
:101C2000FFF734FF00210220FFF7B3FF032102205A
:101C3000FFF7AFFF0D210220FFF7ABFF05210020CA
:101C4000FFF7A7FF42F2290004908DF814500C20F2
:101C50008DF815008DF8164004A8FEF7D9FF062070
:101C60008DF800008DF801408DF802408DF803409A
:101C70006846FFF7D3FC09208DF800008DF801407D
:101C80008DF802408DF803406846FFF7C7FC172027
:101C90008DF800008DF801408DF802408DF803406A
:101CA0006846FFF7BBFC28208DF800008DF8014046
:101CB0008DF802408DF803406846FFF7AFFC06B090
:101CC00070BD000000080240001002400000024009
:101CD0002DE9F0472A4E81462DED028B884630686B
:101CE000B9EB000448BF64429FED268ADFED268AE7
:101CF000264F8145C4BF0025002C19DD3068401CEB
:101D00003060B5280ED200EE100A3846F8EEC00A50
:101D1000B0EE680A00EE880ABDEEC00A10EE101A96
:101D200001F098F8404602F011FA6D1CA542E5DB7F
:101D300030684845C7BF0025002CBDEC028BBDE8CC
:101D4000F0873068401E3060B5280ED200EE100AD1
:101D50003846F8EEC00AB0EE680A00EE880ABDEE1A
:101D6000C00A10EE101A01F075F8404602F0EEF9C4
:101D70006D1CA542E5DBBDEC028BBDE8F0870000E1
:101D80003C000020555505420080BB440000014046
:101D90002DE9F0472A4E81462DED028B884670686A
:101DA000B9EB000448BF64429FED268ADFED268A26
:101DB000264F8145C4BF0025002C19DD7068401CEA
:101DC0007060B5280ED200EE100A3846F8EEC00A50
:101DD000B0EE680A00EE880ABDEEC00A10EE101AD6
:101DE00001F036F8404602F0B1F96D1CA542E5DB82
:101DF00070684845C7BF0025002CBDEC028BBDE8CC
:101E0000F0877068401E7060B5280ED200EE100A90
:101E10003846F8EEC00AB0EE680A00EE880ABDEE59
:101E2000C00A10EE101A01F013F8404602F08EF9C5
:101E30006D1CA542E5DBBDEC028BBDE8F087000020
:101E40003C000020555505420080BB440000014085
:101E50002DE9F0472A4E81462DED028B8846B06869
:101E6000B9EB000448BF64429FED268ADFED268A65
:101E7000264F8145C4BF0025002C19DDB068401CE9
:101E8000B060B5280ED200EE100A3846F8EEC00A4F
:101E9000B0EE680A00EE880ABDEEC00A10EE101A15
:101EA00000F0DCFF404602F051F96D1CA542E5DB75
:101EB000B0684845C7BF0025002CBDEC028BBDE8CB
:101EC000F087B068401EB060B5280ED200EE100A50
:101ED0003846F8EEC00AB0EE680A00EE880ABDEE99
:101EE000C00A10EE101A00F0B9FF404602F02EF9B9
:101EF0006D1CA542E5DBBDEC028BBDE8F087000060
:101F00003C000020555505420080BB4400000140C4
:101F10002DE9F0472A4E81462DED028B8846F06868
:101F2000B9EB000448BF64429FED268ADFED268AA4
:101F3000264F8145C4BF0025002C19DDF068401CE8
:101F4000F060B5280ED200EE100A3846F8EEC00A4E
:101F5000B0EE680A00EE880ABDEEC00A10EE101A54
:101F600000F07AFF404602F0F1F86D1CA542E5DB77
:101F7000F0684845C7BF0025002CBDEC028BBDE8CA
:101F8000F087F068401EF060B5280ED200EE100A0F
:101F90003846F8EEC00AB0EE680A00EE880ABDEED8
:101FA000C00A10EE101A00F057FF404602F0CEF8BB
:101FB0006D1CA542E5DBBDEC028BBDE8F08700009F
:101FC0003C000020555505420080BB440000014004
:101FD000F0B50D46064601218BB00846FFF756FDC9
:101FE00001210846FFF72EFD324F01220821384615
:101FF000FFF703F8012209213846FEF7FEFF012210
:102000000A213846FEF7F9FF01220B213846FEF778
:10201000F4FF4FF47062089202228DF824208DF8AC
:10202000252000248DF8264008A93846FEF796FFA3
:10203000ADF81450204DADF816400696ADF81C4092
:1020400005A9284600F00EFF684600F0F7FE602163
:10205000ADF800100121ADF802100294ADF80C406B
:102060006946284600F0DDFD0821284600F00DFEF7
:102070006946284600F00FFE0821284600F04EFE73
:102080006946284600F054FE0821284600F092FEDA
:102090006946284600F094FE0821284600F0C4FE58
:1020A0000121284600F019FC0121284600F01EFC01
:1020B0000BB0F0BD0000024000000140F0B4224F20
:1020C000224E234D01244FF0000C0028A7BFC7F873
:1020D000B042C6F880C2C7F8B0C2C6F88042B8BFE6
:1020E000404228601B481C4D002905DBC0F8A8426F
:1020F000C0F8ACC2296005E0C0F8A8C2C0F8AC4284
:102100004842286015491648002AA7BFC0F8B442C3
:10211000C0F8ACC2C0F8B4C2C0F8AC42B8BF5242BA
:102120000A601049002B06DBC0F8A042C0F8A4C228
:102130000B60F0BC7047C0F8A0C2C0F8A44258427F
:102140000860F0BC7047000000004042008041423F
:102150003C0401400000414240040140340401407D
:10216000000042423804014010B4052204231549FE
:102170004FF0030C072824BF10BC7047DFE800F0C5
:102180001004080C12161C00C1F81CC00B6206E0FB
:10219000C1F81CC04B620CE0C1F820C0CB614A62A0
:1021A00010BC7047C1F820C04B6208E0C1F824C0E1
:1021B000CB610A6210BC7047C1F824C00B62CA61CF
:1021C00010BC70478C00002010B405220423154970
:1021D0004FF0030C072824BF10BC7047DFE800F065
:1021E0001004080C12161C00C1F810C04B6106E068
:1021F000C1F810C08B610CE0C1F814C00B618A619A
:1022000010BC7047C1F814C08B6108E0C1F818C059
:102210000B614A6110BC7047C1F818C04B610A617C
:1022200010BC70478C00002070B57A4E308810F4D6
:10223000004F08BF70BD7848FDF7C9FF774C60803C
:102240006088774A002502F10C01E7287BD007DC83
:102250007B2810D0842831D0D52851D000F0D8B8B0
:10226000B0F59C7F00F09180A0F58070413800F0BF
:10227000AE8000F0CDB860681060A0685060E06883
:1022800090602069086060694860A06988600122E8
:1022900000215020FFF7CEFA022200216020FFF734
:1022A000C9FA032200217020FFF7C4FA5DA002F0F2
:1022B00005F92570FEF7F2FA00F0AAB86068106020
:1022C000E0685060A068906020690860A06948607C
:1022D00060698860012200215020FFF7ABFA0322D9
:1022E00000216020FFF7A6FA022200217020FFF7EC
:1022F000A1FA53A002F0E2F82570FEF7CFFA87E0CA
:10230000A068106060685060E06890606069086074
:1023100020694860A0698860022200215020FFF7F0
:1023200089FA012200216020FFF784FA03220021AC
:102330007020FFF77FFA49A002F0C0F82570FEF781
:10234000ADFA65E0FFE7A0681060E0685060606883
:10235000906060690860A069486020698860022216
:1023600000215020FFF766FA032200216020FFF7CA
:1023700061FA012200217020FFF75CFA3EA002F012
:102380009DF82570FEF78AFA42E0E0681060606808
:102390005060A0689060A06908602069486060692A
:1023A0008860032200215020FFF744FA0122002117
:1023B0006020FFF73FFA022200217020FFF73AFA6F
:1023C00034A002F07BF82570FEF768FA20E0E068A0
:1023D0001060A068506060689060A06908606069E3
:1023E000486020698860032200215020FFF722FA0C
:1023F000022200216020FFF71DFA01220021702037
:10240000FFF718FA2AA002F059F82570FEF746FAED
:10241000358070BD4C000020D00000208C000020D2
:10242000D0040020E8AF86E588ABE588B0E4BA8C3C
:10243000E7BBB4E7A081203A203132333F000000EF
:10244000E8AF86E588ABE588B0E4BA8CE7BBB4E7D3
:10245000A081203A203133323F000000E8AF86E50A
:1024600088ABE588B0E4BA8CE7BBB4E7A081203A3A
:10247000203231333F000000E8AF86E588ABE588C5
:10248000B0E4BA8CE7BBB4E7A081203A2032333104
:102490003F000000E8AF86E588ABE588B0E4BA8C81
:1024A000E7BBB4E7A081203A203331323F0000007F
:1024B000E8AF86E588ABE588B0E4BA8CE7BBB4E763
:1024C000A081203A203332313F0000002DE9F04155
:1024D0000C1A00201646002CC4BF0F4D287006DDD4
:1024E0003046FEF73FFA2878A042F9DB0EE00DDA1D
:1024F0000A4D6742287002E03046FEF7EDF9002CE5
:10250000ACBF2146394628788142F5DCBDE8F04170
:1025100000210846FEF79EBF320000203300002055
:102520002DE9F0410C1A00201646002C0EDD134D4B
:1025300028704FEA440000F10204002C17DD3046F9
:10254000FEF756FA28788442F9DC10E00FDA0C4DD9
:102550006742287002E03046FEF794FA002CACBFC8
:102560002146394648002978801C8842F3DCBDE8C2
:10257000F04100210846FEF76DBF0000300000204A
:10258000310000204FF0E021042808690CBF40F022
:10259000040020F004000861704770473B4882B097
:1025A000016841F4700101603948016841F001019E
:1025B000016038494FF0000CC1F800C0026822F4F5
:1025C000102222F080720260031D334A1A600268F2
:1025D00022F4802202600A1DC2F800C0CDF800C0BB
:1025E000CDF804C0026842F480320260026802F44E
:1025F00000320192009A521C0092019A1AB9009A74
:10260000B2F5A04FF2D1026812F4003F08BFCDF836
:1026100004C034D001220192204AD2F800C04CF00C
:10262000805CC2F800C01E4AD2F800C04CF4404C96
:10263000C2F800C00A680A600A6842F400420A60F0
:102640000A6842F4A0520A60164A1A60026842F010
:1026500080720260026812F0007FFBD0124A40F2E2
:1026600005701060086820F003000860086840F0FA
:1026700002000860086800F00C000828FAD10B4935
:102680004FF00060086002B07047000088ED00E085
:102690000038024008380240103000244038024020
:1026A0000070004019544007003C024008ED00E073
:1026B00030B4B0F820C02CF0100CA0F820C0048B6F
:1026C000B0F820C04FF6FF7524F4734405EA0333D5
:1026D000234305EA02221A4305EA01112CF0A00364
:1026E000194341F010010283018430BC704700009F
:1026F00010B50A4C218A11F0010F08BF10BD08491E
:1027000020460A8842F400420A80012100F0E2F8E3
:102710002046BDE81040002100F0DFB80040014035
:102720008A0000202DE9F041224E0121304600F0C0
:10273000E0F9012837D1FFF705FA1F4D2860022084
:10274000FFF700FA1D4C20600320FFF7FBF91C4F38
:1027500038600420FFF7F6F9DFF86880C8F8000059
:10276000194801682868FEF741FD184D286018488F
:1027700001682068FEF76CFD164C20601648016861
:102780003868FEF797FD154F386015480168D8F88E
:102790000000FEF7C1FD134908600B683A68216824
:1027A0002868FFF78BFC3046BDE8F041012100F0BE
:1027B00091B8000000140040100000201400002018
:1027C000180000201C000020200000200000002035
:1027D0002400002004000020280000200800002021
:1027E0002C0000200C00002030B50D46044685B0BA
:1027F00001212020FFF732F90194ADF800500024A8
:10280000104DADF80240ADF808406946284600F08A
:1028100029FB01221146284600F0FBF937218DF8EB
:102820000C108DF80D4002218DF80E1001218DF84D
:102830000F1003A8FEF7F2FE0121284600F04DF824
:1028400005B030BD0014004010B5084C01212046F1
:1028500000F04FF9012803D105480188491C018087
:102860002046BDE81040012100F034B8001C0040B3
:102870003400002030B50D460446012185B008041F
:10288000FFF704F90194ADF800500024104DADF8A5
:102890000840ADF802406946284600F0E3FA0122FC
:1028A0001146284600F0B5F90121284600F015F838
:1028B00018208DF80C008DF80D4001208DF80E00C9
:1028C0008DF80F0003A8FEF7A9FE05B030BD00008B
:1028D00000400140C943018270470029018814BFAC
:1028E00041F0010121F00101018070470029B0F899
:1028F000441014BF41F40041C1F30E01A0F844108C
:10290000704710B5A0F18041B1F580314AD0B0F1E7
:10291000804F5BD0A0F18041B1F580614CD0A0F137
:102920008041B1F500615BD0A0F18041B1F540611B
:1029300060D0A0F18041B1F5805165D0A0F1804117
:10294000B1F5A0516AD0A0F18041B1F582316FD0CC
:10295000A0F18041B1F5A03174D0A0F18041B1F572
:10296000A2317AD0A0F18041B1F5A4317DD0A0F19F
:102970008041B1F5C05179D0A0F18041B1F5E0516D
:1029800075D0A0F18041B1F5005118BF10BD0121F3
:102990000802FFF76FF8BDE8104000214FF4807087
:1029A000FFF768B801210846FFF77CF80021BDE871
:1029B00010400120FFF776B801210220FFF75AF8F6
:1029C0000021BDE810400220FFF754B8012108465D
:1029D000FFF750F80021BDE810400120FFF74AB88A
:1029E00001210420FFF746F80021BDE81040042033
:1029F000FFF740B801210820FFF73CF80021BDE8AF
:102A000010400820FFF736B801211020FFF732F8F8
:102A10000021BDE810401020FFF72CB80121202034
:102A2000FFF728F80021BDE810402020FFF722B86A
:102A300001210220FFF736F80021BDE810400220F6
:102A4000FFF730B801210804FFF72CF8BDE810406B
:102A500000214FF48030FFF725B801214804FFF72B
:102A600021F800214FF4003002E005E00FE018E00B
:102A7000BDE81040FFF716B801218804FFF712F8EF
:102A8000BDE8104000214FF48020FFF70BB8012172
:102A90004020FEF7EFFF0021BDE810404020FEF788
:102AA000E9BF01218020FEF7E5FF0021BDE81040CD
:102AB0008020FEF7DFBF30B40589B0F818C0048C61
:102AC00025F0070529432CF0030C2CF4407C40F240
:102AD00001154CEA050C4FF6FF7505EA031324F0C7
:102AE00022041A4322430181A0F818C0028430BC9A
:102AF0007047038A002280890B4200EA01001CBF54
:102B0000002801221046704770B50C46054608881B
:102B10004988A28823894FF6FF7638B3042843D02A
:102B20000828288C4ED020F480502884B5F81CC08A
:102B3000288C2CF4734C06EA022242EA0C0206EAC4
:102B400003331A4306EA013120F42040084340F4DD
:102B50008050AA832884A079A98B21F44061A9839D
:102B6000A98B06EA00200843A88370BD288C20F0BA
:102B700001002884B5F818C0288C06EA03131A430C
:102B80002CF0F30C20F00A0042EA0C02084340F05B
:102B900001002A832884E088298B21F00C012983F5
:102BA000298B0843288370BD2846FFF781FDA07953
:102BB000298B21F440612983298B06EA00200843F0
:102BC000288370BD20F480702884B5F81CC0288C40
:102BD00006EA03131A4306EA01212CF0F30C20F451
:102BE000206042EA0C02084340F48070AA832884E3
:102BF000E088A98B21F00C01A983A98B0843A88345
:102C000070BD00210180418001228280C18001814C
:102C10007047002A828914BF114322EA0101818191
:102C2000704710B4028C22F001020284028C838867
:102C3000B0F818C00C882CF0730C44EA0C0C8C898A
:102C400022F0020222434C882243A0F18044B4F5D2
:102C500080341CBFA0F18044B4F582340DD1CC89FE
:102C600022F0080222438C8822F0040222430C8ABC
:102C700023F4407323434C8A23438380A0F818C075
:102C800089684163028410BC7047028B22F00802FD
:102C900011430183704730B4028C22F01002028489
:102CA000028C8388B0F818C00D882CF4E6444FF6E7
:102CB000FF7C0CEA05252C438D8922F020020CEACA
:102CC00005152A434D880CEA05152A43A0F18045D5
:102CD000B5F580351CBFA0F18045B5F5823516D11C
:102CE000CD8922F080020CEA05152A438D8822F056
:102CF00040020CEA05152A430D8A23F440630CEACE
:102D000085052B434D8A0CEA850C4CEA030383802E
:102D1000048389688163028430BC7047028B4FF65C
:102D2000FF7322F4006203EA01211143018370471B
:102D300030B4028C22F480720284028C8388B0F852
:102D40001CC00C882CF0730C44EA0C048D894FF6DF
:102D5000FF7C22F400720CEA05252A434D880CEA18
:102D600005252A43A0F18045B5F580351CBFA0F1AB
:102D70008045B5F5823516D1CD8922F400620CEA82
:102D800005252A438D8822F480620CEA05252A4312
:102D90000D8A23F440530CEA05152B434D8A0CEAA7
:102DA000051C4CEA0303838084838968C163028421
:102DB00030BC7047828B22F0080211438183704738
:102DC00030B4028C22F480520284038C8288B0F8E2
:102DD0001CC00D884FF6FF742CF4E64C04EA052560
:102DE00045EA0C0C8D8923F4005304EA05352B4386
:102DF0004D8804EA05352B43A0F18045B5F58035B3
:102E00001CBFA0F18045B5F5823505D10D8A22F4AD
:102E1000804204EA851422438280A0F81CC089689D
:102E20000164038430BC7047828B4FF6FF7322F439
:102E3000006203EA01211143818370470021018070
:102E40004180818081608181C1810182418270479E
:102E50004163704781637047C16370470164704785
:102E60004162704710B402881C4BDFF874C098426E
:102E700018BF604511D0B0F1804F1CBFA0F1804455
:102E8000B4F5806409D0A0F18044B4F500641CBF9F
:102E9000A0F18044B4F5406403D14C8822F0700264
:102EA0002243A0F18044B4F580541CBFA0F18044BB
:102EB000B4F5A05403D00C8922F44072224302805E
:102EC0004A68C2620A880285984212BF6045897AC0
:102ED00001864FF00101818210BC70470000014063
:102EE0000004014070B50F4C002525701420FDF73B
:102EF0007FFD20780228F9D325702820FDF778FD82
:102F000020780A28F9D3084C25701420FDF770FDAD
:102F100020780028F9D0BDE8704000210846FEF76F
:102F200099BA0000310000203000002070B50B4C31
:102F3000002525701420FDF75BFD20780228F9D3C9
:102F4000074C25701420FDF753FD20780028F9D098
:102F5000BDE8704000210846FEF77CBA3100002031
:102F60003000002010B5FEF79DFB07220321002052
:102F7000FEF760FC082203211020FEF75BFC09220B
:102F800003212020FEF756FC0A2203213020FEF701
:102F900051FC1AA203214020FEF7B8FC0022114682
:102FA0001046FEF747FC042200211020FEF742FCE9
:102FB000052200212020FEF73DFC062200213020C2
:102FC000FEF738FC0DA200214020FEF79FFC0CA26A
:102FD00006210020FEF79AFC0D2206212020FEF794
:102FE00029FC0E2206213020FEF724FC0621BDE834
:102FF000104002A24020FEF789BC00003A00000009
:1030000057494649000000002DE9F05FEA4C0026D0
:10301000267000216FF01100FEF71CFA20780228BC
:10302000F7D100210846FEF715FAE44C2670282057
:10303000FDF798FC20780528F9D326701420FDF7B9
:1030400091FC20780028F9D000210846FEF702FA0A
:10305000DB4A03201060DB4904200860DA480523BE
:1030600003600968DFF86483C8F800101168C8F8C5
:1030700004100068DFF85893C8F80800D9F8000079
:10308000D44FDFF854A33860DAF800007860D348F2
:10309000006802250024B8604FF47A7001F056F8F9
:1030A000641CAC42F8DBCE481422D8F8001000684B
:1030B000FFF70CFA022500244FF47A7001F046F86D
:1030C000641CAC42F8DB39681422D8F80000FFF722
:1030D000FDF9FFF707FF022500244FF47A7001F095
:1030E00035F8641CAC42F8DBBE4D2E702820FDF78D
:1030F000C9FC28780A28F9D32E700F20FDF7C2FCEE
:1031000028780228F9D300210846FEF7A3F9D8F859
:10311000041014223868FFF7D9F94FF0020B00248D
:103120004FF47A7001F012F8641C5C45F8DB7968A2
:103130001422D8F80400FFF7C9F9FFF7D3FE4FF0C7
:10314000020B00244FF47A7001F000F8641C5C4517
:10315000F8DB2E702820FDF795FC28780A28F9D393
:103160002E700F20FDF78EFC28780228F9D300215D
:103170000846FEF76FF9D8F8081014227868FFF7B0
:10318000A5F94FF0020B00244FF47A7000F0DEFF37
:10319000641C5C45F8DBB9681422D8F80800FFF716
:1031A00095F9FFF79FFE4FF0020800244FF47A7064
:1031B00000F0CCFF641C4445F8DB2E701420FDF7B2
:1031C00061FC28780228F9D300210846FEF742F96D
:1031D0004FF47A7000F0BAFFD9F80010824D2960E0
:1031E000DAF8000068607D480068A8607F480068E1
:1031F000DFF8FC81C8F800007E480068C8F80400C9
:103200007D480068C8F808001922B868FFF75EF921
:10321000FFF78CFE022700244FF47A7000F096FF2F
:10322000641CBC42F8DB14220620D8F80010FFF71B
:1032300077F9192206212868FFF748F90A20FDF7D7
:1032400091FB4FF47A7000F081FF4FF47A7000F038
:103250007DFF00210846FEF7FDF8022700244FF409
:103260007A7000F073FF641CBC42F8DB5C4F1422E0
:1032700029683868FFF72AF914220521D8F80000D8
:10328000FFF74EF9FFF752FE4FF0020900244FF40A
:103290007A7000F05BFF641C4C45F8DB14220620BA
:1032A000D8F80410FFF73CF9192268683968FFF76D
:1032B0000DF90A20FDF756FB4FF47A7000F046FF37
:1032C0004FF47A7000F042FF00210846FEF7C2F882
:1032D0004FF0020900244FF47A7000F037FF641CAD
:1032E0004C45F8DB14220720A968FFF7EFF81422F9
:1032F0000521D8F80400FFF713F9FFF717FE4FF088
:10330000020900244FF47A7000F020FF641C4C4541
:10331000F8DB14220620D8F80810FFF701F919226B
:10332000A8683968FFF7D2F80F20FDF71BFB4FF4B0
:103330007A7000F00BFF4FF47A7000F007FF002165
:103340000846FEF787F8022500244FF47A7000F053
:10335000FDFE641CAC42F8DB284C26702820FDF7EB
:10336000BBFA20780528F9D326701420FDF7B4FAAB
:1033700020780028F9D000210846FEF76BF81422C7
:103380000221D8F80800FFF7CBF86FF00E010F20EC
:10339000FEF760F84FF47A7000F0D8FE4FF47A70C0
:1033A00000F0D4FE4FF47A7000F0D0FEBDE8F05F7C
:1033B00000210846FEF74EB8300000203200002001
:1033C000940000209000002098000020D0040020ED
:1033D0009C000020DC040020A0000020A4000020AD
:1033E000B84F000831000020E8040020A8000020A9
:1033F000F4040020AC000020B000002033000020C6
:1034000070B5184C0025257000216FF01100FEF7F3
:1034100021F820780228F7D100210846FEF71AF893
:10342000114C25702820FDF79DFA20780528F9D346
:1034300025701420FDF796FA20780028F9D0002195
:103440000846FEF707F800210846FEF703F8074C88
:103450002078002808BF70BDFEF7E6FE207800281F
:10346000FAD170BD30000020320000208C00002016
:10347000FEF718F9254D264E264F274CDFF89C8085
:10348000DFF89C90002127A20846FEF73FFA2A7831
:1034900000213220FEF714FAD6F814220021502021
:1034A000FEF70EFA21A202210020FEF72FFA3A7849
:1034B00002213220FEF704FAD4F80C220221502017
:1034C000FEF7FEF91BA204210020FEF71FFA98F870
:1034D000002004213220FEF7F3F9D4F8342204212D
:1034E0005020FEF7EDF915A206210020FEF70EFA96
:1034F00099F8002006213220FEF7E2F9D4F80022E4
:1035000006215020FEF7DCF9BCE700003000002067
:103510000000404231000020000041423200002003
:1035200033000020465F4C203D200000465F5220C3
:103530003D200000525F55203D200000525F442096
:103540003D20000070B5144C40F22551204600F09B
:10355000AFF8002808BF70BD204600F03FF90F4DBE
:10356000C4B2288810F4004F18BF70BDFF2828BFD0
:1035700040F400400ED20A4E00213046FFF770FCA6
:10358000298819B901213046FFF7A7F9054928888C
:103590000C54401C288070BD005000408A00002060
:1035A00000400140D002002010B5194C40F22551D6
:1035B000204600F07DF8002808BF10BD204600F02E
:1035C0000DF9144AC1B2508810F4004F18BF10BD55
:1035D00010F4804F4FF0000306D00A2908BF40F4D2
:1035E000004012D0538010BD0D2908BF40F4804028
:1035F0000BD0C0F30D0C084C401C80B204F80C102A
:103600005080FE2898BF10BDECE7508010BD000030
:1036100000440040B40000200005002010B5194C03
:1036200040F22551204600F043F8002808BF10BDA5
:10363000204600F0D3F8144AC1B2108810F4004FAD
:1036400018BF10BD10F4804F4FF0000306D00A29B8
:1036500008BF40F4004012D0138010BD0D2908BFF0
:1036600040F480400BD0C0F30D0C084C401C80B2DD
:1036700004F80C101080FE2898BF10BDECE71080F5
:1036800010BD0000004800404C000020D000002089
:103690000029818914BF41F4005121F40051818136
:1036A00070470246002012880A4218BF0120704766
:1036B00010B401F01F020124C1F3421304FA02F214
:1036C0004FF0000C012B04BF83891A4004D0022B59
:1036D0000CBF038A838A1A40090A008804FA01F1A0
:1036E0000840002A1CBF00284FF0010C604610BCA7
:1036F0007047C1F3421301F01F014FF0010C0CFAA7
:1037000001F1012B08BF0C3003D0022B0CBF10308D
:103710001430002A026814BF114322EA010101603B
:103720007047000030B50446008A85B00D46C98850
:1037300020F4405008432082A089A9882A8920F4D7
:10374000037011436A8920F4A05010430843A081FC
:10375000A08AA98920F440700843A0826846FEF739
:10376000ADF9A4F18040B0F588301BBFA4F18040D2
:10377000B0F58A3003980298A18911F4004F00EB4C
:10378000C00101EB0010296814BF49008900B0FB9B
:10379000F1F0114A6FF0180CA2FB00314909090140
:1037A0000B0903FB0CF300EB8300A38913F4004F18
:1037B0004FF0320314BF03EBC00003EB0010A2FB79
:1037C00000204FEA501014BF00F0070000F00F0077
:1037D0000843208105B030BD1F85EB518088C0F3C0
:1037E00008007047C1F3080181807047FEE70000C0
:1037F0000FB4084B10B504A902AA039800F0F4F81E
:10380000044602A9002000F086FC204610BC5DF8AA
:1038100014FB00001741000837B514460846064B54
:103820006A46214600F0E0F804466946002000F0B0
:1038300072FC20463EBD000017410008004870475A
:10384000CC00002002E008C8121F08C1002AFAD1EB
:1038500070477047002001E001C1121F002AFBD110
:10386000704700002DE9FF5F82B00021DDE90430E0
:10387000020DDDF840B0034318D044F61050A2F218
:10388000FF3242431514119801281FD0A5EB0B00FD
:10389000401C5FEA000A4FF000064E4FDFF83891F7
:1038A000B046504615D5CAF1000413E01198012422
:1038B0004AA3012801D16FEA0B010298119AC0E9CD
:1038C0000031C0E9024206B0BDE8F09FCBF1000034
:1038D000DFE704460021404A491842EB0450CDE995
:1038E000001012E0E00707D032463B46404649460A
:1038F000FCF7A0FD8046894632463B4610461946F5
:10390000FCF798FD06460F466410002CEAD1DDE96D
:103910000401DDE90023BAF1000F06DAFCF78AFDA5
:1039200042464B46FCF786FD05E0FCF7F5FD4246B6
:103930004B46FCF7F1FD04460E460022284BFCF7EF
:1039400073FE03D84FF0FF30014607E00022254BFD
:1039500020463146FCF7C7FCFCF74DFE102409E079
:10396000002C0ADB0A220023FCF754FC039B3032B4
:103970001A55641E50EA0102F2D1641C039AC4F184
:1039800011031444119A012A03D0012208430DD1D6
:103990000AE0084304D000204FF0110B119072E7A9
:1039A000A3EB0B056D1E0DE05B4504DD4FF000023F
:1039B00005F1010504E003DA4FF00002A5F101056D
:1039C000002AECD002981199C0E90231C0E9004503
:1039D00079E70000000014400000F03F30000000D4
:1039E0000000F0430000E03F2DE9FF4F95B09B46FB
:1039F0008946064600250FE2252877D10024274670
:103A0000F84A0121059400E0044316F8013F203BE9
:103A100001FA03F01042F7D130782A2811D06FF064
:103A20002F033078A0F13002092A16D8059A44F005
:103A3000020402EB820203EB42021044761C059062
:103A4000EFE759F8042B0592002A03DA504244F4B8
:103A50000054059044F00204761C30782E2816D1CC
:103A600016F8010F44F004042A280DD06FF02F023D
:103A70003078A0F13003092B09D807EB870302EB5C
:103A80004303C718761CF3E759F8047B761C30789B
:103A90006C280FD006DC4C2817D068280DD06A2877
:103AA00014D104E0742810D07A280FD10DE044F42A
:103AB00000140AE044F4801401E044F440147278E5
:103AC000824202D104F58014761C761C3078662878
:103AD0000BD013DC582877D009DC002875D0452896
:103AE000F6D04628F4D047281AD19DE118E0632883
:103AF00035D0642879D0652812D195E1702873D02B
:103B000008DC6728F1D069286FD06E280DD06F28A7
:103B100006D1B5E073282CD0752875D0782874D0DC
:103B20005A46179990476D1C75E1C4F3025002285C
:103B300009D003280DD0D9F8001004280DD00D604D
:103B400009F1040967E1D9F80010EA17C1E9005248
:103B5000F6E7D9F800100D80F2E70D70F0E719F8DC
:103B6000041B8DF8001000208DF80100EA460120AA
:103B700003E059F804AB4FF0FF3061074FF000014C
:103B800002D40DE008F101018846B9420FDA804500
:103B9000F8DB1AF808100029F4D108E008F1010157
:103BA00088468142FADB1AF808100029F6D10598F8
:103BB0005B46A0EB080721463846179A00F094FAB6
:103BC000284400EB080507E04DE029E10DE01AF874
:103BD000010B5A4617999047B8F10108F7D25B4696
:103BE00021463846179A13E142E00A220092C4F3B4
:103BF00002524FF0000A022A08D059F804CB032AD7
:103C00004FEAEC710AD00DE029E02AE009F1070142
:103C100021F00702F2E802C1914609E00FFA8CFC9C
:103C20004FEAEC71042A03D14FFA8CFC4FEAEC7195
:103C3000002907DA0A460021DCF1000C61EB0201E1
:103C40002D2202E0220504D52B228DF8042001222A
:103C500003E0E20701D02022F7E7904659E00A216D
:103C600002E010220DE010214FF0000A00910BE05D
:103C700010224FF0000A44F004040827009203E0E9
:103C800008224FF0000A0092C4F30252022A05D023
:103C900059F804CB0021032A08D009E009F10701F3
:103CA00021F00702F2E802C1914605E01FFA8CFC00
:103CB000042A01D10CF0FF0C4FF00008220728D590
:103CC000702806D0009B83F0100353EA0A0305D046
:103CD0000EE040228DF80420012208E05CEA010297
:103CE00006D030228DF804208DF80500022290467F
:103CF000009B83F0080353EA0A030AD15CEA01023D
:103D000001D1620705D530228DF804204FF001085B
:103D10007F1E582804D034A003900EA802900DE016
:103D200036A0F9E753466046009AFCF773FA8446DA
:103D30000398825C0298401E029002705CEA0100C7
:103D4000F0D1029806A9081A00F1200A600702D5EE
:103D500024F4803400E00127574502DDA7EB0A0078
:103D600000E0002000EB0A01009005984144401A51
:103D70000590E00306D45B462146179A059800F0AB
:103D8000B3F90544002706E001A85A46C05D17991B
:103D900090476D1C7F1C4745F6DBE0030CD55B4666
:103DA0002146179A059800F09FF9054404E0302059
:103DB0005A46179990476D1C0099481E009000299B
:103DC000F5DC08E0029802995A460078491C0291F5
:103DD000179990476D1CBAF10001AAF1010AF1DCB4
:103DE00065E10000092801003031323334353637BF
:103DF0003839616263646566000000003031323337
:103E000034353637383941424344454600000000D6
:103E100000F058F90544761C307800287FF4ECADAA
:103E200019B02846BDE8F08F620700D4062709F1D3
:103E3000070222F0070CFCE80223E14603F00048E9
:103E40005FEA080C02D00FF2702C0DE05FEA045C10
:103E500002D50FF2682C07E05FEAC47C02D00FF2B3
:103E6000602C01E0AFF2700C4FF0FF3823F00043FC
:103E7000CDF850C065280CD006DC452809D046286E
:103E80001DD047283DD13DE0662818D067287ED157
:103E900038E00021112F01DB112000E0781CCDE972
:103EA000000106A90EA8FFF7DDFCDDE90F010E9A5F
:103EB00003910021009207F1010A04914DE04FF0B7
:103EC00000400097CDE9011006A90EA8FFF7CAFC33
:103ED000DDE90F0203920E9B11990022DDF80CA080
:103EE0000093049211B9791C00EB010AB7EB0A00A8
:103EF00004D4C0F1FF3007F1010A0490AAEB0700D7
:103F0000019044E0012F00DA01270021112F01DD8B
:103F1000112000E03846CDE9000106A90EA8FFF700
:103F2000A1FCDDE90F010E9A03910021049100929A
:103F3000BA4621070CD40399514500DA8A46BAF1F2
:103F4000010F05DD009AAAF10101515C302908D06A
:103F5000B84202DA10F1040F06DA0121CDE90110AE
:103F600015E0AAF10101E9E7002805DC0499014404
:103F70000491AAEB000102E0411C514500DD8A4694
:103F80000499401A401C01904FF000400290200715
:103F900004D40198504501DBCDF8048000208DF851
:103FA0004F0002980DF14F07B0F1004F25D02B20A4
:103FB0000E9002984FF0020800280CDA404202905E
:103FC0002D200E9007E00A210298FCF70DF9303100
:103FD000029007F8011DB8F10001A8F10108F2DC18
:103FE00002980028EFD1791E0E980870307800F002
:103FF000200040F0450007F8020D12A8C01B00F198
:1040000007081498007800B1012000EB0A0101981C
:1040100001EBE07105984144401A401E0590E00311
:1040200006D45B462146179A059800F05DF80544D2
:104030001498007818B15A46179990476D1CE00300
:1040400024D55B462146179A059800F04DF80544A3
:104050001CE00498002807DBDDE90301884203DD4A
:104060000098405C179901E0179930205A46904714
:10407000049805F10105401C04900198401E019030
:1040800004D12E205A46179990476D1CBAF10001B1
:10409000AAF1010ADDDC05E017F8010B5A46179971
:1040A00090476D1CB8F10001A8F10108F4DC5B46F3
:1040B0002146179A0598ABE62D0000002B00000062
:1040C000200000002DE9F041044600251E46174659
:1040D000880404D405E039462020B0476D1C641ED6
:1040E000F9D52846BDE8F0812DE9F04104460025C8
:1040F0001E469046C80301D5302700E020278804DB
:1041000004D505E041463846B0476D1C641EF9D51C
:104110002846BDE8F0810A68531C0B601070704798
:1041200010B504466FF00400FEF72CFA0649E008CB
:1041300000EB40020870C2EBC0104FF6FF7202EABB
:10414000C000488010BD0000B80000204FF4077187
:10415000B0FBF1F2B0FBF1F330B401FB130012F04D
:10416000FF021ED012494FF407730024498801FB57
:1041700003F54FF0E0235D619C61196941F0010195
:104180001961196911F0010F02D011F4803FF8D0C4
:10419000196921F0010119619C61511E11F0FF02A2
:1041A000E9D1002804BF30BC704730BC00F01EB815
:1041B000B80000200C49097848434FF0E0214861DD
:1041C00000238B61086940F001000861086910F064
:1041D000010F02D010F4803FF8D0086920F00100F0
:1041E00008618B6170470000B80000200C494988C5
:1041F00048434FF0E021486100238B61086940F09B
:1042000001000861086910F0010F02D010F4803F2E
:10421000F8D0086920F0010008618B617047000048
:10422000B8000020A820FFF77BFF4FF4A060FDF747
:104230002FFA4FF4165000F06DF94FF4165000F0BD
:10424000E5F84FF4E13000F06FF842F2CF0163205F
:10425000FEF710FB372142F20F70FDF7B9FE42F274
:10426000CF01C720FEF7C0FA292140F2E730FDF761
:104270000BF9FDF785F9FCF713FDFCF773FDFCF76F
:10428000C5FDFCF717FEFDF79BFCFDF777F8FCF783
:10429000E5FAFCF7CDFEFDF730FAFDF703FA012051
:1042A000FDF792FF0120FDF75FFFFEF75BFE0A219D
:1042B0006A20FDF70DFD0A217320FDF769FD0A2133
:1042C0009120FDF7C5FD0A215520FDF721FE0A21A9
:1042D0002820FDF71DFE1149114C00200880608048
:1042E00080B2401C80B26080FF28F9D30DA2062165
:1042F0005020FDF70BFB0020FDF75AF82070012835
:1043000006D0022807D00328F5D1FFF7B1F8FCE763
:10431000FEF77AFEFEE7FFF773F8FEE7B60000202F
:1043200036000020380000002DE9F0430746012147
:1043300087B00805FDF792FB01210C20FDF782FBF9
:10434000DFF8BC9008220C214846FCF756FEDFF847
:10435000B480082202214046FCF74FFE02258DF86A
:1043600004504FF480508DF80550002400908DF8D3
:10437000064001268DF8076069464846FCF7EEFDC9
:104380008DF8045004208DF8055000908DF80640FB
:104390008DF8076069464046FCF7E0FDDFF868806D
:1043A000012240F225514046FFF7A3F935208DF850
:1043B00018008DF819508DF81A608DF81B6006A84A
:1043C000FDF72CF9ADF810400C20ADF80C40ADF81D
:1043D00012000297ADF80E40ADF8144002A9404615
:1043E000FFF7A0F9012240F225514046FFF781F97D
:1043F00001214046FFF74CF907B0BDE8F08300000B
:1044000000080240000C0240005000402DE9F0413D
:104410000746012188B00846FDF714FB0121480436
:10442000FDF71CFBDFF88C80072202214046FCF7D9
:10443000E4FD072203214046FCF7DFFD02218DF851
:1044400014108DF8151000240C268DF81640012547
:1044500004968DF8175004A94046FCF77FFDDFF85D
:104460005880012240F225514046FFF742F92720AB
:104470008DF818008DF819508DF81A508DF81B50D2
:1044800006A8FDF7CBF8ADF80440ADF8084000975A
:10449000ADF80640ADF80C40ADF80A6069464046FC
:1044A000FFF740F901214046FFF7F2F808B0BDE8F8
:1044B000F081000000000240004400400FB41348A7
:1044C0002DE9F04107AA0699FFF7A6F90F48FBF777
:1044D00077FE05042D0C4FF0000419BF0B4E0C4F56
:1044E000BDE8F0015DF814FB40213846FFF7D9F82C
:1044F0000028F9D0315D3846FFF774F9601C84B2AA
:10450000AC42F1D3BDE8F0015DF814FB00060020D9
:1045100000440040F0B5064687B001210220FDF7B7
:1045200091FA01218804FDF799FA234F07220A2105
:104530003846FCF762FD07220B213846FCF75DFD8B
:1045400002218DF814108DF815104FF440600024EE
:1045500004908DF8164001258DF8175004A93846AF
:10456000FCF7FCFC154F012240F225513846FFF7BD
:10457000C0F827208DF818008DF819508DF81A50C2
:104580008DF81B5006A8FDF749F8ADF808400C203F
:10459000ADF80440ADF80A000096ADF80640ADF85D
:1045A0000C4069463846FFF7BDF801213846FFF751
:1045B0006FF807B0F0BD0000000402400048004062
:1045C000404042CC000000FC0404040404FC000051
:1045D0000000003F10884023190101091123C00089
:1045E0002030AC63201800040404FC040404000020
:1045F000226722121212404040407F40404040005B
:104600002030AC633000809292929292FE808000C3
:10461000226722121200221448847F040814220008
:104620000404E4040FF40404F444CF4444440400B8
:1046300040407D44447D4445447C44457C404000AA
:10464000003E22E22222223E0000F80000FF00008D
:104650008141310F4181413F00000F40807F0000C8
:104660002030AC632018084848487F484848080074
:1046700022672212121200FE4242424242FE000013
:10468000000000FE929292FE929292FE00000000C4
:1046900044442425140C04FF040C14252444440031
:1046A000403C10FF101020108F7808F808F8000028
:1046B000020602FF0101044221184681403F00002A
:1046C000404458C0FF504C0022CC0000FF000000C6
:1046D00010080601FF01060004040404FF020200A2
:1046E00000FE00FC00FF00F2121AD61212F20200C5
:1046F000403F003F00FF804F20180710204F8000F0
:104700000000FC04040414155694543414040400EA
:1047100040300F0001010141817F010101050300CB
:1047200080808888888888FF88888888888080003A
:1047300020201008040201FF0102040810202000BC
:104740000000E28282828282828282FE0000000079
:1047500000003F4040404040404040404078000022
:10476000404042CC000444645C47F44444440400A8
:104770000040201F2044444444447F4444444400B7
:10478000101010FF1050445465C644645444400057
:104790000444827F0182824A562322524E820200C2
:1047A0000000000000000000002F000000000700D3
:1047B000070000147F147F1400242A7F2A1200624D
:1047C00064081323003649552250000005030000F9
:1047D00000001C224100000041221C000014083E81
:1047E00008140008083E0808000000A06000000847
:1047F000080808080000606000000020100804029B
:10480000003E5149453E0000427F40000042615158
:104810004946002141454B31001814127F100027F2
:1048200045454539003C4A494930000171090503B5
:1048300000364949493600064949291E00003636E6
:104840000000000056360000000814224100001449
:104850001414141400004122140800020151090626
:1048600000324959513E007C1211127C007F4949A7
:104870004936003E41414122007F4141221C007FD8
:1048800049494941007F09090901003E4149497AE6
:10489000007F0808087F0000417F41000020404160
:1048A0003F01007F08142241007F40404040007FCC
:1048B000020C027F007F0408107F003E4141413E10
:1048C000007F09090906003E4151215E007F091958
:1048D00029460046494949310001017F0101003F55
:1048E0004040403F001F2040201F003F4038403FD5
:1048F0000063140814630007087008070061514939
:10490000454300007F41410000552A552A550000CB
:1049100041417F0000040201020400404040404049
:10492000000001020400002054545478007F4844E1
:10493000443800384444442000384444487F003818
:104940005454541800087E0901020018A4A4A47C41
:10495000007F080404780000447D4000004080840B
:104960007D00007F102844000000417F4000007C53
:1049700004180478007C080404780038444444385F
:1049800000FC242424180018242418FC007C0804AB
:10499000040800485454542000043F444020003C84
:1049A0004040207C001C2040201C003C4030403C0B
:1049B000004428102844001CA0A0A07C004464549B
:1049C0004C441414141414140000000000000000DF
:1049D0000000000000000000000000F800000000DF
:1049E000000000333000000000100C06100C060020
:1049F000000000000000000040C07840C078400087
:104A0000043F04043F040400007088FC08300000E8
:104A1000001820FF211E0000F008F000E018000040
:104A200000211C031E211E0000F0088870000000F9
:104A30001E2123241927211010160E00000000004B
:104A40000000000000000000000000E01804020068
:104A5000000000071820400000020418E0000000D9
:104A60000040201807000000404080F080404000D7
:104A70000202010F01020200000000F0000000002D
:104A80000101011F01010100000000000000000001
:104A900080B0700000000000000000000000000076
:104AA00000010101010101010000000000000000FF
:104AB000003030000000000000000000806018049A
:104AC000006018060100000000E010080810E00077
:104AD000000F102020100F00001010F80000000040
:104AE0000020203F20200000007008080888700087
:104AF0000030282422213000003008888848300007
:104B00000018202020110E000000C02010F8000026
:104B100000070424243F240000F8088888080800BF
:104B20000019212020110E0000E0108888180000D4
:104B3000000F112020110E0000380808C8380800A6
:104B40000000003F00000000007088080888700026
:104B5000001C222121221C0000E010080810E000A7
:104B60000000312222110F00000000C0C000000030
:104B70000000003030000000000000800000000055
:104B8000000080600000000000008040201008004D
:104B90000001020408102000404040404040400016
:104BA00004040404040404000008102040800000F1
:104BB0000020100804020100007048080808F000F6
:104BC0000000003036010000C030C828E810E000C6
:104BD0000718272423140B000000C038E000000051
:104BE000203C23020227382008F8888888700000BB
:104BF000203F202020110E00C0300808080838008F
:104C0000071820202010080008F808080810E00005
:104C1000203F202020100F0008F88888E8081000A6
:104C2000203F20202320180008F88888E80810007A
:104C3000203F200003000000C030080808380000B2
:104C400007182020221E020008F808000008F808B3
:104C5000203F210101213F20000808F8080800003A
:104C60000020203F2020000000000808F80808006D
:104C7000C08080807F00000008F888C028180800E5
:104C8000203F20012638200008F80800000000001E
:104C9000203F20202020300008F8F800F8F8080015
:104CA000203F003F003F200008F830C00008F8080F
:104CB000203F200007183F00E01008080810E0001F
:104CC0000F10202020100F0008F808080808F00036
:104CD000203F210101010000E01008080810E00059
:104CE0000F18242438504F0008F8888888887000EE
:104CF000203F2000030C302000708808080838008E
:104D00000038202121221C00180808F80808180083
:104D10000000203F2000000008F808000008F80804
:104D2000001F202020201F000878880000C83808B5
:104D3000000007380E010000F80800F80008F8002D
:104D4000033C0700073C03000818688080681808C7
:104D500020302C03032C30200838C800C838080045
:104D60000000203F2000000010080808C838080094
:104D70002038262120201800000000FE0202020038
:104D80000000007F40404000000C30C000000000E8
:104D9000000000010638C00000020202FE00000010
:104DA000004040407F0000000000040202020400B6
:104DB00000000000000000000000000000000000F3
:104DC00080808080808080800002020400000000DB
:104DD00000000000000000000000808080800000D3
:104DE0000019242222223F2008F8008080000000C1
:104DF000003F112020110E00000000808080000084
:104E0000000E112020201100000000808088F80092
:104E1000000E112020103F200000808080800000C4
:104E2000001F222222221300008080F08888881828
:104E30000020203F20200000000080808080800033
:104E4000006B94949493600008F8008080800000C8
:104E5000203F210000203F200080989800000000A3
:104E60000020203F202000000000008098980000D3
:104E700000C08080807F000008F8000080808000F3
:104E8000203F24022D302000000808F80000000018
:104E90000020203F202000008080808080808000D3
:104EA000203F20003F20003F808000808080000065
:104EB000203F210000203F200000808080800000F3
:104EC000001F202020201F00808000808000000024
:104ED00080FFA12020110E00000000808080800053
:104EE000000E112020A0FF80808080008080800044
:104EF00020203F2120000100000080808080800071
:104F00000033242424241900008080E080800000E5
:104F10000000001F20200000808000000080800032
:104F2000001F202020103F20808080000080808093
:104F300000010E3008060100808000800080808023
:104F40000F300C030C300F00008080008080800048
:104F50000020312E0E312000808080000080808073
:104F600080818E7018060100008080808080800023
:104F70000021302C2221300000000000807C020241
:104F800000000000003F404000000000FF00000063
:104F900000000000FF0000000002027C8000000012
:104FA0000040403F0000000000060101020204042E
:104FB000000000000000000006000000004040402B
:104FC00040404040404041414141414040404040DC
:104FD0004040404040404040404040404005020288
:104FE0000202020202020202020202020220202047
:104FF00020202020202020020202020202029090A3
:1050000090909090101010101010101010101010A0
:1050100010101010101010100202020202028888F4
:105020008888888808080808080808080808080800
:1050300008080808080808080202020240000000E8
:10504000BD4F00086450000800000020D0000000A0
:105050004438000834510008D0000020300A000015
:1050600054380008000000000000000000000000AC
:105070000000000000000000000000000000000030
:105080000000000000000000000000000000000020
:105090000000000000000000000000000000000010
:1050A0006900000072000000960000005800000037
:1050B000000000000000204100002041000000002E
:1050C00000000000000000000000000000000000E0
:1050D00000000000000000000000000000000000D0
:1050E00000000000000000000000000001000000BF
:1050F00001010000000000000000000000000000AE
:10510000000000000000000000000000000000009F
:10511000000000000000000001000000000000008E
:10512000000000000102030401020304060708094D
:04513000000000007B
:040000050800018965
:00000001FF
