:020000040800F2
:10000000E80A00203102000861120008190D0008FA
:10001000CD10000865060008092500080000000052
:100020000000000000000000000000004D17000864
:10003000A908000800000000FF150008671A000862
:100040004B0200084B0200084B0200084B0200085C
:100050004B0200084B0200084B0200084B0200084C
:100060004B0200084B0200084B0200084B0200083C
:100070004B0200084B0200084B0200084B0200082C
:100080004B0200084B0200084B0200084B0200081C
:100090004B0200084B0200084B0200084B0200080C
:1000A0004B0200084B0200084B0200084B020008FC
:1000B0004B0200084B0200084B0200084B020008EC
:1000C0004B0200084B0200084B0200084B020008DC
:1000D0004B0200084B0200084B02000851230008A5
:1000E000AD0800084B0200084B0200084B02000854
:1000F0004B0200084B0200084B0200084B020008AC
:100100004B0200084B0200084B0200084B0200089B
:100110004B020008DD2200084B020008BD1B00084E
:100120004B0200084B0200084B0200084B0200087B
:100130004B0200084B0200084B0200084B0200086B
:100140004B0200084B0200084B0200084B0200085B
:100150004B0200084B0200084B0200084B0200084B
:100160004B0200084B0200084B0200084B0200083B
:100170004B0200084B0200084B0200084B0200082B
:100180004B0200084B02000800F002F800F041F8B2
:100190000AA090E8000C82448344AAF10107DA45E2
:1001A00001D100F036F8AFF2090EBAE80F0013F0F3
:1001B000010F18BFFB1A43F001031847D8340000A1
:1001C000F8340000103A24BF78C878C1FAD8520732
:1001D00024BF30C830C144BF04680C6070470000C1
:1001E0000023002400250026103A28BF78C1FBD840
:1001F000520728BF30C148BF0B607047642900F028
:100200004D80002070471FB502F06AFD1FBD10B57C
:1002100010BD00F0D1F91146FFF7F5FF02F040FCE8
:1002200000F0EFF903B4FFF7F2FF03BC00F0F2F9BE
:100230000948804709480047FEE7FEE7FEE7FEE77A
:10024000FEE7FEE7FEE7FEE7FEE7FEE704480549B6
:10025000054A064B70470000691A0008890100082A
:10026000E8040020E80A0020E8060020E806002054
:100270000FB41CB5084B06AA7B446946009005984C
:1002800000F07DF904460020694600F08BF9204615
:100290001CBC5DF814FB0000290300002DE9F041AF
:1002A0000646002410687529314616A510D0AFF314
:1002B0000080002802DA404213A507E031688A076F
:1002C00001D512A502E0490704D511A5012401E0DA
:1002D000AFF3008000210A2206F1240709E0B0FBF9
:1002E000F2FCB0FBF2F302FB1C00303078541846ED
:1002F000491C0028F3D123462A463046BDE8F04188
:1003000000F0DFB8000000002D0000002B0000000E
:10031000200000002DE9F05F894604464FF0000AF6
:10032000DFF874B1FB44C0F820A02046E16888479C
:10033000002874D0252806D0D4E901219047206AEE
:10034000401C2062F1E700265F462046E1688847AE
:100350002028054607DB312D05D2781910F8200C2E
:1003600008B10643F1E7B00701D526F00406C4F84A
:100370001CA00027C4F818A02A2D09D0284602F096
:1003800005FB38B304EB8708303DC8F8185019E076
:1003900059F8041B204604EB87029161E168884705
:1003A000012F054618D1E069002820DA26F0200642
:1003B0001DE0D8F8180000EB800005EB4000303855
:1003C000C8F818002046E1688847054602F0DEFAC2
:1003D0000028EED1012F0AD02E2D08D12046E16849
:1003E00088477F1C0546022F46F02006C4DBA06923
:1003F000002803DA404246F00106A061F00701D070
:1004000026F010066C2D0BD0682D09D04C2D39D05C
:100410006A2D35D0742D35D07A2D33D016E038E0E2
:10042000E1682F4620468847B842054609D16C2F1F
:1004300026D04FF48060E168064320468847054691
:1004400004E06C2F1AD04FF4807006430DB3A5F171
:100450004100192802D8203546F400664A4629464C
:10046000204626604E46FFF7C9FE80B101280BD01A
:10047000F61D26F0070000F1080956E74020E4E7E2
:100480008020D8E70020D6E706F104094DE728468A
:1004900052E7206ABDE8F09F3A330000704770478A
:1004A00070470000004870478804002010B5FFF72F
:1004B000F9FF006810BD10B50446FFF7F3FF0460B4
:1004C00010BD2DE9F0470D4699469246044600F1CD
:1004D00024080168880604D5E06921F01001216034
:1004E00000E00120A84201DD471B00E00027A169D0
:1004F0007A1902EB0900081AA0612078C00602D41C
:100500002046AFF30080002608E0D4E901211AF864
:1005100006009047206A401C761C20624E45F4DBA2
:100520002078C0060AD52046AFF3008006E0D4E963
:10053000012130209047206A401C2062381EA7F11C
:100540000107F4DC07E0D4E9012118F80500904721
:10055000206A401C2062281EA5F10105F3DC20461C
:10056000AFF300802078000602D50220BDE8F087B6
:100570000120FBE701694A1C02610878704700B559
:100580008FB0CDE901310021059105497944CDE9CC
:10059000031011466846FFF7BDFE0FB000BD000016
:1005A000E5FFFFFF0A6802F8010B0A6070470000D0
:1005B00000487047880400207546FFF7F9FFAE46F3
:1005C00005006946534620F00700854618B020B55F
:1005D000FFF73CFEBDE820404FF000064FF000075B
:1005E0004FF000084FF0000B21F00701AC46ACE8DB
:1005F000C009ACE8C009ACE8C009ACE8C0098D4648
:10060000704710B50446AFF300802046BDE81040A7
:10061000FFF708BE01491820ABBEFEE72600020026
:100620007047000010B582B00121102000F0E8FFF3
:1006300001218DF8041000218DF8061003210220FD
:100640008DF80510064C00908DF80700694620468D
:1006500000F000FB0221204600F05CFB02B010BD60
:1006600000100240FEE70000B5EEC00AF1EE10FAFD
:1006700038BF704710B5044610EE100A60492DEDE2
:10068000028B8142BCBFBDEC028B10BDDFED5D0A69
:10069000B5EEC00A20EE208AF1EE10FA28DB10EE4B
:1006A000100A5949814223DBB0EE480A01F040FFAD
:1006B000F0EE400A00EE104AB8EE400A60EE808A82
:1006C000B0EE480A01F0DCFF00EE904AF8EE600A56
:1006D00020EE200ABDEEC00A10EE101ABDEEE80AA8
:1006E000BDEC028BBDE8104010EE100A00F0D6BC45
:1006F00010EE100A45490844B0F5000F25D2B0EEBF
:10070000480A01F015FFF0EE400A00EE104AB8EE7C
:10071000400A60EE808AB0EE480A01F0B1FF00EEB8
:10072000904AF8EE600A20EE200ABDEEC00A10EEF4
:10073000101AB1EE680ABDEC028BBDEEC00ABDE82E
:10074000104010EE100A00F0A9BC10EE100A30495B
:100750000844B0F5A60F25D2B0EE480A01F0E8FE35
:10076000F0EE400A00EE104AB8EE400A60EE808AD1
:10077000B0EE480A01F084FF00EE904AF8EE600AFD
:1007800020EE600ABDEEC00A10EE101AB1EE680A43
:10079000BDEC028BBDEEC00ABDE8104010EE100AA1
:1007A00000F07CBC10EE100A1A4908441A4988422D
:1007B00024BFBDEC028B10BDB0EE480A01F0B8FEBC
:1007C000F0EE400A00EE104AB8EE400A60EE808A71
:1007D000B0EE480A01F054FF00EE904AF8EE600ACD
:1007E00020EE600ABDEEC00A10EE101ABDEEE80A57
:1007F000BDEC028BBDE8104010EE100A00F04EBCBC
:100800000000B44339FA8E3C0000B442FFFF4BBDF8
:10081000FFFFCBBCFFFF78BCFFFF2C001D4810B4CE
:10082000D0F83412002904BFD0F80C12002920D0CF
:10083000D0F834421849DFF864C0194B194A002C2B
:1008400004BFD0F80C42012C1AD0D0F83442012C4D
:1008500007BFD0F80C02002810BC70476FF02700CB
:100860000860CCF800004FF02D001860106010BC3C
:10087000704710BC4FF028014FF0000000F00EBC94
:100880006FF02C000860CCF8000028201860106081
:1008900010BC7047000041422000002024000020CE
:1008A000280000202C0000207047000010B50A200E
:1008B00002F08AF84FF4004000F01CF8002808BF4E
:1008C00010BD0748D0F83C0218B906480168491C19
:1008D0000160BDE810404FF4004000F005B8000092
:1008E00000004142300000200149086070470000CC
:1008F000143C0140034A0146002012680A4218BF16
:1009000001207047143C01408379214A0168002B83
:1009100034D0136823EA01011160111D0A680368CD
:100920009A430A60017901F1804101F59E310A681C
:1009300003681A430A60174A1168036899431160F3
:10094000131D1968D0F800C021EA0C011960417923
:10095000102908D001F1804101F59E310A68006834
:100960001043086070471168D0F800C041EA0C01DC
:10097000116019680068084318607047007900F139
:10098000804000F59E30026822EA01010160704754
:10099000003C0140083C0140F0B501218BB0084605
:1009A00000F03AFE0121084600F02AFE0121022053
:1009B00000F026FE274F01220F21384600F099F95A
:1009C000254E01220321304600F093F902244FF412
:1009D00000408DF81440012504908DF817508DF8D3
:1009E000154004A9384600F035F908208DF81C4060
:1009F00006908DF81F508DF81D4006A9304600F076
:100A000029F9600701F083F900244FF6FF70ADF873
:100A100000400190ADF80840ADF802406946A807D3
:100A200001F01CFC0A231A460321580701F049FA79
:100A300008A801F0ECFA0620ADF8280008A9A807DC
:100A400001F068FAA8074462012101F04CF90BB0EB
:100A5000F0BD0000000002400004024030B589B043
:100A60000121022000F0D8FD0121084600F0C8FD58
:100A7000214C02220621204600F03BF902220721E8
:100A8000204600F036F9C021049102218DF814109F
:100A900001228DF817208DF8151004A9204600F0CA
:100AA000D9F8164D284601F032F900244FF6FF71AF
:100AB000ADF800400191ADF80840ADF8024069463C
:100AC000284601F0CBFB0A231A460321284601F0F1
:100AD000F8F906A801F09BFA0621ADF8201006A946
:100AE000284601F017FA064804600121284601F063
:100AF000FAF809B030BD00000000024000040040D8
:100B00002404004030B589B00121042000F084FDA8
:100B10000121022000F074FD214C02220621204612
:100B200000F0E7F802220721204600F0E2F8C02199
:100B3000049102218DF8141001228DF817208DF8F0
:100B4000151004A9204600F085F8164D284601F03E
:100B5000DEF800244FF6FF71ADF800400191ADF8CA
:100B60000840ADF802406946284601F077FB0A23A9
:100B70001A460321284601F0A4F906A801F047FA15
:100B80000621ADF8201006A9284601F0C3F9064851
:100B900004600121284601F0A6F809B030BD00002C
:100BA00000040240000800402408004030B589B02D
:100BB0000121082000F030FD0121084600F020FD51
:100BC000214C02220021204600F093F8022201214C
:100BD000204600F08EF80321049102218DF81410B4
:100BE00001228DF817208DF8151004A9204600F079
:100BF00031F8164D284601F08AF800244FF6FF71AF
:100C0000ADF800400191ADF80840ADF802406946EA
:100C1000284601F023FB0A231A460321284601F047
:100C200050F906A801F0F3F90621ADF8201006A945
:100C3000284601F06FF9064804600121284601F0BA
:100C400052F809B030BD000000000240000C004026
:100C5000240C00402DE9F0010022012603270B6837
:100C600006FA02FC03EA0C0363453BD10568530016
:100C700007FA03F4A54305600D79D0F800809D4084
:100C800045EA080505600D79012D18BF022D1AD11E
:100C9000856825EA040585604D79D0F8088005FA55
:100CA00003F545EA08058560456825EA0C0CC0F89F
:100CB00004C0D0F804C08D7905FA02F5ADB24CEA53
:100CC000050CC0F804C0D0F80CC02CEA040CC0F825
:100CD0000CC091F807C00CFA03F3D0F80CC043EA3B
:100CE0000C03C36002F10102102AB8D3BDE8F00181
:100CF00070474B07DB0E9A40C90800EB8100016A80
:100D00004FF00F0C0CFA03F399430162016A11438F
:100D10000162704741837047FEE7000010B582B062
:100D20000121022000F06CFC4FF44070012400907F
:100D30008DF8044000208DF8060003208DF8050092
:100D40008DF8074069460548FFF784FF0448C0F85E
:100D5000A042C0F8A44202B010BD0000000402404E
:100D6000008040422DE9F04105461648016821F413
:100D700040210160016841F480210160124E4FF072
:100D80000008C6F8A0824446012715F0800F14BF62
:100D9000C6F8A472C6F8A4826806050E052001F004
:100DA00047FEC6F8A072052001F042FEC6F8A082F8
:100DB000052001F03DFE601CC4B2082CE5D3BDE85F
:100DC000F0810000000C02400080404270B50D48E8
:100DD000016821F440210160016841F48021016033
:100DE000094C0120C4F8A402C4F8A002022004F5B2
:100DF000287401F01DFE00256560022001F018FE38
:100E0000256070BD000C0240008040420E4810B5C5
:100E1000016821F440210160016841F480210160F2
:100E20000A4C0020C4F8A002C4F8A402022004F571
:100E3000287401F0FDFD012020606060BDE81040D5
:100E4000022001F0F5BD0000000C0240008040428D
:100E50002DE9F0411E4E0024306820F4402030601F
:100E6000306830601B4D0127C5F8A472384601F088
:100E7000DFFDC5F8A072012001F0DAFDD5F82402EB
:100E8000002100B3601CC4B2FA2C18D9306820F4D9
:100E900040203060306840F480203060C5F8A012F7
:100EA000C5F8A412022001F0C3FDC5F8A072C5F870
:100EB000A472022001F0BCFD0120BDE8F081D5F84C
:100EC00024020028DED1C5F8A0120020BDE8F08180
:100ED000000C024000804042164A401A1169D2EDCF
:100EE000000A411A00EE101A92ED011AB8EEC00A7B
:100EF00060EE200A00EE100AB8EEC00A41EE000AC9
:100F000092ED030AB8EEC00A30EE800ABDEEC00AC8
:100F100010EE101AC2E90310B1F57A7FC8BF4FF482
:100F20007A7005DC11F57A7FB2BF0348D06870474C
:100F3000D06070473800002018FCFFFF164A401AA6
:100F4000D169D2ED000A411A00EE101A92ED011A91
:100F5000B8EEC00A60EE200A00EE100AB8EEC00A31
:100F600041EE000A92ED060AB8EEC00A30EE800AA1
:100F7000BDEEC00A10EE101AC2E90610B1F57A7F74
:100F8000C8BF4FF47A7005DC11F57A7FB2BF034811
:100F900090697047906170473800002018FCFFFF8F
:100FA000164A401A916AD2ED000A411A00EE101A50
:100FB00092ED011AB8EEC00A60EE200A00EE100AA7
:100FC000B8EEC00A41EE000A92ED090AB8EEC00A76
:100FD00030EE800ABDEEC00A10EE101AC2E9091008
:100FE000B1F57A7FC8BF4FF47A7005DC11F57A7FCE
:100FF000B2BF0348506A7047506270473800002003
:1010000018FCFFFF164A401A516BD2ED000A411A34
:1010100000EE101A92ED011AB8EEC00A60EE200A36
:1010200000EE100AB8EEC00A41EE000A92ED0C0A7A
:10103000B8EEC00A30EE800ABDEEC00A10EE101AFB
:10104000C2E90C10B1F57A7FC8BF4FF47A7005DCA5
:1010500011F57A7FB2BF0348106B70471063704779
:101060003800002018FCFFFF00B583B001211020DC
:1010700000F0C6FA1520009000208DF8040003202F
:101080008DF8050001208DF8070069460248FFF73A
:10109000E1FD03B000BD000000100240074B421A02
:1010A0001A60DFF81CC042185342CCF80030081A0E
:1010B00004490860044802607047000020000020D6
:1010C00024000020280000202C000020FEE7000063
:1010D0002DE9F0410D4607468CB00121022000F0B9
:1010E000B3FA0121042000F08BFADFF8D480032248
:1010F00006214046FFF7FDFD032207214046FFF78A
:10110000F8FD032208214046FFF7F3FD03220921E1
:101110004046FFF7EEFD02228DF81C204FF47F7051
:101120008DF81D20002406908DF81E4001268DF8B4
:101130001F6006A94046FFF78DFDADF82050214DF8
:10114000ADF822400997ADF8284008A9284601F0DB
:1011500085F8684601F078F86021ADF80010029437
:10116000ADF80260ADF80C406946284600F05FFF1C
:101170000821284600F08FFF6946284600F091FFBD
:101180000821284600F0D0FF6946284600F0D6FF27
:101190000821284601F014F86946284601F016F89F
:1011A0000821284601F046F80121284600F09BFD61
:1011B0000121284600F0A0FD0CB0BDE8F081000040
:1011C000000802400004014070B588B001211D20D4
:1011D00000F016FA01248DF8044003254FF48050E6
:1011E0008DF80550002600908DF806608DF80740B8
:1011F00069461748FFF72EFD8DF81C408DF81D50ED
:101200008DF81E6006948DF81F4006A91148FFF75F
:1012100021FD8DF80C40A8028DF80D5002908DF83C
:101220000E608DF80F4002A90B48FFF713FD8DF8F3
:1012300014404FF42C508DF8155004908DF8166022
:101240008DF8174004A90548FFF704FD08B070BDEC
:1012500000000240000C0240000802400010024062
:101260007047000010B4C27801784FF00F0C0124D1
:101270001AB3184A126801F1E02102F4E062C2F5E3
:10128000E062C2F30722C2F104032CFA02FC4278A6
:101290009A40837803EA0C031A43120181F8002470
:1012A000007800F01F0104FA01F14009800000F10C
:1012B000E020C0F8001110BC704701F01F0004FAD4
:1012C00000F04909890001F1E021C1F8800110BC5A
:1012D000704700000CED00E0034940F0FD7040F065
:1012E00080600860704700000CED00E070B50025DC
:1012F00005F1B000C0B200F069F9012000F066F914
:10130000102000F063F900240026FFF75FFD78202D
:10131000FFF728FDFFF79CFD4020FFF723FDFFF7B7
:1013200097FD3046FFF71EFDFFF792FDFFF76EFDBC
:10133000601CC4B2802CE7D3681CC5B2082DD7D37B
:1013400070BD70B54FF4FA7001F03EFBAE2000F0B6
:101350003DF9002000F03AF9102000F037F9402064
:1013600000F034F9812000F031F9CF2000F02EF99F
:10137000A12000F02BF9C82000F028F9A62000F0E9
:1013800025F9A82000F022F93F2000F01FF9D32012
:1013900000F01CF9002000F019F9D52000F016F932
:1013A000802000F013F9D92000F010F9F12000F0AE
:1013B0000DF9DA2000F00AF9122000F007F9DB201D
:1013C00000F004F9402000F001F9202000F0FEF8C0
:1013D000022000F0FBF88D2000F0F8F8142000F057
:1013E000F5F8A42000F0F2F8A62000F0EFF8AF2006
:1013F00000F0ECF80026354605F1B000C0B200F070
:10140000E5F8012000F0E2F8102000F0DFF80024F9
:10141000FFF7DCFC7820FFF7A5FCFFF719FD402063
:10142000FFF7A0FCFFF714FD3046FFF79BFCFFF72A
:101430000FFDFFF7EBFC611CCCB2802CE8D3681CDD
:10144000C5B2082DD8D3BDE8704000210846AFF3DF
:10145000008010B5044601F1B000C0B200F0B6F84B
:10146000102040EA141000F0B1F804F00F00BDE8BD
:10147000104040F0010000F0A9B8000070B582B043
:10148000141E0E4605460DDA0DA200F01DF862424C
:101490000CA16846FEF7ECFE05F10C00C0B26A46EE
:1014A000314609E0DCBF02B070BD06A16846FEF718
:1014B000DFFE6A463146284600F006F802B070BDED
:1014C0002D000000256400002DE9F04F054610783E
:1014D000002783B092468846002812BFDFF8E890C4
:1014E00003B0BDE8F08F1AF807002038C6B2782D97
:1014F00004D908F10100002500F0FF0808F1B00050
:10150000C0B200F063F8102040EA151B584600F006
:101510005DF805F00F00019040F0010000F056F872
:10152000002404EB061019F800000090FFF74EFCB1
:101530007820FFF717FCFFF78BFC4020FFF712FC29
:10154000FFF786FC0098FFF70DFCFFF781FCFFF723
:101550005DFC601CC4B2082CE3D308F1B100C0B23A
:1015600000F034F8584600F031F8019840F00100DE
:1015700000F02CF8002404EB0610484490F808B062
:10158000FFF724FC7820FFF7EDFBFFF761FC40201C
:10159000FFF7E8FBFFF75CFC5846FFF7E3FBFFF7BC
:1015A00057FCFFF733FC601CC4B2082CE3D305F1F1
:1015B0000800C5B2781CC7B21AF80700002892D1FB
:1015C00003B0BDE8F08F00007230000810B504468B
:1015D000FFF7FCFB7820FFF7C5FBFFF739FC00B1F4
:1015E000FEE70020FFF7BEFBFFF732FC2046FFF7C7
:1015F000B9FBFFF72DFCBDE81040FFF707BC7047B3
:10160000044A0029116814BF084321EA0000106051
:101610007047000030380240044A0029116814BFA6
:10162000084321EA00001060704700004038024083
:10163000044A0029116814BF084321EA0000106021
:101640007047000020380240044A0029116814BF86
:10165000084321EA0000106070470000443802404F
:10166000044A0029116814BF084321EA00001060F1
:10167000704700002438024010B41D4C21681D4AF8
:1016800011F00C0118BF042901D0082901D0026013
:1016900012E0194B1968196801F03F01B2FBF1F132
:1016A0001A68C2F3881251431A68C2F30142521CED
:1016B0005200B1FBF2F1016021680F220F4B02EAE8
:1016C0001111595C026822FA01F1416022684FF061
:1016D000070C0CEA92229A5C21FA02F282602268DC
:1016E0000CEA52329A5CD140C16010BC70470000D5
:1016F0000838024040787D0104380240760000201E
:10170000002101280CD0022810D0032813D004286F
:101710001CBF002070470A4A1068116000B2704771
:101720004FF08042506A516200B27047054A10681B
:10173000116000B27047044A1068116000B270472F
:101740002404004024080040240C004070478A070D
:1017500021F0030101F1804101F59831120F0F23AF
:10176000D1F808C893402CEA0303C1F80838D1F82F
:10177000083890401843C1F808087047F0B585B0A4
:1017800001210520FFF73CFF00258DF804500326BA
:101790000C278DF80560012400978DF807406946F5
:1017A0001F48FFF757FA48F202008DF804500090E6
:1017B0008DF805608DF8074069461A48FFF74AFA28
:1017C00001218803FFF740FF02210020FFF7BFFF40
:1017D00003210020FFF7BBFF01210220FFF7B7FF25
:1017E0000F210220FFF7B3FF48F20E008DF80C50D6
:1017F00002908DF80D708DF80E4002A8FFF784F866
:1018000028208DF810008DF8114002208DF812006C
:101810008DF8134004A8FFF725FD05B0F0BD0000CA
:10182000000002400008024070B582B0012114207F
:10183000FFF7E6FE002642F208008DF8046003245C
:1018400000908DF8054001258DF80750694608483D
:10185000FFF700FA20208DF8046000908DF8054015
:101860008DF8075069460348FFF7F4F902B070BDE0
:101870000008024000100240F0B50D460646012166
:101880008BB00846FFF7E0FE01210804FFF7DCFEFD
:1018900001210846FFF7B4FE3F4F012208213846D8
:1018A000FFF727FA012209213846FFF722FA012221
:1018B0000A213846FFF71DFA01220B213846FFF7AF
:1018C00018FA032202213846FFF713FA40F6047291
:1018D000089202228DF824208DF8252000248DF80E
:1018E000264008A93846FFF7B5F9ADF814502B4D3E
:1018F000ADF816400696ADF81C4005A9284600F044
:10190000ADFC274E05A9304600F0A8FC684600F063
:101910009BFC6021ADF800100121ADF8021002948B
:10192000ADF80C406946284600F081FB08212846A6
:1019300000F0B1FB6946284600F0B3FB08212846B9
:1019400000F0F2FB6946284600F0F8FB0821284623
:1019500000F036FC6946284600F038FC082128468D
:1019600000F068FC6946304600F061FB0821304613
:1019700000F091FB0121284600F0B5F9012128462D
:1019800000F0BAF90121304600F0ADF901213046EE
:1019900000F0B2F90BB0F0BD0000024000000140C1
:1019A00000400140F0B4224F224E234D01244FF05D
:1019B000000C0028A7BFC7F8B0C2C6F88042C7F81D
:1019C000B042C6F880C2B8BF404228601B481C4DD8
:1019D000002905DBC0F8A8C2C0F8AC42296005E0C8
:1019E000C0F8A842C0F8ACC2484228601549164861
:1019F000002AA7BFC0F8B4C2C0F8AC42C0F8B442D5
:101A0000C0F8ACC2B8BF52420A601049002B06DBD6
:101A1000C0F8A0C2C0F8A4420B60F0BC7047C0F888
:101A2000A042C0F8A4C258420860F0BC7047000051
:101A300000004042008041423C040140000041421D
:101A40004004014034040140000042423804014097
:101A50004FF0E021042808690CBF40F0040020F09A
:101A600004000861704770473B4882B0016841F448
:101A7000700101603948016841F001010160384995
:101A80004FF0000CC1F800C0026822F4102222F0CE
:101A900080720260031D334A1A60026822F48022B9
:101AA00002600A1DC2F800C0CDF800C0CDF804C025
:101AB000026842F480320260026802F4003201924D
:101AC000009A521C0092019A1AB9009AB2F5A04FDE
:101AD000F2D1026812F4003F08BFCDF804C034D040
:101AE00001220192204AD2F800C04CF0805CC2F87A
:101AF00000C01E4AD2F800C04CF4404CC2F800C0EE
:101B00000A680A600A6842F400420A600A6842F4FD
:101B1000A0520A60164A1A60026842F0807202609F
:101B2000026812F0007FFBD0124A40F2057010608C
:101B3000086820F003000860086840F002000860B0
:101B4000086800F00C000828FAD10B494FF000603B
:101B5000086002B07047000088ED00E000380240E5
:101B60000838024010300024403802400070004025
:101B700019544007003C024008ED00E030B4B0F8D2
:101B800020C02CF0100CA0F820C0048BB0F820C0AE
:101B90004FF6FF7524F4734405EA0333234305EA43
:101BA00002221A4305EA01112CF0A003194341F067
:101BB00010010283018430BC704700002DE9F04120
:101BC000224E0121304600F09AF9012837D1FFF763
:101BD00097FD1F4D28600220FFF792FD1D4C2060ED
:101BE0000320FFF78DFD1C4F38600420FFF788FDB0
:101BF000DFF86880C8F80000194801682868FFF716
:101C00006BF9184D2860184801682068FFF796F9AD
:101C1000164C2060164801683868FFF7C1F9154F67
:101C2000386015480168D8F80000FFF7EBF9134950
:101C300008600B683A6821682868FFF7B3FE3046F1
:101C4000BDE8F041012100F04BB800000014004055
:101C50001000002014000020180000201C000020AC
:101C600020000020000000202400002004000020AC
:101C700028000020080000202C0000200C0000207C
:101C800030B50D46044685B001212020FFF7C4FC85
:101C90000194ADF800500024104DADF80240ADF8AD
:101CA00008406946284600F0D9FA01221146284624
:101CB00000F0B5F937218DF80C108DF80D40012199
:101CC0008DF80E108DF80F1003A8FFF7CBFA012145
:101CD000284600F008F805B030BD000000140040B0
:101CE000C943018270470029018814BF41F00101F6
:101CF00021F00101018070470029B0F8441014BFA1
:101D000041F40041C1F30E01A0F84410704710B532
:101D1000A0F18041B1F580314AD0B0F1804F5BD065
:101D2000A0F18041B1F580614CD0A0F18041B1F5C6
:101D300000615BD0A0F18041B1F5406160D0A0F1BD
:101D40008041B1F5805165D0A0F18041B1F5A0513D
:101D50006AD0A0F18041B1F582316FD0A0F180410D
:101D6000B1F5A03174D0A0F18041B1F5A2317AD0A3
:101D7000A0F18041B1F5A4317DD0A0F18041B1F551
:101D8000C05179D0A0F18041B1F5E05175D0A0F1FA
:101D90008041B1F5005118BF10BD01210802FFF7C5
:101DA00047FCBDE8104000214FF48070FFF740BCB5
:101DB00001210846FFF754FC0021BDE81040012036
:101DC000FFF74EBC01210220FFF732FC0021BDE8E5
:101DD00010400220FFF72CBC01210846FFF728FC29
:101DE0000021BDE810400120FFF722BC01210420A2
:101DF000FFF71EFC0021BDE810400420FFF718BCCF
:101E000001210820FFF714FC0021BDE81040082044
:101E1000FFF70EBC01211020FFF70AFC0021BDE8EE
:101E200010401020FFF704BC01212020FFF700FC28
:101E30000021BDE810402020FFF7FABB012102205D
:101E4000FFF70EFC0021BDE810400220FFF708BCA0
:101E500001210804FFF704FCBDE8104000214FF405
:101E60008030FFF7FDBB01214804FFF7F9FB00219B
:101E70004FF4003002E005E00FE018E0BDE810404C
:101E8000FFF7EEBB01218804FFF7EAFBBDE8104035
:101E900000214FF48020FFF7E3BB01214020FFF732
:101EA000C7FB0021BDE810404020FFF7C1BB012166
:101EB0008020FFF7BDFB0021BDE810408020FFF728
:101EC000B7BB30B40589B0F818C0048C25F00705FD
:101ED00029432CF0030C2CF4407C40F201154CEA11
:101EE000050C4FF6FF7505EA031324F022041A438C
:101EF00022430181A0F818C0028430BC7047038AD5
:101F0000002280890B4200EA01001CBF0028012248
:101F10001046704770B50C46054608884988A28867
:101F200023894FF6FF7638B3042843D00828288C3D
:101F30004ED020F480502884B5F81CC0288C2CF496
:101F4000734C06EA022242EA0C0206EA03331A4301
:101F500006EA013120F42040084340F48050AA836F
:101F60002884A079A98B21F44061A983A98B06EA72
:101F700000200843A88370BD288C20F0010028842D
:101F8000B5F818C0288C06EA03131A432CF0F30C9A
:101F900020F00A0042EA0C02084340F001002A83C4
:101FA0002884E088298B21F00C012983298B0843A0
:101FB000288370BD2846FFF7E1FDA079298B21F425
:101FC00040612983298B06EA00200843288370BDDD
:101FD00020F480702884B5F81CC0288C06EA03130E
:101FE0001A4306EA01212CF0F30C20F4206042EAA7
:101FF0000C02084340F48070AA832884E088A98BEF
:1020000021F00C01A983A98B0843A88370BD00218E
:102010000180418001228280C18001817047002AB5
:10202000828914BF114322EA01018181704710B4F3
:10203000028C22F001020284028C8388B0F818C05E
:102040000C882CF0730C44EA0C0C8C8922F00202F0
:1020500022434C882243A0F18044B4F580341CBF55
:10206000A0F18044B4F582340DD1CC8922F008026D
:1020700022438C8822F0040222430C8A23F440730A
:1020800023434C8A23438380A0F818C089684163A6
:10209000028410BC7047028B22F0080211430183B6
:1020A000704730B4028C22F010020284028C8388C4
:1020B000B0F818C00D882CF4E6444FF6FF7C0CEA0B
:1020C00005252C438D8922F020020CEA05152A43B0
:1020D0004D880CEA05152A43A0F18045B5F58035F9
:1020E0001CBFA0F18045B5F5823516D1CD8922F00F
:1020F00080020CEA05152A438D8822F040020CEA82
:1021000005152A430D8A23F440630CEA85052B4309
:102110004D8A0CEA850C4CEA0303838004838968AA
:102120008163028430BC7047028B4FF6FF7322F448
:10213000006203EA012111430183704730B4028C2D
:1021400022F480720284028C8388B0F81CC00C8850
:102150002CF0730C44EA0C048D894FF6FF7C22F4BA
:1021600000720CEA05252A434D880CEA05252A430E
:10217000A0F18045B5F580351CBFA0F18045B5F5CF
:10218000823516D1CD8922F400620CEA05252A4356
:102190008D8822F480620CEA05252A430D8A23F4F7
:1021A00040530CEA05152B434D8A0CEA051C4CEAFA
:1021B0000303838084838968C163028430BC7047D1
:1021C000828B22F0080211438183704730B4028C65
:1021D00022F480520284038C8288B0F81CC00D88DF
:1021E0004FF6FF742CF4E64C04EA052545EA0C0C86
:1021F0008D8923F4005304EA05352B434D8804EA06
:1022000005352B43A0F18045B5F580351CBFA0F105
:102210008045B5F5823505D10D8A22F4804204EA65
:10222000851422438280A0F81CC08968016403845D
:1022300030BC7047828B4FF6FF7322F4006203EAD2
:1022400001211143818370470021018041808180F9
:1022500081608181C18101824182704710B402880E
:102260001C4BDFF874C0984218BF604511D0B0F124
:10227000804F1CBFA0F18044B4F5806409D0A0F168
:102280008044B4F500641CBFA0F18044B4F5406400
:1022900003D14C8822F070022243A0F18044B4F5AF
:1022A00080541CBFA0F18044B4F5A05403D00C8925
:1022B00022F44072224302804A68C2620A88028580
:1022C000984212BF6045897A01864FF001018182F0
:1022D00010BC7047000001400004014010B5194CCB
:1022E00040F22551204600F076F8002808BF10BDC6
:1022F000204600F005F9144AC1B2108810F4004FCE
:1023000018BF10BD10F4804F4FF0000306D00A290B
:1023100008BF40F4004012D0138010BD0D2908BF43
:1023200040F480400BD0C0F30D0C084C401C80B230
:1023300004F80C101080FE2898BF10BDECE7108048
:1023400010BD0000005000407000002088020020F6
:1023500010B5194C40F22551204600F03CF80028F9
:1023600008BF10BD204600F0CBF8144AC1B2108857
:1023700010F4004F18BF10BD10F4804F4FF0000351
:1023800006D00A2908BF40F4004012D0138010BDC7
:102390000D2908BF40F480400BD0C0F30D0C084C51
:1023A000401C80B204F80C101080FE2898BF10BDAD
:1023B000ECE7108010BD0000004800403400002011
:1023C000880000200029818914BF41F4005121F4C4
:1023D00000518181704710B401F01F020124C1F344
:1023E000421304FA02F24FF0000C012B04BF838960
:1023F0001A4004D0022B0CBF038A838A1A40090AB0
:10240000008804FA01F10840002A1CBF00284FF0A0
:10241000010C604610BC7047C1F3421301F01F016C
:102420004FF0010C0CFA01F1012B08BF0C3003D066
:10243000022B0CBF10301430002A026814BF114365
:1024400022EA01010160704730B50446008A85B078
:102450000D46C98820F4405008432082A089A988ED
:102460002A8920F4037011436A8920F4A050104394
:102470000843A081A08AA98920F440700843A08263
:102480006846FFF7F9F8A4F18040B0F588301BBF2B
:10249000A4F18040B0F58A3003980298A18911F424
:1024A000004F00EBC00101EB0010296814BF490088
:1024B0008900B0FBF1F0114A6FF0180CA2FB00315B
:1024C000490909010B0903FB0CF300EB8300A38905
:1024D00013F4004F4FF0320314BF03EBC00003EBC3
:1024E0000010A2FB00204FEA501014BF00F00700BC
:1024F00000F00F000843208105B030BD1F85EB516F
:102500008088C0F308007047FEE74100080218BF4A
:1025100004200A0E18BF40F001004FF07F4232EA5B
:10252000010108BF40F00200012808BF05207047E4
:1025300010EE101A08B5444A6846B2EB410F28D98C
:102540004FF0E640B0EB410F94BF00204FF0FF305A
:1025500000900098002861DB60EE000A10F0010F87
:1025600045D010F0020FDFED391A9FED391A00EE59
:10257000E11ADFED381A40EE811A21EEA01AF0EED2
:10258000400A40EE010A08BFF1EE600AB0EE600AB0
:1025900008BD314B21F0004293423CD911F0004F6D
:1025A000DFED2E0A20EE201ADFED2D0A19BF31EEE5
:1025B000601A71EE200A31EE201A71EE600ABDEE4B
:1025C000E01A11EE100A9FED271A00F0030000EE4A
:1025D000C10A9FED251A009000EEC10A9FED231A53
:1025E00000EEC10A9FED221A00EEC10AB1E79FED8D
:1025F000211A9FED210A10F0020F00EE810A9FEDD3
:102600001F1A00EE801AB7EE000A00EE810A18BF0A
:10261000B1EE400A08BD00F00FF99AE710EE100A7B
:102620004000B0F17F4F3CBFB7EE000A08BD07D1B4
:102630004FF00100FDF73FFFBDE8084000F0ECB8A7
:10264000BDE8084000F0E4B8B61F927E336D4C3907
:10265000DA82083CA0AA2ABE490E494683F9223FE5
:102660000000004B0000C93F00A0FD390020A2334C
:102670001A61342CB93AB2BACA9F2A3DDDFFFFBEB7
:1026800000B510EE101A2DED028B81B0524A68464B
:10269000B2EB410F2ED94FF0E640B0EB410F94BFA3
:1026A00000204FF0FF3000900098B0EE408A0028E4
:1026B0006ADB10F0010F4BD068EE080A9FED471A55
:1026C0009FED470A00EE810A9FED461A10F0020FB7
:1026D00000EE801AB7EE000A00EE810A02BF01B0D8
:1026E000BDEC028B00BD00BF01B0B1EE400ABDECF5
:1026F000028B00BD3C4B21F00042934241D911F0C6
:10270000004FDFED3A0A20EE201ADFED390A19BF3B
:1027100031EE601A71EE200A31EE201A71EE600A75
:10272000BDEEE01A11EE100A9FED321A00F0030020
:1027300000EEC10A9FED301A009000EEC10A9FED35
:102740002F1A00EEC10A9FED2E1A00EEC10AABE768
:1027500028EE080A9FED2B1ADFED2B0A10F0020F6E
:1027600040EE410A9FED291A00EE201A61EE000AA0
:10277000B0EE480A08EE200AB6D101B0BDEC028BDB
:1027800000BD00F059F88FE718EE100A4000B0F1D4
:102790007F4F0DD218EE100AFFF7B7FE042808BFCE
:1027A00000F042F8B0EE480A01B0BDEC028B00BD6B
:1027B00009D10120FDF77FFE01B0BDEC028B5DF871
:1027C00004EB00F029B801B0B0EE480ABDEC028B72
:1027D0005DF804EB00F01CB8B61F927EB93AB2BAAD
:1027E000CA9F2A3DDDFFFFBE490E494683F9223FBD
:1027F0000000004B0000C93F00A0FD390020A233BB
:102800001A61342C336D4C39DA82083CA0AA2ABEF6
:1028100030EE000A70470000DFED020A80EEA00AE9
:1028200070470000000000009FED020A20EE000A41
:1028300070470000000000102DE9F0014FF07F42CA
:10284000B2EB410F9FBF4FF0FF310160BDE8F001D7
:1028500070474FF0004242EA0123C1F3C752783A71
:10286000551112F01F0C434CCCF120067C44C1F3EF
:10287000C752A2F178024FEA621204EB820254F8C6
:10288000254008BFD2E9015612D0556804FA0CF46D
:1028900025FA06F73C43976805FA0CF527FA06F87F
:1028A000D26807FA0CFCF24045EA08054CEA020639
:1028B000A4FB034CA5FB0352A6FB03631D449D42EE
:1028C00034BF012600261319334416B1934202D9AE
:1028D00003E0934201D2012200E00022624402F1AF
:1028E000200C9206DC0C42EA443200EE102A5B0314
:1028F000DFED210AF8EEC01A00EE103A4FEA9C1CF8
:1029000011F0004FB8EE400AC0F800C020EE201AC7
:1029100000EE105ADFED190AB8EE400A20EE200A48
:1029200071EE810A70EE800A10EE902A02F50062C4
:102930006FF30B0200EE902A70EEE11A31EEC11A2D
:10294000DFED101A30EE411A9FED0D0A20EE800ADD
:1029500001EE210A9FED0C1A00EE810A04BFBDE8CA
:10296000F0017047CCF180510160BDE8F001B1EE9B
:10297000400A7047040E0000000000360000802C62
:1029800022AAFD29DB0FC92F0000C92F30380A28E1
:1029900001D20120704700207047000010B50446A6
:1029A0006FF00400FFF754F80649E00800EB40021E
:1029B0000870C2EBC0104FF6FF7202EAC0004880F8
:1029C00010BD0000720000204FF40771B0FBF1F25F
:1029D000B0FBF1F330B401FB130012F0FF021ED084
:1029E00012494FF407730024498801FB03F54FF0A7
:1029F000E0235D619C61196941F001011961196968
:102A000011F0010F02D011F4803FF8D0196921F0C4
:102A1000010119619C61511E11F0FF02E9D10028EA
:102A200004BF30BC704730BC00F01EB872000020FC
:102A30000C49097848434FF0E021486100238B613D
:102A4000086940F001000861086910F0010F02D028
:102A500010F4803FF8D0086920F0010008618B6114
:102A600070470000720000200C49498848434FF02D
:102A7000E021486100238B61086940F00100086192
:102A8000086910F0010F02D010F4803FF8D00869F7
:102A900020F0010008618B61704700007200002087
:102AA000A820FFF77BFF4FF4A060FEF715FC4FF462
:102AB000165000F0BFF84FF4165000F049F83721D7
:102AC00042F20F70FEF7D8FE42F2CF01C720FFF7A7
:102AD000D7F8292140F2E730FEF7FAFAFEF774FB47
:102AE000FDF75AFFFDF7BAFFFEF70CF8FEF75EF8A8
:102AF000FEF79AFEFEF742FEFEF7B6FAFDF792FDEC
:102B0000FEF70CF9FEF71DFCFEF7F0FB0CA200210E
:102B10004020FEF7D9FC0C4C2068062809DAFDF7A6
:102B20007DFE226800210846FEF7A8FC20680628E2
:102B3000F5DB00209FED050AFDF796FDFEE700009E
:102B400053656E736F7200003000002000000000BB
:102B50002DE9F0430746012187B00805FEF75CFD2B
:102B600001210C20FEF74CFDDFF8BC9008220C215F
:102B70004846FEF7BEF8DFF8B4800822022140463E
:102B8000FEF7B7F802258DF804504FF480508DF809
:102B90000550002400908DF8064001268DF807604E
:102BA00069464846FEF756F88DF8045004208DF823
:102BB000055000908DF806408DF807606946404644
:102BC000FEF748F8DFF86880012240F225514046C0
:102BD000FFF722FC35208DF818008DF819508DF87C
:102BE0001A608DF81B6006A8FEF73CFBADF810409C
:102BF0000C20ADF80C40ADF812000297ADF80E4075
:102C0000ADF8144002A94046FFF71EFC012240F235
:102C100025514046FFF700FC01214046FFF7D2FB5B
:102C200007B0BDE8F083000000080240000C02403D
:102C300000500040F0B5064687B001210220FEF7A3
:102C4000DFFC01218804FEF7E7FC234F07220A215D
:102C50003846FEF74EF807220B213846FEF749F8B2
:102C600002218DF814108DF815104FF440600024E7
:102C700004908DF8164001258DF8175004A93846A8
:102C8000FDF7E8FF154F012240F225513846FFF7C6
:102C9000C3FB27208DF818008DF819508DF81A50B5
:102CA0008DF81B5006A8FEF7DDFAADF808400C20A1
:102CB000ADF80440ADF80A000096ADF80640ADF856
:102CC0000C4069463846FFF7BFFB01213846FFF745
:102CD00079FB07B0F0BD000000040240004800404E
:102CE0004FF04070E1EE100A7047404042CC0000C7
:102CF00000FC0404040404FC00000000003F1088F1
:102D00004023190101091123C0002030AC632018B1
:102D100000040404FC0404040000226722121212BE
:102D2000404040407F40404040002030AC63300095
:102D3000809292929292FE8080002267221212006C
:102D4000221448847F04081422000404E4040FF4CD
:102D50000404F444CF444444040040407D44447D92
:102D60004445447C44457C404000003E22E222220F
:102D7000223E0000F80000FF00008141310F418138
:102D8000413F00000F40807F00002030AC632018DE
:102D9000084848487F484848080022672212121213
:102DA00000FE4242424242FE0000000000FE9292BB
:102DB00092FE929292FE0000000044442425140CDE
:102DC00004FF040C142524444400403C10FF101060
:102DD00020108F7808F808F80000020602FF0101B1
:102DE000044221184681403F0000404458C0FF5033
:102DF0004C0022CC0000FF00000010080601FF017B
:102E0000060004040404FF02020000FE00FC00FFB0
:102E100000F2121AD61212F20200403F003F00FFE9
:102E2000804F20180710204F80000000FC0404048D
:102E30001415569454341404040040300F0001015A
:102E40000141817F01010105030000000000000035
:102E50000000002F000000000700070000147F148E
:102E60007F1400242A7F2A1200626408132300368C
:102E70004955225000000503000000001C224100BB
:102E8000000041221C000014083E08140008083EFF
:102E90000808000000A060000008080808080000FA
:102EA00060600000002010080402003E5149453EC9
:102EB0000000427F400000426151494600214145E7
:102EC0004B31001814127F10002745454539003C4E
:102ED0004A4949300001710905030036494949361C
:102EE00000064949291E000036360000000056360B
:102EF00000000008142241000014141414140000EF
:102F00004122140800020151090600324959513E7C
:102F1000007C1211127C007F49494936003E414134
:102F20004122007F4141221C007F49494941007FE5
:102F300009090901003E4149497A007F0808087FD4
:102F40000000417F4100002040413F01007F081404
:102F50002241007F40404040007F020C027F007F02
:102F60000408107F003E4141413E007F09090906E7
:102F7000003E4151215E007F09192946004649491A
:102F800049310001017F0101003F4040403F001FE7
:102F90002040201F003F4038403F00631408146366
:102FA00000070870080700615149454300007F4150
:102FB000410000552A552A55000041417F00000478
:102FC00002010204004040404040000001020400B1
:102FD000002054545478007F484444380038444416
:102FE000442000384444487F0038545454180008A2
:102FF0007E0901020018A4A4A47C007F08040478C0
:103000000000447D4000004080847D00007F102847
:1030100044000000417F4000007C04180478007CDC
:103020000804047800384444443800FC242424185C
:103030000018242418FC007C080404080048545498
:10304000542000043F444020003C4040207C001CB1
:103050002040201C003C4030403C004428102844C4
:10306000001CA0A0A07C004464544C44141414140C
:103070001414000000000000000000000000000028
:103080000000000000F800000000000000333000E5
:10309000000000100C06100C0600000000000000EC
:1030A000000040C07840C0784000043F04043F0462
:1030B0000400007088FC08300000001820FF211E6A
:1030C0000000F008F000E018000000211C031E21A1
:1030D0001E0000F00888700000001E21232419271C
:1030E000211010160E00000000000000000000007B
:1030F0000000000000E01804020000000007182093
:10310000400000020418E000000000402018070002
:103110000000404080F0804040000202010F0102A8
:103120000200000000F0000000000101011F010189
:103130000100000000000000000080B070000000EE
:10314000000000000000000000000001010101017A
:10315000010100000000000000000030300000000D
:1031600000000000000080601804006018060100E4
:10317000000000E010080810E000000F10202010F0
:103180000F00001010F8000000000020203F202059
:1031900000000070080808887000003028242221F0
:1031A00030000030088888483000001820202011A6
:1031B0000E000000C02010F8000000070424243F87
:1031C000240000F808888808080000192120201130
:1031D0000E0000E0108888180000000F1120201158
:1031E0000E0000380808C83808000000003F000042
:1031F00000000070880808887000001C222121222D
:103200001C0000E010080810E0000000312222112C
:103210000F00000000C0C0000000000000303000BF
:10322000000000000080000000000000806000003E
:103230000000000080402010080000010204081077
:103240002000404040404040400004040404040486
:103250000400000810204080000000201008040234
:103260000100007048080808F00000000030360136
:103270000000C030C828E810E000071827242314F5
:103280000B000000C038E0000000203C23020227B1
:10329000382008F8888888700000203F20202011FE
:1032A0000E00C03008080808380007182020201039
:1032B000080008F808080810E000203F202020102F
:1032C0000F0008F88888E8081000203F20202320FD
:1032D000180008F88888E8081000203F2000030044
:1032E0000000C03008080838000007182020221EFF
:1032F000020008F808000008F808203F2101012119
:103300003F20000808F8080800000020203F202087
:10331000000000000808F8080800C08080807F00D6
:10332000000008F888C028180800203F200126382F
:10333000200008F8080000000000203F2020202086
:10334000300008F8F800F8F80800203F003F003F80
:10335000200008F830C00008F808203F20000718B7
:103360003F00E01008080810E0000F102020201097
:103370000F0008F808080808F000203F21010101AB
:103380000000E01008080810E0000F18242438504E
:103390004F0008F8888888887000203F2000030CC0
:1033A00030200070880808083800003820212122C9
:1033B0001C00180808F8080818000000203F20002A
:1033C000000008F808000008F808001F202020204E
:1033D0001F000878880000C83808000007380E0170
:1033E0000000F80800F80008F800033C0700073C5C
:1033F0000300081868808068180820302C03032C0C
:1034000030200838C800C83808000000203F2000DD
:10341000000010080808C83808002038262120209D
:103420001800000000FE020202000000007F404081
:103430004000000C30C00000000000000001063811
:10344000C00000020202FE000000004040407F0079
:10345000000000000402020204000000000000005E
:10346000000000000000000000008080808080805C
:103470008080000202040000000000000000000044
:103480000000000080808080000000192422222299
:103490003F2008F8008080000000003F112020112C
:1034A0000E000000008080800000000E112020200F
:1034B0001100000000808088F800000E112020100C
:1034C0003F200000808080800000001F22222222F6
:1034D0001300008080F0888888180020203F20207A
:1034E00000000000808080808000006B94949493A2
:1034F000600008F8008080800000203F210000204C
:103500003F2000809898000000000020203F2020ED
:103510000000000000809898000000C08080807F3C
:10352000000008F8000080808000203F24022D3039
:103530002000000808F8000000000020203F2020A4
:1035400000008080808080808000203F20003F201D
:10355000003F8080008080800000203F210000200C
:103560003F200000808080800000001F202020205D
:103570001F00808000808000000080FFA1202011BB
:103580000E000000008080808000000E112020A02E
:10359000FF80808080008080800020203F212000EC
:1035A00001000000808080808000003324242424D7
:1035B0001900008080E0808000000000001F2020B3
:1035C00000008080000000808000001F202020106C
:1035D0003F20808080000080808000010E3008063F
:1035E000010080800080008080800F300C030C3050
:1035F0000F0000808000808080000020312E0E317E
:103600002000808080000080808080818E7018067D
:10361000010000808080808080000021302C2221E9
:10362000300000000000807C020200000000003F2B
:10363000404000000000FF00000000000000FF000C
:1036400000000002027C800000000040403F0000BB
:103650000000000601010202040400000000000056
:10366000000004000008000000000000000200014B
:1036700000001000000000006E83F9A22915444EDE
:10368000D15727FCC0DD34F5999562DB4190433C6E
:10369000AB6351FEB4360008000000208800000033
:1036A000C40100083C37000888000020600A0000C0
:1036B000E001000800000000000000000000000021
:1036C00000000000000000000000000000000000FA
:1036D00000000000000000000000000000000000EA
:1036E0000000000000000000000000000000204179
:1036F0000000204100000000000000000000000069
:1037000000000000000000000000000000000000B9
:1037100000000000000000000000000000000000A9
:103720000000000000000000000000000000010296
:0C3730000304010203040607080900005E
:040000050800018965
:00000001FF
