:020000040800F2
:10000000E80A002029020008D50F00088D0A000820
:10001000410E000825030008B92200080000000076
:100020000000000000000000000000007113000844
:100030007105000800000000211200081F170008C9
:10004000430200084302000843020008430200087C
:10005000430200084302000843020008430200086C
:1000600043020008D50500084302000843020008C7
:10007000430200084302000843020008430200084C
:10008000430200084302000843020008430200083C
:100090004302000843020008430200082506000846
:1000A000430200084302000843020008430200081C
:1000B000430200084302000843020008430200080C
:1000C00043020008430200084302000843020008FC
:1000D000430200084302000843020008012100080F
:1000E00075050008430200084302000843020008A7
:1000F00043020008430200084302000843020008CC
:1001000043020008430200084302000843020008BB
:10011000430200088D2000084302000875180008FB
:10012000430200084302000843020008430200089B
:10013000430200084302000843020008430200088B
:10014000430200084302000843020008430200087B
:10015000430200084302000843020008430200086B
:10016000430200084302000843020008430200085B
:10017000430200084302000843020008430200084B
:10018000430200084302000800F002F800F03CF8C7
:100190000AA090E8000C82448344AAF10107DA45E2
:1001A00001D100F031F8AFF2090EBAE80F0013F0F8
:1001B000010F18BFFB1A43F0010318479C240000ED
:1001C000BC240000103A24BF78C878C1FAD852077E
:1001D00024BF30C830C144BF04680C6070470000C1
:1001E0000023002400250026103A28BF78C1FBD840
:1001F000520728BF30C148BF0B6070471FB502F0DF
:1002000025FA1FBD10B510BD00F036F81146FFF7F6
:10021000F5FF02F0E3F800F054F803B4FFF7F2FF43
:1002200003BC00F057F80000094880470948004720
:10023000FEE7FEE7FEE7FEE7FEE7FEE7FEE7FEE796
:10024000FEE7FEE704480549054A064B70470000F3
:100250002117000889010008E8040020E80A0020AE
:10026000E8060020E806002070477047704700004D
:1002700000487047880400207546FFF7F9FFAE4636
:1002800005006946534620F00700854618B020B5A2
:10029000FFF7D8FFBDE820404FF000064FF0000701
:1002A0004FF000084FF0000B21F00701AC46ACE81E
:1002B000C009ACE8C009ACE8C009ACE8C0098D468B
:1002C000704710B50446AFF300802046BDE81040EB
:1002D000FFF7A3BF01491820ABBEFEE726000200CE
:1002E0007047000010B582B00121102000F09AFF85
:1002F00001218DF8041000218DF806100321022041
:100300008DF80510064C00908DF8070069462046D0
:1003100000F05AFB0221204600F0B6FB02B010BDEF
:1003200000100240FEE700001E4830B4D0F814224E
:100330001D49002A04BFD1F80422002A20D0D0F899
:1003400014521A4A1A4CDFF86CC01B4B012D04BF23
:10035000D1F80452002D1AD0D0F81402002807BF9B
:10036000D1F80402012830BC70474FF02300106020
:1003700020606FF01D00CCF80000186030BC7047A2
:1003800030BC6FF01D014FF0000000F041BD1E2099
:10039000106020606FF02200CCF80000186030BCC4
:1003A0007047000000004042000041422000002051
:1003B00024000020280000202C0000201E4830B41B
:1003C000D0F80C221D49002A04BFD1F80C22002AC3
:1003D00020D0D0F80C521A4A1A4CDFF86CC01B4BD4
:1003E000002D04BFD1F80C52012D1AD0D0F80C0208
:1003F000012807BFD1F80C02002830BC70476FF00D
:100400002700106020604FF02D00CCF8000018602D
:1004100030BC704730BC4FF02D014FF0000000F0B1
:10042000F7BC6FF02C00106020602820CCF8000092
:10043000186030BC7047000000004042000041429C
:100440002000002024000020280000202C00002094
:100450001E4830B4D0F818221D49002A04BFD1F834
:100460000022002A20D0D0F818521A4A1A4C1B4BEE
:10047000DFF86CC0012D04BFD1F80052002D1AD056
:10048000D0F81802002807BFD1F80002012830BCBC
:1004900070476FF0130010604FF019012160196070
:1004A000CCF8000030BC704730BC4FF000016FF05A
:1004B000130000F0ADBC6FF0180010601421216033
:1004C0001960CCF8000030BC7047000000004242C8
:1004D00000004142200000202400002028000020CD
:1004E0002C0000201D4810B4D0F83412002904BF9D
:1004F000D0F83C12002920D0D0F834221849194CE9
:10050000DFF864C0194B002A04BFD0F83C22012A4E
:100510001AD0D0F83422012A07BFD0F83C020028B4
:1005200010BC70474FF019020A606FF01300206092
:10053000CCF800001A6010BC704710BC4FF00001EE
:100540004FF0140000F064BC142008606FF0180134
:100550002160CCF80010186010BC704700004142C8
:100560002000002024000020280000202C00002073
:100570007047000010B50A2001F0C4FE4FF400508F
:1005800000F072F8104C50B1D4F8340218B90F488A
:100590000178491C01704FF4005000F05FF84FF4EF
:1005A000004000F061F8002808BF10BDD4F83C02FC
:1005B00018B907480178491C0170BDE810404FF494
:1005C000004000F04BB80000000041423300002022
:1005D0003400002010B50A2001F094FE082000F03D
:1005E00043F8002808BF10BD0A48D0F80C0218B91B
:1005F00009480178491C01700848D0F80C0218B964
:1006000007480178491C0170BDE81040082000F03F
:1006100025B80000000040423000002000004142A8
:100620003100002010B50A2001F06CFE402000F0DF
:100630001BF8002808BF10BD0648D0F8180218B9EA
:1006400005480178491C0170BDE81040402000F0C9
:1006500005B8000000004242320000200149086055
:1006600070470000143C0140034A01460020126814
:100670000A4218BF01207047143C01408379214A87
:100680000168002B34D0136823EA01011160111DA9
:100690000A6803689A430A60017901F1804101F513
:1006A0009E310A6803681A430A60174A1168036892
:1006B00099431160131D1968D0F800C021EA0C019C
:1006C00019604179102908D001F1804101F59E316E
:1006D0000A6800681043086070471168D0F800C0CD
:1006E00041EA0C01116019680068084318607047FE
:1006F000007900F1804000F59E30026822EA010195
:1007000001607047003C0140083C0140F0B5012108
:100710008BB0084600F092FD0121084600F082FDF2
:100720000121022000F07EFD274F01220F213846D3
:1007300000F099F9254E01220321304600F093F98B
:1007400002244FF400408DF81440012504908DF8E8
:1007500017508DF8154004A9384600F035F90820E7
:100760008DF81C4006908DF81F508DF81D4006A98D
:10077000304600F029F9600701F025F900244FF612
:10078000FF70ADF800400190ADF80840ADF80240B0
:100790006946A80701F0C6FB0A231A460321580739
:1007A00001F0EBF908A801F08EFA0620ADF8280058
:1007B00008A9A80701F00AFAA8074462012101F07C
:1007C000EEF80BB0F0BD0000000002400004024053
:1007D00030B589B00121022000F030FD012108462A
:1007E00000F020FD214C02220621204600F03BF9BA
:1007F00002220721204600F036F9C021049102218F
:100800008DF8141001228DF817208DF8151004A909
:10081000204600F0D9F8164D284601F0D4F80024FF
:100820004FF6FF71ADF800400191ADF80840ADF80A
:1008300002406946284601F075FB0A231A46032147
:10084000284601F09AF906A801F03DFA0621ADF814
:10085000201006A9284601F0B9F9064804600121D4
:10086000284601F09CF809B030BD000000000240AD
:10087000000400402404004030B589B00121042068
:1008800000F0DCFC0121022000F0CCFC214C022213
:100890000621204600F0E7F802220721204600F05A
:1008A000E2F8C021049102218DF8141001228DF884
:1008B00017208DF8151004A9204600F085F8164D74
:1008C000284601F080F800244FF6FF71ADF8004093
:1008D0000191ADF80840ADF802406946284601F0A4
:1008E00021FB0A231A460321284601F046F906A8EF
:1008F00001F0E9F90621ADF8201006A9284601F01B
:1009000065F9064804600121284601F048F809B05D
:1009100030BD0000000402400008004024080040F0
:1009200030B589B00121082000F088FC012108467B
:1009300000F078FC214C02220021204600F093F8C0
:1009400002220121204600F08EF8032104910221A9
:100950008DF8141001228DF817208DF8151004A9B8
:10096000204600F031F8164D284601F02CF80024FE
:100970004FF6FF71ADF800400191ADF80840ADF8B9
:1009800002406946284601F0CDFA0A231A4603219F
:10099000284601F0F2F806A801F095F90621ADF815
:1009A000201006A9284601F011F90648046001212B
:1009B000284600F0F4FF09B030BD000000000240FE
:1009C000000C0040240C00402DE9F001002201261B
:1009D00003270B6806FA02FC03EA0C0363453BD1CC
:1009E0000568530007FA03F4A54305600D79D0F8B4
:1009F00000809D4045EA080505600D79012D18BF6E
:100A0000022D1AD1856825EA040585604D79D0F854
:100A1000088005FA03F545EA08058560456825EA7A
:100A20000C0CC0F804C0D0F804C08D7905FA02F5AA
:100A3000ADB24CEA050CC0F804C0D0F80CC02CEAEA
:100A4000040CC0F80CC091F807C00CFA03F3D0F8FE
:100A50000CC043EA0C03C36002F10102102AB8D3B0
:100A6000BDE8F00170474B07DB0E9A40C90800EB68
:100A70008100016A4FF00F0C0CFA03F399430162F5
:100A8000016A11430162704741837047FEE700002D
:100A900010B582B00121022000F0C4FB4FF4407079
:100AA000012400908DF8044000208DF806000320FA
:100AB0008DF805008DF8074069460548FFF784FF6B
:100AC0000448C0F8A042C0F8A44202B010BD000023
:100AD00000040240008040422DE9F04105461648DE
:100AE000016821F440210160016841F48021016026
:100AF000124E4FF00008C6F8A0824446012715F0B8
:100B0000800F14BFC6F8A472C6F8A4826806050E4A
:100B1000052001F02BFCC6F8A072052001F026FC90
:100B2000C6F8A082052001F021FC601CC4B2082C8C
:100B3000E5D3BDE8F0810000000C02400080404297
:100B400070B50D48016821F440210160016841F44D
:100B500080210160094C0120C4F8A402C4F8A0025D
:100B6000022004F5287401F001FC002565600220D4
:100B700001F0FCFB256070BD000C0240008040428B
:100B80000E4810B5016821F440210160016841F46C
:100B9000802101600A4C0020C4F8A002C4F8A4021D
:100BA000022004F5287401F0E1FB01202060606060
:100BB000BDE81040022001F0D9BB0000000C02404B
:100BC000008040422DE9F0411E4E0024306820F4A0
:100BD00040203060306830601B4D0127C5F8A4729A
:100BE000384601F0C3FBC5F8A072012001F0BEFB3E
:100BF000D5F82402002100B3601CC4B2FA2C18D925
:100C0000306820F440203060306840F4802030604C
:100C1000C5F8A012C5F8A412022001F0A7FBC5F880
:100C2000A072C5F8A472022001F0A0FB0120BDE86B
:100C3000F081D5F824020028DED1C5F8A0120020EA
:100C4000BDE8F081000C024000804042164A401A84
:100C50001169D2ED000A411A00EE101A92ED011A44
:100C6000B8EEC00A60EE200A00EE100AB8EEC00A24
:100C700041EE000A92ED030AB8EEC00A30EE800A97
:100C8000BDEEC00A10EE101AC2E90310B1F57A7F6A
:100C9000C8BF4FF47A7005DC11F57A7FB2BF034804
:100CA000D0687047D06070473800002018FCFFFF04
:100CB000164A401AD169D2ED000A411A00EE101A04
:100CC00092ED011AB8EEC00A60EE200A00EE100A9A
:100CD000B8EEC00A41EE000A92ED060AB8EEC00A6C
:100CE00030EE800ABDEEC00A10EE101AC2E90610FE
:100CF000B1F57A7FC8BF4FF47A7005DC11F57A7FC1
:100D0000B2BF034890697047906170473800002077
:100D100018FCFFFF164A401A916AD2ED000A411AE8
:100D200000EE101A92ED011AB8EEC00A60EE200A29
:100D300000EE100AB8EEC00A41EE000A92ED090A70
:100D4000B8EEC00A30EE800ABDEEC00A10EE101AEE
:100D5000C2E90910B1F57A7FC8BF4FF47A7005DC9B
:100D600011F57A7FB2BF0348506A704750627047EE
:100D70003800002018FCFFFF164A401A516BD2EDD4
:100D8000000A411A00EE101A92ED011AB8EEC00ADC
:100D900060EE200A00EE100AB8EEC00A41EE000A2A
:100DA00092ED0C0AB8EEC00A30EE800ABDEEC00A21
:100DB00010EE101AC2E90C10B1F57A7FC8BF4FF4DB
:100DC0007A7005DC11F57A7FB2BF0348106B70476B
:100DD000106370473800002018FCFFFF00B583B097
:100DE0000121102000F01EFA1520009000208DF83F
:100DF000040003208DF8050001208DF807006946E6
:100E00000248FFF7E1FD03B000BD00000010024002
:100E1000074B421A1A60DFF81CC042185342CCF844
:100E20000030081A04490860044802607047000056
:100E30002000002024000020280000202C0000209A
:100E4000FEE700002DE9F0410D4607468CB0012178
:100E5000022000F00BFA0121042000F0E3F9DFF892
:100E6000D480032206214046FFF7FDFD032207211F
:100E70004046FFF7F8FD032208214046FFF7F3FD47
:100E8000032209214046FFF7EEFD02228DF81C20C7
:100E90004FF47F708DF81D20002406908DF81E40C1
:100EA00001268DF81F6006A94046FFF78DFDADF8BD
:100EB0002050214DADF822400997ADF8284008A9EF
:100EC000284601F02FF8684601F01AF86021ADF8C5
:100ED00000100294ADF80260ADF80C406946284657
:100EE00000F001FF0821284600F031FF694628463E
:100EF00000F033FF0821284600F072FF69462846BB
:100F000000F078FF0821284600F0B6FF6946284621
:100F100000F0B8FF0821284600F0E8FF012128462C
:100F200000F03DFD0121284600F042FD0CB0BDE877
:100F3000F0810000000802400004014070B588B054
:100F400001211D2000F06EF901248DF804400325D5
:100F50004FF480508DF80550002600908DF8066003
:100F60008DF8074069461748FFF72EFD8DF81C40A5
:100F70008DF81D508DF81E6006948DF81F4006A94F
:100F80001148FFF721FD8DF80C40A8028DF80D5097
:100F900002908DF80E608DF80F4002A90B48FFF704
:100FA00013FD8DF814404FF42C508DF8155004901B
:100FB0008DF816608DF8174004A90548FFF704FD69
:100FC00008B070BD00000240000C02400008024062
:100FD000001002407047000010B4C27801784FF052
:100FE0000F0C01241AB3184A126801F1E02102F42F
:100FF000E062C2F5E062C2F30722C2F104032CFAF8
:1010000002FC42789A40837803EA0C031A431201E7
:1010100081F80024007800F01F0104FA01F1400972
:10102000800000F1E020C0F8001110BC704701F012
:101030001F0004FA00F04909890001F1E021C1F81C
:10104000800110BC704700000CED00E0034940F047
:10105000FD7040F080600860704700000CED00E01B
:1010600070B5002505F1B000C0B200F0C0F8012055
:1010700000F0BDF8102000F0BAF800240026FFF7B9
:101080005FFD7820FFF728FDFFF79CFD4020FFF76C
:1010900023FDFFF797FD3046FFF71EFDFFF792FD9A
:1010A000FFF76EFD601CC4B2802CE7D3681CC5B28C
:1010B000082DD7D370BD70B54FF4FA7001F022F946
:1010C000AE2000F094F8002000F091F8102000F01D
:1010D0008EF8402000F08BF8812000F088F8CF20B7
:1010E00000F085F8A12000F082F8C82000F07FF819
:1010F000A62000F07CF8A82000F079F83F2000F04E
:1011000076F8D32000F073F8002000F070F8D520B6
:1011100000F06DF8802000F06AF8D92000F067F840
:10112000F12000F064F8DA2000F061F8122000F0FD
:101130005EF8DB2000F05BF8402000F058F820203B
:1011400000F055F8022000F052F88D2000F04FF822
:10115000142000F04CF8A42000F049F8A62000F07C
:1011600046F8AF2000F043F80026354605F1B00000
:10117000C0B200F03CF8012000F039F8102000F077
:1011800036F80024FFF7DCFC7820FFF7A5FCFFF71A
:1011900019FD4020FFF7A0FCFFF714FD3046FFF7D4
:1011A0009BFCFFF70FFDFFF7EBFC611CCCB2802C22
:1011B000E8D3681CC5B2082DD8D3BDE87040002123
:1011C0000846AFF3008010B5044601F1B000C0B28C
:1011D00000F00DF8102040EA141000F008F804F0B8
:1011E0000F00BDE8104040F00100AFF3008010B5E3
:1011F0000446FFF7A5FC7820FFF76EFCFFF7E2FC42
:1012000000B1FEE70020FFF767FCFFF7DBFC20469C
:10121000FFF762FCFFF7D6FCBDE81040FFF7B0BC5B
:1012200070470000044A0029116814BF084321EAEE
:10123000000010607047000030380240044A002966
:10124000116814BF084321EA0000106070470000D5
:1012500040380240044A0029116814BF084321EABB
:10126000000010607047000020380240044A002946
:10127000116814BF084321EA0000106070470000A5
:1012800044380240044A0029116814BF084321EA87
:1012900000001060704700002438024010B41D4C5C
:1012A00021681D4A11F00C0118BF042901D008293A
:1012B00001D0026012E0194B1968196801F03F0172
:1012C000B2FBF1F11A68C2F3881251431A68C2F3F3
:1012D0000142521C5200B1FBF2F1016021680F2261
:1012E0000F4B02EA1111595C026822FA01F14160C8
:1012F00022684FF0070C0CEA92229A5C21FA02F263
:10130000826022680CEA52329A5CD140C16010BC03
:10131000704700000838024040787D0104380240E0
:1013200076000020002101280CD0022810D00328CC
:1013300013D004281CBF002070470A4A10681160AF
:1013400000B270474FF08042506A516200B270475D
:10135000054A1068116000B27047044A10681160B5
:1013600000B270472404004024080040240C0040D0
:1013700070478A0721F0030101F1804101F598319E
:10138000120F0F23D1F808C893402CEA0303C1F8C9
:101390000838D1F8083890401843C1F80808704759
:1013A000F0B587B001211520FFF73CFF00254AF278
:1013B0000B008DF80450032600908DF80560012481
:1013C0008DF8074069463348FFF7FEFA40208DF854
:1013D000045000908DF805608DF8074069462E484E
:1013E000FFF7F2FA8DF8045028278DF80560009772
:1013F0008DF8074069462948FFF7E6FA012188037E
:10140000FFF734FF03210020FFF7B3FF0321022081
:10141000FFF7AFFF0D210220FFF7ABFF0F210220E6
:10142000FFF7A7FF06210420FFF7A3FF4AF24800B9
:1014300004908DF814500C208DF815008DF816408E
:1014400004A8FFF71BF909208DF808008DF8095052
:101450008DF80A408DF80B4002A8FFF7BDFD17205C
:101460008DF808008DF8095002208DF80A008DF8DB
:101470000B4002A8FFF7B0FD8DF808708DF80950F9
:101480008DF80A608DF80B4002A8FFF7A5FD07B0A4
:10149000F0BD0000000802400010024000000240C1
:1014A000B52828BF704700EE100AF8EEC00A9FED7D
:1014B000061A9FED060A064800EE810ABDEEC00A34
:1014C00010EE101A00F028BD555505420080BB44AF
:1014D00000000140B52828BF704700EE100AF8EE62
:1014E000C00A9FED061A9FED060A064800EE810A23
:1014F000BDEEC00A10EE101A00F00CBD55550542A5
:101500000080BB4400000140B52828BF704700EEB2
:10151000100AF8EEC00A9FED061A9FED060A06486B
:1015200000EE810ABDEEC00A10EE101A00F0F8BC01
:10153000555505420080BB4400000140B52828BF36
:10154000704700EE100AF8EEC00A9FED061A9FEDF4
:10155000060A064800EE810ABDEEC00A10EE101A17
:1015600000F0DCBC555505420080BB440000014042
:10157000F0B50D46064601218BB00846FFF776FE12
:1015800001210846FFF74EFE324F0122082138465E
:10159000FFF769FA012209213846FFF764FA0122B0
:1015A0000A213846FFF75FFA01220B213846FFF780
:1015B0005AFA4FF47062089202228DF824208DF8B6
:1015C000252000248DF8264008A93846FFF7FCF9AD
:1015D000ADF81450204DADF816400696ADF81C40FD
:1015E00005A9284600F09EFC684600F089FC6021B1
:1015F000ADF800100121ADF802100294ADF80C40D6
:101600006946284600F06FFB0821284600F09FFB42
:101610006946284600F0A1FB0821284600F0E0FBBF
:101620006946284600F0E6FB0821284600F024FC25
:101630006946284600F026FC0821284600F056FCA2
:101640000121284600F0ABF90121284600F0B0F94D
:101650000BB0F0BD0000024000000140F0B4224F8A
:10166000224E234D01244FF0000C0028A7BFC7F8DD
:10167000B0C2C6F88042C7F8B042C6F880C2B8BF50
:10168000404228601B481C4D002905DBC0F8A8C259
:10169000C0F8AC42296005E0C0F8A842C0F8ACC26E
:1016A0004842286015491648002AA7BFC0F8B4C2AE
:1016B000C0F8AC42C0F8B442C0F8ACC2B8BF5242A5
:1016C0000A601049002B06DBC0F8A0C2C0F8A44293
:1016D0000B60F0BC7047C0F8A042C0F8A4C25842EA
:1016E0000860F0BC704700000000404200804142AA
:1016F0003C040140000041424004014034040140E8
:1017000000004242380401404FF0E02104280869FB
:101710000CBF40F0040020F00400086170477047DF
:101720003B4882B0016841F47001016039480168AA
:1017300041F00101016038494FF0000CC1F800C0D0
:10174000026822F4102222F080720260031D334AE4
:101750001A60026822F4802202600A1DC2F800C0EA
:10176000CDF800C0CDF804C0026842F480320260B7
:10177000026802F400320192009A521C0092019A0F
:101780001AB9009AB2F5A04FF2D1026812F4003FE4
:1017900008BFCDF804C034D001220192204AD2F80B
:1017A00000C04CF0805CC2F800C01E4AD2F800C0F5
:1017B0004CF4404CC2F800C00A680A600A6842F45F
:1017C00000420A600A6842F4A0520A60164A1A608F
:1017D000026842F080720260026812F0007FFBD063
:1017E000124A40F205701060086820F0030008609B
:1017F000086840F002000860086800F00C00082843
:10180000FAD10B494FF00060086002B07047000049
:1018100088ED00E000380240083802401030002413
:10182000403802400070004019544007003C02401C
:1018300008ED00E030B4B0F820C02CF0100CA0F897
:1018400020C0048BB0F820C04FF6FF7524F4734419
:1018500005EA0333234305EA02221A4305EA01118C
:101860002CF0A003194341F010010283018430BC25
:10187000704700002DE9F041224E0121304600F072
:101880009AF9012837D1FFF74DFD1F4D286002203E
:10189000FFF748FD1D4C20600320FFF743FD1C4F60
:1018A00038600420FFF73EFDDFF86880C8F80000CC
:1018B000194801682868FFF7C9F9184D28601848C9
:1018C00001682068FFF7F4F9164C2060164801689B
:1018D0003868FFF71FFA154F386015480168D8F8C7
:1018E0000000FFF749FA134908600B683A6821685D
:1018F0002868FFF7B3FE3046BDE8F041012100F053
:101900004BB800000014004010000020140000201C
:10191000180000201C0000202000002000000020F3
:1019200024000020040000202800002008000020DF
:101930002C0000200C00002030B50D46044685B078
:1019400001212020FFF77AFC0194ADF8005000241B
:10195000104DADF80240ADF808406946284600F049
:10196000E1FA01221146284600F0B5F937218DF839
:101970000C108DF80D408DF80E4001218DF80F10E0
:1019800003A8FFF729FB0121284600F008F805B05D
:1019900030BD000000140040C94301827047002997
:1019A000018814BF41F0010121F00101018070475D
:1019B0000029B0F8441014BF41F40041C1F30E01F6
:1019C000A0F84410704710B5A0F18041B1F5803106
:1019D0004AD0B0F1804F5BD0A0F18041B1F5806179
:1019E0004CD0A0F18041B1F500615BD0A0F1804105
:1019F000B1F5406160D0A0F18041B1F5805165D072
:101A0000A0F18041B1F5A0516AD0A0F18041B1F5BB
:101A100082316FD0A0F18041B1F5A03174D0A0F136
:101A20008041B1F5A2317AD0A0F18041B1F5A43165
:101A30007DD0A0F18041B1F5C05179D0A0F18041B5
:101A4000B1F5E05175D0A0F18041B1F5005118BF5A
:101A500010BD01210802FFF7FDFBBDE81040002189
:101A60004FF48070FFF7F6BB01210846FFF70AFC30
:101A70000021BDE810400120FFF704BC0121022035
:101A8000FFF7E8FB0021BDE810400220FFF7E2BBB2
:101A900001210846FFF7DEFB0021BDE810400120D0
:101AA000FFF7D8BB01210420FFF7D4FB0021BDE8DC
:101AB00010400420FFF7CEBB01210820FFF7CAFB2E
:101AC0000021BDE810400820FFF7C4BB0121102011
:101AD000FFF7C0FB0021BDE810401020FFF7BABBA4
:101AE00001212020FFF7B6FB0021BDE81040202097
:101AF000FFF7B0BB01210220FFF7C4FB0021BDE8C6
:101B000010400220FFF7BEBB01210804FFF7BAFB1B
:101B1000BDE8104000214FF48030FFF7B3BB012136
:101B20004804FFF7AFFB00214FF4003002E005E06E
:101B30000FE018E0BDE81040FFF7A4BB01218804C6
:101B4000FFF7A0FBBDE8104000214FF48020FFF715
:101B500099BB01214020FFF77DFB0021BDE810402B
:101B60004020FFF777BB01218020FFF773FB0021A6
:101B7000BDE810408020FFF76DBB30B40589B0F898
:101B800018C0048C25F0070529432CF0030C2CF415
:101B9000407C40F201154CEA050C4FF6FF7505EA52
:101BA000031324F022041A4322430181A0F818C031
:101BB000028430BC7047038A002280890B4200EA0D
:101BC00001001CBF002801221046704770B50C466A
:101BD000054608884988A28823894FF6FF7638B3DE
:101BE000042843D00828288C4ED020F48050288424
:101BF000B5F81CC0288C2CF4734C06EA022242EA89
:101C00000C0206EA03331A4306EA013120F42040AD
:101C1000084340F48050AA832884A079A98B21F43A
:101C20004061A983A98B06EA00200843A88370BD00
:101C3000288C20F001002884B5F818C0288C06EA0A
:101C400003131A432CF0F30C20F00A0042EA0C02B2
:101C5000084340F001002A832884E088298B21F082
:101C60000C012983298B0843288370BD2846FFF780
:101C7000E1FDA079298B21F440612983298B06EAB3
:101C800000200843288370BD20F480702884B5F8B4
:101C90001CC0288C06EA03131A4306EA01212CF023
:101CA000F30C20F4206042EA0C02084340F48070F8
:101CB000AA832884E088A98B21F00C01A983A98B31
:101CC0000843A88370BD00210180418001228280E9
:101CD000C18001817047002A828914BF114322EA22
:101CE00001018181704710B4028C22F0010202844C
:101CF000028C8388B0F818C00C882CF0730C44EA6E
:101D00000C0C8C8922F0020222434C882243A0F161
:101D10008044B4F580341CBFA0F18044B4F5823413
:101D20000DD1CC8922F0080222438C8822F00402D3
:101D300022430C8A23F4407323434C8A2343838039
:101D4000A0F818C089684163028410BC7047028BF8
:101D500022F0080211430183704730B4028C22F054
:101D600010020284028C8388B0F818C00D882CF40D
:101D7000E6444FF6FF7C0CEA05252C438D8922F0C2
:101D800020020CEA05152A434D880CEA05152A4362
:101D9000A0F18045B5F580351CBFA0F18045B5F5B3
:101DA000823516D1CD8922F080020CEA05152A432E
:101DB0008D8822F040020CEA05152A430D8A23F48F
:101DC00040630CEA85052B434D8A0CEA850C4CEAEE
:101DD00003038380048389688163028430BC704775
:101DE000028B4FF6FF7322F4006203EA01211143D4
:101DF0000183704730B4028C22F480720284028C1A
:101E00008388B0F81CC00C882CF0730C44EA0C04D6
:101E10008D894FF6FF7C22F400720CEA05252A43D7
:101E20004D880CEA05252A43A0F18045B5F580359B
:101E30001CBFA0F18045B5F5823516D1CD8922F4BD
:101E400000620CEA05252A438D8822F480620CEAA0
:101E500005252A430D8A23F440530CEA05152B432C
:101E60004D8A0CEA051C4CEA03038380848389684D
:101E7000C163028430BC7047828B22F00802114398
:101E80008183704730B4028C22F480520284038C28
:101E90008288B0F81CC00D884FF6FF742CF4E64C15
:101EA00004EA052545EA0C0C8D8923F4005304EA65
:101EB00005352B434D8804EA05352B43A0F18045B9
:101EC000B5F580351CBFA0F18045B5F5823505D14B
:101ED0000D8A22F4804204EA851422438280A0F80D
:101EE0001CC089680164038430BC7047828B4FF644
:101EF000FF7322F4006203EA0121114381837047DA
:101F0000002101804180818081608181C1810182C5
:101F1000418270474163704781637047C163704776
:101F20000164704710B402881C4BDFF874C09842FB
:101F300018BF604511D0B0F1804F1CBFA0F18044A4
:101F4000B4F5806409D0A0F18044B4F500641CBFEE
:101F5000A0F18044B4F5406403D14C8822F07002B3
:101F60002243A0F18044B4F580541CBFA0F180440A
:101F7000B4F5A05403D00C8922F4407222430280AD
:101F80004A68C2620A880285984212BF6045897A0F
:101F900001864FF00101818210BC704700000140B2
:101FA0000004014010B5074C00202070FEF79AFA9B
:101FB00020780628FAD10021BDE810400846FEF737
:101FC00027BF00003300002010B5094C20780228FC
:101FD00007D000216FF01300FEF71AFF20780228C7
:101FE000F7D10021BDE810400846FEF711BF000000
:101FF0003000002010B5074C00202070FEF794F947
:1020000020780328FAD10021BDE810400846FEF7E9
:10201000FFBE00003400002010B5074C00202070E7
:10202000FEF7CCF920780628FAD30021BDE810404D
:102030000846FEF7EDBE00003300002010B5074C47
:1020400000202070FEF704FA20780428FAD100213D
:10205000BDE810400846FEF7DBBE0000320000205D
:1020600070B56FF027011E20FEF7D2FE1825002460
:102070004FF47A7000F046F9641CAC42F8DBBDE81E
:10208000704000210846FEF7C3BE000010B5194C91
:1020900040F22551204600F076F8002808BF10BD18
:1020A000204600F005F9144AC1B2108810F4004F20
:1020B00018BF10BD10F4804F4FF0000306D00A295E
:1020C00008BF40F4004012D0138010BD0D2908BF96
:1020D00040F480400BD0C0F30D0C084C401C80B283
:1020E00004F80C101080FE2898BF10BDECE710809B
:1020F00010BD000000500040700000208802002049
:1021000010B5194C40F22551204600F03CF800284B
:1021100008BF10BD204600F0CBF8144AC1B21088A9
:1021200010F4004F18BF10BD10F4804F4FF00003A3
:1021300006D00A2908BF40F4004012D0138010BD19
:102140000D2908BF40F480400BD0C0F30D0C084CA3
:10215000401C80B204F80C101080FE2898BF10BDFF
:10216000ECE7108010BD0000004800403600002061
:10217000880000200029818914BF41F4005121F416
:1021800000518181704710B401F01F020124C1F396
:10219000421304FA02F24FF0000C012B04BF8389B2
:1021A0001A4004D0022B0CBF038A838A1A40090A02
:1021B000008804FA01F10840002A1CBF00284FF0F3
:1021C000010C604610BC7047C1F3421301F01F01BF
:1021D0004FF0010C0CFA01F1012B08BF0C3003D0B9
:1021E000022B0CBF10301430002A026814BF1143B8
:1021F00022EA01010160704730B50446008A85B0CB
:102200000D46C98820F4405008432082A089A9883F
:102210002A8920F4037011436A8920F4A0501043E6
:102220000843A081A08AA98920F440700843A082B5
:102230006846FFF733F8A4F18040B0F588301BBF43
:10224000A4F18040B0F58A3003980298A18911F476
:10225000004F00EBC00101EB0010296814BF4900DA
:102260008900B0FBF1F0114A6FF0180CA2FB0031AD
:10227000490909010B0903FB0CF300EB8300A38957
:1022800013F4004F4FF0320314BF03EBC00003EB15
:102290000010A2FB00204FEA501014BF00F007000E
:1022A00000F00F000843208105B030BD1F85EB51C1
:1022B0008088C0F308007047FEE770B5051E4FF038
:1022C0000004D8BF70BD4FF47A7000F01BF8641C96
:1022D000A542F8DC70BD000010B504466FF00400A4
:1022E000FFF712FA0649E00800EB40020870C2EB63
:1022F000C0104FF6FF7202EAC000488010BD000017
:10230000720000204FF40771B0FBF1F2B0FBF1F363
:1023100030B401FB130012F0FF021ED012494FF43B
:1023200007730024498801FB03F54FF0E0235D614A
:102330009C61196941F001011961196911F0010FDE
:1023400002D011F4803FF8D0196921F00101196120
:102350009C61511E11F0FF02E9D1002804BF30BC7E
:10236000704730BC00F01EB8720000200C4909789C
:1023700048434FF0E021486100238B61086940F039
:1023800001000861086910F0010F02D010F4803FCD
:10239000F8D0086920F0010008618B6170470000E7
:1023A000720000200C49498848434FF0E021486101
:1023B00000238B61086940F001000861086910F092
:1023C000010F02D010F4803FF8D0086920F001001E
:1023D00008618B617047000072000020A820FFF7A1
:1023E0007BFF4FF4A060FEF731FE4FF4165000F073
:1023F000D7F84FF4165000F061F8372142F20F7011
:10240000FFF7B6F842F2CF01C720FFF795FA29216E
:1024100040F2E730FEF716FDFEF790FDFEF776F985
:10242000FEF7D6F9FEF728FAFEF77AFAFEF7B8FFBC
:10243000FEF7D4FCFDF756FFFEF72AFBFEF73BFE46
:10244000FEF70EFE5A20FFF779F80020FFF75CF840
:102450009120FFF73FF85A20FFF722F80120FFF7FD
:102460002CFFFFF7B1FD4FF4FA70FFF74BFFFFF7BA
:10247000D3FD0220FFF721FFFFF7BCFD0220FFF78D
:102480001CFFFFF7DBFD0220FFF717FFFFF78AFDB8
:102490000220FFF712FFFFF7D1FD0220FFF70DFF2B
:1024A000FFF780FD0220FFF708FFFFF7C7FD0220BE
:1024B000FFF703FFFFF7D4FDFEE700002DE9F0432F
:1024C0000746012187B00805FEF7B8FE01210C2060
:1024D000FEF7A8FEDFF8BC9008220C214846FEF764
:1024E000C2FADFF8B480082202214046FEF7BBFAA8
:1024F00002258DF804504FF480508DF805500024CB
:1025000000908DF8064001268DF807606946484620
:10251000FEF75AFA8DF8045004208DF8055000900B
:102520008DF806408DF8076069464046FEF74CFA84
:10253000DFF86880012240F225514046FFF744FE53
:1025400035208DF818008DF819508DF81A608DF827
:102550001B6006A8FEF740FDADF810400C20ADF85A
:102560000C40ADF812000297ADF80E40ADF81440E3
:1025700002A94046FFF740FE012240F225514046A5
:10258000FFF722FE01214046FFF7F4FD07B0BDE84A
:10259000F083000000080240000C024000500040A0
:1025A000F0B5064687B001210220FEF73BFE01216F
:1025B0008804FEF743FE234F07220A213846FEF720
:1025C00052FA07220B213846FEF74DFA02218DF808
:1025D00014108DF815104FF44060002404908DF80D
:1025E000164001258DF8175004A93846FEF7ECF97E
:1025F000154F012240F225513846FFF7E5FD27200F
:102600008DF818008DF819508DF81A508DF81B5060
:1026100006A8FEF7E1FCADF808400C20ADF8044038
:10262000ADF80A000096ADF80640ADF80C406946DA
:102630003846FFF7E1FD01213846FFF79BFD07B063
:10264000F0BD000000040240004800404FF0407020
:10265000E1EE100A70470000782600080000002014
:1026600088000000C401000800270008880000203E
:10267000600A0000E0010008000000000000000007
:10268000000000000000000000000000000000004A
:10269000000000000000000000000000000000003A
:1026A000000000000000000000000000000000002A
:1026B0000000204100002041000000000000000058
:1026C000000000000000000000000000000000000A
:1026D00000000000000000000000000000000000FA
:1026E00000000000000000000000000000000000EA
:1026F00000000102030401020304060708090000A8
:040000050800018965
:00000001FF
