:020000040800F2
:10000000880800209D010008A10F0008B70900081A
:100010000D0E0008450200081D2300080000000026
:100020000000000000000000000000003D13000878
:100030009104000800000000ED110008FB16000804
:10004000B7010008B7010008B7010008B7010008B0
:10005000B7010008B701000895040008B7010008BF
:10006000B701000809050008B7010008B70100083A
:10007000B7010008B7010008B7010008B701000880
:10008000B7010008B7010008B7010008B701000870
:10009000B7010008B7010008B701000841050008D2
:1000A000B7010008B7010008B7010008B701000850
:1000B000B7010008B7010008B7010008B701000840
:1000C000B7010008B7010008B7010008B701000830
:1000D000B7010008B7010008B70100086521000852
:1000E000CD040008B7010008B7010008B7010008F7
:1000F000B7010008B7010008B7010008B701000800
:10010000B7010008B7010008B7010008B7010008EF
:10011000B7010008F1200008B701000851180008D5
:10012000B7010008B7010008B7010008B7010008CF
:10013000B7010008B7010008B7010008B7010008BF
:10014000B7010008B7010008B7010008B7010008AF
:10015000B7010008B7010008B7010008B70100089F
:10016000B7010008B7010008B7010008B70100088F
:10017000B7010008B7010008B7010008B70100087F
:10018000B7010008B7010008DFF80CD000F018F83C
:10019000004800475D240008880800200648804782
:1001A00006480047FEE7FEE7FEE7FEE7FEE7FEE75C
:1001B000FEE7FEE7FEE7FEE7FD16000889010008FE
:1001C000064C074D06E0E06840F0010394E80700A4
:1001D00098471034AC42F6D3FFF7DAFF70260008D8
:1001E0009026000810B55A2001F096F9002001F081
:1001F00079F9912001F05CF9BDE810405A2001F036
:100200003DB9000010B582B00121102000F0F0FFD0
:1002100001218DF8041000218DF806100321022021
:100220008DF80510064C00908DF8070069462046B1
:1002300000F058FB0221204600F0BBFB02B010BDCD
:1002400000100240FEE700001E4830B4D0F80C2237
:100250001D49002A04BFD1F80422002A20D0D0F87A
:100260000C521A4A1A4CDFF86CC01B4B012D04BF0C
:10027000D1F80452002D1AD0D0F80C02002807BF84
:10028000D1F80402012830BC70474FF02300106001
:1002900020606FF01D00CCF80000186030BC704783
:1002A00030BC6FF013014FF0000000F097BD1E202E
:1002B000106020606FF02200CCF80000186030BCA5
:1002C0007047000000004042000041422000002032
:1002D00024000020280000202C0000201E4830B4FC
:1002E000D0F814221D49002A04BFD1F80C22002A9C
:1002F00020D0D0F814521A4A1A4CDFF86CC01B4BAD
:10030000002D04BFD1F80C52012D1AD0D0F81402E0
:10031000012807BFD1F80C02002830BC70476FF0ED
:100320002200106020604FF02800CCF80000186018
:1003300030BC704730BC4FF028014FF0000000F097
:100340004DBD6FF02700106020602320CCF8000026
:10035000186030BC7047000000004042000041427D
:100360002000002024000020280000202C00002075
:100370001E4830B4D0F818221D49002A04BFD1F815
:100380003C22002A20D0D0F818521A4A1A4C1B4B93
:10039000DFF86CC0012D04BFD1F83C52002D1AD0FB
:1003A000D0F81802002807BFD1F83C02012830BC61
:1003B00070476FF0130010604FF019012160196051
:1003C000CCF8000030BC704730BC4FF000016FF03B
:1003D000130000F003BD6FF01800106014212160BD
:1003E0001960CCF8000030BC7047000000004242A9
:1003F00000004142200000202400002028000020AE
:100400002C0000201D4810B4D0F83412002904BF7D
:10041000D0F80012002920D0D0F834221849194C05
:10042000DFF864C0194B002A04BFD0F80022012A6B
:100430001AD0D0F83422012A07BFD0F800020028D1
:1004400010BC70474FF019020A606FF01300206073
:10045000CCF800001A6010BC704710BC4FF00001CF
:100460004FF0140000F0BABC142008606FF01801BF
:100470002160CCF80010186010BC704700004142A9
:100480002000002024000020280000202C00002054
:100490007047000010B5052001F074FF012000F046
:1004A00071F8002808BF10BD0648D0F8000218B93E
:1004B00005480178491C0170BDE81040012000F09A
:1004C0005BB80000000041423300002010B5052059
:1004D00001F058FF4FF4005000F054F8002808BF16
:1004E00010BD0748D0F8340218B906480178491CF5
:1004F0000170BDE810404FF4005000F03DB800001E
:10050000000041423200002010B5052001F03AFF02
:10051000082000F037F8002808BF10BD0648D0F8C2
:100520000C0218B905480178491C0170BDE810405B
:10053000082000F021B800000000414231000020F6
:1005400010B5052001F01EFF202000F01BF8002848
:1005500008BF10BD0648D0F8140218B90548017844
:10056000491C0170BDE81040202000F005B80000D3
:100570000000404230000020014908607047000040
:10058000143C0140034A0146002012680A4218BF89
:1005900001207047143C01408379214A0168002BF7
:1005A00034D0136823EA01011160111D0A68036841
:1005B0009A430A60017901F1804101F59E310A6890
:1005C00003681A430A60174A116803689943116067
:1005D000131D1968D0F800C021EA0C011960417997
:1005E000102908D001F1804101F59E310A680068A8
:1005F0001043086070471168D0F800C041EA0C0150
:10060000116019680068084318607047007900F1AC
:10061000804000F59E30026822EA010101607047C7
:10062000003C0140083C0140F0B501218BB0084678
:1006300000F0EAFD0121084600F0DAFD0121022068
:1006400000F0D6FD274F01220F21384600F099F91E
:10065000254E01220321304600F093F902244FF485
:1006600000408DF81440012504908DF817508DF846
:10067000154004A9384600F035F908208DF81C40D3
:1006800006908DF81F508DF81D4006A9304600F0E9
:1006900029F9600701F085F900244FF6FF70ADF8E5
:1006A00000400190ADF80840ADF802406946A80747
:1006B00001F026FC0A231A460321580701F04BFAE1
:1006C00008A801F0EEFA0620ADF8280008A9A8074E
:1006D00001F06AFAA8074462012101F04EF90BB05B
:1006E000F0BD0000000002400004024030B589B0B7
:1006F0000121022000F088FD0121084600F078FD6C
:10070000214C02220621204600F03BF9022207215B
:10071000204600F036F9C021049102218DF8141012
:1007200001228DF817208DF8151004A9204600F03D
:10073000D9F8164D284601F034F900244FF6FF7120
:10074000ADF800400191ADF80840ADF802406946AF
:10075000284601F0D5FB0A231A460321284601F05A
:10076000FAF906A801F09DFA0621ADF8201006A9B5
:10077000284601F019FA064804600121284601F0D4
:10078000FCF809B030BD0000000002400004004049
:100790002404004030B589B00121042000F034FD6C
:1007A0000121022000F024FD214C022206212046D6
:1007B00000F0E7F802220721204600F0E2F8C0210D
:1007C000049102218DF8141001228DF817208DF864
:1007D000151004A9204600F085F8164D284601F0B2
:1007E000E0F800244FF6FF71ADF800400191ADF83C
:1007F0000840ADF802406946284601F081FB0A2313
:100800001A460321284601F0A6F906A801F049FA84
:100810000621ADF8201006A9284601F0C5F90648C2
:1008200004600121284601F0A8F809B030BD00009D
:1008300000040240000800402408004030B589B0A0
:100840000121082000F0E0FC0121084600F0D0FC66
:10085000214C02220021204600F093F802220121BF
:10086000204600F08EF80321049102218DF8141027
:1008700001228DF817208DF8151004A9204600F0EC
:1008800031F8164D284601F08CF800244FF6FF7120
:10089000ADF800400191ADF80840ADF8024069465E
:1008A000284601F02DFB0A231A460321284601F0B1
:1008B00052F906A801F0F5F90621ADF8201006A9B5
:1008C000284601F071F9064804600121284601F02C
:1008D00054F809B030BD000000000240000C004098
:1008E000240C00402DE9F0010022012603270B68AB
:1008F00006FA02FC03EA0C0363453BD1056853008A
:1009000007FA03F4A54305600D79D0F800809D40F7
:1009100045EA080505600D79012D18BF022D1AD191
:10092000856825EA040585604D79D0F8088005FAC8
:1009300003F545EA08058560456825EA0C0CC0F812
:1009400004C0D0F804C08D7905FA02F5ADB24CEAC6
:10095000050CC0F804C0D0F80CC02CEA040CC0F898
:100960000CC091F807C00CFA03F3D0F80CC043EAAE
:100970000C03C36002F10102102AB8D3BDE8F001F4
:1009800070474B07DB0E9A40C90800EB8100016AF3
:100990004FF00F0C0CFA03F399430162016A114303
:1009A000016270470246002012690A4218BF012006
:1009B000704741837047FEE710B582B001210220E5
:1009C00000F016FC4FF44070012400908DF80440B4
:1009D00000208DF8060003208DF805008DF80740F3
:1009E00069460548FFF77EFF0448C0F8A042C0F8FA
:1009F000A44202B010BD000000040240008040424A
:100A00002DE9F04105461648016821F440210160B6
:100A1000016841F480210160124E4FF00008C6F8D1
:100A2000A0824446012715F0800F14BFC6F8A472B7
:100A3000C6F8A4826806050E052001F0D7FCC6F8AA
:100A4000A072052001F0D2FCC6F8A082052001F0BA
:100A5000CDFC601CC4B2082CE5D3BDE8F0810000D9
:100A6000000C02400080404270B50D48016821F43E
:100A700040210160016841F480210160094C01209E
:100A8000C4F8A402C4F8A002022004F5287401F0FE
:100A9000ADFC00256560022001F0A8FC256070BD5A
:100AA000000C0240008040420E4810B5016821F45D
:100AB00040210160016841F4802101600A4C00205E
:100AC000C4F8A002C4F8A402022004F5287401F0BE
:100AD0008DFC012020606060BDE81040022001F024
:100AE00085BC0000000C0240008040422DE9F0412E
:100AF0001E4E0024306820F44020306030683060A2
:100B00001B4D0127C5F8A472384601F06FFCC5F8EB
:100B1000A072012001F06AFCD5F82402002100B384
:100B2000601CC4B2FA2C18D9306820F44020306020
:100B3000306840F480203060C5F8A012C5F8A412D7
:100B4000022001F053FCC5F8A072C5F8A47202207F
:100B500001F04CFC0120BDE8F081D5F8240200280A
:100B6000DED1C5F8A0120020BDE8F081000C0240E3
:100B700000804042164A401A1169D2ED000A411A1B
:100B800000EE101A92ED011AB8EEC00A60EE200ACB
:100B900000EE100AB8EEC00A41EE000A92ED030A18
:100BA000B8EEC00A30EE800ABDEEC00A10EE101A90
:100BB000C2E90310B1F57A7FC8BF4FF47A7005DC43
:100BC00011F57A7FB2BF0348D0687047D060704794
:100BD0003800002018FCFFFF164A401AD169D2EDF8
:100BE000000A411A00EE101A92ED011AB8EEC00A7E
:100BF00060EE200A00EE100AB8EEC00A41EE000ACC
:100C000092ED060AB8EEC00A30EE800ABDEEC00AC8
:100C100010EE101AC2E90610B1F57A7FC8BF4FF482
:100C20007A7005DC11F57A7FB2BF0348906970478E
:100C3000906170473800002018FCFFFF164A401AE8
:100C4000916AD2ED000A411A00EE101A92ED011AD3
:100C5000B8EEC00A60EE200A00EE100AB8EEC00A34
:100C600041EE000A92ED090AB8EEC00A30EE800AA1
:100C7000BDEEC00A10EE101AC2E90910B1F57A7F74
:100C8000C8BF4FF47A7005DC11F57A7FB2BF034814
:100C9000506A7047506270473800002018FCFFFF10
:100CA000164A401A516BD2ED000A411A00EE101A92
:100CB00092ED011AB8EEC00A60EE200A00EE100AAA
:100CC000B8EEC00A41EE000A92ED0C0AB8EEC00A76
:100CD00030EE800ABDEEC00A10EE101AC2E90C1008
:100CE000B1F57A7FC8BF4FF47A7005DC11F57A7FD1
:100CF000B2BF0348106B7047106370473800002084
:100D000018FCFFFF00B583B00121102000F070FA3D
:100D10001520009000208DF8040003208DF80500B8
:100D200001208DF8070069460248FFF7DBFD03B09C
:100D300000BD00000010024070B50125254C264E74
:100D400000280ABF2078257000280FD04FF001013D
:100D50003046FFF727FE80B104213046FFF722FE20
:100D600058B110213046FFF71DFE30B10121304649
:100D7000FFF718FE01282BD11DE00A2001F002FB2D
:100D80000020207001213046FFF70CFE002804BF30
:100D9000012070BD04213046FFF704FE002804BF87
:100DA000022070BD10213046FFF7FCFD002804BF73
:100DB000032070BD0CE004213046FFF7F3FD01284D
:100DC00006D110213046FFF7EDFD002808BF257041
:100DD000002070BD7000002000100240074B421A36
:100DE0001A60DFF81CC042185342CCF80030081AD1
:100DF0000449086004480260704700002000002099
:100E000024000020280000202C000020FEE7000025
:100E10002DE9F0410D4607468CB00121022000F07B
:100E20000BFA0121042000F0E3F9DFF8D48003225B
:100E300006214046FFF7A5FD032207214046FFF7A4
:100E4000A0FD032208214046FFF79BFD0322092154
:100E50004046FFF796FD02228DF81C204FF47F706C
:100E60008DF81D20002406908DF81E4001268DF877
:100E70001F6006A94046FFF735FDADF82050214D13
:100E8000ADF822400997ADF8284008A9284601F09E
:100E900037F8684601F022F86021ADF8001002949E
:100EA000ADF80260ADF80C406946284600F009FF35
:100EB0000821284600F039FF6946284600F03BFF2C
:100EC0000821284600F07AFF6946284600F080FF96
:100ED0000821284600F0BEFF6946284600F0C0FF02
:100EE0000821284600F0F0FF0121284600F045FDCA
:100EF0000121284600F04AFD0CB0BDE8F081000059
:100F0000000802400004014070B588B001211D2096
:100F100000F06EF901248DF8044003254FF4805051
:100F20008DF80550002600908DF806608DF807407A
:100F300069461748FFF7D6FC8DF81C408DF81D5008
:100F40008DF81E6006948DF81F4006A91148FFF722
:100F5000C9FC8DF80C40A8028DF80D5002908DF858
:100F60000E608DF80F4002A90B48FFF7BBFC8DF80F
:100F700014404FF42C508DF8155004908DF81660E5
:100F80008DF8174004A90548FFF7ACFC08B070BD08
:100F900000000240000C0240000802400010024025
:100FA0007047000010B4C27801784FF00F0C012494
:100FB0001AB3184A126801F1E02102F4E062C2F5A6
:100FC000E062C2F30722C2F104032CFA02FC427869
:100FD0009A40837803EA0C031A43120181F8002433
:100FE000007800F01F0104FA01F14009800000F1CF
:100FF000E020C0F8001110BC704701F01F0004FA97
:1010000000F04909890001F1E021C1F8800110BC1C
:10101000704700000CED00E0034940F0FD7040F027
:1010200080600860704700000CED00E070B500259E
:1010300005F1B000C0B200F0C0F8012000F0BDF82A
:10104000102000F0BAF800240026FFF70DFD7820EC
:10105000FFF7D6FCFFF74AFD4020FFF7D1FCFFF772
:1010600045FD3046FFF7CCFCFFF740FDFFF71CFDC8
:10107000601CC4B2802CE7D3681CC5B2082DD7D33E
:1010800070BD70B54FF4FA7001F07CF9AE2000F03D
:1010900094F8002000F091F8102000F08EF8402025
:1010A00000F08BF8812000F088F8CF2000F085F860
:1010B000A12000F082F8C82000F07FF8A62000F000
:1010C0007CF8A82000F079F83F2000F076F8D320D3
:1010D00000F073F8002000F070F8D52000F06DF8F3
:1010E000802000F06AF8D92000F067F8F12000F0C5
:1010F00064F8DA2000F061F8122000F05EF8DB20DE
:1011000000F05BF8402000F058F8202000F055F87F
:10111000022000F052F88D2000F04FF8142000F06B
:101120004CF8A42000F049F8A62000F046F8AF20C3
:1011300000F043F80026354605F1B000C0B200F0DB
:101140003CF8012000F039F8102000F036F80024B7
:10115000FFF78AFC7820FFF753FCFFF7C7FC40201D
:10116000FFF74EFCFFF7C2FC3046FFF749FCFFF7E4
:10117000BDFCFFF799FC611CCCB2802CE8D3681C45
:10118000C5B2082DD8D3BDE8704000210846AFF3A2
:10119000008010B5044601F1B000C0B200F00DF8B7
:1011A000102040EA141000F008F804F00F00BDE829
:1011B000104040F00100AFF3008010B50446FFF787
:1011C00053FC7820FFF71CFCFFF790FC00B1FEE712
:1011D0000020FFF715FCFFF789FC2046FFF710FC05
:1011E000FFF784FCBDE81040FFF75EBC70470000CD
:1011F000044A0029116814BF084321EA0000106066
:101200007047000030380240044A0029116814BFBA
:10121000084321EA00001060704700004038024097
:10122000044A0029116814BF084321EA0000106035
:101230007047000020380240044A0029116814BF9A
:10124000084321EA00001060704700004438024063
:10125000044A0029116814BF084321EA0000106005
:10126000704700002438024010B41D4C21681D4A0C
:1012700011F00C0118BF042901D0082901D0026027
:1012800012E0194B1968196801F03F01B2FBF1F146
:101290001A68C2F3881251431A68C2F30142521C01
:1012A0005200B1FBF2F1016021680F220F4B02EAFC
:1012B0001111595C026822FA01F1416022684FF075
:1012C000070C0CEA92229A5C21FA02F282602268F0
:1012D0000CEA52329A5CD140C16010BC70470000E9
:1012E0000838024040787D01043802407800002030
:1012F000002101280CD0022810D0032813D0042884
:101300001CBF002070470A4A1068116000B2704785
:101310004FF08042506A516200B27047054A10682F
:10132000116000B27047044A1068116000B2704743
:101330002404004024080040240C004070478A0721
:1013400021F0030101F1804101F59831120F0F23C3
:10135000D1F808C893402CEA0303C1F80838D1F843
:10136000083890401843C1F808087047F0B587B0B6
:1013700001211520FFF73CFF00254AF20B008DF8F4
:101380000C50032602908DF80D6001248DF80F405B
:1013900002A93748FFF7A6FA40208DF80C500290BA
:1013A0008DF80D608DF80F4002A93248FFF79AFAC8
:1013B0008DF80C5028278DF80D6002978DF80F409E
:1013C00002A92D48FFF78EFA01218803FFF734FFA9
:1013D00000210220FFF7B3FF03210220FFF7AFFF38
:1013E0000D210220FFF7ABFF05210020FFF7A7FF2B
:1013F00042F2290004908DF814500C208DF815004D
:101400008DF8164004A8FFF7C7F806208DF80000F5
:101410008DF801408DF802408DF803406846FFF7D3
:10142000C1FD09208DF800008DF8014002208DF8E3
:1014300002008DF803406846FFF7B4FD17208DF8D1
:1014400000008DF801408DF802408DF80340684699
:10145000FFF7A8FD8DF800708DF8014004208DF88D
:1014600002008DF803406846FFF79CFD07B0F0BD11
:10147000000802400010024000000240B52828BFCA
:10148000704700EE100AF8EEC00A9FED061A9FEDB5
:10149000060A064800EE810ABDEEC00A10EE101AD8
:1014A00000F028BD555505420080BB4400000140B6
:1014B000B52828BF704700EE100AF8EEC00A9FED6D
:1014C000061A9FED060A064800EE810ABDEEC00A24
:1014D00010EE101A00F00CBD555505420080BB44BB
:1014E00000000140B52828BF704700EE100AF8EE52
:1014F000C00A9FED061A9FED060A064800EE810A13
:10150000BDEEC00A10EE101A00F0F8BC55550542A9
:101510000080BB4400000140B52828BF704700EEA2
:10152000100AF8EEC00A9FED061A9FED060A06485B
:1015300000EE810ABDEEC00A10EE101A00F0DCBC0D
:10154000555505420080BB4400000140F0B50D46F2
:10155000064601218BB00846FFF76EFE01210846C2
:10156000FFF746FE324F012208213846FFF709FAFD
:10157000012209213846FFF704FA01220A213846E0
:10158000FFF7FFF901220B213846FFF7FAF94FF474
:101590007062089202228DF824208DF82520002404
:1015A0008DF8264008A93846FFF79CF9ADF814508D
:1015B000204DADF816400696ADF81C4005A928460A
:1015C00000F09EFC684600F089FC6021ADF8001038
:1015D0000121ADF802100294ADF80C40694628468E
:1015E00000F06FFB0821284600F09FFB6946284663
:1015F00000F0A1FB0821284600F0E0FB69462846E0
:1016000000F0E6FB0821284600F024FC6946284645
:1016100000F026FC0821284600F056FC012128464F
:1016200000F0ABF90121284600F0B0F90BB0F0BD95
:101630000000024000000140F0B4224F224E234D32
:1016400001244FF0000C0028A7BFC7F8B0C2C6F8AD
:101650008042C7F8B042C6F880C2B8BF4042286096
:101660001B481C4D002905DBC0F8A8C2C0F8AC42DD
:10167000296005E0C0F8A842C0F8ACC24842286022
:1016800015491648002AA7BFC0F8B4C2C0F8AC423A
:10169000C0F8B442C0F8ACC2B8BF52420A601049A8
:1016A000002B06DBC0F8A0C2C0F8A4420B60F0BC5F
:1016B0007047C0F8A042C0F8A4C258420860F0BC0D
:1016C0007047000000004042008041423C0401405D
:1016D0000000414240040140340401400000424205
:1016E000380401404FF0E021042808690CBF40F0A5
:1016F000040020F004000861704770473B4882B046
:10170000016841F4700101603948016841F001014C
:10171000016038494FF0000CC1F800C0026822F4A3
:10172000102222F080720260031D334A1A600268A0
:1017300022F4802202600A1DC2F800C0CDF800C069
:10174000CDF804C0026842F480320260026802F4FC
:1017500000320192009A521C0092019A1AB9009A22
:10176000B2F5A04FF2D1026812F4003F08BFCDF8E5
:1017700004C034D001220192204AD2F800C04CF0BB
:10178000805CC2F800C01E4AD2F800C04CF4404C45
:10179000C2F800C00A680A600A6842F400420A609F
:1017A0000A6842F4A0520A60164A1A60026842F0BF
:1017B00080720260026812F0007FFBD0124A40F291
:1017C00005701060086820F003000860086840F0A9
:1017D00002000860086800F00C000828FAD10B49E4
:1017E0004FF00060086002B07047000088ED00E034
:1017F00000380240083802401030002440380240CF
:101800000070004019544007003C024008ED00E021
:1018100030B4B0F820C02CF0100CA0F820C0048B1D
:10182000B0F820C04FF6FF7524F4734405EA033383
:10183000234305EA02221A4305EA01112CF0A00312
:10184000194341F010010283018430BC704700004D
:101850002DE9F041224E0121304600F09AF901288D
:1018600037D1FFF745FD1F4D28600220FFF740FDEF
:101870001D4C20600320FFF73BFD1C4F3860042007
:10188000FFF736FDDFF86880C8F8000019480168E6
:101890002868FFF76FF9184D28601848016820681C
:1018A000FFF79AF9164C2060164801683868FFF770
:1018B000C5F9154F386015480168D8F80000FFF7E2
:1018C000EFF9134908600B683A6821682868FFF748
:1018D000B3FE3046BDE8F041012100F04BB80000F6
:1018E0000014004010000020140000201800002008
:1018F0001C00002020000020000000202400002008
:101900000400002028000020080000202C000020F7
:101910000C00002030B50D46044685B00121202082
:10192000FFF772FC0194ADF800500024104DADF8A3
:101930000240ADF808406946284600F0E1FA01226D
:101940001146284600F0B5F937218DF80C108DF8B6
:101950000D4002218DF80E1001218DF80F1003A803
:10196000FFF720FB0121284600F007F805B030BD45
:1019700000140040C943018270470029018814BF48
:1019800041F0010121F00101018070470029B0F808
:10199000441014BF41F40041C1F30E01A0F84410FB
:1019A000704710B5A0F18041B1F580314AD0B0F157
:1019B000804F5BD0A0F18041B1F580614CD0A0F1A7
:1019C0008041B1F500615BD0A0F18041B1F540618B
:1019D00060D0A0F18041B1F5805165D0A0F1804187
:1019E000B1F5A0516AD0A0F18041B1F582316FD03C
:1019F000A0F18041B1F5A03174D0A0F18041B1F5E2
:101A0000A2317AD0A0F18041B1F5A4317DD0A0F10E
:101A10008041B1F5C05179D0A0F18041B1F5E051DC
:101A200075D0A0F18041B1F5005118BF10BD012162
:101A30000802FFF7F5FBBDE8104000214FF480706D
:101A4000FFF7EEBB01210846FFF702FC0021BDE8CD
:101A500010400120FFF7FCBB01210220FFF7E0FB53
:101A60000021BDE810400220FFF7DABB0121084643
:101A7000FFF7D6FB0021BDE810400120FFF7D0BBE7
:101A800001210420FFF7CCFB0021BDE81040042019
:101A9000FFF7C6BB01210820FFF7C2FB0021BDE80C
:101AA00010400820FFF7BCBB01211020FFF7B8FB56
:101AB0000021BDE810401020FFF7B2BB012120201B
:101AC000FFF7AEFB0021BDE810402020FFF7A8BBC8
:101AD00001210220FFF7BCFB0021BDE810400220DD
:101AE000FFF7B6BB01210804FFF7B2FBBDE81040C9
:101AF00000214FF48030FFF7ABBB01214804FFF712
:101B0000A7FB00214FF4003002E005E00FE018E0F1
:101B1000BDE81040FFF79CBB01218804FFF798FB4C
:101B2000BDE8104000214FF48020FFF791BB012158
:101B30004020FFF775FB0021BDE810404020FFF773
:101B40006FBB01218020FFF76BFB0021BDE8104037
:101B50008020FFF765BB30B40589B0F818C0048C4D
:101B600025F0070529432CF0030C2CF4407C40F2AF
:101B700001154CEA050C4FF6FF7505EA031324F036
:101B800022041A4322430181A0F818C0028430BC09
:101B90007047038A002280890B4200EA01001CBFC3
:101BA000002801221046704770B50C46054608888B
:101BB0004988A28823894FF6FF7638B3042843D09A
:101BC0000828288C4ED020F480502884B5F81CC0FA
:101BD000288C2CF4734C06EA022242EA0C0206EA34
:101BE00003331A4306EA013120F42040084340F44D
:101BF0008050AA832884A079A98B21F44061A9830D
:101C0000A98B06EA00200843A88370BD288C20F029
:101C100001002884B5F818C0288C06EA03131A437B
:101C20002CF0F30C20F00A0042EA0C02084340F0CA
:101C300001002A832884E088298B21F00C01298364
:101C4000298B0843288370BD2846FFF7E1FDA07962
:101C5000298B21F440612983298B06EA002008435F
:101C6000288370BD20F480702884B5F81CC0288CAF
:101C700006EA03131A4306EA01212CF0F30C20F4C0
:101C8000206042EA0C02084340F48070AA83288452
:101C9000E088A98B21F00C01A983A98B0843A883B4
:101CA00070BD00210180418001228280C1800181BC
:101CB0007047002A828914BF114322EA0101818101
:101CC000704710B4028C22F001020284028C8388D7
:101CD000B0F818C00C882CF0730C44EA0C0C8C89FA
:101CE00022F0020222434C882243A0F18044B4F542
:101CF00080341CBFA0F18044B4F582340DD1CC896E
:101D000022F0080222438C8822F0040222430C8A2B
:101D100023F4407323434C8A23438380A0F818C0E4
:101D200089684163028410BC7047028B22F008026C
:101D300011430183704730B4028C22F010020284F8
:101D4000028C8388B0F818C00D882CF4E6444FF656
:101D5000FF7C0CEA05252C438D8922F020020CEA39
:101D600005152A434D880CEA05152A43A0F1804544
:101D7000B5F580351CBFA0F18045B5F5823516D18B
:101D8000CD8922F080020CEA05152A438D8822F0C5
:101D900040020CEA05152A430D8A23F440630CEA3D
:101DA00085052B434D8A0CEA850C4CEA030383809E
:101DB000048389688163028430BC7047028B4FF6CC
:101DC000FF7322F4006203EA01211143018370478B
:101DD00030B4028C22F480720284028C8388B0F8C2
:101DE0001CC00C882CF0730C44EA0C048D894FF64F
:101DF000FF7C22F400720CEA05252A434D880CEA88
:101E000005252A43A0F18045B5F580351CBFA0F11A
:101E10008045B5F5823516D1CD8922F400620CEAF1
:101E200005252A438D8822F480620CEA05252A4381
:101E30000D8A23F440530CEA05152B434D8A0CEA16
:101E4000051C4CEA0303838084838968C163028490
:101E500030BC7047828B22F00802114381837047A7
:101E600030B4028C22F480520284038C8288B0F851
:101E70001CC00D884FF6FF742CF4E64C04EA0525CF
:101E800045EA0C0C8D8923F4005304EA05352B43F5
:101E90004D8804EA05352B43A0F18045B5F5803522
:101EA0001CBFA0F18045B5F5823505D10D8A22F41D
:101EB000804204EA851422438280A0F81CC089680D
:101EC0000164038430BC7047828B4FF6FF7322F4A9
:101ED000006203EA012111438183704700210180E0
:101EE0004180818081608181C1810182418270470E
:101EF0004163704781637047C163704701647047F5
:101F000010B402881C4BDFF874C0984218BF6045BB
:101F100011D0B0F1804F1CBFA0F18044B4F58064B3
:101F200009D0A0F18044B4F500641CBFA0F1804446
:101F3000B4F5406403D14C8822F070022243A0F132
:101F40008044B4F580541CBFA0F18044B4F5A05483
:101F500003D00C8922F44072224302804A68C26294
:101F60000A880285984212BF6045897A01864FF03F
:101F70000101818210BC7047000001400004014053
:101F80002DE9F041564C0026267000216FF0130019
:101F9000FEF724FF20780228F7D100210846FEF73B
:101FA0001DFF642000F0EEF94E4C2670FEF796F906
:101FB00020780628FAD100210846FEF70FFF0225F7
:101FC00000244FF47A7000F0DDF9641CAC42F8DBB9
:101FD000454C2670FEF738F920780328FAD1002105
:101FE0000846FEF7FBFE022500244FF47A7000F04D
:101FF000C9F9641CAC42F8DB3C4D2E70FEF7B8F911
:1020000028780428FAD100210846FEF7E7FE0227C7
:1020100000244FF47A7000F0B5F9641CBC42F8DB80
:102020002E70FEF7EFF928780428FAD1002108462F
:10203000FEF7D4FE022700244FF47A7000F0A2F9D4
:10204000641CBC42F8DB2E70FEF792F92878042855
:10205000FAD100210846FEF7C1FE022700244FF402
:102060007A7000F08FF9641CBC42F8DB2E70FEF72A
:10207000C9F928780428FAD100210846FEF7AEFEF7
:10208000022700244FF47A7000F07CF9641CBC42F3
:10209000F8DB2E70FEF76CF928780428FAD10021BD
:1020A0000846FEF79BFE022500244FF47A7000F0EC
:1020B00069F9641CAC42F8DB6FF027011820FEF7C9
:1020C0008DFE132500244FF47A7000F05BF9641C38
:1020D000AC42F8DBBDE8F04100210846FEF77EBEC9
:1020E00030000020320000203300002031000020AA
:1020F00010B5194C40F22551204600F076F8002822
:1021000008BF10BD204600F005F9144AC1B210887E
:1021100010F4004F18BF10BD10F4804F4FF00003B3
:1021200006D00A2908BF40F4004012D0138010BD29
:102130000D2908BF40F480400BD0C0F30D0C084CB3
:10214000401C80B204F80C101080FE2898BF10BD0F
:10215000ECE7108010BD000000500040720000202D
:102160008802002010B5194C40F22551204600F09D
:102170003CF8002808BF10BD204600F0CBF8144AF8
:10218000C1B2108810F4004F18BF10BD10F4804F7A
:102190004FF0000306D00A2908BF40F4004012D0D7
:1021A000138010BD0D2908BF40F480400BD0C0F350
:1021B0000D0C084C401C80B204F80C101080FE2856
:1021C00098BF10BDECE7108010BD00000048004033
:1021D00034000020880000200029818914BF41F4C8
:1021E000005121F400518181704710B401F01F02A9
:1021F0000124C1F3421304FA02F24FF0000C012B48
:1022000004BF83891A4004D0022B0CBF038A838A3F
:102210001A40090A008804FA01F10840002A1CBF8C
:1022200000284FF0010C604610BC7047C1F3421308
:1022300001F01F014FF0010C0CFA01F1012B08BF56
:102240000C3003D0022B0CBF10301430002A02686F
:1022500014BF114322EA01010160704730B5044602
:10226000008A85B00D46C98820F44050084320827A
:10227000A089A9882A8920F4037011436A8920F46F
:10228000A05010430843A081A08AA98920F440707F
:102290000843A0826846FEF7E7FFA4F18040B0F54E
:1022A00088301BBFA4F18040B0F58A3003980298B3
:1022B000A18911F4004F00EBC00101EB0010296867
:1022C00014BF49008900B0FBF1F0114A6FF0180CFF
:1022D000A2FB0031490909010B0903FB0CF300EBD8
:1022E0008300A38913F4004F4FF0320314BF03EBB4
:1022F000C00003EB0010A2FB00204FEA501014BFF7
:1023000000F0070000F00F000843208105B030BD49
:102310001F85EB518088C0F308007047FEE702E09C
:1023200008C8121F08C1002AFAD170477047002060
:1023300001E001C1121F002AFBD1704770B5051ED4
:102340004FF00004D8BF70BD4FF47A7000F01AF857
:10235000641CA542F8DC70BD10B504466FF00400A3
:10236000FFF7C0F90649E00800EB40020870C2EB35
:10237000C0104FF6FF7202EAC000488010BD000096
:10238000740000204FF40771B0FBF1F2B0FBF1F3E1
:1023900030B401FB130012F0FF021ED012494FF4BB
:1023A00007730024498801FB03F54FF0E0235D61CA
:1023B0009C61196941F001011961196911F0010F5E
:1023C00002D011F4803FF8D0196921F001011961A0
:1023D0009C61511E11F0FF02E9D1002804BF30BCFE
:1023E000704730BC00F01EB8740000200C4909781A
:1023F00048434FF0E021486100238B61086940F0B9
:1024000001000861086910F0010F02D010F4803F4C
:10241000F8D0086920F0010008618B617047000066
:10242000740000200C49498848434FF0E02148617E
:1024300000238B61086940F001000861086910F011
:10244000010F02D010F4803FF8D0086920F001009D
:1024500008618B617047000074000020A820FFF71E
:102460007BFF4FF4A060FEF7D7FD4FF4165000F04D
:10247000A9F84FF4165000F033F8372142F20F70EC
:10248000FFF764F842F2CF01C720FFF743FA292192
:1024900040F2E730FEF7BCFCFEF736FDFEF7C4F86D
:1024A000FEF724F9FEF776F9FEF7C8F9FEF75EFFAE
:1024B000FEF728FCFDF7A6FEFEF77EFAFEF7E1FD2B
:1024C000FEF7B4FDFDF78EFE0120FFF737FF002079
:1024D000FEF732FC0128FAD1FFF752FDFEE70000BB
:1024E0002DE9F0430746012187B00805FEF78CFE71
:1024F00001210C20FEF77CFEDFF8BC9008220C21A5
:102500004846FEF73EFADFF8B48008220221404632
:10251000FEF737FA02258DF804504FF480508DF8FD
:102520000550002400908DF8064001268DF80760C4
:1025300069464846FEF7D6F98DF8045004208DF818
:10254000055000908DF806408DF8076069464046BA
:10255000FEF7C8F9DFF86880012240F225514046B5
:10256000FFF764FE35208DF818008DF819508DF8AE
:102570001A608DF81B6006A8FEF714FDADF8104038
:102580000C20ADF80C40ADF812000297ADF80E40EB
:10259000ADF8144002A94046FFF760FE012240F268
:1025A00025514046FFF742FE01214046FFF714FE49
:1025B00007B0BDE8F083000000080240000C0240B4
:1025C00000500040F0B5064687B001210220FEF71A
:1025D0000FFE01218804FEF717FE234F07220A2170
:1025E0003846FEF7CEF907220B213846FEF7C9F927
:1025F00002218DF814108DF815104FF4406000245E
:1026000004908DF8164001258DF8175004A938461E
:10261000FEF768F9154F012240F225513846FFF7C1
:1026200005FE27208DF818008DF819508DF81A50E6
:102630008DF81B5006A8FEF7B5FCADF808400C203D
:10264000ADF80440ADF80A000096ADF80640ADF8CC
:102650000C4069463846FFF701FE01213846FFF776
:10266000BBFD07B0F0BD0000000402400048004080
:102670009026000800000020880000001E230008AB
:102680001827000888000020000800002E230008FA
:10269000000000000000000000000000000000003A
:1026A000000000000000000000000000000000002A
:1026B000000000000000000000000000000000001A
:1026C0000000000000000000000020410000204148
:1026D00000000000000000000000000000000000FA
:1026E00000000000000000000000000000000000EA
:1026F00000000000000000000000000000000000DA
:1027000001000000000000000000000001020304BE
:08271000010203040607080999
:040000050800018965
:00000001FF
