:020000040800F2
:10000000080B00209D010008B1150008171000081A
:100010001D140008F1080008753B000800000000EE
:10002000000000000000000000000000A51A000809
:10003000090B00080000000021190008FD29000834
:10004000B7010008B7010008B7010008B7010008B0
:10005000B7010008B70100080D0B0008B701000840
:10006000B7010008790B0008B7010008B7010008C4
:10007000B7010008B7010008B7010008B701000880
:10008000B7010008B7010008B7010008B701000870
:10009000B7010008B7010008B7010008AD0B000860
:1000A0004D2B0008B7010008B7010008B701000890
:1000B000B7010008B7010008B7010008B701000840
:1000C000B7010008B7010008B7010008B701000830
:1000D000B7010008B70100080D3900087D39000894
:1000E000410B0008B7010008B7010008B70100087C
:1000F000A52C0008B7010008B7010008B7010008E7
:10010000B7010008B7010008B7010008B7010008EF
:10011000B7010008A9380008B7010008812B0008C2
:10012000B7010008B7010008B7010008B7010008CF
:10013000B7010008B7010008B7010008B7010008BF
:10014000B7010008B7010008B7010008B7010008AF
:10015000B7010008B7010008B7010008B70100089F
:10016000B7010008B7010008B7010008B70100088F
:10017000B7010008B7010008B7010008B70100087F
:10018000B7010008B7010008DFF80CD000F072FAE0
:100190000048004799450008080B002006488047A2
:1001A00006480047FEE7FEE7FEE7FEE7FEE7FEE75C
:1001B000FEE7FEE7FEE7FEE7012A000889010008E6
:1001C000421C10F8011B0029FBD1801A704710B5A2
:1001D000002200E0521C835C8C5CA34201D1002B06
:1001E000F8D1D8B2E1B2401A10BD70B5064603F09E
:1001F000E9FC046805460A220021304600F049F86F
:100200002C6070BD30B50B46014600202022012431
:1002100009E021FA02F59D4205D303FA02F5491BD4
:1002200004FA02F52844151EA2F10102F1DC30BDEA
:100230002DE9F05F0546002092469B46884606461B
:10024000814640241BE0284641464746224600F0AE
:1002500032FA53465A46C01A914110D311461846F5
:10026000224600F019FA2D1A67EB01084F46224684
:100270000120002100F010FA17EB00094E41201E6A
:10028000A4F10104DFDC484631462A464346BDE876
:10029000F09F2DE9F04791460F4680460446002620
:1002A00014F8015B2DB100F029FA0068405DC00729
:1002B000F6D12B2D02D02D2D18D0641E4A4639467A
:1002C000204600F01FFA27B13968A14201D1C7F8D2
:1002D000008071054FF002040BD54042002803DD79
:1002E00003F070FC0460A007BDE8F08746F4806668
:1002F000E4E70028F8DA03F065FC04606FF00040E2
:10030000F2E72DE9FE4F804681EA0300C00F0C465C
:10031000009021F0004123F00045B8EB0200A94114
:1003200005D24046214690461C460B46024623F025
:100330000040104347D0270DC7F30A00C3F30A510A
:100340000290401A019040286BDAC3F3130040F486
:10035000801B0098924620B10023D2EB030A63EB86
:100360000B0B01985946C0F14002504600F094F939
:1003700006460D4650465946019A00F0ACF910EB7E
:1003800008006141002487EA115284EAE7731A43A6
:1003900040D0009A62B3019A012A4FEA075215DC55
:1003A000001B61EB02014FF0004202EA0752CDE967
:1003B0000042001C41F5801132462B4600F000FA45
:1003C00003B0BDE8F08F40462146F9E7001B61EB22
:1003D0000201001C41F5801300185B412018A2F5B2
:1003E000001747EB030140EAD570B6196D4111E0E3
:1003F0006D084FEA360645EAC0754FEA0752001B02
:1004000061EB0201001C41F5801149084FEA300000
:100410000019514132462B4603B0BDE8F04F00F0C1
:10042000C0B90098012240000023D0EB020263EB28
:10043000E073009821464FEAE074B8EB000061EBEE
:100440000401E9E783F000435BE781F0004158E7EE
:100450002DE9FE4F81EA030404F0004421F000413D
:1004600000944FF0000B23F0004350EA01045ED0EB
:1004700052EA03045BD0C3F30A54C1F30A552C4477
:10048000A4F2F3340194A0FB0254C1F3130141F42C
:100490008011C3F3130343F4801301FB024400FBF8
:1004A000034E840A970A44EA815447EA8357A4FB1F
:1004B000076802958D0A05FB07854FEA932C04FB1C
:1004C0000C542705029D4FEA065847EA1637B5EB4C
:1004D00008056EEB070C870E920E47EA811742EA79
:1004E0008312A7FB0201B6EB0B0164EB00042B0D9A
:1004F00043EA0C335E1844EB1C50DA465146E7FBE6
:100500000201C5F313044FEA0B3343EA14534FEAD5
:100510000432019C43EA0603A4F10C040294009CFB
:10052000CDE900B400F04CF903B0BDE8F08F002035
:100530000146F9E72DE9F04D81EA030404F0004B90
:1005400021F0004514464FF0000A23F0004150EA24
:10055000050220D054EA01021DD0C5F30A57024615
:10056000C5F31303C1F31300C1F30A5640F4801519
:1005700043F48013A7EB0608101BD64608F2FD389B
:1005800073EB050002D308F1010801E092185B410A
:10059000B8F1000F03DA00200146BDE8F08D00201D
:1005A0004FF48011064684460EE0171B73EB0507D7
:1005B00005D3121B63EB050306434CEA010C490803
:1005C0004FEA300092185B4150EA0107EDD152EA40
:1005D000030012D082EA040083EA0501084305D033
:1005E000101BAB4106D20122002306E000224FF08F
:1005F000004302E06FF0010253101AEB06004CEBCF
:10060000085110EB0A0041EB0B01BDE8F04D00F082
:10061000C8B8C1F30A52C1F3130140F2FF3341F4E9
:1006200080119A4202DA00200146704740F23343BB
:100630009A42A2F2334202DC524200F03CB800F08F
:100640002BB8000030B5041E71F1000404DB4FF03C
:100650000044404264EB0101141E73F1000405DB09
:100660001C464FF00043524263EB0403994208BF1B
:10067000904230BD064C074D06E0E06840F00103B3
:1006800094E8070098471034AC42F6D3FFF780FD9A
:10069000A8530008C8530008202A04DB203A00FAB7
:1006A00002F1002070479140C2F1200320FA03F3C9
:1006B000194390407047202A04DB203A21FA02F0C7
:1006C0000021704721FA02F3D040C2F1200291408C
:1006D000084319467047202A06DBCB17203A41FA17
:1006E00002F043EAE07306E041FA02F3D040C2F1BF
:1006F00020029140084319467047000000487047A7
:10070000A45300082DE9F05F8246007800271546C3
:100710008B460AF10104B946302801D09DB113E09F
:1007200014F8010B0127782803D0582801D045B1CF
:100730000AE00DB1102D07D10027102514F8010B88
:1007400002E0082500E00A250026B0460EE005FB81
:10075000080005FB06F1012701EB10461FFA80F89F
:10076000B6F5803F00D3B94614F8010B294600F0D6
:1007700075F80028EBDABBF1000F05D00FB1641E4D
:1007800000E05446CBF80040B9F1000F06D003F06A
:1007900019FA02210160C81EBDE8F09F48EA064030
:1007A000FAE710B5141E73F1000408DA401C41F199
:1007B000000192185B411A4301D120F0010010BDE5
:1007C0002DE9F04D92469B4611B1B1FA81F202E05B
:1007D000B0FA80F220329046FFF75EFF04460F46E3
:1007E00040EA0A0041EA0B0153465A46084313D037
:1007F000114653EA010019D0C8F140025046FFF7F4
:100800005AFF05460E46504659464246FFF744FFFA
:10081000084305D0012004E020463946BDE8F08DAC
:100820000020054346EAE0762C4337430A986305E7
:10083000E40AA0EB08000022FD0A44EA47540A300B
:1008400002D500200146E9E7010510196941DDE9FB
:10085000084500196941BDE8F04DA2E73A2800D2E9
:10086000303820F02002412A01D3A2F1370088421B
:1008700001D34FF0FF30704770477047704700005A
:1008800010B582B00121102001F04CF80220009038
:1008900001218DF8041000218DF8061003218DF838
:1008A00005108DF80700054C6946204600F04EFB08
:1008B0000221204600F0ADFB02B010BD0010024046
:1008C00070B50A4C00252560642003F011FE012656
:1008D0002660642003F00CFE2560642003F008FE0F
:1008E0002660642003F004FE256070BD840242424D
:1008F000FEE70000F0B41B4AD2F814C21A4B414282
:10090000BCF1000F04D1D3F804C2BCF1000F09D030
:10091000D2F81472154D164EDFF858C0164C012F40
:1009200004D006E0F0BC002000F060BDD3F80472F3
:1009300087B1D2F8141200290AD1D3F80412012980
:1009400006D128603060C0F10700CCF800002060BC
:10095000F0BC7047C01F28603060CCF800102160E8
:10096000F0BC7047000042420000414220000020DD
:1009700024000020280000202C00002070B41A4918
:10098000D1F81432194A002B02D1D2F80C3243B1FB
:10099000D1F81462164C174D174BDFF860C02EB11A
:1009A00008E070BC0146002000F020BDD2F80C62C7
:1009B000012E10D0D1F8141201290AD1D2F80C124C
:1009C000002906D1C0F10701216029601860CCF828
:1009D000000070BC7047414221602960C01F186050
:1009E000CCF8000070BC704700004042000041425B
:1009F0002000002024000020280000202C000020DF
:100A00002DE9F0011B4BD3F81812DFF86CC04242FD
:100A1000002902D1DCF83C1251B1D3F81882174CEE
:100A2000174D184E184FC11DB8F1010F06D00AE03E
:100A3000BDE8F0010021104600F0D8BCDCF83C8293
:100A4000B8F1000F0ED0D3F81802002807D1DCF857
:100A50003C02012803D12260296031603A60BDE880
:100A6000F001704749422160286030603960BDE87C
:100A7000F001704700004242000041422000002087
:100A800024000020280000202C00002070B4194A07
:100A9000D2F83412002902D1D2F8001249B1D2F8AA
:100AA0003462154D154BDFF858C0164CC11D26B1E8
:100AB00007E070BC002100F099BCD2F80062012E62
:100AC0000FD0D2F83462012E09D1D2F80022002AC8
:100AD00005D1296040421860CCF80000216070BC4C
:100AE0007047286049421960CCF80010206070BC43
:100AF0007047000000004142200000202400002038
:100B0000280000202C0000207047000010B50520B0
:100B100003F0EEFC012000F069F800280BD0064835
:100B2000006818B905480178491C0170BDE81040FB
:100B3000012000F055B810BD0002414233000020F2
:100B400010B5052003F0D4FC4FF4005000F04EF82F
:100B500000280CD00648006818B906480178491CDE
:100B60000170BDE810404FF4005000F039B810BDDE
:100B7000340241423200002010B5052003F0B8FCD9
:100B8000082000F033F800280BD00648006818B998
:100B900005480178491C0170BDE81040082000F0AC
:100BA0001FB810BD0C0241423100002010B50520D5
:100BB00003F09EFC202000F019F800280BD0064816
:100BC000006818B905480178491C0170BDE810405B
:100BD000202000F005B810BD140240423000002073
:100BE0000149086070470000143C014001460020A4
:100BF000024A12680A4200D001207047143C0140AA
:100C0000214A83790168002B34D0136823EA01015B
:100C10001160111D0A6803689A430A60017901F1A5
:100C2000804101F59E310A6803681A430A60174B38
:100C300019680268914319601A1D1168D0F800C044
:100C400021EA0C0111604179102908D001F180419D
:100C500001F59E310A680068104308607047196802
:100C6000D0F800C041EA0C0119601168006808431F
:100C700010607047007900F1804000F59E300268F6
:100C800022EA010101607047003C0140083C01403C
:100C9000F0B58BB00121084600F052FE0121084654
:100CA00000F040FE0121022000F03CFE274F01220F
:100CB0000F21384600F095F9254E012203213046D8
:100CC00000F08FF94FF40040089002248DF8244082
:100CD00001258DF827508DF8254008A9384600F0E9
:100CE00035F9082006908DF81C408DF81F508DF8BE
:100CF0001D4006A9304600F029F9600702F037F8D8
:100D00000024ADF80C404FF6FF700490ADF814408D
:100D1000ADF80E4003A9A80702F0CEFA0A231A463E
:100D20000321580702F0FEF8684602F05AF906203F
:100D3000ADF808006946A80702F01DF9A80744624B
:100D4000012101F0F8FF0BB0F0BD000000000240EF
:100D50000004024030B589B00121022000F0F0FD0E
:100D60000121084600F0DEFD214C0222062120462A
:100D700000F037F902220721204600F032F9C021A5
:100D8000069102218DF81C1001228DF81F208DF88C
:100D90001D1006A9204600F0D9F8164D284601F08E
:100DA000E6FF0024ADF80C404FF6FF710491ADF85A
:100DB0001440ADF80E4003A9284602F07DFA0A233C
:100DC0001A460321284602F0ADF8684602F009F9F8
:100DD0000621ADF808106946284602F0CCF806480E
:100DE00004600121284601F0A6FF09B030BD0000D3
:100DF00000000240000400402404004030B589B0E7
:100E00000121042000F09CFD0121022000F08AFD58
:100E1000214C02220621204600F0E3F8022207219D
:100E2000204600F0DEF8C021069102218DF81C104A
:100E300001228DF81F208DF81D1006A9204600F014
:100E400085F8164D284601F092FF0024ADF80C40BD
:100E50004FF6FF710491ADF81440ADF80E4003A9B0
:100E6000284602F029FA0A231A460321284602F0EE
:100E700059F8684602F0B5F80621ADF80810694641
:100E8000284602F078F8064804600121284601F05F
:100E900052FF09B030BD00000004024000080040CD
:100EA0002408004030B589B00121082000F048FD39
:100EB0000121084600F036FD214C02220021204687
:100EC00000F08FF802220121204600F08AF8032169
:100ED000069102218DF81C1001228DF81F208DF83B
:100EE0001D1006A9204600F031F8164D284601F0E5
:100EF0003EFF0024ADF80C404FF6FF710491ADF8B1
:100F00001440ADF80E4003A9284602F0D5F90A2393
:100F10001A460321284602F005F8684602F061F8F7
:100F20000621ADF808106946284602F024F8064864
:100F300004600121284601F0FEFE09B030BD00002A
:100F400000000240000C0040240C00402DE9F0019C
:100F500000220126032706FA02FC0B6803EA0C03B1
:100F6000634538D10568530007FA03F4A5430560CB
:100F70000D79D0F800809D4045EA080505600D799F
:100F8000012D01D0022D17D18568A54385604D79CB
:100F9000D0F808809D4045EA08058560456825EA47
:100FA0000C0CC0F804C0D0F804C08D799540ADB2E7
:100FB0004CEA050CC0F804C0D0F80CC02CEA040CB4
:100FC000C0F80CC091F807C00CFA03F3D0F80CC0BD
:100FD00043EA0C03C360521C102ABCD3BDE8F001E5
:100FE00070474B07DB0E9A40C90800EB8100016A8D
:100FF0004FF00F0C0CFA03F399430162016A11439D
:10100000016270470246002012690A4200D00120A6
:10101000704741837047FEE710B582B0012102207E
:1010200000F080FC4FF44070009001248DF80440E3
:1010300000208DF8060003208DF805008DF807408C
:1010400069460448FFF782FF03480460446002B029
:1010500010BD000000040240A08240422DE9F04192
:1010600005461648016821F440210160016841F4F9
:1010700080210160124E4FF00008C6F8A0820024C3
:10108000012715F0800F02D0C6F8A47201E0C6F85F
:10109000A4826806050E052003F046FAC6F8A07281
:1010A000052003F041FAC6F8A082052003F03CFABF
:1010B000601CC4B2082CE4D3BDE8F081000C0240EF
:1010C0000080404270B50B48016821F44021016066
:1010D000016841F480210160074C012060602060BC
:1010E000022003F021FA00256560022003F01CFABB
:1010F000256070BD000C0240A082404210B50C4833
:10110000016821F440210160016841F480210160FF
:10111000084C002020606060022003F005FA0120E6
:1011200020606060BDE81040022003F0FDB90000BF
:10113000000C0240A082404270B5002412480168B1
:1011400021F44021016001680160104D0126C5F8BD
:10115000A462012003F0E8F9C5F8A062012003F0C1
:10116000E3F9D5F8240258B1601CC4B2FA2C03D9B3
:10117000FFF7C4FF012070BDD5F824020028F3D189
:101180000020C5F8A00270BD000C02400080404263
:10119000401A164A1169D2ED000A411A00EE101ADF
:1011A00092ED011AB8EEC00A60EE200A00EE100AB5
:1011B000B8EEC00A41EE000A92ED030AB8EEC00A8A
:1011C00030EE800ABDEEC00A10EE101AD160106138
:1011D000B1F57A7F03DD4FF47A70D06004E011F549
:1011E0007A7F01DA0248D060D06870474C00002056
:1011F00018FCFFFF401A164AD169D2ED000A411AC5
:1012000000EE101A92ED011AB8EEC00A60EE200A44
:1012100000EE100AB8EEC00A41EE000A92ED060A8E
:10122000B8EEC00A30EE800ABDEEC00A10EE101A09
:101230009161D061B1F57A7F03DD4FF47A709061EE
:1012400004E011F57A7F01DA0248906190697047F5
:101250004C00002018FCFFFF401A164A916AD2ED9C
:10126000000A411A00EE101A92ED011AB8EEC00AF7
:1012700060EE200A00EE100AB8EEC00A41EE000A45
:1012800092ED090AB8EEC00A30EE800ABDEEC00A3F
:1012900010EE101A51629062B1F57A7F03DD4FF4BF
:1012A0007A70506204E011F57A7F01DA02485062E8
:1012B000506A70474C00002018FCFFFF401A164A85
:1012C000516BD2ED000A411A00EE101A92ED011A8C
:1012D000B8EEC00A60EE200A00EE100AB8EEC00AAE
:1012E00041EE000A92ED0C0AB8EEC00A30EE800A18
:1012F000BDEEC00A10EE101A11635063B1F57A7F8B
:1013000003DD4FF47A70106304E011F57A7F01DA9F
:1013100002481063106B70474C00002018FCFFFF60
:1013200000B583B00121102000F0FCFA15200090D8
:1013300000208DF8040003208DF8050001208DF8B1
:10134000070069460248FFF701FE03B000BD000038
:101350000010024070B50125224C002800D02570F5
:101360002078214E70B101213046FFF74BFE80B14D
:1013700004213046FFF746FE58B110213046FFF7F2
:1013800041FE30B101213046FFF73CFE01281BD061
:1013900026E00A2003F0ACF800202070012130463E
:1013A000FFF730FE50B104213046FFF72BFE38B175
:1013B00010213046FFF726FE20B111E0012070BD5C
:1013C000022070BD032070BD04213046FFF71AFED5
:1013D000012805D110213046FFF714FE00B9257011
:1013E000002070BD8400002000100240074B421A0C
:1013F0001A60DFF81CC042185342CCF80030081ABB
:101400000449086004480260704700002000002082
:1014100024000020280000202C000020FEE700000F
:101420002DE9F0418AB007460D460121022000F067
:10143000A3FA0121042000F075FADFF8D48003221A
:1014400006214046FFF7CDFD032207214046FFF766
:10145000C8FD032208214046FFF7C3FD03220921EE
:101460004046FFF7BEFD4FF47F70089002228DF8D2
:1014700024208DF8252000248DF8264001268DF8A3
:10148000276008A94046FFF761FDADF81450ADF89C
:1014900016400697ADF81C401E4D05A9284601F0E0
:1014A0000BFF684601F0CBFE6021ADF800100294FE
:1014B000ADF80260ADF80C406946284601F0A4FD85
:1014C0000821284601F0D8FD6946284601F0DAFDDA
:1014D0000821284601F01DFE6946284601F023FE3A
:1014E0000821284601F065FE6946284601F067FE9E
:1014F0000821284601F099FE0121284601F01BFC35
:101500000121284601F023FC0AB0BDE8F08100006B
:10151000000802400004014070B588B001211D2080
:1015200000F000FA4FF48050069001248DF81C4022
:1015300003258DF81D5000268DF81E608DF81F4084
:1015400006A91748FFF702FD00948DF804408DF8B6
:1015500005508DF806608DF8074069461148FFF781
:10156000F5FCA80204908DF814408DF815508DF804
:1015700016608DF8174004A90B48FFF7E7FC4FF4FD
:101580002C5002908DF80C408DF80D508DF80E60A7
:101590008DF80F4002A90548FFF7D8FC08B070BDD0
:1015A00000000240000C024000080240001002400F
:1015B0007047000010B44FF00F0CC278012401787E
:1015C000002A23D0174A126802F4E062C2F5E062F2
:1015D000C2F30722C2F104032CFA02FC42789A40BB
:1015E000837803EA0C031A43120101F1E02181F828
:1015F0000024007800F01F0104FA01F14009800086
:1016000000F1E020C0F8001110BC704701F01F008D
:1016100004FA00F04909890001F1E021C1F88001D4
:1016200010BC70470CED00E0034940F0FD7040F045
:1016300080600860704700000CED00E070B5002588
:1016400005F1B000C0B200F03BF9012000F038F91C
:10165000102000F035F90024002000F04AF9601C49
:10166000C4B2802CF8D3681CC5B2082DE8D370BD75
:1016700070B50646002505F1B000C0B200F020F9B3
:10168000012000F01DF9102000F01AF90024304666
:1016900000F02FF9601CC4B2802CF8D3681CC5B2CE
:1016A000082DE8D370BD10B54FF4FA7002F020FF9A
:1016B000AE2000F005F9002000F002F9102000F043
:1016C000FFF8402000F0FCF8812000F0F9F8CF206E
:1016D00000F0F6F8A12000F0F3F8C82000F0F0F8D0
:1016E000A62000F0EDF8A82000F0EAF83F2000F076
:1016F000E7F8D32000F0E4F8002000F0E1F8D5206E
:1017000000F0DEF8802000F0DBF8D92000F0D8F8F7
:10171000F12000F0D5F8DA2000F0D2F8122000F025
:10172000CFF8DB2000F0CCF8402000F0C9F82020F2
:1017300000F0C6F8022000F0C3F88D2000F0C0F8D9
:10174000142000F0BDF8A42000F0BAF8A62000F0A4
:10175000B7F8AF2000F0B4F80020FFF789FF0021B0
:10176000BDE810400846AFF3008010B5044601F113
:10177000B000C0B200F0A4F8102040EA141000F04D
:101780009FF804F00F00BDE8104040F0010000F0A9
:1017900097B800002DE9F04180460F46002554011E
:1017A00039464046FFF7E1FF0C4E305D00F0A1F8EE
:1017B000641C681CC5B2102DF7D3781CC1B240461A
:1017C000FFF7D3FF0025305D00F093F8641C681C20
:1017D000C5B2102DF7D3BDE8F08100002449000800
:1017E00070B582B005460E461446002C12DA10A2DF
:1017F0003146284600F020F862420EA1684602F009
:10180000BBF905F10C00C0B26A46314600F014F88D
:1018100002B070BDFCDD224606A1684602F0ACF9BC
:101820006A463146284600F007F802B070BD000055
:101830002D000000256400002DE9F047074688468A
:10184000924600269AF80000002835D0DFF86C9008
:101850001AF806002038C5B2782F04D9002708F1FD
:10186000010000F0FF0841463846FFF77EFF0024E4
:1018700004EB051019F8000000F03BF8601CC4B23E
:10188000082CF5D308F10100C1B23846FFF76DFF0F
:10189000002404EB05104844007A00F02AF8601C8C
:1018A000C4B2082CF5D307F10800C7B2701CC6B249
:1018B0001AF806000028CBD1BDE8F0872C4D0008AF
:1018C00010B50446FFF7FEFB7820FFF7C7FBFFF7D4
:1018D00033FC00B1FEE70020FFF7C0FBFFF72CFC54
:1018E0002046FFF7BBFBFFF727FCBDE81040FFF7E2
:1018F00005BC10B50446FFF7E5FB7820FFF7AEFB0B
:10190000FFF71AFC4020FFF7A9FBFFF715FC204664
:10191000FFF7A4FBFFF710FCBDE81040FFF7EEBB9C
:1019200070470000054A002903D011680843106081
:101930007047116821EA000010607047303802409B
:10194000054A002903D011680843106070471168E8
:1019500021EA00001060704740380240054A002923
:1019600003D01168084310607047116821EA000035
:101970001060704720380240054A002903D01168E2
:10198000084310607047116821EA0000106070473A
:1019900044380240054A002903D01168084310600A
:1019A0007047116821EA0000106070472438024037
:1019B00010B4254C216801F00C01244A00291FD0E5
:1019C00004291FD008291FD00260216801F0F0010E
:1019D00009091F4B595C026822FA01F14160226833
:1019E00002F4E052920A9A5C21FA02F282602268C2
:1019F00002F46042520B9A5CD140C16010BC704747
:101A00000260E2E70260E0E7124B1968C1F3805C14
:101A1000196801F03F01BCF1000F06D0B2FBF1F1F3
:101A20001A68C2F38812514305E0B2FBF1F11A685B
:101A3000C2F3881251431A68C2F30142521C520089
:101A4000B1FBF2F10160C0E70838024040787D0147
:101A5000C4000020043802400021012807D00228D9
:101A60000BD003280ED0042811D0002070474FF06F
:101A70008042506A00B251627047074A106800B253
:101A800011607047054A106800B211607047044A3F
:101A9000106800B21160704724080040240C004018
:101AA0002404004070478A07120F0F23934021F04F
:101AB000030101F1804101F59831D1F808C82CEA01
:101AC0000303C1F80838D1F8083890401843C1F82A
:101AD0000808704770B586B001211520FFF722FF76
:101AE0004AF20B00049000258DF8145003268DF85F
:101AF000156001248DF8174004A93748FFF726FA2E
:101B0000602004908DF814508DF815608DF8174002
:101B100004A93248FFF71AFA202004908DF81450D7
:101B20008DF815608DF8174004A92D48FFF70EFABF
:101B300001218803FFF720FF00210220FFF7B3FFF8
:101B400003210220FFF7AFFF0D210220FFF7ABFFBB
:101B500005210020FFF7A7FF42F2290000908DF831
:101B600004500C208DF805008DF806406846FFF7FC
:101B700047F806208DF80C008DF80D408DF80E40CA
:101B80008DF80F4003A8FFF715FD09208DF80C0014
:101B90008DF80D408DF80E408DF80F4003A8FFF72B
:101BA00009FD17208DF80C008DF80D408DF80E40C2
:101BB0008DF80F4003A8FFF7FDFC28208DF80C00DE
:101BC0008DF80D408DF80E408DF80F4003A8FFF7FB
:101BD000F1FC06B070BD0000000802400010024099
:101BE00000000240B0F5977F10D200EE100A9FED82
:101BF000081AF8EEC00A9FED070A00EE810ABDEE52
:101C0000C00A10EE101A044801F029BB704700000A
:101C1000555505420080BB44000001402DE9F041CC
:101C200080460F46144E3068B8EB000400D564427D
:101C300040450DDA0025002C0ADD3068401C30607C
:101C4000FFF7D0FF384602F053FC6D1CA542F4DBD1
:101C5000306840450DDD0025002C0ADD3068401E4F
:101C60003060FFF7BFFF384602F042FC6D1CA54212
:101C7000F4DBBDE8F081000038000020B52810D268
:101C800000EE100A9FED071AF8EEC00A9FED060A53
:101C900000EE810ABDEEC00A10EE101A034801F0F2
:101CA000D8BA7047555505420080BB44000001403A
:101CB0002DE9F04180460F46144E7068B8EB0004E1
:101CC00000D5644240450DDA0025002C0ADD70681D
:101CD000401C7060FFF7D2FF384602F009FC6D1C13
:101CE000A542F4DB706840450DDD0025002C0ADDBF
:101CF0007068401E7060FFF7C1FF384602F0F8FBC5
:101D00006D1CA542F4DBBDE8F08100003800002026
:101D1000B52810D200EE100A9FED071AF8EEC00A9F
:101D20009FED060A00EE810ABDEEC00A10EE101A01
:101D3000034801F090BA7047555505420080BB44F6
:101D4000000001402DE9F04180460F46144EB06876
:101D5000B8EB000400D5644240450DDA0025002CA4
:101D60000ADDB068401CB060FFF7D2FF384602F0D1
:101D7000BFFB6D1CA542F4DBB06840450DDD0025BE
:101D8000002C0ADDB068401EB060FFF7C1FF384686
:101D900002F0AEFB6D1CA542F4DBBDE8F081000053
:101DA00038000020B52810D200EE100A9FED071A67
:101DB000F8EEC00A9FED060A00EE810ABDEEC00AE9
:101DC00010EE101A034801F048BA70475555054205
:101DD0000080BB44000001402DE9F04180460F46E1
:101DE000144EF068B8EB000400D5644240450DDAAB
:101DF0000025002C0ADDF068401CF060FFF7D2FFE0
:101E0000384602F075FB6D1CA542F4DBF0684045D6
:101E10000DDD0025002C0ADDF068401EF060FFF7A4
:101E2000C1FF384602F064FB6D1CA542F4DBBDE83F
:101E3000F081000038000020F0B58BB006460D465A
:101E400001210846FFF798FD01210846FFF76AFDCA
:101E5000324F012208213846FFF7C3F80122092139
:101E60003846FFF7BEF801220A213846FFF7B9F8D5
:101E700001220B213846FFF7B4F84FF47062089244
:101E800002228DF824208DF8252000248DF826408C
:101E900008A93846FFF75AF8ADF81450ADF81640C7
:101EA0000696ADF81C401E4D05A9284601F004FA1F
:101EB000684601F0C4F96021ADF8001002940121D8
:101EC000ADF80210ADF80C406946284601F09CF8C8
:101ED0000821284601F0D0F86946284601F0D2F8DA
:101EE0000821284601F015F96946284601F01BF93A
:101EF0000821284601F05DF96946284601F05FF99E
:101F00000821284601F091F90121284600F013FF2D
:101F10000121284600F01BFF0BB0F0BD000002407D
:101F20000000014082B00022019200922749086817
:101F300040F480300860086800F400300090019898
:101F4000401C0190009818B90198B0F5A04FF2D14B
:101F5000086810F4003F02D00120009000E00092D9
:101F60000098012830D11A48026842F0805202607D
:101F70001848026842F44042026017480268026052
:101F8000026842F400420260026842F4A052026019
:101F9000021F124B13600A6842F080720A600A68DE
:101FA00012F0007FFBD00E4A40F20571116001680B
:101FB00021F003010160016841F002010160016844
:101FC00001F00C010829FAD102B070470038024034
:101FD0004038024000700040083802401954400761
:101FE000003C0240F0B4234E234F244D01244FF017
:101FF000000C002805DBC6F8B042C7F880C2286094
:1020000005E0C6F8B0C2C7F88042404228601C48CC
:102010001C4D002905DBC0F8A842C0F8ACC22960FD
:1020200005E0C0F8A8C2C0F8AC4248422860164992
:102030001648002A05DBC0F8B442C0F8ACC20A60FA
:1020400005E0C0F8B4C2C0F8AC4252420A60104980
:10205000002B06DBC0F8A042C0F8A4C20B60F0BCA5
:102060007047C0F8A0C2C0F8A44258420860F0BC53
:102070007047000000004042008041423C040140A3
:10208000000041424004014034040140000042424B
:102090003804014010B40522042317494FF0030C03
:1020A000072809D2DFE800F008040A10161C2200F5
:1020B000C1F81CC00B624A6210BC7047C1F81CC05A
:1020C0004B620A6210BC7047C1F820C0CB614A6203
:1020D00010BC7047C1F820C04B62CA6110BC704789
:1020E000C1F824C0CB610A6210BC7047C1F824C09B
:1020F0000B62CA6110BC7047880000202DE9F041D6
:10210000DFF88C81B8F8000010F4004F70D061A1A6
:102110006148FEF75CF80327604C04250526F8B1FA
:102120005FA15D48FEF753F8002831D05DA15A4801
:10213000FEF74DF8002843D05BA15748FEF747F85B
:10214000002856D059A15448FEF741F8002868D01D
:1021500057A15148FEF73BF800287CD000F092B818
:102160006760A560E660012203215020FFF712FBA3
:10217000022203216020FFF70DFB0322114670208D
:10218000FFF708FB4BA002F04FFBFEF799FB79E04D
:102190006760A660E560012203215020FFF7FAFA8C
:1021A000032211466020FFF7F5FA02220321702076
:1021B000FFF7F0FA47A002F037FBFEF781FB61E082
:1021C0006660A560E760032211465020FFF7E2FA3F
:1021D000022203216020FFF7DDFA01220321702093
:1021E000FFF7D8FA43A002F01FFBFEF769FB49E0B6
:1021F0004BE06560A660E760022203215020FFF7F4
:10220000C9FA032211466020FFF7C4FA0122032114
:102210007020FFF7BFFA3FA002F006FBFEF750FB6D
:1022200030E06660A760E560032211465020FFF7AA
:10223000B1FA012203216020FFF7ACFA0222032148
:102240007020FFF7A7FA00E005E03AA002F0ECFAF0
:10225000FEF736FB16E06560A760E6600222032108
:102260005020FFF797FA012203216020FFF792FA2E
:10227000032211467020FFF78DFA36A002F0D4FA3F
:10228000FEF71EFB0020A8F80000BDE8F08100006A
:102290004800002052474200D8000020880000205B
:1022A00052424700424752004252470047425200C2
:1022B00047524200E8AF86E588ABE588B0E79A84EC
:1022C000E789A9E69699E9A29CE889B2203A2052CA
:1022D00047423F00E8AF86E588ABE588B0E79A84DF
:1022E000E789A9E69699E9A29CE889B2203A2052AA
:1022F00042473F00E8AF86E588ABE588B0E79A84BF
:10230000E789A9E69699E9A29CE889B2203A204299
:1023100047523F00E8AF86E588ABE588B0E79A848E
:10232000E789A9E69699E9A29CE889B2203A204279
:1023300052473F00E8AF86E588ABE588B0E79A846E
:10234000E789A9E69699E9A29CE889B2203A204754
:1023500042523F00E8AF86E588ABE588B0E79A8453
:10236000E789A9E69699E9A29CE889B2203A204734
:1023700052423F0010B40522042317494FF0030CCA
:10238000072809D2DFE800F008040A10161C220012
:10239000C1F810C04B618A6110BC7047C1F810C011
:1023A0008B614A6110BC7047C1F814C00B618A612F
:1023B00010BC7047C1F814C08B610A6110BC704733
:1023C000C1F818C00B614A6110BC7047C1F818C051
:1023D0004B610A6110BC7047880000202DE9F04174
:1023E000814E308810F4004F70D08048FDF7FDFE1C
:1023F0007F4C608060887F4A002502F10C01E7284D
:102400007ED00BDC7C4BDFF8F4C17D4F7B2810D0F5
:10241000842835D0D52840F0E38058E0B0F59C7F83
:1024200000F09B80A0F58070413840F0D98000F02A
:10243000B6B860681060A0685060E068906020697D
:10244000086060694860A0698860A362C4F82CC015
:102450002763012200215020FFF79CF9022200216E
:102460006020FFF797F9032200217020FFF792F90F
:1024700064A002F0D9F92570FEF722FA00F0B0B896
:1024800060681060E0685060A06890602069086033
:10249000A069486060698860A362C4F82CC02763A3
:1024A000012200215020FFF775F90322002160204E
:1024B000FFF770F9022200217020FFF76BF958A096
:1024C00002F0B2F92570FEF7FBF989E089E0A06817
:1024D000106060685060E068906060690860206922
:1024E0004860A0698860022200215020FFF752F95D
:1024F000012200216020FFF74DF90322002100E0B6
:1025000009E07020FFF746F94CA002F08DF9257024
:10251000FEF7D6F964E0A0681060E068506060687B
:10252000906060690860A069486020698860022244
:1025300000215020FFF72EF9032200216020FFF731
:1025400029F9012200217020FFF724F942A002F0AE
:102550006BF92570FEF7B4F942E0E068106060683E
:102560005060A0689060A069086020694860606958
:102570008860032200215020FFF70CF9012200217E
:102580006020FFF707F9022200217020FFF702F90F
:1025900038A002F049F92570FEF792F920E0E068D2
:1025A0001060A068506060689060A0690860606911
:1025B000486020698860032200215020FFF7EAF874
:1025C000022200216020FFF7E5F80122002170209F
:1025D000FFF7E0F82EA002F027F92570FEF770F95A
:1025E0003580BDE8F081000048000020D8000020C0
:1025F00088000020D8040020790800087B08000823
:102600007D080008E8AF86E588ABE588B0E4BA8CC1
:10261000E7BBB4E7A081203A203132333F0000000D
:10262000E8AF86E588ABE588B0E4BA8CE7BBB4E7F1
:10263000A081203A203133323F000000E8AF86E528
:1026400088ABE588B0E4BA8CE7BBB4E7A081203A58
:10265000203231333F000000E8AF86E588ABE588E3
:10266000B0E4BA8CE7BBB4E7A081203A2032333122
:102670003F000000E8AF86E588ABE588B0E4BA8C9F
:10268000E7BBB4E7A081203A203331323F0000009D
:10269000E8AF86E588ABE588B0E4BA8CE7BBB4E781
:1026A000A081203A203332313F0000002DE9F04173
:1026B000DFF88881B8F8000010F4004F72D060A1F4
:1026C0006048FDF784FD614E5F4C06F10C07002564
:1026D00000B35FA15B48FDF77AFD002832D05DA111
:1026E0005848FDF774FD002844D05BA15548FDF71C
:1026F0006EFD002857D059A15248FDF768FD00280B
:1027000069D057A14F48FDF762FD002800F07B809B
:1027100000F090B82069306060697060A069B060B6
:10272000E0693860206A7860606AB860657044A2C9
:1027300006216020FFF780F84AA002F075F8FEF746
:10274000BFF877E020693060A06970606069B060B0
:10275000E0693860606A7860206AB86065703CA2A1
:1027600006216020FFF768F844A002F05DF8FEF74C
:10277000A7F85FE06069306020697060A069B060B0
:10278000206A3860E0697860606AB860657031A27C
:1027900006216020FFF750F83EA002F045F8FEF752
:1027A0008FF847E048E060693060A0697060206998
:1027B000B060206A3860606A7860E069B86065700F
:1027C00025A206216020FFF737F838A002F02CF888
:1027D000FEF776F82EE0A0693060206970606069CD
:1027E000B060606A3860E0697860206AB8606570DF
:1027F0001AA206216020FFF71FF832A002F014F899
:10280000FEF75EF816E0A0693060606970602069CC
:10281000B060606A3860206A7860E069B8606570AE
:102820000FA206216020FFF707F82CA001F0FCFFA3
:10283000FEF746F8A8F80050BDE8F081BE00002081
:10284000313233000805002088000020F004002009
:102850003133320032313300323331003331320020
:1028600033323100E68EA5E694B6E588B057494686
:1028700049203A203132333F00000000E68EA5E6C1
:1028800094B6E588B057494649203A203133323F63
:1028900000000000E68EA5E694B6E588B0574946EC
:1028A00049203A203231333F00000000E68EA5E691
:1028B00094B6E588B057494649203A203233313F33
:1028C00000000000E68EA5E694B6E588B0574946BC
:1028D00049203A203331323F00000000E68EA5E661
:1028E00094B6E588B057494649203A203332313F03
:1028F000000000002DE9F04116460C1A0020002CC3
:102900000DDD154D28703046FEF738F82878A042C6
:10291000F9DBBDE8F04100210846FEF767BD15DA96
:102920000E4D28706742002F0ADD3046FDF7E2FFAA
:10293000002C01DB214600E0394628788142F4DC96
:10294000BDE8F04100210846FEF750BDBDE8F0416A
:1029500000210846FEF74ABD320000203300002067
:102960002DE9F04116460C1A0020002C13DD1A4DFB
:10297000287004F10104B0EB440F06DA3046FEF78C
:102980003FF82878B0EB440FF8DBBDE8F0410021B8
:102990000846FEF72BBD19DA104D28706742791CE6
:1029A000B0EB410F0CDA3046FEF770F8002C01DB7B
:1029B000214600E03946481C2978B1EB400FF2DB94
:1029C000BDE8F04100210846FEF710BDBDE8F0412A
:1029D00000210846FEF70ABD30000020310000202B
:1029E0004FF0E021042804D0086920F004000861B9
:1029F0007047086940F004000861704770470000A4
:102A000010B51148016841F4700101600F48016878
:102A100041F0010101600E4A00211160026822F4B8
:102A2000102222F080720260031D0A4A1A600268B6
:102A300022F48022026008480160FFF773FA074918
:102A40004FF00060086010BD88ED00E000380240E3
:102A500008380240103000240C38024008ED00E035
:102A600030B4B0F820C02CF0010CA0F820C0048BCA
:102A7000B0F820C024F0F3044FF6FF7505EA031305
:102A80001A4322432CF00A03194341F00101028347
:102A9000018430BC704730B4B0F820C02CF0100C6A
:102AA000A0F820C0048BB0F820C04FF6FF7505EAEF
:102AB000011124F4734405EA0333234305EA022297
:102AC0001A432CF0A003194341F010010283018442
:102AD00030BC704730B4B0F820C02CF4807CA0F833
:102AE00020C0848BB0F820C04FF6FF7505EA0121A5
:102AF00024F0F30405EA03131A4322432CF4206361
:102B0000194341F480718283018430BC704730B432
:102B1000B0F820C02CF4805CA0F820C0848BB0F802
:102B200020C04FF6FF7505EA013124F4734405EA2D
:102B30000222224305EA03331A432CF420431943AB
:102B400041F480518283018430BC704710B50A4C37
:102B5000218A11F0010F0ED008490A8842F4004280
:102B60000A800121204600F0E3F82046BDE810402D
:102B7000002100F0E0B810BD0040014086000020B8
:102B80002DE9F041224E0121304600F0E9F90128FB
:102B900037D1FEF761FF1F4D28600220FEF75CFF72
:102BA0001D4C20600320FEF757FF1C4F38600420A7
:102BB000FEF752FFDFF86880C8F800001948016886
:102BC0002868FEF7E5FA184D286018480168206863
:102BD000FEF710FB164C2060164801683868FEF7B7
:102BE0003BFB154F386015480168D8F80000FEF728
:102BF00065FB134908600B683A6821682868FFF78D
:102C0000F1F93046BDE8F041012100F091B8000033
:102C100000140040100000201400002018000020C4
:102C20001C000020200000200000002024000020C4
:102C30000400002028000020080000202C000020B4
:102C40000C00002030B585B004460D46012120203F
:102C5000FEF776FE0394ADF808500024ADF80A4064
:102C6000ADF810400E4D02A9284600F025FB0122C8
:102C70001146284600F0BDF937218DF804108DF873
:102C8000054002218DF8061001218DF8071001A8DA
:102C9000FEF790FC0121284600F04DF805B030BD4C
:102CA0000014004010B5084C0121204600F058F9EE
:102CB000012803D105480188491C01802046BDE850
:102CC0001040012100F034B8001C00403400002006
:102CD00030B585B004460D4601210804FEF74CFED0
:102CE0000294ADF804500024ADF80C40ADF8064055
:102CF0000E4D01A9284600F0DFFA012211462846B0
:102D000000F077F90121284600F015F818208DF819
:102D100010008DF8114001208DF812008DF813007D
:102D200004A8FEF747FC05B030BD0000004001409C
:102D3000C94301827047002904D0018841F0010194
:102D400001807047018821F001010180704700294E
:102D500006D0B0F8441041F40041A0F84410704788
:102D6000B0F84410C1F30E01A0F84410704710B53C
:102D7000A0F18041B1F5803149D0B0F1804F5AD0F7
:102D8000A0F18041B1F580614BD0A0F18041B1F557
:102D900000615AD0A0F18041B1F540615FD0A0F14F
:102DA0008041B1F5805164D0A0F18041B1F5A051CE
:102DB00069D0A0F18041B1F582316ED0A0F180419F
:102DC000B1F5A03173D0A0F18041B1F5A23179D035
:102DD000A0F18041B1F5A4317CD0A0F18041B1F5E2
:102DE000C05178D0A0F18041B1F5E05174D0A0F18C
:102DF0008041B1F5005170D101210802FEF7AEFD0E
:102E0000BDE8104000214FF48070FEF7A7BD0121FE
:102E10000846FEF7BFFD0021BDE810400120FEF787
:102E2000B9BD01210220FEF799FD0021BDE8104047
:102E30000220FEF793BD01210846FEF78FFD002119
:102E4000BDE810400120FEF789BD01210420FEF7F6
:102E500085FD0021BDE810400420FEF77FBD012163
:102E60000820FEF77BFD0021BDE810400820FEF79A
:102E700075BD01211020FEF771FD0021BDE8104055
:102E80001020FEF76BBD01212020FEF767FD002119
:102E9000BDE810402020FEF761BD01210220FEF7B1
:102EA00079FD0021BDE810400220FEF773BD01212D
:102EB0000804FEF76FFDBDE8104000214FF480309C
:102EC000FEF768BD01214804FEF764FD00214FF4C0
:102ED000003003E006E010E019E022E0BDE8104019
:102EE000FEF758BD01218804FEF754FDBDE81040EF
:102EF00000214FF48020FEF74DBD01214020FEF758
:102F00002DFD0021BDE810404020FEF727BD012126
:102F10008020FEF723FD0021BDE810408020FEF751
:102F20001DBD10BD30B40589B0F818C0048C25F063
:102F3000070529432CF0030C2CF4407C40F20115CA
:102F40004CEA050C24F022044FF6FF7505EA031342
:102F50001A4322430181A0F818C0028430BC704794
:102F60000022038A0B4080890840002B01D000B169
:102F700001221046704770B505460C462188B4F80A
:102F800002C0A288238900290DD0042915D0082960
:102F90001DD061462846FFF7BAFDE1882846BDE806
:102FA000704000F07CB961462846FFF759FDE18882
:102FB0002846BDE8704000F056B961462846FFF744
:102FC0006AFDE1882846BDE8704000F054B96146CA
:102FD0002846FFF77FFDE1882846BDE8704000F0F5
:102FE00056B900210180418001228280C180018187
:102FF0007047002A03D082891143818170478289FA
:1030000022EA01018181704710B4028C22F0010292
:103010000284028C8388B0F818C02CF0700C2CF05D
:10302000030C0C8844EA0C0C22F002028C89224327
:103030004C882243A0F18044B4F5803404D0A0F140
:103040008044B4F582340FD122F00802CC892243A7
:1030500022F004028C88224323F4807323F400734B
:103060000C8A23434C8A23438380A0F818C08968C4
:103070004163028410BC7047028B22F008021143A6
:103080000183704730B4028C22F010020284028C5B
:103090008388B0F818C02CF4E04C2CF440740D88F0
:1030A0004FF6FF7C0CEA05252C4322F020028D8987
:1030B0000CEA05152A434D880CEA05152A43A0F1B0
:1030C0008045B5F5803504D0A0F18045B5F5823551
:1030D00018D122F08002CD890CEA05152A4322F08E
:1030E00040028D880CEA05152A4323F4806323F4FB
:1030F00000630D8A0CEA85052B434D8A0CEA850C8A
:103100004CEA03038380048389688163028430BCB2
:103110007047028B22F400624FF6FF7303EA01212D
:1031200011430183704730B4028C22F48072028410
:10313000028C8388B0F81CC02CF0700C2CF0030CAF
:103140000C8844EA0C0422F400728D894FF6FF7C4F
:103150000CEA05252A434D880CEA05252A43A0F1EF
:103160008045B5F5803504D0A0F18045B5F58235B0
:1031700018D122F40062CD890CEA05252A4322F4F5
:1031800080628D880CEA05252A4323F4805323F4BA
:1031900000530D8A0CEA05152B434D8A0CEA051CD9
:1031A0004CEA0303838084838968C163028430BC52
:1031B0007047828B22F0080211438183704730B43C
:1031C000028C22F480520284038C8288B0F81CC0E6
:1031D0002CF4E04C2CF4407C0D884FF6FF7404EA8C
:1031E000052545EA0C0C23F400538D8904EA0535C6
:1031F0002B434D8804EA05352B43A0F18045B5F5F6
:10320000803504D0A0F18045B5F5823505D122F492
:1032100080420D8A04EA851422438280A0F81CC0F3
:1032200089680164038430BC7047828B22F4006299
:103230004FF6FF7303EA0121114381837047002198
:1032400001804180818081608181C18101824182D0
:1032500070474163704781637047C1637047016481
:10326000704741627047028B22F00C020283028B8E
:10327000114301837047028B22F440620283028B68
:103280004FF6FF7303EA0121114301837047828BDC
:1032900022F00C028283828B114381837047828BE0
:1032A00022F440628283828B4FF6FF7303EA01218E
:1032B000114381837047000010B402881C4BDFF873
:1032C00074C0984213D0604511D0B0F1804F0ED039
:1032D000A0F18044B4F5806409D0A0F18044B4F535
:1032E000006404D0A0F18044B4F5406403D122F01E
:1032F00070024C882243A0F18044B4F5805408D079
:10330000A0F18044B4F5A05403D022F440720C899B
:10331000224302804A68C2620A880285984201D02C
:10332000604501D1897A01860121818210BC7047F4
:10333000000001400004014010B56FF00E010F20A5
:10334000FEF754F84FF47A7001F0D2F84FF47A7027
:1033500001F0CEF84FF47A7001F0CAF80021BDE810
:1033600010400846FEF742B870B50B4C002525709A
:103370002820FDF7BFFA20780528F9D325701420FE
:10338000FDF7B8FA20780028F9D0BDE87040002198
:103390000846FEF72BB800003300002010B5084C9B
:1033A0000020207000216FF01100FEF71FF8207838
:1033B0000228F7D10021BDE810400846FEF716B8F4
:1033C0003000002070B50D4C002525702820FDF739
:1033D000D5FAFEF793FE20780528F7D32570142040
:1033E000FDF7CCFAFEF78AFE20780028F7D0BDE87A
:1033F000704000210846FDF7F9BF000032000020B0
:1034000070B50F4C002525701420FDF7F9FA2078CF
:103410000228F9D325702820FDF7F2FA20780A282F
:10342000F9D3084C25701420FDF7EAFA207800281B
:10343000F9D0BDE8704000210846FDF7D7BF000075
:10344000310000203000002070B50B4C00252570A5
:103450002820FDF71BFB20780A28F9D325700F20C0
:10346000FDF714FB20780228F9D3BDE87040002155
:103470000846FDF7BBBF00003100002070B50B4CC3
:10348000002525701420FDF7BBFA20780228F9D317
:10349000074C25701420FDF7B3FA20780028F9D0E6
:1034A000BDE8704000210846FDF7A0BF31000020B4
:1034B0003000002010B5FEF7C1F8072203210020DC
:1034C000FEF768F9082203211020FEF763F90922AC
:1034D00003212020FEF75EF90A2203213020FEF7A7
:1034E00059F91AA203214020FEF7A6F9002211463D
:1034F0001046FEF74FF9042200211020FEF74AF98A
:10350000052200212020FEF745F906220021302067
:10351000FEF740F90DA200214020FEF78DF90CA224
:1035200006210020FEF788F90D2206212020FEF753
:1035300031F90E2206213020FEF72CF90621BDE8D4
:10354000104002A24020FEF777B900003A000000C8
:10355000574946490000000010B5074C0020207074
:103560001420FDF793FA20780228F9D30021BDE852
:1035700010400846FDF73ABF3100002010B5002189
:103580000846FDF733FF054C2078002804D0FEF7ED
:1035900025FF20780028FAD110BD00008800002007
:1035A00070B5FFF7FBFEFFF70DFF1E213C20FEF775
:1035B00035FB0A219120FEF7C5FB0A217320FEF797
:1035C00077FB0A212820FEF707FCFFF7D7FF1E2113
:1035D0003C20FEF723FB0A213C20FEF769FB0A2171
:1035E000B420FEF7AFFB0A212820FEF7F5FB0220EE
:1035F00000F05AFF644D654E142229683068FFF7C9
:1036000079F9022000F050FF614C142228682168EB
:10361000FFF770F9FFF7F4FE022000F045FFFFF717
:1036200013FF696814222068FFF764F9022000F094
:103630003BFF616814226868FFF75CF9FFF7E0FE62
:10364000022000F031FFFFF7FFFEA9681422606836
:10365000FFF750F9022000F027FFA1681422A868A4
:10366000FFF748F9FFF7CCFE022000F01DFFFFF73F
:1036700073FF00F007F9474D1922A0682968FFF78A
:1036800039F9FFF7FBFE022000F00EFF424C142236
:1036900006202168FFF764F9192206212868FFF740
:1036A00029F90A20FDF76AF94FF47A7000F020FF3B
:1036B0004FF47A7000F01CFF00210846FDF796FEDB
:1036C000022000F0F1FE142229683068FFF712F999
:1036D000142205212068FFF743F9FFF7CFFE0220EF
:1036E00000F0E2FE142206206168FFF739F9192282
:1036F00068683168FFF7FEF80A20FDF73FF94FF4DC
:103700007A7000F0F5FE4FF47A7000F0F1FE0021BF
:103710000846FDF76BFE022000F0C6FE14220720CB
:10372000A968FFF7E7F8142205216068FFF718F988
:10373000FFF7A4FE022000F0B7FE14220620A168C5
:10374000FFF70EF91922A8683168FFF7D3F80F20A8
:10375000FDF714F94FF47A7000F0CAFE4FF47A7056
:1037600000F0C6FE00210846FDF740FE022000F0F2
:103770009BFEFFF7F9FD14220221A068FFF7F0F885
:10378000BDE87040FFF7D8BDD80400201C530008E6
:10379000E4040020F0040020FC04002010B5FFF732
:1037A000FDFDFFF70FFEBDE81040FFF7E7BE00008C
:1037B000FDF744FF254D264E264F274CDFF89C8011
:1037C000DFF89C90002127A20846FEF735F82A78FA
:1037D00000213220FEF704F8D6F8142200215020F0
:1037E000FDF7FEFF21A202210020FEF725F83A781E
:1037F00002213220FDF7F4FFD4F80C2202215020E0
:10380000FDF7EEFF1BA204210020FEF715F898F843
:10381000002004213220FDF7E3FFD4F834220421F4
:103820005020FDF7DDFF15A206210020FEF704F869
:1038300099F8002006213220FDF7D2FFD4F80022AB
:1038400006215020FDF7CCFFBCE70000300000202F
:1038500000004042310000200000414232000020C0
:1038600033000020465F4C203D200000465F522080
:103870003D200000525F55203D200000525F442053
:103880003D20000010B500210846FDF7AFFD054CB6
:103890002078002804D0FEF709FF20780028FAD10C
:1038A00010BD00008900002070B5144C40F2255175
:1038B000204600F0AEF800281AD0204600F052F959
:1038C000C4B20F4D288810F4004F11D1FF2810D238
:1038D0000C4E00213046FFF7C4FC298819B901219C
:1038E0003046FFF728FA2888411C298006490C54E5
:1038F00070BD40F40040288070BD000000500040C2
:103900008600002000400140D802002010B5184C6D
:1039100040F22551204600F07CF8002810D02046C7
:1039200000F020F9C1B2134A508810F4004F07D1BB
:1039300010F4804F4FF0000307D00A2901D05380C4
:1039400010BD40F40040508010BD0D290BD00A4C32
:10395000C0F30D0C04F80C10401C80B25080FE28FF
:10396000F2D9538010BD40F48040508010BD00005B
:1039700000440040BC0000200805002010B5184C91
:1039800040F22551204600F044F8002810D020468F
:1039900000F0E8F8C1B2134A108810F4004F07D1C4
:1039A00010F4804F4FF0000307D00A2901D0138094
:1039B00010BD40F40040108010BD0D290BD00A4C02
:1039C000C0F30D0C04F80C10401C80B21080FE28CF
:1039D000F2D9138010BD40F48040108010BD00006B
:1039E0000048004048000020D8000020002904D0F2
:1039F000818941F4005181817047818921F400510E
:103A0000818170470246002012880A4200D00120BE
:103A1000704710B44FF0000C40F66A12C1F3421325
:103A200001F01F02012404FA02F2012B0FD0022B35
:103A300010D0838A1A40090A04FA01F1008808406C
:103A400012B108B14FF0010C10BC60467047838979
:103A50001A40F0E7038A1A40EDE740F66A13C1F313
:103A6000421301F01F014FF0010C0CFA01F1012B80
:103A700007D0022B07D014303AB10268114301601D
:103A800070470C30F8E71030F6E7026822EA0101CF
:103A90000160704730B585B004460D46208A20F499
:103AA0004050E98808432082A08920F4037020F464
:103AB000A050A9882A8911436A8910430843A0812C
:103AC000A08A20F44070A9890843A0826846FDF7C7
:103AD0006FFFA4F18040B0F5883012D0A4F180408F
:103AE000B0F58A300DD00298A18911F4004F0AD0A8
:103AF00000EBC00101EB001029684900B0FBF1F0B8
:103B000009E00398F0E700EBC00101EB0010296821
:103B10008900B0FBF1F0124AA2FB0031490909010A
:103B20000B096FF0180C03FB0CF300EB8300A38967
:103B300013F4004F4FF0320307D003EBC000A2FB99
:103B40000020C0F34210084306E003EB0010A2FB84
:103B50000020C0F343100843208105B030BD0000B1
:103B60001F85EB518088C0F308007047C1F308013E
:103B700081807047FEE700000FB4084B10B504A920
:103B800002AA039800F0F4F8044602A9002000F00D
:103B900086FC204610BC5DF814FB00009F44000822
:103BA00037B514460846064B6A46214600F0E0F851
:103BB00004466946002000F072FC20463EBD00002D
:103BC0009F44000800487047D400002002E008C865
:103BD000121F08C1002AFAD170477047002001E087
:103BE00001C1121F002AFBD1704700002DE9FF5FC1
:103BF00082B00021DDE90430020DDDF840B003435E
:103C000018D044F61050A2F2FF3242431514119816
:103C100001281FD0A5EB0B00401C5FEA000A4FF003
:103C200000064E4FDFF83891B046504615D5CAF120
:103C3000000413E0119801244AA3012801D16FEA7E
:103C40000B010298119AC0E90031C0E9024206B0A6
:103C5000BDE8F09FCBF10000DFE704460021404AB9
:103C6000491842EB0450CDE9001012E0E00707D0FC
:103C700032463B4640464946FCF7EAFB80468946C9
:103C800032463B4610461946FCF7E2FB06460F4615
:103C90006410002CEAD1DDE90401DDE90023BAF16A
:103CA000000F06DAFCF7D4FB42464B46FCF7D0FB8C
:103CB00005E0FCF73FFC42464B46FCF73BFC044664
:103CC0000E460022284BFCF7BDFC03D84FF0FF3016
:103CD000014607E00022254B20463146FCF711FB48
:103CE000FCF797FC102409E0002C0ADB0A220023D1
:103CF000FCF79EFA039B30321A55641E50EA01020B
:103D0000F2D1641C039AC4F111031444119A012ADC
:103D100003D0012208430DD10AE0084304D000205B
:103D20004FF0110B119072E7A3EB0B056D1E0DE028
:103D30005B4504DD4FF0000205F1010504E003DA04
:103D40004FF00002A5F10105002AECD0029811996C
:103D5000C0E90231C0E9004579E7000000001440E5
:103D60000000F03F300000000000F0430000E03FA2
:103D70002DE9FF4F95B09B468946064600250FE288
:103D8000252877D100242746F84A0121059400E030
:103D9000044316F8013F203B01FA03F01042F7D12B
:103DA00030782A2811D06FF02F033078A0F130023C
:103DB000092A16D8059A44F0020402EB820203EBAA
:103DC00042021044761C0590EFE759F8042B059247
:103DD000002A03DA504244F40054059044F00204EF
:103DE000761C30782E2816D116F8010F44F0040402
:103DF0002A280DD06FF02F023078A0F13003092B64
:103E000009D807EB870302EB4303C718761CF3E7D7
:103E100059F8047B761C30786C280FD006DC4C28CF
:103E200017D068280DD06A2814D104E0742810D067
:103E30007A280FD10DE044F400140AE044F4801411
:103E400001E044F440147278824202D104F58014F7
:103E5000761C761C307866280BD013DC582877D077
:103E600009DC002875D04528F6D04628F4D047282C
:103E70001AD19DE118E0632835D0642879D06528EF
:103E800012D195E1702873D008DC6728F1D0692839
:103E90006FD06E280DD06F2806D1B5E073282CD0D6
:103EA000752875D0782874D05A46179990476D1C9C
:103EB00075E1C4F30250022809D003280DD0D9F8C7
:103EC000001004280DD00D6009F1040967E1D9F84C
:103ED0000010EA17C1E90052F6E7D9F800100D808A
:103EE000F2E70D70F0E719F8041B8DF800100020C0
:103EF0008DF80100EA46012003E059F804AB4FF0C9
:103F0000FF3061074FF0000102D40DE008F101011C
:103F10008846B9420FDA8045F8DB1AF80810002904
:103F2000F4D108E008F1010188468142FADB1AF871
:103F300008100029F6D105985B46A0EB080721463A
:103F40003846179A00F094FA284400EB080507E079
:103F50004DE029E10DE01AF8010B5A4617999047F8
:103F6000B8F10108F7D25B4621463846179A13E1AB
:103F700042E00A220092C4F302524FF0000A022AE1
:103F800008D059F804CB032A4FEAEC710AD00DE0AF
:103F900029E02AE009F1070121F00702F2E802C155
:103FA000914609E00FFA8CFC4FEAEC71042A03D128
:103FB0004FFA8CFC4FEAEC71002907DA0A4600211F
:103FC000DCF1000C61EB02012D2202E0220504D598
:103FD0002B228DF80420012203E0E20701D02022E9
:103FE000F7E7904659E00A2102E010220DE0102187
:103FF0004FF0000A00910BE010224FF0000A44F04D
:1040000004040827009203E008224FF0000A0092FF
:10401000C4F30252022A05D059F804CB0021032A26
:1040200008D009E009F1070121F00702F2E802C116
:10403000914605E01FFA8CFC042A01D10CF0FF0C1C
:104040004FF00008220728D5702806D0009B83F087
:10405000100353EA0A0305D00EE040228DF8042035
:10406000012208E05CEA010206D030228DF804202B
:104070008DF8050002229046009B83F0080353EA66
:104080000A030AD15CEA010201D1620705D5302298
:104090008DF804204FF001087F1E582804D034A06A
:1040A00003900EA802900DE036A0F9E75346604653
:1040B000009AFCF7BDF884460398825C0298401E83
:1040C000029002705CEA0100F0D1029806A9081A79
:1040D00000F1200A600702D524F4803400E00127B3
:1040E000574502DDA7EB0A0000E0002000EB0A01C3
:1040F000009005984144401A0590E00306D45B46C1
:104100002146179A059800F0B3F90544002706E008
:1041100001A85A46C05D179990476D1C7F1C474502
:10412000F6DBE0030CD55B462146179A059800F0B4
:104130009FF9054404E030205A46179990476D1CBA
:104140000099481E00900029F5DC08E002980299C9
:104150005A460078491C0291179990476D1CBAF194
:104160000001AAF1010AF1DC65E100000928010063
:1041700030313233343536373839616263646566DD
:10418000000000003031323334353637383941429F
:10419000434445460000000000F058F90544761CF1
:1041A000307800287FF4ECAD19B02846BDE8F08FD8
:1041B000620700D4062709F1070222F0070CFCE889
:1041C0000223E14603F000485FEA080C02D00FF238
:1041D000702C0DE05FEA045C02D50FF2682C07E05A
:1041E0005FEAC47C02D00FF2602C01E0AFF2700CE9
:1041F0004FF0FF3823F00043CDF850C065280CD0B5
:1042000006DC452809D046281DD047283DD13DE091
:10421000662818D067287ED138E00021112F01DBF5
:10422000112000E0781CCDE9000106A90EA8FFF7D7
:10423000DDFCDDE90F010E9A03910021009207F1E8
:10424000010A04914DE04FF000400097CDE90110C4
:1042500006A90EA8FFF7CAFCDDE90F0203920E9B28
:1042600011990022DDF80CA00093049211B9791C79
:1042700000EB010AB7EB0A0004D4C0F1FF3007F1EC
:10428000010A0490AAEB0700019044E0012F00DA34
:1042900001270021112F01DD112000E03846CDE972
:1042A000000106A90EA8FFF7A1FCDDE90F010E9A97
:1042B0000391002104910092BA4621070CD403997E
:1042C000514500DA8A46BAF1010F05DD009AAAF1DC
:1042D0000101515C302908D0B84202DA10F1040F14
:1042E00006DA0121CDE9011015E0AAF10101E9E7A3
:1042F000002805DC049901440491AAEB000102E0C6
:10430000411C514500DD8A460499401A401C019029
:104310004FF000400290200704D40198504501DB83
:10432000CDF8048000208DF84F0002980DF14F0762
:10433000B0F1004F25D02B200E9002984FF00208CC
:1043400000280CDA404202902D200E9007E00A214E
:104350000298FBF757FF3031029007F8011DB8F1C2
:104360000001A8F10108F2DC02980028EFD1791EC3
:104370000E980870307800F0200040F0450007F8F3
:10438000020D12A8C01B00F107081498007800B1B4
:10439000012000EB0A01019801EBE071059841440E
:1043A000401A401E0590E00306D45B462146179A4A
:1043B000059800F05DF805441498007818B15A4645
:1043C000179990476D1CE00324D55B462146179A48
:1043D000059800F04DF805441CE00498002807DB20
:1043E000DDE90301884203DD0098405C179901E094
:1043F000179930205A469047049805F10105401C52
:1044000004900198401E019004D12E205A4617991D
:1044100090476D1CBAF10001AAF1010ADDDC05E04C
:1044200017F8010B5A46179990476D1CB8F1000117
:10443000A8F10108F4DC5B462146179A0598ABE623
:104440002D0000002B000000200000002DE9F041AD
:10445000044600251E461746880404D405E0394664
:104460002020B0476D1C641EF9D52846BDE8F081B8
:104470002DE9F041044600251E469046C80301D5AB
:10448000302700E02027880404D505E0414638465F
:10449000B0476D1C641EF9D52846BDE8F0810A6856
:1044A000531C0B601070704770B505460024002D3A
:1044B00006DD4FF47A7000F01BF8641CAC42F8DBA8
:1044C00070BD000010B504466FF00400FEF788FAD6
:1044D0000649E008087000EB4002C2EBC0104FF63E
:1044E000FF7202EAC000488010BD0000C00000203A
:1044F00030B54FF40771B0FBF1F2D4B2B0FBF1F27A
:1045000001FB1205002C07D04FF4077000F028F8CB
:10451000611ECCB2002CF7D1002D04D02846BDE896
:10452000304000F01DB830BD0C49097848434FF0C9
:10453000E021486100238B61086940F001000861B7
:10454000086910F0010F02D010F4803FF8D008691C
:1045500020F0010008618B6170470000C00000205E
:104560000C49498848434FF0E021486100238B61A2
:10457000086940F001000861086910F0010F02D0DD
:1045800010F4803FF8D0086920F0010008618B61C9
:1045900070470000C0000020A820FFF793FF4FF4F1
:1045A000A060FDF741F84FF4165000F065F94FF4A4
:1045B000165000F0E1F84FF4E13000F05BF842F201
:1045C000CF016320FEF784FB372142F20F70FDF725
:1045D00033FC42F2CF01C720FEF734FB292140F221
:1045E000E730FCF71DFFFCF797FFFCF751FBFCF7EA
:1045F000B1FBFCF703FCFCF755FCFDF76BFAFCF78D
:104600008FFEFCF73DF9FCF707FDFDF74CF8FDF7D1
:1046100015F80120FDF7AEFE0120FDF73BFDFEF78A
:1046200049FF1E213C20FDF7F9FA0A213C20FDF745
:104630003FFB0A21B420FDF785FB0A212820FDF766
:10464000CBFB00F089F80A4C0020FCF783FE2070B9
:10465000012806D0022807D00328F5D1FFF7A8F8D3
:10466000FCE7FEF79DFFFEE7FFF798F8FEE7000086
:10467000360000202DE9F04389B0074601210805E6
:10468000FDF75EF901210C20FDF74CF9DFF8BC9035
:1046900008220C214846FCF7A4FCDFF8B48008226D
:1046A00002214046FCF79DFC4FF480500690022505
:1046B0008DF81C508DF81D5000248DF81E400126E9
:1046C0008DF81F6006A94846FCF740FC04200690C0
:1046D0008DF81C508DF81D508DF81E408DF81F6010
:1046E00006A94046FCF732FCDFF86880012240F260
:1046F00025514046FFF7B1F935208DF804008DF8BB
:1047000005508DF806608DF8076001A8FCF752FF90
:104710000297ADF80C40ADF80E40ADF81040ADF882
:1047200014400C20ADF8120002A94046FFF7B2F980
:10473000012240F225514046FFF78FF90121404602
:10474000FFF754F909B0BDE8F0830000000802400B
:10475000000C02400050004005480021418000202C
:10476000044A1154401C80B2FF28FAD3704700005D
:10477000BC000020080500202DE9F04188B0074664
:1047800001210846FDF7CEF801214804FDF7D8F8CD
:10479000DFF88C80072202214046FCF722FC07222A
:1047A00003214046FCF71DFC0C26069602218DF8DD
:1047B0001C108DF81D1000248DF81E4001258DF869
:1047C0001F5006A94046FCF7C1FBDFF858800122C4
:1047D00040F225514046FFF740F926208DF80400AD
:1047E0008DF805508DF806508DF8075001A8FCF79C
:1047F000E1FE0297ADF80C40ADF80E40ADF8104068
:10480000ADF81440ADF8126002A94046FFF742F936
:1048100001214046FFF7EAF808B0BDE8F08100004A
:1048200000000240004400400FB4F8B507AA104849
:104830000699FFF7B5F9002000900D48FBF7C0FC82
:1048400085B20024002D0FD9094E0A4F4021384669
:10485000FFF7D8F80028F9D0315D3846FFF786F920
:10486000601C84B2AC42F1D3F8BC5DF814FB0000CC
:104870000806002000440040F0B589B0064601213A
:104880000220FDF74FF801218804FDF759F8234F66
:1048900007220A213846FCF7A4FB07220B213846E1
:1048A000FCF79FFB4FF44060069002218DF81C102E
:1048B0008DF81D1000248DF81E4001258DF81F5025
:1048C00006A93846FCF742FB154F012240F225515C
:1048D0003846FFF7C2F827208DF804008DF8055000
:1048E0008DF806508DF8075001A8FCF763FE02967C
:1048F000ADF80C40ADF80E40ADF81040ADF81440E6
:104900000C20ADF8120002A93846FFF7C3F80121C8
:104910003846FFF76BF809B0F0BD00000004024014
:1049200000480040404042CC000000FC0404040465
:1049300004FC00000000003F108840231901010919
:104940001123C0002030AC63201800040404FC04D0
:1049500004040000226722121212404040407F40AF
:10496000404040002030AC6330008092929292929E
:10497000FE808000226722121200221448847F04E5
:10498000081422000404E4040FF40404F444CF44A3
:104990004444040040407D44447D4445447C4445B7
:1049A0007C404000003E22E22222223E0000F8002D
:1049B00000FF00008141310F4181413F00000F4065
:1049C000807F00002030AC632018084848487F48AA
:1049D0004848080022672212121200FE4242424258
:1049E00042FE0000000000FE929292FE929292FE21
:1049F0000000000044442425140C04FF040C14257A
:104A000024444400403C10FF101020108F7808F818
:104A100008F80000020602FF010104422118468145
:104A2000403F0000404458C0FF504C0022CC0000E2
:104A3000FF00000010080601FF0106000404040442
:104A4000FF02020000FE00FC00FF00F2121AD61264
:104A500012F20200403F003F00FF804F2018071075
:104A6000204F80000000FC040404141556945434B4
:104A70001404040040300F0001010141817F010155
:104A80000105030080808888888888FF8888888856
:104A90008880800020201008040201FF0102040821
:104AA000102020000000E28282828282828282FEC6
:104AB0000000000000003F40404040404040404077
:104AC00040780000404042CC000444645C47F44419
:104AD000444404000040201F2044444444447F4494
:104AE00044444400101010FF1050445465C6446400
:104AF000544440000444827F0182824A5623225259
:104B00004E8202000000000000000000002F0000A4
:104B100000000700070000147F147F1400242A7F80
:104B20002A120062640813230036495522500000FF
:104B30000503000000001C224100000041221C006F
:104B40000014083E08140008083E0808000000A0F1
:104B500060000008080808080000606000000020ED
:104B600010080402003E5149453E0000427F4000CB
:104B7000004261514946002141454B310018141251
:104B80007F10002745454539003C4A49493000011E
:104B90007109050300364949493600064949291E6D
:104BA00000003636000000005636000000081422CF
:104BB00041000014141414140000412214080002CF
:104BC0000151090600324959513E007C1211127CF4
:104BD000007F49494936003E41414122007F414121
:104BE000221C007F49494941007F09090901003E13
:104BF0004149497A007F0808087F0000417F410051
:104C0000002040413F01007F08142241007F4040C6
:104C10004040007F020C027F007F0408107F003EAE
:104C20004141413E007F09090906003E4151215E94
:104C3000007F091929460046494949310001017F91
:104C40000101003F4040403F001F2040201F003F27
:104C50004038403F006314081463000708700807D9
:104C600000615149454300007F41410000552A55EC
:104C70002A55000041417F00000402010204004067
:104C80004040404000000102040000205454547889
:104C9000007F4844443800384444442000384444A9
:104CA000487F00385454541800087E090102001847
:104CB000A4A4A47C007F080404780000447D400084
:104CC000004080847D00007F102844000000417F68
:104CD0004000007C04180478007C08040478003844
:104CE0004444443800FC242424180018242418FCCC
:104CF000007C0804040800485454542000043F4435
:104D00004020003C4040207C001C2040201C003CF7
:104D10004030403C004428102844001CA0A0A07C47
:104D2000004464544C44141414141414000000007F
:104D3000000000000000000000000000000000F87B
:104D400000000000000000333000000000100C06DE
:104D5000100C0600000000000000000040C0784079
:104D6000C0784000043F04043F040400007088FC45
:104D700008300000001820FF211E0000F008F0009D
:104D8000E018000000211C031E211E0000F008880E
:104D9000700000001E2123241927211010160E0078
:104DA000000000000000000000000000000000E023
:104DB0001804020000000007182040000002041838
:104DC000E00000000040201807000000404080F094
:104DD000804040000202010F01020200000000F0CA
:104DE000000000000101011F01010100000000009E
:104DF0000000000080B07000000000000000000013
:104E0000000000000001010101010101000000009B
:104E10000000000000303000000000000000000032
:104E200080601804006018060100000000E010080F
:104E30000810E000000F102020100F00001010F8E4
:104E4000000000000020203F202000000070080823
:104E500008887000003028242221300000300888A3
:104E6000884830000018202020110E000000C020CB
:104E700010F8000000070424243F240000F80888EC
:104E8000880808000019212020110E0000E0108879
:104E900088180000000F112020110E0000380808AB
:104EA000C83808000000003F0000000000708808BB
:104EB00008887000001C222121221C0000E010083C
:104EC0000810E0000000312222110F00000000C095
:104ED000C000000000000030300000000000008032
:104EE0000000000000008060000000000000804022
:104EF000201008000001020408102000404040403B
:104F0000404040000404040404040400000810208D
:104F100040800000002010080402010000704808D2
:104F20000808F0000000003036010000C030C8283A
:104F3000E810E0000718272423140B000000C038F5
:104F4000E0000000203C23020227382008F888886F
:104F500088700000203F202020110E00C03008087B
:104F600008083800071820202010080008F8080852
:104F70000810E000203F202020100F0008F888884B
:104F8000E8081000203F20202320180008F8888817
:104F9000E8081000203F200003000000C03008088F
:104FA0000838000007182020221E020008F8080018
:104FB0000008F808203F210101213F20000808F8DF
:104FC000080800000020203F202000000000080802
:104FD000F8080800C08080807F00000008F888C0C2
:104FE00028180800203F20012638200008F8080073
:104FF00000000000203F20202020300008F8F800AA
:10500000F8F80800203F003F003F200008F830C0BB
:105010000008F808203F200007183F00E0100808AB
:105020000810E0000F10202020100F0008F80808DA
:105030000808F000203F210101010000E0100808ED
:105040000810E0000F18242438504F0008F8888812
:1050500088887000203F2000030C302000708808F2
:10506000080838000038202121221C00180808F800
:10507000080818000000203F2000000008F8080081
:105080000008F808001F202020201F000878880052
:1050900000C83808000007380E010000F80800F8C2
:1050A0000008F800033C0700073C0300081868806C
:1050B0008068180820302C03032C30200838C800E2
:1050C000C83808000000203F200000001008080831
:1050D000C83808002038262120201800000000FED3
:1050E000020202000000007F40404000000C30C07F
:1050F00000000000000000010638C00000020202AB
:10510000FE000000004040407F000000000004025C
:105110000202040000000000000000000000000087
:105120000000000080808080808080800002020477
:10513000000000000000000000000000000080806F
:10514000808000000019242222223F2008F80080DD
:1051500080000000003F112020110E0000000080A0
:1051600080800000000E112020201100000000802F
:105170008088F800000E112020103F200000808061
:1051800080800000001F222222221300008080F075
:10519000888888180020203F2020000000008080A0
:1051A00080808000006B94949493600008F80080E5
:1051B00080800000203F210000203F200080989840
:1051C000000000000020203F2020000000000080A0
:1051D0009898000000C08080807F000008F80000E0
:1051E00080808000203F24022D302000000808F835
:1051F000000000000020203F2020000080808080F0
:1052000080808000203F20003F20003F8080008081
:1052100080800000203F210000203F20000080808F
:1052200080800000001F202020201F008080008040
:105230008000000080FFA12020110E0000000080EF
:1052400080808000000E112020A0FF8080808000E0
:105250008080800020203F2120000100000080800D
:10526000808080000033242424241900008080E002
:10527000808000000000001F2020000080800000CF
:1052800000808000001F202020103F2080808000B0
:105290000080808000010E300806010080800080C0
:1052A000008080800F300C030C300F0000808000E5
:1052B000808080000020312E0E3120008080800010
:1052C0000080808080818E701806010000808080C0
:1052D000808080000021302C22213000000000005E
:1052E000807C020200000000003F404000000000FF
:1052F000FF00000000000000FF0000000002027C30
:10530000800000000040403F000000000006010156
:10531000020204040000000000000000060000007B
:1053200000404040404040404040414141414140B8
:10533000404040404040404040404040404040406D
:1053400040050202020202020202020202020202FC
:105350000220202020202020202020020202020201
:105360000202909090909090101010101010101059
:105370001010101010101010101010100202020265
:1053800002028888888888880808080808080808A9
:1053900008080808080808080808080802020202A5
:1053A0004000000021530008C853000800000020FE
:1053B000D8000000CC3B0008A0540008D800002012
:1053C000300A0000DC3B0008000000000000000084
:1053D00000000000000000000000000000000000CD
:1053E00000000000000000000000000000000000BD
:1053F00000000000000000000000000000000000AD
:105400003B0000003B000000B2000000290000004B
:1054100000000000000020410000204100000000CA
:10542000000000000000000000000000000000007C
:10543000000000000000000000000000000000006C
:10544000000000000000000000000000010000005B
:10545000010100000000000000000000000000004A
:10546000000000000000000000000000000000003C
:10547000000000000000000000000000000000002C
:10548000000000000100000000000000000000001B
:1054900001020304010203040607080900000000DA
:040000050800018965
:00000001FF
