:020000040800F2
:10000000880800209D010008750C00085D070008A5
:10001000E10A0008450200080D2100080000000068
:10002000000000000000000000000000A111000816
:100030004702000800000000531000085F15000888
:10004000B7010008B7010008B7010008B7010008B0
:10005000B7010008B701000849020008B70100080D
:10006000B7010008BD020008B7010008B701000889
:10007000B7010008B7010008B7010008B701000880
:10008000B7010008B7010008B7010008B701000870
:10009000B7010008B7010008B7010008F502000821
:1000A000B5160008B7010008B7010008B70100083D
:1000B000B7010008B7010008B7010008B701000840
:1000C000B7010008B7010008B7010008B701000830
:1000D000B7010008B7010008B7010008551F000864
:1000E00081020008B7010008B7010008B701000845
:1000F000B7010008B7010008B7010008B701000800
:10010000B7010008B7010008B7010008B7010008EF
:10011000B7010008F11E0008B7010008E916000841
:10012000B7010008B7010008B7010008B7010008CF
:10013000B7010008B7010008B7010008B7010008BF
:10014000B7010008B7010008B7010008B7010008AF
:10015000B7010008B7010008B7010008B70100089F
:10016000B7010008B7010008B7010008B70100088F
:10017000B7010008B7010008B7010008B70100087F
:10018000B7010008B7010008DFF80CD000F018F83C
:1001900000480047312200088808002006488047B0
:1001A00006480047FEE7FEE7FEE7FEE7FEE7FEE75C
:1001B000FEE7FEE7FEE7FEE761150008890100089B
:1001C000064C074D06E0E06840F0010394E80700A4
:1001D00098471034AC42F6D3FFF7DAFFF02D000851
:1001E000102E000810B55A2001F0C8F8002001F0C8
:1001F000ABF8912001F08EF8BDE810405A2001F0D4
:100200006FB8000010B582B00121102000F022FF6D
:1002100001218DF8041000218DF806100321022021
:100220008DF80510064C00908DF8070069462046B1
:1002300000F032FA0221204600F08EFA02B010BD22
:1002400000100240FEE7704710B5052001F084FF62
:10025000012000F071F8002808BF10BD0648D0F852
:10026000000218B905480178491C0170BDE810402A
:10027000012000F05BB80000000041423300002084
:1002800010B5052001F068FF4FF4005000F054F85D
:10029000002808BF10BD0748D0F8340218B9064836
:1002A0000178491C0170BDE810404FF4005000F087
:1002B0003DB80000000041423200002010B505208A
:1002C00001F04AFF082000F037F8002808BF10BDF1
:1002D0000648D0F80C0218B905480178491C01708D
:1002E000BDE81040082000F021B8000000004142A5
:1002F0003100002010B5052001F02EFF202000F075
:100300001BF8002808BF10BD0648D0F8140218B921
:1003100005480178491C0170BDE81040202000F01C
:1003200005B800000000404230000020014908608C
:1003300070470000143C0140034A01460020126847
:100340000A4218BF01207047143C01408379214ABA
:100350000168002B34D0136823EA01011160111DDC
:100360000A6803689A430A60017901F1804101F546
:100370009E310A6803681A430A60174A11680368C5
:1003800099431160131D1968D0F800C021EA0C01CF
:1003900019604179102908D001F1804101F59E31A1
:1003A0000A6800681043086070471168D0F800C000
:1003B00041EA0C0111601968006808431860704731
:1003C000007900F1804000F59E30026822EA0101C8
:1003D00001607047003C0140083C0140F0B501213C
:1003E0008BB0084600F042FE0121084600F032FEC4
:1003F0000121022000F02EFE274F01220F21384656
:1004000000F099F9254E01220321304600F093F9BE
:1004100002244FF400408DF81440012504908DF81B
:1004200017508DF8154004A9384600F035F908201A
:100430008DF81C4006908DF81F508DF81D4006A9C0
:10044000304600F029F9600701F027FA00244FF642
:10045000FF70ADF800400190ADF80840ADF80240E3
:100460006946A80701F0CAFC0A231A460321580767
:1004700001F0EDFA08A801F090FB0620ADF8280085
:1004800008A9A80701F00CFBA8074462012101F0AC
:10049000F0F90BB0F0BD0000000002400004024083
:1004A00030B589B00121022000F0E0FD01210846AD
:1004B00000F0D0FD214C02220621204600F03BF93D
:1004C00002220721204600F036F9C02104910221C2
:1004D0008DF8141001228DF817208DF8151004A93D
:1004E000204600F0D9F8164D284601F0D6F9002430
:1004F0004FF6FF71ADF800400191ADF80840ADF83E
:1005000002406946284601F079FC0A231A46032175
:10051000284601F09CFA06A801F03FFB0621ADF841
:10052000201006A9284601F0BBFA06480460012104
:10053000284601F09EF909B030BD000000000240DD
:10054000000400402404004030B589B0012104209B
:1005500000F08CFD0121022000F07CFD214C0222E4
:100560000621204600F0E7F802220721204600F08D
:10057000E2F8C021049102218DF8141001228DF8B7
:1005800017208DF8151004A9204600F085F8164DA7
:10059000284601F082F900244FF6FF71ADF80040C3
:1005A0000191ADF80840ADF802406946284601F0D7
:1005B00025FC0A231A460321284601F048FA06A81A
:1005C00001F0EBFA0621ADF8201006A9284601F04B
:1005D00067FA064804600121284601F04AF909B08B
:1005E00030BD000000040240000800402408004024
:1005F00030B589B00121082000F038FD01210846FE
:1006000000F028FD214C02220021204600F093F842
:1006100002220121204600F08EF8032104910221DC
:100620008DF8141001228DF817208DF8151004A9EB
:10063000204600F031F8164D284601F02EF900242E
:100640004FF6FF71ADF800400191ADF80840ADF8EC
:1006500002406946284601F0D1FB0A231A460321CD
:10066000284601F0F4F906A801F097FA0621ADF842
:10067000201006A9284601F013FA0648046001215B
:10068000284601F0F6F809B030BD00000000024035
:10069000000C0040240C00402DE9F001002201264E
:1006A00003270B6806FA02FC03EA0C0363453BD1FF
:1006B0000568530007FA03F4A54305600D79D0F8E7
:1006C00000809D4045EA080505600D79012D18BFA1
:1006D000022D1AD1856825EA040585604D79D0F888
:1006E000088005FA03F545EA08058560456825EAAE
:1006F0000C0CC0F804C0D0F804C08D7905FA02F5DE
:10070000ADB24CEA050CC0F804C0D0F80CC02CEA1D
:10071000040CC0F80CC091F807C00CFA03F3D0F831
:100720000CC043EA0C03C36002F10102102AB8D3E3
:10073000BDE8F00170474B07DB0E9A40C90800EB9B
:100740008100016A4FF00F0C0CFA03F39943016228
:10075000016A11430162704741837047FEE7000060
:1007600010B582B00121022000F074FC4FF44070FB
:10077000012400908DF8044000208DF8060003202D
:100780008DF805008DF8074069460548FFF784FF9E
:100790000448C0F8A042C0F8A44202B010BD000056
:1007A00000040240008040422DE9F0410546164811
:1007B000016821F440210160016841F48021016059
:1007C000124E4FF00008C6F8A0824446012715F0EB
:1007D000800F14BFC6F8A472C6F8A4826806050E7E
:1007E000052001F0EDFCC6F8A072052001F0E8FC40
:1007F000C6F8A082052001F0E3FC601CC4B2082CFE
:10080000E5D3BDE8F0810000000C024000804042CA
:1008100070B50D48016821F440210160016841F480
:1008200080210160094C0120C4F8A402C4F8A00290
:10083000022004F5287401F0C3FC00256560022045
:1008400001F0BEFC256070BD000C024000804042FB
:100850000E4810B5016821F440210160016841F49F
:10086000802101600A4C0020C4F8A002C4F8A40250
:10087000022004F5287401F0A3FC012020606060D0
:10088000BDE81040022001F09BBC0000000C0240BB
:10089000008040422DE9F0411E4E0024306820F4D3
:1008A00040203060306830601B4D0127C5F8A472CD
:1008B000384601F085FCC5F8A072012001F080FCEB
:1008C000D5F82402002100B3601CC4B2FA2C18D958
:1008D000306820F440203060306840F48020306080
:1008E000C5F8A012C5F8A412022001F069FCC5F8F1
:1008F000A072C5F8A472022001F062FC0120BDE8DC
:10090000F081D5F824020028DED1C5F8A01200201D
:10091000BDE8F081000C024000804042164A401AB7
:100920001169D2ED000A411A00EE101A92ED011A77
:10093000B8EEC00A60EE200A00EE100AB8EEC00A57
:1009400041EE000A92ED030AB8EEC00A30EE800ACA
:10095000BDEEC00A10EE101AC2E90310B1F57A7F9D
:10096000C8BF4FF47A7005DC11F57A7FB2BF034837
:10097000D0687047D06070473800002018FCFFFF37
:10098000164A401AD169D2ED000A411A00EE101A37
:1009900092ED011AB8EEC00A60EE200A00EE100ACD
:1009A000B8EEC00A41EE000A92ED060AB8EEC00A9F
:1009B00030EE800ABDEEC00A10EE101AC2E9061031
:1009C000B1F57A7FC8BF4FF47A7005DC11F57A7FF4
:1009D000B2BF0348906970479061704738000020AB
:1009E00018FCFFFF164A401A916AD2ED000A411A1C
:1009F00000EE101A92ED011AB8EEC00A60EE200A5D
:100A000000EE100AB8EEC00A41EE000A92ED090AA3
:100A1000B8EEC00A30EE800ABDEEC00A10EE101A21
:100A2000C2E90910B1F57A7FC8BF4FF47A7005DCCE
:100A300011F57A7FB2BF0348506A70475062704721
:100A40003800002018FCFFFF164A401A516BD2ED07
:100A5000000A411A00EE101A92ED011AB8EEC00A0F
:100A600060EE200A00EE100AB8EEC00A41EE000A5D
:100A700092ED0C0AB8EEC00A30EE800ABDEEC00A54
:100A800010EE101AC2E90C10B1F57A7FC8BF4FF40E
:100A90007A7005DC11F57A7FB2BF0348106B70479E
:100AA000106370473800002018FCFFFF00B583B0CA
:100AB0000121102000F0CEFA1520009000208DF8C2
:100AC000040003208DF8050001208DF80700694619
:100AD0000248FFF7E1FD03B000BD00000010024036
:100AE000FEE700002DE9F0410D4607468CB00121DC
:100AF000022000F0D3FA0121042000F0ABFADFF865
:100B0000D480032206214046FFF715FE0322072169
:100B10004046FFF710FE032208214046FFF70BFE78
:100B2000032209214046FFF706FE02228DF81C2011
:100B30004FF47F708DF81D20002406908DF81E4024
:100B400001268DF81F6006A94046FFF7A5FDADF808
:100B50002050214DADF822400997ADF8284008A952
:100B6000284601F04BF9684601F034F96021ADF8F0
:100B700000100294ADF80260ADF80C4069462846BA
:100B800001F01BF80821284601F04BF86946284679
:100B900001F04DF80821284601F08CF869462846F6
:100BA00001F092F80821284601F0D0F8694628465D
:100BB00001F0D2F80821284601F002F90121284667
:100BC00000F057FE0121284600F05CFE0CB0BDE8A5
:100BD000F0810000000802400004014070B588B0B8
:100BE00001211D2000F036FA01248DF80440032570
:100BF0004FF480508DF80550002600908DF8066067
:100C00008DF8074069461748FFF746FD8DF81C40F0
:100C10008DF81D508DF81E6006948DF81F4006A9B2
:100C20001148FFF739FD8DF80C40A8028DF80D50E2
:100C300002908DF80E608DF80F4002A90B48FFF767
:100C40002BFD8DF814404FF42C508DF81550049066
:100C50008DF816608DF8174004A90548FFF71CFDB4
:100C600008B070BD00000240000C024000080240C5
:100C7000001002407047000010B4C27801784FF0B5
:100C80000F0C01241AB3184A126801F1E02102F492
:100C9000E062C2F5E062C2F30722C2F104032CFA5B
:100CA00002FC42789A40837803EA0C031A4312014B
:100CB00081F80024007800F01F0104FA01F14009D6
:100CC000800000F1E020C0F8001110BC704701F076
:100CD0001F0004FA00F04909890001F1E021C1F880
:100CE000800110BC704700000CED00E0034940F0AB
:100CF000FD7040F080600860704700000CED00E07F
:100D000070B5002505F1B000C0B200F089F90120EE
:100D100000F086F9102000F083F900240026FFF788
:100D200077FD7820FFF740FDFFF7B4FD4020FFF787
:100D30003BFDFFF7AFFD3046FFF736FDFFF7AAFD9D
:100D4000FFF786FD601CC4B2802CE7D3681CC5B2D7
:100D5000082DD7D370BD70B54FF4FA7001F0FCF9CF
:100D6000AE2000F05DF9002000F05AF9102000F0EC
:100D700057F9402000F054F9812000F051F9CF20BC
:100D800000F04EF9A12000F04BF9C82000F048F91E
:100D9000A62000F045F9A82000F042F93F2000F01D
:100DA0003FF9D32000F03CF9002000F039F9D520BC
:100DB00000F036F9802000F033F9D92000F030F946
:100DC000F12000F02DF9DA2000F02AF9122000F0CD
:100DD00027F9DB2000F024F9402000F021F9202041
:100DE00000F01EF9022000F01BF98D2000F018F928
:100DF000142000F015F9A42000F012F9A62000F04C
:100E00000FF9AF2000F00CF90026354605F1B000CF
:100E1000C0B200F005F9012000F002F9102000F046
:100E2000FFF80024FFF7F4FC7820FFF7BDFCFFF784
:100E300031FD4020FFF7B8FCFFF72CFD3046FFF7EF
:100E4000B3FCFFF727FDFFF703FD611CCCB2802C3C
:100E5000E8D3681CC5B2082DD8D3BDE87040002186
:100E60000846AFF3008010B5044601F1B000C0B2EF
:100E700000F0D6F8102040EA141000F0D1F804F089
:100E80000F00BDE8104040F0010000F0C9B80000BC
:100E90002DE9F0478846814600255401FFF7E3FF1E
:100EA0001D4E375DFFF7B4FC7820FFF77DFCFFF7A0
:100EB000F1FC4020FFF778FCFFF7ECFC3846FFF729
:100EC00073FCFFF7E7FCFFF7C3FC681CC5B2641CAA
:100ED000102DE6D308F10100C1B24846FFF7C3FF69
:100EE0000025375DFFF794FC7820FFF75DFCFFF7E6
:100EF000D1FC4020FFF758FCFFF7CCFC3846FFF749
:100F000053FCFFF7C7FCFFF7A3FC681CC5B2641CC9
:100F1000102DE6D3BDE8F087382400082DE9F04F06
:100F200005461078002783B092468846002812BFF5
:100F3000DFF8E89003B0BDE8F08F1AF8070020381A
:100F4000C6B2782D04D908F10100002500F0FF0891
:100F500008F1B000C0B200F063F8102040EA151BA1
:100F6000584600F05DF805F00F00019040F00100D8
:100F700000F056F8002404EB061019F80000009069
:100F8000FFF746FC7820FFF70FFCFFF783FC4020BB
:100F9000FFF70AFCFFF77EFC0098FFF705FCFFF760
:100FA00079FCFFF755FC601CC4B2082CE3D308F1B0
:100FB000B100C0B200F034F8584600F031F80198A2
:100FC00040F0010000F02CF8002404EB0610484427
:100FD00090F808B0FFF71CFC7820FFF7E5FBFFF75F
:100FE00059FC4020FFF7E0FBFFF754FC5846FFF7A1
:100FF000DBFBFFF74FFCFFF72BFC601CC4B2082C97
:10100000E3D305F10800C5B2781CC7B21AF807008F
:10101000002892D103B0BDE8F08F0000002800083E
:1010200010B50446FFF7F4FB7820FFF7BDFBFFF790
:1010300031FC00B1FEE70020FFF7B6FBFFF72AFC0A
:101040002046FFF7B1FBFFF725FCBDE81040FFF796
:10105000FFBB7047044A0029116814BF084321EA06
:10106000000010607047000030380240044A002938
:10107000116814BF084321EA0000106070470000A7
:1010800040380240044A0029116814BF084321EA8D
:10109000000010607047000020380240044A002918
:1010A000116814BF084321EA000010607047000077
:1010B00044380240044A0029116814BF084321EA59
:1010C00000001060704700002438024010B41D4C2E
:1010D00021681D4A11F00C0118BF042901D008290C
:1010E00001D0026012E0194B1968196801F03F0144
:1010F000B2FBF1F11A68C2F3881251431A68C2F3C5
:101100000142521C5200B1FBF2F1016021680F2232
:101110000F4B02EA1111595C026822FA01F1416099
:1011200022684FF0070C0CEA92229A5C21FA02F234
:10113000826022680CEA52329A5CD140C16010BCD5
:10114000704700000838024040787D0104380240B2
:1011500076000020002101280CD0022810D003289E
:1011600013D004281CBF002070470A4A1068116081
:1011700000B270474FF08042506A516200B270472F
:10118000054A1068116000B27047044A1068116087
:1011900000B270472404004024080040240C0040A2
:1011A00070478A0721F0030101F1804101F5983170
:1011B000120F0F23D1F808C893402CEA0303C1F89B
:1011C0000838D1F8083890401843C1F8080870472B
:1011D000F0B587B001211520FFF73CFF00254AF24A
:1011E0000B008DF80C50032602908DF80D60012441
:1011F0008DF80F4002A93748FFF74EFA40208DF8CE
:101200000C5002908DF80D608DF80F4002A9324805
:10121000FFF742FA8DF80C5028278DF80D600297E1
:101220008DF80F4002A92D48FFF736FA01218803F7
:10123000FFF734FF00210220FFF7B3FF0321022054
:10124000FFF7AFFF0D210220FFF7ABFF05210020C4
:10125000FFF7A7FF42F2290004908DF814500C20EC
:101260008DF815008DF8164004A8FFF76FF80620DA
:101270008DF800008DF801408DF802408DF8034094
:101280006846FFF7F9FC09208DF800008DF8014051
:1012900002208DF802008DF803406846FFF7ECFC51
:1012A00017208DF800008DF801408DF802408DF870
:1012B00003406846FFF7E0FC8DF800708DF80140B0
:1012C00004208DF802008DF803406846FFF7D4FC37
:1012D00007B0F0BD000802400010024000000240CC
:1012E000B52828BF704700EE100AF8EEC00A9FED3F
:1012F000061A9FED060A064800EE810ABDEEC00AF6
:1013000010EE101A00F072BD555505420080BB4426
:1013100000000140B52828BF704700EE100AF8EE23
:10132000C00A9FED061A9FED060A064800EE810AE4
:10133000BDEEC00A10EE101A00F056BD555505421C
:101340000080BB4400000140B52828BF704700EE74
:10135000100AF8EEC00A9FED061A9FED060A06482D
:1013600000EE810ABDEEC00A10EE101A00F042BD78
:10137000555505420080BB4400000140B52828BFF8
:10138000704700EE100AF8EEC00A9FED061A9FEDB6
:10139000060A064800EE810ABDEEC00A10EE101AD9
:1013A00000F026BD555505420080BB4400000140B9
:1013B000F0B50D46064601218BB00846FFF76EFEDC
:1013C00001210846FFF746FE324F01220821384628
:1013D000FFF7B1F9012209213846FFF7ACF90122E4
:1013E0000A213846FFF7A7F901220B213846FFF7FB
:1013F000A2F94FF47062089202228DF824208DF831
:10140000252000248DF8264008A93846FFF744F926
:10141000ADF81450204DADF816400696ADF81C40BE
:1014200005A9284600F0EAFC684600F0D3FC6021DC
:10143000ADF800100121ADF802100294ADF80C4097
:101440006946284600F0B9FB0821284600F0E9FB70
:101450006946284600F0EBFB0821284600F02AFCEC
:101460006946284600F030FC0821284600F06EFC52
:101470006946284600F070FC0821284600F0A0FCD0
:101480000121284600F0F5F90121284600F0FAF97B
:101490000BB0F0BD0000024000000140F0B4224F4C
:1014A000224E234D01244FF0000C0028A7BFC7F89F
:1014B000B0C2C6F88042C7F8B042C6F880C2B8BF12
:1014C000404228601B481C4D002905DBC0F8A8C21B
:1014D000C0F8AC42296005E0C0F8A842C0F8ACC230
:1014E0004842286015491648002AA7BFC0F8B4C270
:1014F000C0F8AC42C0F8B442C0F8ACC2B8BF524267
:101500000A601049002B06DBC0F8A0C2C0F8A44254
:101510000B60F0BC7047C0F8A042C0F8A4C25842AB
:101520000860F0BC7047000000004042008041426B
:101530003C040140000041424004014034040140A9
:1015400000004242380401404FF0E02104280869BD
:101550000CBF40F0040020F00400086170477047A1
:101560003B4882B0016841F470010160394801686C
:1015700041F00101016038494FF0000CC1F800C092
:10158000026822F4102222F080720260031D334AA6
:101590001A60026822F4802202600A1DC2F800C0AC
:1015A000CDF800C0CDF804C0026842F48032026079
:1015B000026802F400320192009A521C0092019AD1
:1015C0001AB9009AB2F5A04FF2D1026812F4003FA6
:1015D00008BFCDF804C034D001220192204AD2F8CD
:1015E00000C04CF0805CC2F800C01E4AD2F800C0B7
:1015F0004CF4404CC2F800C00A680A600A6842F421
:1016000000420A600A6842F4A0520A60164A1A6050
:10161000026842F080720260026812F0007FFBD024
:10162000124A40F205701060086820F0030008605C
:10163000086840F002000860086800F00C00082804
:10164000FAD10B494FF00060086002B0704700000B
:1016500088ED00E0003802400838024010300024D5
:10166000403802400070004019544007003C0240DE
:1016700008ED00E030B4B0F820C02CF0100CA0F859
:1016800020C0048BB0F820C04FF6FF7524F47344DB
:1016900005EA0333234305EA02221A4305EA01114E
:1016A0002CF0A003194341F010010283018430BCE7
:1016B0007047000010B50A4C218A11F0010F08BFD5
:1016C00010BD084920460A8842F400420A800121E0
:1016D00000F0CCF82046BDE81040002100F0C9B869
:1016E00000400140700000202DE9F041224E012110
:1016F000304600F0CAF9012837D1FFF72BFD1F4D06
:1017000028600220FFF726FD1D4C20600320FFF714
:1017100021FD1C4F38600420FFF71CFDDFF86880B6
:10172000C8F80000194801682868FFF7F7F8184D55
:101730002860184801682068FFF722F9164C2060DD
:10174000164801683868FFF74DF9154F386015489D
:101750000168D8F80000FFF777F9134908600B68B3
:101760003A6821682868FFF799FE3046BDE8F041E5
:10177000012100F07BB800000014004010000020A0
:1017800014000020180000201C0000202000002071
:101790000000002024000020040000202800002079
:1017A000080000202C0000200C00002030B50D4661
:1017B000044685B001212020FFF758FC0194ADF8C4
:1017C00000500024104DADF80240ADF808406946C5
:1017D000284600F013FB01221146284600F0E5F9E7
:1017E00037218DF80C108DF80D4002218DF80E1068
:1017F00001218DF80F1003A8FFF73EFA01212846BA
:1018000000F037F805B030BD0014004030B50D468B
:101810000446012185B00804FFF740FC0194ADF8AF
:1018200000500024104DADF80840ADF80240694664
:10183000284600F0E3FA01221146284600F0B5F9E7
:101840000121284600F015F818208DF80C008DF8BD
:101850000D4001208DF80E008DF80F0003A8FFF752
:101860000BFA05B030BD000000400140C9430182C1
:1018700070470029018814BF41F0010121F00101E6
:10188000018070470029B0F8441014BF41F40041B2
:10189000C1F30E01A0F84410704710B5A0F18041CB
:1018A000B1F580314AD0B0F1804F5BD0A0F18041DA
:1018B000B1F580614CD0A0F18041B1F500615BD001
:1018C000A0F18041B1F5406160D0A0F18041B1F557
:1018D000805165D0A0F18041B1F5A0516AD0A0F14E
:1018E0008041B1F582316FD0A0F18041B1F5A031D6
:1018F00074D0A0F18041B1F5A2317AD0A0F180413D
:10190000B1F5A4317DD0A0F18041B1F5C05179D0BD
:10191000A0F18041B1F5E05175D0A0F18041B1F561
:10192000005118BF10BD01210802FFF7ABFBBDE855
:10193000104000214FF48070FFF7A4BB012108463E
:10194000FFF7B8FB0021BDE810400120FFF7B2BB54
:1019500001210220FFF796FB0021BDE81040022084
:10196000FFF790BB01210846FFF78CFB0021BDE883
:1019700010400120FFF786BB01210420FFF782FB06
:101980000021BDE810400420FFF77CBB01210820A6
:10199000FFF778FB0021BDE810400820FFF772BB7D
:1019A00001211020FFF76EFB0021BDE81040102040
:1019B000FFF768BB01212020FFF764FB0021BDE891
:1019C00010402020FFF75EBB01210220FFF772FBD1
:1019D0000021BDE810400220FFF76CBB0121080484
:1019E000FFF768FBBDE8104000214FF48030FFF79F
:1019F00061BB01214804FFF75DFB00214FF400307B
:101A000002E005E00FE018E0BDE81040FFF752BB30
:101A100001218804FFF74EFBBDE8104000214FF480
:101A20008020FFF747BB01214020FFF72BFB00215F
:101A3000BDE810404020FFF725BB01218020FFF7C3
:101A400021FB0021BDE810408020FFF71BBB30B414
:101A50000589B0F818C0048C25F0070529432CF03F
:101A6000030C2CF4407C40F201154CEA050C4FF6B7
:101A7000FF7505EA031324F022041A43224301816F
:101A8000A0F818C0028430BC7047038A0022808905
:101A90000B4200EA01001CBF0028012210467047DB
:101AA00070B50C46054608884988A28823894FF6F8
:101AB000FF7638B3042843D00828288C4ED020F471
:101AC00080502884B5F81CC0288C2CF4734C06EA8E
:101AD000022242EA0C0206EA03331A4306EA013103
:101AE00020F42040084340F48050AA832884A07941
:101AF000A98B21F44061A983A98B06EA0020084341
:101B0000A88370BD288C20F001002884B5F818C087
:101B1000288C06EA03131A432CF0F30C20F00A0079
:101B200042EA0C02084340F001002A832884E0883E
:101B3000298B21F00C012983298B0843288370BD50
:101B40002846FFF797FDA079298B21F4406129836E
:101B5000298B06EA00200843288370BD20F480709A
:101B60002884B5F81CC0288C06EA03131A4306EA39
:101B700001212CF0F30C20F4206042EA0C0208430F
:101B800040F48070AA832884E088A98B21F00C019E
:101B9000A983A98B0843A88370BD002101804180DF
:101BA00001228280C18001817047002A828914BF8E
:101BB000114322EA01018181704710B4028C22F0A6
:101BC00001020284028C8388B0F818C00C882CF0C3
:101BD000730C44EA0C0C8C8922F0020222434C88DC
:101BE0002243A0F18044B4F580341CBFA0F18044AE
:101BF000B4F582340DD1CC8922F0080222438C88BE
:101C000022F0040222430C8A23F4407323434C8ABB
:101C100023438380A0F818C089684163028410BC04
:101C20007047028B22F0080211430183704730B4E1
:101C3000028C22F010020284028C8388B0F818C053
:101C40000D882CF4E6444FF6FF7C0CEA05252C4366
:101C50008D8922F020020CEA05152A434D880CEAF2
:101C600005152A43A0F18045B5F580351CBFA0F1CC
:101C70008045B5F5823516D1CD8922F080020CEA77
:101C800005152A438D8822F040020CEA05152A43E7
:101C90000D8A23F440630CEA85052B434D8A0CEA38
:101CA000850C4CEA03038380048389688163028482
:101CB00030BC7047028B4FF6FF7322F4006203EAD8
:101CC000012111430183704730B4028C22F48072E9
:101CD0000284028C8388B0F81CC00C882CF0730C32
:101CE00044EA0C048D894FF6FF7C22F400720CEA62
:101CF00005252A434D880CEA05252A43A0F1804595
:101D0000B5F580351CBFA0F18045B5F5823516D1FB
:101D1000CD8922F400620CEA05252A438D8822F43D
:101D200080620CEA05252A430D8A23F440530CEA0D
:101D300005152B434D8A0CEA051C4CEA03038380EE
:101D400084838968C163028430BC7047828B22F02F
:101D5000080211438183704730B4028C22F4805210
:101D60000284038C8288B0F81CC00D884FF6FF7483
:101D70002CF4E64C04EA052545EA0C0C8D8923F485
:101D8000005304EA05352B434D8804EA05352B43FF
:101D9000A0F18045B5F580351CBFA0F18045B5F5B3
:101DA000823505D10D8A22F4804204EA851422434B
:101DB0008280A0F81CC089680164038430BC70472D
:101DC000828B4FF6FF7322F4006203EA0121114374
:101DD0008183704700210180418081808160818101
:101DE000C1810182418270474163704781637047BE
:101DF000C1637047016470474162704710B4028844
:101E00001C4BDFF874C0984218BF604511D0B0F188
:101E1000804F1CBFA0F18044B4F5806409D0A0F1CC
:101E20008044B4F500641CBFA0F18044B4F5406464
:101E300003D14C8822F070022243A0F18044B4F513
:101E400080541CBFA0F18044B4F5A05403D00C8989
:101E500022F44072224302804A68C2620A880285E4
:101E6000984212BF6045897A01864FF00101818254
:101E700010BC7047000001400004014010B5FEF79F
:101E80003FFF072203210020FFF702F80822032169
:101E90001020FEF7FDFF092203212020FEF7F8FFA6
:101EA0000A2203213020FEF7F3FF10A20321402075
:101EB000FFF734F8002211461046FEF7E9FF04222E
:101EC00000211020FEF7E4FF052200212020FEF76C
:101ED000DFFF062200213020FEF7DAFF0021BDE8F7
:101EE000104002A24020FFF719B800003A0000009D
:101EF00070B5144C40F22551204600F06EF80028D1
:101F000008BF70BD204600F0FDF80F4DC4B2288810
:101F100010F4004F18BF70BDFF2828BF40F40040E8
:101F20000ED20A4E00213046FFF766FF298819B904
:101F300001213046FFF79DFC054928880C54401CC0
:101F4000288070BD0050004070000020004001401B
:101F50008802002010B5194C40F22551204600F0AF
:101F60003CF8002808BF10BD204600F0CBF8144A0A
:101F7000C1B2108810F4004F18BF10BD10F4804F8C
:101F80004FF0000306D00A2908BF40F4004012D0E9
:101F9000138010BD0D2908BF40F480400BD0C0F362
:101FA0000D0C084C401C80B204F80C101080FE2868
:101FB00098BF10BDECE7108010BD00000048004045
:101FC00034000020880000200029818914BF41F4DA
:101FD000005121F400518181704710B401F01F02BB
:101FE0000124C1F3421304FA02F24FF0000C012B5A
:101FF00004BF83891A4004D0022B0CBF038A838A52
:102000001A40090A008804FA01F10840002A1CBF9E
:1020100000284FF0010C604610BC7047C1F342131A
:1020200001F01F014FF0010C0CFA01F1012B08BF68
:102030000C3003D0022B0CBF10301430002A026881
:1020400014BF114322EA01010160704730B5044614
:10205000008A85B00D46C98820F44050084320828C
:10206000A089A9882A8920F4037011436A8920F481
:10207000A05010430843A081A08AA98920F4407091
:102080000843A0826846FFF721F8A4F18040B0F52C
:1020900088301BBFA4F18040B0F58A3003980298C5
:1020A000A18911F4004F00EBC00101EB0010296879
:1020B00014BF49008900B0FBF1F0114A6FF0180C11
:1020C000A2FB0031490909010B0903FB0CF300EBEA
:1020D0008300A38913F4004F4FF0320314BF03EBC6
:1020E000C00003EB0010A2FB00204FEA501014BF09
:1020F00000F0070000F00F000843208105B030BD5C
:102100001F85EB518088C0F308007047FEE702E0AE
:1021100008C8121F08C1002AFAD170477047002072
:1021200001E001C1121F002AFBD1704710B504461F
:102130006FF00400FFF708FA0649E00800EB4002E0
:102140000870C2EBC0104FF6FF7202EAC000488070
:1021500010BD0000720000204FF40771B0FBF1F2D7
:10216000B0FBF1F330B401FB130012F0FF021ED0FC
:1021700012494FF407730024498801FB03F54FF01F
:10218000E0235D619C61196941F0010119611969E0
:1021900011F0010F02D011F4803FF8D0196921F03D
:1021A000010119619C61511E11F0FF02E9D1002863
:1021B00004BF30BC704730BC00F01EB87200002075
:1021C0000C49097848434FF0E021486100238B61B6
:1021D000086940F001000861086910F0010F02D0A1
:1021E00010F4803FF8D0086920F0010008618B618D
:1021F00070470000720000200C49498848434FF0A6
:10220000E021486100238B61086940F0010008610A
:10221000086910F0010F02D010F4803FF8D008696F
:1022200020F0010008618B617047000072000020FF
:10223000A820FFF77BFF4FF4A060FEF757FD4FF497
:10224000165000F0A3F84FF4165000F02DF842F2AB
:10225000CF016320FFF7DAFA372142F20F70FFF760
:10226000A7F842F2CF01C720FFF7A0FA292140F2D8
:10227000E730FEF737FCFEF7B1FCFEF7AFF8FEF7EC
:102280000FF9FEF761F9FEF7B3F9FEF7A1FFFEF7CC
:102290000DFCFDF7B7FFFEF763FAFEF75CFDFDF7F7
:1022A000A1FFFFF7EBFDFEE72DE9F0430746012113
:1022B00087B00805FEF7DAFE01210C20FEF7CAFE02
:1022C000DFF8BC9008220C214846FEF734FADFF80C
:1022D000B480082202214046FEF72DFA02258DF82F
:1022E00004504FF480508DF80550002400908DF874
:1022F000064001268DF8076069464846FEF7CCF98E
:102300008DF8045004208DF8055000908DF806409B
:102310008DF8076069464046FEF7BEF9DFF8688031
:10232000012240F225514046FFF778FE35208DF816
:1023300018008DF819508DF81A608DF81B6006A8EA
:10234000FEF79AFCADF810400C20ADF80C40ADF84B
:1023500012000297ADF80E40ADF8144002A94046B5
:10236000FFF774FE012240F225514046FFF756FE6A
:1023700001214046FFF728FE07B0BDE8F0830000CA
:1023800000080240000C024000500040F0B5064634
:1023900087B001210220FEF75DFE01218804FEF7CF
:1023A00065FE234F07220A213846FEF7C4F90722AB
:1023B0000B213846FEF7BFF902218DF814108DF875
:1023C00015104FF44060002404908DF8164001254C
:1023D0008DF8175004A93846FEF75EF9154F012213
:1023E00040F225513846FFF719FE27208DF81800D6
:1023F0008DF819508DF81A508DF81B5006A8FEF76D
:102400003BFCADF808400C20ADF80440ADF80A00E4
:102410000096ADF80640ADF80C4069463846FFF727
:1024200015FE01213846FFF7CFFD07B0F0BD0000D3
:102430000004024000480040404042CC000000FC44
:102440000404040404FC00000000003F1088402342
:10245000190101091123C0002030AC6320180004C9
:102460000404FC04040400002267221212124040FB
:1024700040407F40404040002030AC6330008092BC
:1024800092929292FE808000226722121200221401
:1024900048847F04081422000404E4040FF40404B4
:1024A000F444CF444444040040407D44447D4445CA
:1024B000447C44457C404000003E22E22222223EF1
:1024C0000000F80000FF00008141310F4181413FD1
:1024D00000000F40807F00002030AC6320180848C7
:1024E00048487F484848080022672212121200FE1E
:1024F0004242424242FE0000000000FE929292FEE2
:10250000929292FE0000000044442425140C04FF23
:10251000040C142524444400403C10FF10102010EB
:102520008F7808F808F80000020602FF0101044253
:1025300021184681403F0000404458C0FF504C00E5
:1025400022CC0000FF00000010080601FF01060079
:1025500004040404FF02020000FE00FC00FF00F27D
:10256000121AD61212F20200403F003F00FF804FC5
:1025700020180710204F80000000FC0404041415EC
:10258000569454341404040040300F0001010141FA
:10259000817F0101010503004030EF246448487F3A
:1025A0004848487F4848400001017F211100FF4909
:1025B00049494949FF0000004042CC0000809E92FA
:1025C000929292929E80000000007F209484442486
:1025D000140F142444848400000000000000000054
:1025E000002F000000000700070000147F147F1474
:1025F00000242A7F2A1200626408132300364955FA
:10260000225000000503000000001C2241000000D1
:1026100041221C000014083E08140008083E080867
:10262000000000A0600000080808080800006060C2
:102630000000002010080402003E5149453E000001
:10264000427F4000004261514946002141454B31E3
:10265000001814127F10002745454539003C4A49AF
:102660004930000171090503003649494936000621
:102670004949291E00003636000000005636000089
:102680000008142241000014141414140000412204
:10269000140800020151090600324959513E007CDC
:1026A0001211127C007F49494936003E41414122C6
:1026B000007F4141221C007F49494941007F0909AF
:1026C0000901003E4149497A007F0808087F00005F
:1026D000417F4100002040413F01007F081422411A
:1026E000007F40404040007F020C027F007F0408D2
:1026F000107F003E4141413E007F09090906003E2E
:102700004151215E007F0919294600464949493156
:102710000001017F0101003F4040403F001F204079
:10272000201F003F4038403F006314081463000737
:102730000870080700615149454300007F4141008E
:1027400000552A552A55000041417F00000402012E
:10275000020400404040404000000102040000200C
:1027600054545478007F484444380038444444204A
:1027700000384444487F00385454541800087E09F7
:1027800001020018A4A4A47C007F080404780000BF
:10279000447D4000004080847D00007F102844007C
:1027A0000000417F4000007C04180478007C08048D
:1027B000047800384444443800FC242424180018C9
:1027C000242418FC007C08040408004854545420B5
:1027D00000043F444020003C4040207C001C20403E
:1027E000201C003C4030403C004428102844001C81
:1027F000A0A0A07C004464544C4414141414141479
:1028000000000000000000000000000000000000C8
:10281000000000F80000000000000033300000005D
:1028200000100C06100C0600000000000000000064
:1028300040C07840C0784000043F04043F040400D6
:10284000007088FC08300000001820FF211E0000E6
:10285000F008F000E018000000211C031E211E00FB
:1028600000F00888700000001E2123241927211081
:1028700010160E0000000000000000000000000024
:10288000000000E0180402000000000718204000CB
:1028900000020418E00000000040201807000000BB
:1028A000404080F0804040000202010F010202001F
:1028B000000000F0000000000101011F0101010003
:1028C000000000000000000080B070000000000068
:1028D00000000000000000000001010101010101F1
:1028E0000000000000000000003030000000000088
:1028F000000000008060180400601806010000005D
:1029000000E010080810E000000F102020100F0059
:10291000001010F8000000000020203F20200000E0
:102920000070080808887000003028242221300038
:1029300000300888884830000018202020110E0040
:102940000000C02010F8000000070424243F2400E9
:1029500000F80888880808000019212020110E00BE
:1029600000E0108888180000000F112020110E00D0
:1029700000380808C83808000000003F00000000C8
:102980000070880808887000001C222121221C0089
:1029900000E010080810E0000000312222110F00B2
:1029A000000000C0C0000000000000303000000047
:1029B00000000080000000000000806000000000B7
:1029C00000008040201008000001020408102000D0
:1029D000404040404040400004040404040404001B
:1029E00000081020408000000020100804020100B0
:1029F000007048080808F0000000003036010000B0
:102A0000C030C828E810E0000718272423140B0062
:102A10000000C038E0000000203C230202273820DC
:102A200008F8888888700000203F202020110E00C0
:102A3000C0300808080838000718202020100800B7
:102A400008F808080810E000203F202020100F00A0
:102A500008F88888E8081000203F2020232018006C
:102A600008F88888E8081000203F200003000000D4
:102A7000C03008080838000007182020221E020075
:102A800008F808000008F808203F210101213F2034
:102A9000000808F8080800000020203F202000005F
:102AA00000000808F8080800C08080807F0000004F
:102AB00008F888C028180800203F20012638200088
:102AC00008F8080000000000203F202020203000EF
:102AD00008F8F800F8F80800203F003F003F200009
:102AE00008F830C00008F808203F200007183F0011
:102AF000E01008080810E0000F10202020100F0040
:102B000008F808080808F000203F21010101000032
:102B1000E01008080810E0000F18242438504F0077
:102B200008F8888888887000203F2000030C302037
:102B300000708808080838000038202121221C0075
:102B4000180808F8080818000000203F20000000BE
:102B500008F808000008F808001F202020201F00A7
:102B60000878880000C83808000007380E01000007
:102B7000F80800F80008F800033C0700073C0300D1
:102B8000081868808068180820302C03032C302037
:102B90000838C800C83808000000203F20000000A6
:102BA00010080808C83808002038262120201800FE
:102BB000000000FE020202000000007F40404000D2
:102BC000000C30C000000000000000010638C0000A
:102BD00000020202FE000000004040407F000000B2
:102BE00000000402020204000000000000000000D7
:102BF00000000000000000008080808080808080D5
:102C000000020204000000000000000000000000BC
:102C100000008080808000000019242222223F20B2
:102C200008F8008080000000003F112020110E00F5
:102C30000000008080800000000E11202020110084
:102C4000000000808088F800000E112020103F2036
:102C50000000808080800000001F222222221300BA
:102C6000008080F0888888180020203F2020000005
:102C70000000808080808000006B949494936000BA
:102C800008F8008080800000203F210000203F20C5
:102C900000809898000000000020203F20200000C5
:102CA000000000809898000000C08080807F0000B5
:102CB00008F8000080808000203F24022D30200092
:102CC000000808F8000000000020203F202000003D
:102CD0008080808080808000203F20003F20003F57
:102CE0008080008080800000203F210000203F2065
:102CF0000000808080800000001F202020201F0016
:102D0000808000808000000080FFA12020110E0044
:102D10000000008080808000000E112020A0FF8035
:102D2000808080008080800020203F2120000100E2
:102D30000000808080808000003324242424190037
:102D4000008080E0808000000000001F2020000044
:102D50008080000000808000001F202020103F2085
:102D6000808080000080808000010E300806010015
:102D700080800080008080800F300C030C300F00BA
:102D800000808000808080000020312E0E312000E5
:102D9000808080000080808080818E701806010015
:102DA00000808080808080000021302C2221300033
:102DB00000000000807C020200000000003F404054
:102DC00000000000FF00000000000000FF00000005
:102DD0000002027C800000000040403F0000000034
:102DE00000060101020204040000000000000000CF
:102DF000102E000800000020880000000E210008AE
:102E0000982E000888000020000800001E210008FD
:102E100000000000000000000000000000000000B2
:102E200000000000000000000000000000000000A2
:102E30000000000000000000000000000000000092
:102E400000000000000000000000204100002041C0
:102E50000000000000000000000000000000000072
:102E60000000000000000000000000000000000062
:102E70000000000000000000000000000000000052
:102E80000000000000000000000001020304010235
:082E9000030406070809000015
:040000050800018965
:00000001FF
