:020000040800F2
:10000000E80A0020D50200086D240008891F0008B6
:10001000D9220008D31B0008B935000800000000F1
:100020000000000000000000000000000D29000892
:10003000D51B000800000000BF270008FF2A0008A9
:10004000EF020008EF020008EF020008EF020008CC
:10005000EF020008EF020008EF020008EF020008BC
:10006000EF020008EF020008EF020008EF020008AC
:10007000EF020008EF020008EF020008EF0200089C
:10008000EF020008EF020008EF020008EF0200088C
:10009000EF020008EF020008EF020008EF0200087C
:1000A000EF020008EF020008EF020008EF0200086C
:1000B000EF020008EF020008EF020008EF0200085C
:1000C000EF020008EF020008EF020008EF0200084C
:1000D000EF020008EF020008EF020008E933000811
:1000E000EF020008EF020008EF020008EF0200082C
:1000F000EF020008EF020008EF020008EF0200081C
:10010000EF020008EF020008EF020008EF0200080B
:10011000EF02000875330008EF020008552C0008B4
:10012000EF020008EF020008EF020008EF020008EB
:10013000EF020008EF020008EF020008EF020008DB
:10014000EF020008EF020008EF020008EF020008CB
:10015000EF020008EF020008EF020008EF020008BB
:10016000EF020008EF020008EF020008EF020008AB
:10017000EF020008EF020008EF020008EF0200089B
:10018000EF020008EF02000800F002F800F092F819
:100190000AA090E8000C82448344AAF10107DA45E2
:1001A00001D100F087F8AFF2090EBAE80F0013F0A2
:1001B000010F18BFFB1A43F001031847DC4200008F
:1001C000FC420000103A24BF78C878C1FAD8520720
:1001D00024BF30C830C144BF04680C6070470000C1
:1001E0000023002400250026103A28BF78C1FBD840
:1001F000520728BF30C148BF0B6070476E2900F01E
:10020000B982702900F0FB83662903F00684652912
:1002100003F00384672903F00084612903F0FF835E
:1002200003681B0A28BF41F08001692900F084801F
:10023000642900F08180752900F07E806F2900F02C
:100240008883782900F0C783E92900F02383E42913
:1002500000F02083F52900F01D83EF2900F085834D
:10026000F82900F0C6830368DB0928BF41F080014C
:10027000632900F0AB87732900F0B087E32900F011
:10028000BB87F32900F0C087002070471FB503F03B
:10029000BFFB01F00FF804000020002103F0A2FBD7
:1002A000401C60600020002103F086FBE0601FBD61
:1002B00010B510BD00F0D0FF1146FFF7E7FF03F0C7
:1002C0001DFA01F0ADF803B4FFF7F2FF03BC01F033
:1002D000B1F800000948804709480047FEE7FEE7FB
:1002E000FEE7FEE7FEE7FEE7FEE7FEE7FEE7FEE7E6
:1002F00004480549054A064B70470000012B0008D9
:1003000089010008E8040020E80A0020E80600202F
:10031000E80600201CB50C46064B7B44694600905D
:10032000204600F040FA04460020694600F04EFAEC
:1003300020461CBDAF0400002DE9F0410646002414
:1003400010687529314616A510D000F07FF90028F5
:1003500002DA404213A507E031688A0701D512A5E9
:1003600002E0490704D511A5012401E000F077F966
:1003700000210A2206F1240709E0B0FBF2FCB0FBE1
:10038000F2F302FB1C00303078541846491C002858
:10039000F3D123462A463046BDE8F04100F091B93A
:1003A000000000002D0000002B00000020000000D5
:1003B0002DE9F05F894604464FF0000ADFF874B17A
:1003C000FB44C0F820A02046E1688847002874D08C
:1003D000252806D0D4E901219047206A401C2062DC
:1003E000F1E700265F462046E16888472028054659
:1003F00007DB312D05D2781910F8200C08B106431F
:10040000F1E7B00701D526F00406C4F81CA00027C8
:10041000C4F818A02A2D09D0284603F0E6F838B30E
:1004200004EB8708303DC8F8185019E059F8041B50
:10043000204604EB87029161E1688847012F054659
:1004400018D1E069002820DA26F020061DE0D8F84F
:10045000180000EB800005EB40003038C8F81800A9
:100460002046E1688847054603F0BFF80028EED132
:10047000012F0AD02E2D08D12046E16888477F1C25
:100480000546022F46F02006C4DBA069002803DAE7
:10049000404246F00106A061F00701D026F01006A8
:1004A0006C2D0BD0682D09D04C2D39D06A2D35D04C
:1004B000742D35D07A2D33D016E038E0E1682F4620
:1004C00020468847B842054609D16C2F26D04FF404
:1004D0008060E168064320468847054604E06C2FAB
:1004E0001AD04FF4807006430DB3A5F141001928CE
:1004F00002D8203546F400664A4629462046266042
:100500004E46FFF77BFE80B101280BD0F61D26F08A
:10051000070000F1080956E74020E4E78020D8E70B
:100520000020D6E706F104094DE7284652E7206A85
:10053000BDE8F09FD63F000010B5431C02E010F864
:10054000011B71B18107FAD14FF0013202C88C1A38
:100550008C4314EAC211F9D0C01A0A0603D0C01E97
:1005600010BDC01A10BD0A0401D0801E10BD0902C2
:10057000FCD0401E10BD00004FF0013C50F8042B91
:1005800051F8043B9A4221D1A2EB0C03934313EAA6
:10059000CC1317D150F8042B51F8043B9A4215D1D3
:1005A000A2EB0C03934313EACC130BD150F8042BAA
:1005B00051F8043B9A4209D1A2EB0C03934313EA8E
:1005C000CC13DBD04FF00000704700BFD01A01BA47
:1005D000B1FA81F101F0180122FA01F0CB40C1F12A
:1005E0002001DBB2C0B2C01A2CFA01F3D11A914338
:1005F00011EAC311E6D1704770477047704770B574
:10060000044685690068C10601D5302600E0202631
:10061000C00707D070BDD4E9012130469047206A59
:10062000401C20626D1EF6D570BD70B5044685690C
:100630000078C00707D170BDD4E901212020904780
:10064000206A401C20626D1EF6D570BD09684A05FF
:1006500001D540B27047C905FCD500B270470968A2
:100660004A0501D5C0B27047C905FCD580B27047B4
:1006700070B50C460546012A05D02878800600D5BD
:10068000EA69002302E0012305E05B1C934202D2E9
:10069000E05C0028F9D1A869E618C01AA861286AA8
:1006A000184428622846FFF7AAFF04E0D5E9012193
:1006B00014F8010B9047B442F8D32846FFF7B5FF72
:1006C00070BD2DE9F0470D4699469246044600F16B
:1006D00024080168880604D5E06921F01001216032
:1006E00000E00120A84201DD471B00E00027A169CE
:1006F0007A1902EB0900081AA0612078C00602D41A
:100700002046FFF77CFF002608E0D4E901211AF813
:1007100006009047206A401C761C20624E45F4DBA0
:100720002078C0060AD52046FFF769FF06E0D4E925
:10073000012130209047206A401C2062381EA7F11A
:100740000107F4DC07E0D4E9012118F8050090471F
:10075000206A401C2062281EA5F10105F3DC20461A
:10076000FFF763FF2078000602D50220BDE8F0877E
:100770000120FBE711680268006A530501D5087083
:100780000AE0D30501D5088006E0130603D5C21799
:10079000C1E9000200E008600120704701694A1CBD
:1007A00002610878704700B58FB0CDE901310021B2
:1007B000059105497944CDE9031011466846FFF7D4
:1007C000F7FD0FB000BD0000E5FFFFFF0A6802F86B
:1007D000010B0A60704700002DE9FF5F15468A464D
:1007E0000446DFF8AC80F8440027D8E900103E4604
:1007F000CDE9001010E03AF816106A4602A800F0A1
:1008000007FD411C07D02178890603D5E269391814
:1008100091420DD80744761C2078800602D5E06905
:10082000B84205DDAE42E6DB3AF816000028E2D118
:10083000A069C01BA0612046FFF7E1FED8E90010C7
:10084000CDE90010002017E03AF818106A4602A817
:1008500000F0DEFCB0F1FF3F81460BD000250DF12A
:10086000080B05E0D4E901211BF8050090476D1C39
:100870004D45F7D308F10100B0428046E4DB206A21
:10088000384420622046FFF7D0FEBDE8FF9F0000FD
:10089000C23B00002DE9F0418046D21D22F0070244
:1008A0000025D2E90002F52915A614D0011E72F127
:1008B000000106DA0023D0EB030063EB020211A66D
:1008C00008E0D8F800108B0701D50FA602E0490711
:1008D00001D50EA601251146002408F1240704E0E5
:1008E00000F098F830323A55641C50EA0102F7D112
:1008F0002B46324621464046BDE8F041FFF7E1BEB7
:10090000000000002D0000002B000000200000006F
:1009100030B4002100F1240408E002F00705D208F9
:10092000303542EA4372DB086554491C52EA03053C
:10093000F3D10468002310A2250707D5A40600D42C
:1009400021B1C46901230DA2641EC46130BCFFF74C
:10095000B8BE10B5044621461068FFF780FE024677
:100960002046BDE810400023D2E7D21D22F0070147
:10097000D1E90023CCE700000000000030000000B7
:10098000F0B40D460188090502D5214C7C4402E0F3
:100990001F4C7C440E34002100F1240608E002F0D4
:1009A0000F071209E75D42EA03721B097754491CDD
:1009B00052EA0307F3D102780023120704D5702D01
:1009C00006D009B1022311342246F0BCFFF779BEEC
:1009D00001231034F8E770B504460D46214610682F
:1009E000FFF73DFE024629462046BDE87040002341
:1009F000C6E7D21D22F00703D3E90023C0E703684E
:100A0000126843F0200303600823C3610023B7E7A3
:100A1000243A000030B5B0F10A024FEA900E71F1AD
:100A200000034EEA817EB0EB0E0061EB91014FEACC
:100A3000101E4EEA017E10EB0E0041EB11114FEA41
:100A4000102E4EEA016E10EB0E0041EB11214FEA21
:100A5000104E4EEA014E10EB0E0041EB11414018D2
:100A600041F100014FEAD00040EA41704FEAD10164
:100A700010EB80054FEA810444EA907444EB0104D2
:100A80006D1944EB0404521BA3414FF0000348BF0F
:100A90000A3200D530BD401C41F1000130BD704725
:100AA0002DE9FF4F0C461E464FF0FF378BB0D2E9C1
:100AB0000001DDF860800A908A46C1F30A5505B945
:100AC0003D46002108464FF00000BAF1000F00F447
:100AD000400005DA00EB80004FF4400101EA5000CD
:100AE0004FEA9059B9F1010F00DDB9460A9850EA72
:100AF0004A000ED044F61050A5F2FF3545432F149E
:100B0000B8F1000F1ED07542291E1EDDC9F100028A
:100B10001CE0B8F1010F4FF0000001D0302103E0DC
:100B2000F24305E02154401CB042FBDB304600227A
:100B3000002121540B99C1F80880C1E900200FB0B1
:100B4000BDE8F08FBD1B6D1CDEE74A4600DA694246
:100B500006A800F0F3FB06AB93E8070003AB83E8BD
:100B6000070050460A9900F06CFC8DE80700A0F5DC
:100B700000501F3800900398002D0ADD42F21F013B
:100B80004A460844002303A90390684600F0D5FEB6
:100B900009E0A0F500504A461F38002303A903903E
:100BA000684600F0DFFE8DE807000004000C03D06B
:100BB0004FF0FF30410800E01046B8F1000F03D0BD
:100BC0000022009215461EE0751E05D4FFF722FF95
:100BD000303262556D1EF9D5B3460122084302D06A
:100BE00000227F1C04E02078302801D100227F1EE3
:100BF000002A099784D01DE0112D07DAFFF70AFFBC
:100C0000303262556D1C50EA0102F5D1084302D022
:100C10000098C8B10EE00021681E05E0235C625C0C
:100C200063542254401E491C8142F7DBAB46A81B8B
:100C3000401E0990002004F80B000B98099AC0F898
:100C40000880C0E9002B7AE711264FF0000857E72B
:100C50002DE9F04F88460446D21D22F0070191B0DD
:100C6000D1E90001CDE90A0102F0A7FC02460B9888
:100C7000C00F01D02D2007E02068810701D52B206F
:100C800002E0202101EAC000032A099001D0072ACE
:100C900005DB03464146204600F010FB0BE12078BF
:100CA000800601D5E06900E00620B8F1650F8146B5
:100CB00006D0B8F1660F18D0B8F1670F70D131E0E7
:100CC0000020B9F1110F009001DB112301E009F1BF
:100CD00001030AAA01A90CA8FFF7E2FEDDE90C70E6
:100CE000002609F10105834647E001204B460090AC
:100CF0004FF000470AAA01A90CA8FFF7D1FEDDE9D1
:100D00000DB00C995D46002610B909F101000D18CF
:100D1000B9EB050003D4C0F1FF3609F10105A5EBDD
:100D200009002BE0B9F1010F01DA4FF001090020B1
:100D3000B9F1110F0090484601DD112300E0034690
:100D40000AAA01A90CA8FFF7ABFEDDE90C704D461D
:100D500000268346207800070AD4AB4500DA5D46BA
:100D600001A8012D04DD411911F8011C302907D01B
:100D70004F4502DA17F1040F04DA012082460FE032
:100D80006D1EEEE7002F02DCED1B3E4403E0781CF5
:100D9000A84200DD7D1CB81B00F1010A4FF000479E
:100DA0002078000703D4AA4501DB4FF0FF3A002169
:100DB000B7F1004F0DF143088DF8431024D0022005
:100DC0002B23002F01DA7F422D230A21021EA0F1DE
:100DD000010000DC5FB197FBF1FC97FBF1F201FB36
:100DE0001C7C17460CF1300C08F801CDEEE7A8F199
:100DF000010003702188090501D5452100E0652126
:100E0000A0F1010800F8011C09980FA9A1EB08073F
:100E1000FF1D00B10120411901EBEA70A1693844BE
:100E2000081A401EA0612078C00602D42046FFF7B1
:100E3000E6FB099828B1D4E901219047206A401CBB
:100E400020622078C00622D52046FFF7D8FB1EE09E
:100E5000002E04DBB34502DD01A8805D00E03020F8
:100E6000D4E901219047206A401C2062761CAAF137
:100E700001005FEA000A0AD100F01CFAC0680168AC
:100E8000405CD4E901219047206A401C2062281E62
:100E9000A5F10105DCDC07E0D4E9012118F8010B1C
:100EA0009047206A401C2062381EA7F10107F3DC3E
:100EB0002046FFF7BAFB032011B041E62DE9F04FC1
:100EC00004460D46D21D22F0070089B0D0E90097F4
:100ED0004846394602F071FB0246F80F01D02D2337
:100EE00007E02068810701D52B2302E0202101EAD9
:100EF000C0038DF820300BB1012000E00020032A50
:100F0000824601D0072A04DB2946204600F0D6F9A4
:100F10003FE12078800601D40D2500E0E569C7F3A4
:100F20000A560D2D49DA00214FEA175B08464FF0AB
:100F30000000002F00F4400007DA00EB80004FF4BF
:100F4000400100EBD07001EA60008115012901DD4C
:100F50004FF0FF3100224FEA850CBCF1180F06D389
:100F60001346ACF118004FF08052C24003E04FF43A
:100F7000801323FA0CF30CF10C0CBCF1200F04D3FA
:100F8000ACF1200C09FA0CF001E007FA0CF0002992
:100F90004FF0004801DD18B90FE00ED140450CD3E9
:100FA00019EB02095F4121B9404502D19F4329EA6B
:100FB0000209BBEB175F00D0761C2088000502D524
:100FC0007B48784402E07A487844193808AA3023EC
:100FD00002F80A30037C0AF10101002E0AF1020A2C
:100FE00053546A4602DC4FF0300101E04FF031010A
:100FF0004FF001088DF8001002D0A6F2FF3603E092
:1010000059EA470100D06B4E002D02DC2178090718
:1010100004D54FF002082E218DF80110C44600219E
:101020000BE0C7F303433F01C35C491C6D1E02F88C
:101030000830052908F1010801DA002DF1DC002152
:101040000CE000EB1973491C1B786D1E082902F88F
:1010500008304FEA091908F1010801DA002DF0DC27
:1010600021688B0602D516E0A8F10108E04505DDF0
:1010700002EB080313F8013C302BF5D0B8F1000F58
:1010800009DD02EB080313F8013C2E2B03D10907FD
:1010900001D4A8F10108002D05DD3E2102F8081059
:1010A0006D1E08F10108407C002E02F8080008F1CE
:1010B000010804DA2D20764202F8080002E02B2015
:1010C00002F808000A214FF47A70864208F10108FC
:1010D0000BDB96FBF0F3303302F8083096FBF0F3AD
:1010E00008F1010800FB136601E0642E0CDB6420AC
:1010F00096FBF0F3303302F8083096FBF0F308F17A
:10110000010800FB136601E00A2E06DB96FBF1F0F6
:10111000303002F8080008F1010896FBF1F001FBFD
:101120001060303002F80800A16908F1010808EBEE
:10113000050202EB0A00081AA0612078C00602D45A
:101140002046FFF75CFA216A08AE01EB0A00206234
:1011500004E0D4E9012116F8010B9047BAF1010A25
:10116000F7D22078C00602D52046FFF748FA6E462F
:1011700009E016F8010B3E280FD0D4E90121904771
:10118000206A401C2062B8F10108F2D22046FFF725
:101190004CFA09B00320BDE8F08F206A2844206291
:1011A00003E0D4E90121302090476D1EEBD3F8E72E
:1011B0002934000002FCFFFF10B5436913B1AFF3FF
:1011C000008001E0FFF754FA012010BD127800F111
:1011D00024010A7000224A700122EDE711684FF0E5
:1011E000FF32E9E710B5436913B1AFF3008001E0C6
:1011F000FFF7F2FA012010BD128800F12401828469
:101200000022C2840122EDE711684FF0FF32E9E7C6
:1012100070B516460C46054600F044F8036893F88E
:101220000101012806D0FF2C0FD8185D68B10120FC
:101230002C7070BDD3F807013246214603F2071324
:1012400003442846BDE8704018474FF0FF3070BD9A
:1012500000487047880400207546FFF7F9FFAE4646
:1012600005006946534620F00700854618B020B5B2
:10127000FFF73EF8BDE820404FF000064FF00007B2
:101280004FF000084FF0000B21F00701AC46ACE82E
:10129000C009ACE8C009ACE8C009ACE8C0098D469B
:1012A0007047000010B500F005F8001D10BD00BF2C
:1012B0003527000000487047A80400202DE9F041C0
:1012C0001F46044603260168072A01F4006004DB78
:1012D00008B116A505E016A503E008B115A500E0C4
:1012E00015A521F010002060A069C01EA0610FB1FB
:1012F000401EA0612046FFF782F94FB1D4E90121D9
:1013000038469047206A401C2062C01C206206E0DC
:10131000206AFAE7D4E9012115F8010B9047761EFF
:10132000F8D22046FFF781F9BDE8F0814E414E002A
:101330006E616E00494E4600696E66002DE9F04709
:10134000814616468AB0354878440DC88DE80D00B0
:1013500032487844801C03AC0DC884E80D0041F687
:101360009B300844372190FBF1F290FBF1F5A5F199
:10137000800501FB12041B3C02D56442012000E001
:101380000020DFF898A080460027FA44AAF1BE0AA0
:101390000EE0E0070AD03246684607EB470101231A
:1013A0000AEB810100F0DEFA8DE8070064107F1C73
:1013B000002CEED1194F7F44AE3F19E0E80715D05D
:1013C00007EB04100DF1180A90E80E008AE80E00F1
:1013D000C068F04201D1981908903246012306A94D
:1013E00003A800F0BFFA03AB83E807006D10641C8C
:1013F000002DE3D14FF0010332466946B8F1000FEA
:1014000003A802D000F099FA01E000F0ABFAC9E9B4
:101410000001C9F808200AB0BDE8F08734310000A7
:1014200010B50446AFF300802046BDE81040FEF73B
:101430004ABF000001491820ABBEFEE726000200AB
:1014400070475FEA400C08BF91F0000F4FEA8C2311
:101450004FEAC12243EA51514FEA1C5018BF00F530
:10146000F0404FEA300018BF41F000415FEA6C5C89
:1014700000F02980BCF1FF3F08BF40F0804070477A
:10148000130C06BF12044FF0100C4FF0000C130E9B
:1014900004BF12020CF1080C130F04BF12010CF16F
:1014A000040C930F04BF92000CF1020CD30F04BF85
:1014B00052000CF1010C11464FF00002A0F11F0088
:1014C000A0EB0C00704711F0004F08BF704731F0DF
:1014D00000413FF4D5AF0B0C06BF09044FF0100CD0
:1014E0004FF0000C0B0E04BF09020CF1080C0B0F9F
:1014F00004BF09010CF1040C8B0F04BF89000CF12F
:10150000020CCB0F04BF49000CF1010CCCF12003FD
:10151000A0EB0C0022FA03F302FA0CF241EA0301F9
:1015200000F10100704720F07F4C80EA030023F0B7
:101530007F47ACEB070303F57C5300F0004003F159
:10154000FF032DE980494FEA154B09B44FEA1443D4
:1015500025EA0B4E24EA03480FF2042606EB132774
:1015600049083E785FEA320203FB0667C7F50007C9
:1015700007FB06F64FEA54374FEAD64606F1020655
:1015800007FB066CCCF1005C4FEA1C472CEA074CC9
:1015900007FB06F40CFB06F504EB15464FEA96161E
:1015A00034BF00204FF000404FEAD13706FB07FC64
:1015B0004FEA1C4C0CFB0BF7D21B03FB0CF761EB47
:1015C00007010CFB0EF7B0EB074072EB17420CFB68
:1015D00008F734BFA2EB0742B2EB074261EB1741B9
:1015E0004FEA0C444FEA910706FB07FC4FEA1C4CFC
:1015F0000CFB0BF7B0EBC74072EB573203FB0CF759
:1016000034BFA2EBC742B2EBC74261EB57310CFBD0
:101610000EF7B0EBC70072EB57720CFB08F734BF44
:10162000A2EBC702B2EBC70261EB5771039F4FEA0F
:10163000816141EA921104EBCC044FEAD1374FEAC1
:10164000826206FB07FC42EA90124FEA80604FEA92
:101650001C4C0CFB0BF7D21B03FB0CF761EB0701D7
:101660000CFB0EF7B0EB074072EB17420CFB08F7D0
:1016700034BFA2EB0742B2EB074261EB17414FEADE
:101680008C554FEA910704EB9C2406FB07FC4FEABC
:101690001C4C0CFB0BF7B0EBC74072EB573203FB53
:1016A0000CF734BFA2EBC742B2EBC74261EB573134
:1016B0000CFB0EF7B0EBC70072EB57720CFB08F790
:1016C00034BFA2EBC702B2EBC70261EB577115EB57
:1016D0004C254FEA816141EA92114FEA82624FEA5A
:1016E000D13742EA901206FB07FC44F100044FEAAE
:1016F00080604FEA1C4C0CFB0BF7D21B03FB0CF772
:1017000061EB07010CFB0EF7B0EB074072EB1742E1
:101710000CFB08F734BFA2EB0742B2EB074261EBC8
:10172000174115EB1C154FEA813141EA92414FEA0E
:10173000823242EA90424FEA80304FEA0C7644F11E
:10174000000448EA03434EEA0B484FF0000EB2EBA8
:10175000080C71EB030724BF624639464EEB0E0EB0
:101760004FF0000B0018524149414BEB0B0BB2EB11
:10177000080C71EB03077BF1000B24BF624639466E
:101780004EEB0E0E4FF0000B0018524149414BEB4F
:101790000B0BB2EB080C71EB03077BF1000B24BFC2
:1017A000624639464EEB0E0E51EA020718BF46F06C
:1017B000010616EB0E7655F1000254F1000103D537
:1017C000BDE88901BDE80088BDE88901BDE80048A1
:1017D000B619524141EB0101A3F10103704780802A
:1017E0007F7E7D7C7B7A797877767675747372717B
:1017F00071706F6E6E6D6C6C6B6A6A696868676633
:1018000066656464636362616160605F5F5E5E5DC4
:101810005D5C5C5B5B5A5A59595858575756565538
:1018200055555454535352525251515050504F4F9A
:101830004F4E4E4D4D4D4C4C4C4B4B4B4A4A4A49EA
:10184000494948484847474747464646454545442D
:101850004444444343434342424242414141002BBA
:101860009C4630D477002BD01CB54FEA370703B421
:101870004FF010004FF01001BAF1000F06D0BCF18C
:10188000000FDCBF40F0080040F008014FF00000FE
:101890000FBCBDE810400BF1010BBBF1010F08BFFD
:1018A0005FEA170722BF12F1010211F101014FF0A7
:1018B000004143F1000300F0004043EA000070479C
:1018C000F9D35708D0E746EA064613F1400F4FEA2E
:1018D00016461FDD13F1200FDFBF16430A46002115
:1018E00020335B42BED0C3F1200746EA064602FA27
:1018F00007F74FEA164646EA0706C3F1200722FA21
:1019000003F201FA07F721FA03F14FF0000342EA6C
:101910000702A7E746EA020646EA06464FEA1646E7
:1019200046EA0106BCBF46EA0646360C4FF0000305
:101930004FF000024FF0000194E72DE9804C9A46E9
:10194000934670B491E8380007C831EA400C48BFAC
:1019500034EA430C03D5FFF7E6FDFFF780FFF0BC48
:10196000BDE8008C2DE9804C9A46934670B491E80E
:10197000380007C810F0804F08BF13F0804F03D124
:1019800000F005F8FFF76BFFF0BCBDE8008C20F01D
:101990007F4780EA030023F07F4C07EB0C03A3F59D
:1019A0007C5300F00040A3F1FE0392F0000F00F022
:1019B000B38095F0000F00F077802DE901494FEAE0
:1019C00011404FEA144621EA004800FB06FC24EAD5
:1019D000064708FB06F607FB08F800FB07F718EBBD
:1019E00006484CEB164C4FEA124B18EB07484FEAEF
:1019F00015464CEB174022EA0B4E0BFB06FC25EA82
:101A000006470EFB06F607FB0EFE0BFB07F71EEB69
:101A1000064E4CEB164C4FF000061EEB074E4CEBFF
:101A2000174B18EB0B0840F1000018EB0E0B58EBAE
:101A3000000840F100008F1A4FF000013CBFC9437D
:101A4000661B14BFB5EB040C00213CBFC943F61B59
:101A50004FEA17444EEA8E0E27EA04454FEA1C4728
:101A600004FB07622CEA074C05FB07F70CFB05F6A5
:101A700004FB0CFC16EB074642EB174216EB0C4638
:101A800042EB1C421BEB060658EB0202414146EAC0
:101A90009E0601D5BDE80189B619524141EB01010D
:101AA000A3F10103BDE801894FEA14454FEA11474C
:101AB00024EA054621EA074C05FB07F406FB07F775
:101AC0000CFB06F105FB0CFC11EB074144EB174442
:101AD0004FEA124711EB0C4144EB1C4422EA074C3D
:101AE00005FB07F206FB07F70CFB06F605FB0CFCF3
:101AF00016EB074642EB174216EB0C4642EB1C4531
:101B00006A1854F1000148BF7047B619524141EBC1
:101B10000101A3F10103704795F0000F37D04FEAA0
:101B200011424FEA144721EA024624EA074C02FB1D
:101B300007F106FB07F70CFB06F402FB0CFC14EBA9
:101B4000074441EB17414FEA154714EB0C4441EBB6
:101B50001C4125EA074C02FB07F506FB07F70CFBC7
:101B600006F602FB0CFC16EB074645EB174516EB99
:101B70000C4645EB1C42121951F1000148BF704759
:101B8000B619524141EB0101A3F1010370474FEA3D
:101B900014454FEA114724EA054621EA074C05FBA4
:101BA00007F106FB07F70CFB06F24FF0000605FBFA
:101BB0000CFC12EB074241EB174112EB0C4251EBCC
:101BC0001C4148BF7047921841EB0101A3F101038A
:101BD0007047FEE770470000F0B501218BB0084662
:101BE00000F0FAFD0121084600F0EAFD0121022083
:101BF00000F0E6FD274F01220F21384600F099F949
:101C0000254E01220321304600F093F902244FF4BF
:101C100000408DF81440012504908DF817508DF880
:101C2000154004A9384600F035F908208DF81C400D
:101C300006908DF81F508DF81D4006A9304600F023
:101C400029F9600701F0AFF800244FF6FF70ADF8F6
:101C500000400190ADF80840ADF802406946A80781
:101C600001F048FB0A231A460321580701F075F9D1
:101C700008A801F018FA0620ADF8280008A9A8075E
:101C800001F094F9A8074462012101F078F80BB043
:101C9000F0BD0000000002400004024030B589B0F1
:101CA0000121022000F098FD0121084600F088FD86
:101CB000214C02220621204600F03BF90222072196
:101CC000204600F036F9C021049102218DF814104D
:101CD00001228DF817208DF8151004A9204600F078
:101CE000D9F8164D284601F05EF800244FF6FF7132
:101CF000ADF800400191ADF80840ADF802406946EA
:101D0000284601F0F7FA0A231A460321284601F073
:101D100024F906A801F0C7F90621ADF8201006A99C
:101D2000284601F043F9064804600121284601F0E5
:101D300026F809B030BD0000000002400004004059
:101D40002404004030B589B00121042000F044FD96
:101D50000121022000F034FD214C02220621204600
:101D600000F0E7F802220721204600F0E2F8C02147
:101D7000049102218DF8141001228DF817208DF89E
:101D8000151004A9204600F085F8164D284601F0EC
:101D90000AF800244FF6FF71ADF800400191ADF84C
:101DA0000840ADF802406946284601F0A3FA0A232C
:101DB0001A460321284601F0D0F806A801F073F96D
:101DC0000621ADF8201006A9284601F0EFF80648D4
:101DD00004600121284600F0D2FF09B030BD0000A8
:101DE00000040240000800402408004030B589B0DB
:101DF0000121082000F0F0FC0121084600F0E0FC81
:101E0000214C02220021204600F093F802220121F9
:101E1000204600F08EF80321049102218DF8141061
:101E200001228DF817208DF8151004A9204600F026
:101E300031F8164D284600F0B6FF00244FF6FF712A
:101E4000ADF800400191ADF80840ADF80240694698
:101E5000284601F04FFA0A231A460321284601F0CA
:101E60007CF806A801F01FF90621ADF8201006A99C
:101E7000284601F09BF8064804600121284600F03E
:101E80007EFF09B030BD000000000240000C0040A1
:101E9000240C00402DE9F0010022012603270B68E5
:101EA00006FA02FC03EA0C0363453BD105685300C4
:101EB00007FA03F4A54305600D79D0F800809D4032
:101EC00045EA080505600D79012D18BF022D1AD1CC
:101ED000856825EA040585604D79D0F8088005FA03
:101EE00003F545EA08058560456825EA0C0CC0F84D
:101EF00004C0D0F804C08D7905FA02F5ADB24CEA01
:101F0000050CC0F804C0D0F80CC02CEA040CC0F8D2
:101F10000CC091F807C00CFA03F3D0F80CC043EAE8
:101F20000C03C36002F10102102AB8D3BDE8F0012E
:101F300070474B07DB0E9A40C90800EB8100016A2D
:101F40004FF00F0C0CFA03F399430162016A11433D
:101F50000162704708B5009313460A46014602A085
:101F600001F0A8FC08BD0000413D2025642C204262
:101F70003D2025642C20433D2025642C20443D2019
:101F800025640D0A00000000FEE7000010B582B0D5
:101F90000121022000F014FC4FF440700124009055
:101FA0008DF8044000208DF8060003208DF8050010
:101FB0008DF8074069460548FFF76CFF0448C0F8F4
:101FC000A042C0F8A44202B010BD000000040240CC
:101FD000008040422DE9F04105461648016821F491
:101FE00040210160016841F480210160124E4FF0F0
:101FF0000008C6F8A0824446012715F0800F14BFE0
:10200000C6F8A472C6F8A4826806050E052001F081
:102010003DFBC6F8A072052001F038FBC6F8A0828F
:10202000052001F033FB601CC4B2082CE5D3BDE8E9
:10203000F0810000000C02400080404270B50D4865
:10204000016821F440210160016841F480210160B0
:10205000094C0120C4F8A402C4F8A002022004F52F
:10206000287401F013FB00256560022001F00EFBCF
:10207000256070BD000C0240008040420E4810B543
:10208000016821F440210160016841F48021016070
:102090000A4C0020C4F8A002C4F8A402022004F5EF
:1020A000287401F0F3FA012020606060BDE8104060
:1020B000022001F0EBBA0000000C02400080404218
:1020C0002DE9F0411E4E0024306820F4402030609D
:1020D000306830601B4D0127C5F8A472384601F006
:1020E000D5FAC5F8A072012001F0D0FAD5F8240283
:1020F000002100B3601CC4B2FA2C18D9306820F457
:1021000040203060306840F480203060C5F8A01274
:10211000C5F8A412022001F0B9FAC5F8A072C5F8FA
:10212000A472022001F0B2FA0120BDE8F081D5F8D6
:1021300024020028DED1C5F8A0120020BDE8F081FD
:10214000000C024000804042164A401A1169D2ED4C
:10215000000A411A00EE101A92ED011AB8EEC00AF8
:1021600060EE200A00EE100AB8EEC00A41EE000A46
:1021700092ED030AB8EEC00A30EE800ABDEEC00A46
:1021800010EE101AC2E90310B1F57A7FC8BF4FF400
:102190007A7005DC11F57A7FB2BF0348D0687047CA
:1021A000D06070473400002018FCFFFF164A401A28
:1021B000D169D2ED000A411A00EE101A92ED011A0F
:1021C000B8EEC00A60EE200A00EE100AB8EEC00AAF
:1021D00041EE000A92ED060AB8EEC00A30EE800A1F
:1021E000BDEEC00A10EE101AC2E90610B1F57A7FF2
:1021F000C8BF4FF47A7005DC11F57A7FB2BF03488F
:1022000090697047906170473400002018FCFFFF10
:10221000164A401A916AD2ED000A411A00EE101ACD
:1022200092ED011AB8EEC00A60EE200A00EE100A24
:10223000B8EEC00A41EE000A92ED090AB8EEC00AF3
:1022400030EE800ABDEEC00A10EE101AC2E9091085
:10225000B1F57A7FC8BF4FF47A7005DC11F57A7F4B
:10226000B2BF0348506A7047506270473400002084
:1022700018FCFFFF164A401A516BD2ED000A411AB2
:1022800000EE101A92ED011AB8EEC00A60EE200AB4
:1022900000EE100AB8EEC00A41EE000A92ED0C0AF8
:1022A000B8EEC00A30EE800ABDEEC00A10EE101A79
:1022B000C2E90C10B1F57A7FC8BF4FF47A7005DC23
:1022C00011F57A7FB2BF0348106B704710637047F7
:1022D0003400002018FCFFFFFEE700002DE9F0416C
:1022E0000D4607468CB00121022000F08DFA012135
:1022F000042000F065FADFF8D4800322062140466E
:10230000FFF717FE032207214046FFF712FE0322C4
:1023100008214046FFF70DFE032209214046FFF742
:1023200008FE02228DF81C204FF47F708DF81D20CE
:10233000002406908DF81E4001268DF81F6006A926
:102340004046FFF7A7FDADF82050214DADF82240E3
:102350000997ADF8284008A9284600F0CBFF684649
:1023600000F0BEFF6021ADF800100294ADF80260ED
:10237000ADF80C406946284600F0A5FE0821284625
:1023800000F0D5FE6946284600F0D7FE0821284611
:1023900000F016FF6946284600F01CFF0821284679
:1023A00000F05AFF6946284600F05CFF08212846E5
:1023B00000F08CFF0121284600F0E1FC01212846B5
:1023C00000F0E6FC0CB0BDE8F0810000000802401F
:1023D0000004014070B588B001211D2000F0F0F923
:1023E00001248DF8044003254FF480508DF80550EA
:1023F000002600908DF806608DF807406946174862
:10240000FFF748FD8DF81C408DF81D508DF81E60BB
:1024100006948DF81F4006A91148FFF73BFD8DF883
:102420000C40A8028DF80D5002908DF80E608DF8CA
:102430000F4002A90B48FFF72DFD8DF814404FF413
:102440002C508DF8155004908DF816608DF81740BB
:1024500004A90548FFF71EFD08B070BD000002404A
:10246000000C0240000802400010024070470000CB
:1024700010B4C27801784FF00F0C01241AB3184A37
:10248000126801F1E02102F4E062C2F5E062C2F3F9
:102490000722C2F104032CFA02FC42789A408378A6
:1024A00003EA0C031A43120181F80024007800F0BB
:1024B0001F0104FA01F14009800000F1E020C0F89A
:1024C000001110BC704701F01F0004FA00F0490928
:1024D000890001F1E021C1F8800110BC70470000C3
:1024E0000CED00E0034940F0FD7040F080600860B2
:1024F000704700000CED00E070B5002505F1B0005C
:10250000C0B200F043F9012000F040F9102000F0C3
:102510003DF900240026FFF791FD7820FFF75AFDD2
:10252000FFF7CEFD4020FFF755FDFFF7C9FD304610
:10253000FFF750FDFFF7C4FDFFF7A0FD601CC4B21C
:10254000802CE7D3681CC5B2082DD7D370BD70B5F9
:102550004FF4FA7001F066F8AE2000F017F9002091
:1025600000F014F9102000F011F9402000F00EF9ED
:10257000812000F00BF9CF2000F008F9A12000F035
:1025800005F9C82000F002F9A62000F0FFF8A82005
:1025900000F0FCF83F2000F0F9F8D32000F0F6F846
:1025A000002000F0F3F8D52000F0F0F8802000F0D3
:1025B000EDF8D92000F0EAF8F12000F0E7F8DA2091
:1025C00000F0E4F8122000F0E1F8DB2000F0DEF883
:1025D000402000F0DBF8202000F0D8F8022000F0C6
:1025E000D5F88D2000F0D2F8142000F0CFF8A42008
:1025F00000F0CCF8A62000F0C9F8AF2000F0C6F833
:102600000026354605F1B000C0B200F0BFF8012049
:1026100000F0BCF8102000F0B9F80024FFF70EFD20
:102620007820FFF7D7FCFFF74BFD4020FFF7D2FCE7
:10263000FFF746FD3046FFF7CDFCFFF741FDFFF702
:102640001DFD611CCCB2802CE8D3681CC5B2082DDE
:10265000D8D3BDE8704000210846AFF3008010B524
:10266000044601F1B000C0B200F090F8102040EA3A
:10267000141000F08BF804F00F00BDE8104040F09B
:10268000010000F083B800002DE9F04F05461078F6
:10269000002783B092468846002812BFDFF8E890F2
:1026A00003B0BDE8F08F1AF807002038C6B2782DC5
:1026B00004D908F10100002500F0FF0808F1B0007E
:1026C000C0B200F063F8102040EA151B584600F035
:1026D0005DF805F00F00019040F0010000F056F8A1
:1026E000002404EB061019F800000090FFF7A6FC88
:1026F0007820FFF76FFCFFF7E3FC4020FFF76AFC50
:10270000FFF7DEFC0098FFF765FCFFF7D9FCFFF749
:10271000B5FC601CC4B2082CE3D308F1B100C0B210
:1027200000F034F8584600F031F8019840F001000C
:1027300000F02CF8002404EB0610484490F808B090
:10274000FFF77CFC7820FFF745FCFFF7B9FC402041
:10275000FFF740FCFFF7B4FC5846FFF73BFCFFF7E0
:10276000AFFCFFF78BFC601CC4B2082CE3D305F16F
:102770000800C5B2781CC7B21AF80700002892D129
:1027800003B0BDE8F08F0000AA3D000810B5044674
:10279000FFF754FC7820FFF71DFCFFF791FC00B118
:1027A000FEE70020FFF716FCFFF78AFC2046FFF744
:1027B00011FCFFF785FCBDE81040FFF75FBC7047D8
:1027C000044A0029116814BF084321EA0000106080
:1027D0007047000030380240044A0029116814BFD5
:1027E000084321EA000010607047000040380240B2
:1027F000044A0029116814BF084321EA0000106050
:102800007047000020380240044A0029116814BFB4
:10281000084321EA0000106070470000443802407D
:10282000044A0029116814BF084321EA000010601F
:10283000704700002438024010B41D4C21681D4A26
:1028400011F00C0118BF042901D0082901D0026041
:1028500012E0194B1968196801F03F01B2FBF1F160
:102860001A68C2F3881251431A68C2F30142521C1B
:102870005200B1FBF2F1016021680F220F4B02EA16
:102880001111595C026822FA01F1416022684FF08F
:10289000070C0CEA92229A5C21FA02F2826022680A
:1028A0000CEA52329A5CD140C16010BC7047000003
:1028B0000838024040787D01043802407200002050
:1028C000002101280CD0022810D0032813D004289E
:1028D0001CBF002070470A4A1068116000B27047A0
:1028E0004FF08042506A516200B27047054A10684A
:1028F000116000B27047044A1068116000B270475E
:102900002404004024080040240C004070470000CC
:10291000F0B50D46064601218BB00846FFF774FF5F
:1029200001210804FFF770FF01210846FFF748FF67
:102930003F4F012208213846FFF7FBFA0122092107
:102940003846FFF7F6FA01220A213846FFF7F1FA76
:1029500001220B213846FFF7ECFA03220221384608
:10296000FFF7E7FA40F60472089202228DF824205D
:102970008DF8252000248DF8264008A93846FFF759
:1029800089FAADF814502B4DADF816400696ADF807
:102990001C4005A9284600F0ADFC274E05A930468D
:1029A00000F0A8FC684600F09BFC6021ADF8001028
:1029B0000121ADF802100294ADF80C40694628469A
:1029C00000F081FB0821284600F0B1FB694628464B
:1029D00000F0B3FB0821284600F0F2FB69462846C8
:1029E00000F0F8FB0821284600F036FC694628462E
:1029F00000F038FC0821284600F068FC69463046A3
:102A000000F061FB0821304600F091FB01212846CF
:102A100000F0B5F90121284600F0BAF9012130464D
:102A200000F0ADF90121304600F0B2F90BB0F0BD75
:102A3000000002400000014000400140F0B4224F7D
:102A4000224E234D01244FF0000C0028A7BFC7F8E9
:102A5000B042C6F880C2C7F8B0C2C6F88042B8BF5C
:102A6000404228601B481C4D002905DBC0F8A842E5
:102A7000C0F8ACC2296005E0C0F8A8C2C0F8AC42FA
:102A80004842286015491648002AA7BFC0F8B4C2BA
:102A9000C0F8AC42C0F8B442C0F8ACC2B8BF5242B1
:102AA0000A601049002B06DBC0F8A0C2C0F8A4429F
:102AB0000B60F0BC7047C0F8A042C0F8A4C25842F6
:102AC0000860F0BC704700000000404200804142B6
:102AD0003C040140000041424004014034040140F4
:102AE00000004242380401404FF0E0210428086908
:102AF0000CBF40F0040020F00400086170477047EC
:102B00003B4882B0016841F47001016039480168B6
:102B100041F00101016038494FF0000CC1F800C0DC
:102B2000026822F4102222F080720260031D334AF0
:102B30001A60026822F4802202600A1DC2F800C0F6
:102B4000CDF800C0CDF804C0026842F480320260C3
:102B5000026802F400320192009A521C0092019A1B
:102B60001AB9009AB2F5A04FF2D1026812F4003FF0
:102B700008BFCDF804C034D001220192204AD2F817
:102B800000C04CF0805CC2F800C01E4AD2F800C001
:102B90004CF4404CC2F800C00A680A600A6842F46B
:102BA00000420A600A6842F4A0520A60164A1A609B
:102BB000026842F080720260026812F0007FFBD06F
:102BC000124A40F205701060086820F003000860A7
:102BD000086840F002000860086800F00C0008284F
:102BE000FAD10B494FF00060086002B07047000056
:102BF00088ED00E000380240083802401030002420
:102C0000403802400070004019544007003C024028
:102C100008ED00E030B4B0F820C02CF0100CA0F8A3
:102C200020C0048BB0F820C04FF6FF7524F4734425
:102C300005EA0333234305EA02221A4305EA011198
:102C40002CF0A003194341F010010283018430BC31
:102C5000704700002DE9F041224E0121304600F07E
:102C60009AF9012837D1FFF72BFE1F4D286002206B
:102C7000FFF726FE1D4C20600320FFF721FE1C4FAE
:102C800038600420FFF71CFEDFF86880C8F80000F9
:102C9000194801682868FFF757FA184D2860184846
:102CA00001682068FFF782FA164C20601648016818
:102CB0003868FFF7ADFA154F386015480168D8F845
:102CC0000000FFF7D7FA134908600B683A682168DB
:102CD0002868FFF7B3FE3046BDE8F041012100F05F
:102CE0004BB8000000140040100000201400002029
:102CF000180000201C000020200000200000002000
:102D000024000020040000202800002008000020EB
:102D10002C0000200C00002030B50D46044685B084
:102D200001212020FFF758FD0194ADF80050002448
:102D3000104DADF80240ADF808406946284600F055
:102D4000D9FA01221146284600F0B5F937218DF84D
:102D50000C108DF80D4001218DF80E108DF80F101C
:102D600003A8FFF785FB0121284600F008F805B00D
:102D700030BD000000140040C943018270470029A3
:102D8000018814BF41F0010121F001010180704769
:102D90000029B0F8441014BF41F40041C1F30E0102
:102DA000A0F84410704710B5A0F18041B1F5803112
:102DB0004AD0B0F1804F5BD0A0F18041B1F5806185
:102DC0004CD0A0F18041B1F500615BD0A0F1804111
:102DD000B1F5406160D0A0F18041B1F5805165D07E
:102DE000A0F18041B1F5A0516AD0A0F18041B1F5C8
:102DF00082316FD0A0F18041B1F5A03174D0A0F143
:102E00008041B1F5A2317AD0A0F18041B1F5A43171
:102E10007DD0A0F18041B1F5C05179D0A0F18041C1
:102E2000B1F5E05175D0A0F18041B1F5005118BF66
:102E300010BD01210802FFF7DBFCBDE810400021B6
:102E40004FF48070FFF7D4BC01210846FFF7E8FC7F
:102E50000021BDE810400120FFF7E2BC0121022063
:102E6000FFF7C6FC0021BDE810400220FFF7C0BC00
:102E700001210846FFF7BCFC0021BDE810400120FD
:102E8000FFF7B6BC01210420FFF7B2FC0021BDE82A
:102E900010400420FFF7ACBC01210820FFF7A8FC7C
:102EA0000021BDE810400820FFF7A2BC012110203E
:102EB000FFF79EFC0021BDE810401020FFF798BCF2
:102EC00001212020FFF794FC0021BDE810402020C4
:102ED000FFF78EBC01210220FFF7A2FC0021BDE814
:102EE00010400220FFF79CBC01210804FFF798FC6A
:102EF000BDE8104000214FF48030FFF791BC012164
:102F00004804FFF78DFC00214FF4003002E005E09B
:102F10000FE018E0BDE81040FFF782BC01218804F3
:102F2000FFF77EFCBDE8104000214FF48020FFF742
:102F300077BC01214020FFF75BFC0021BDE8104079
:102F40004020FFF755BC01218020FFF751FC0021F4
:102F5000BDE810408020FFF74BBC30B40589B0F8C5
:102F600018C0048C25F0070529432CF0030C2CF421
:102F7000407C40F201154CEA050C4FF6FF7505EA5E
:102F8000031324F022041A4322430181A0F818C03D
:102F9000028430BC7047038A002280890B4200EA19
:102FA00001001CBF002801221046704770B50C4676
:102FB000054608884988A28823894FF6FF7638B3EA
:102FC000042843D00828288C4ED020F48050288430
:102FD000B5F81CC0288C2CF4734C06EA022242EA95
:102FE0000C0206EA03331A4306EA013120F42040BA
:102FF000084340F48050AA832884A079A98B21F447
:103000004061A983A98B06EA00200843A88370BD0C
:10301000288C20F001002884B5F818C0288C06EA16
:1030200003131A432CF0F30C20F00A0042EA0C02BE
:10303000084340F001002A832884E088298B21F08E
:103040000C012983298B0843288370BD2846FFF78C
:10305000E1FDA079298B21F440612983298B06EABF
:1030600000200843288370BD20F480702884B5F8C0
:103070001CC0288C06EA03131A4306EA01212CF02F
:10308000F30C20F4206042EA0C02084340F4807004
:10309000AA832884E088A98B21F00C01A983A98B3D
:1030A0000843A88370BD00210180418001228280F5
:1030B000C18001817047002A828914BF114322EA2E
:1030C00001018181704710B4028C22F00102028458
:1030D000028C8388B0F818C00C882CF0730C44EA7A
:1030E0000C0C8C8922F0020222434C882243A0F16E
:1030F0008044B4F580341CBFA0F18044B4F5823420
:103100000DD1CC8922F0080222438C8822F00402DF
:1031100022430C8A23F4407323434C8A2343838045
:10312000A0F818C089684163028410BC7047028B04
:1031300022F0080211430183704730B4028C22F060
:1031400010020284028C8388B0F818C00D882CF419
:10315000E6444FF6FF7C0CEA05252C438D8922F0CE
:1031600020020CEA05152A434D880CEA05152A436E
:10317000A0F18045B5F580351CBFA0F18045B5F5BF
:10318000823516D1CD8922F080020CEA05152A433A
:103190008D8822F040020CEA05152A430D8A23F49B
:1031A00040630CEA85052B434D8A0CEA850C4CEAFA
:1031B00003038380048389688163028430BC704781
:1031C000028B4FF6FF7322F4006203EA01211143E0
:1031D0000183704730B4028C22F480720284028C26
:1031E0008388B0F81CC00C882CF0730C44EA0C04E3
:1031F0008D894FF6FF7C22F400720CEA05252A43E4
:103200004D880CEA05252A43A0F18045B5F58035A7
:103210001CBFA0F18045B5F5823516D1CD8922F4C9
:1032200000620CEA05252A438D8822F480620CEAAC
:1032300005252A430D8A23F440530CEA05152B4338
:103240004D8A0CEA051C4CEA030383808483896859
:10325000C163028430BC7047828B22F008021143A4
:103260008183704730B4028C22F480520284038C34
:103270008288B0F81CC00D884FF6FF742CF4E64C21
:1032800004EA052545EA0C0C8D8923F4005304EA71
:1032900005352B434D8804EA05352B43A0F18045C5
:1032A000B5F580351CBFA0F18045B5F5823505D157
:1032B0000D8A22F4804204EA851422438280A0F819
:1032C0001CC089680164038430BC7047828B4FF650
:1032D000FF7322F4006203EA0121114381837047E6
:1032E000002101804180818081608181C1810182D2
:1032F0004182704710B402881C4BDFF874C09842BA
:1033000018BF604511D0B0F1804F1CBFA0F18044C0
:10331000B4F5806409D0A0F18044B4F500641CBF0A
:10332000A0F18044B4F5406403D14C8822F07002CF
:103330002243A0F18044B4F580541CBFA0F1804426
:10334000B4F5A05403D00C8922F4407222430280C9
:103350004A68C2620A880285984212BF6045897A2B
:1033600001864FF00101818210BC704700000140CE
:103370000004014010B5194C40F22551204600F0E0
:103380007DF8002808BF10BD204600F00DF9144A52
:10339000C1B2108810F4004F18BF10BD10F4804F58
:1033A0004FF0000306D00A2908BF40F4004012D0B5
:1033B000138010BD0D2908BF40F480400BD0C0F32E
:1033C0000D0C084C401C80B204F80C101080FE2834
:1033D00098BF10BDECE7108010BD00000050004009
:1033E0006C0000208802002010B5194C40F22551D5
:1033F000204600F043F8002808BF10BD204600F02A
:10340000D3F8144AC1B2108810F4004F18BF10BD91
:1034100010F4804F4FF0000306D00A2908BF40F493
:10342000004012D0138010BD0D2908BF40F4804029
:103430000BD0C0F30D0C084C401C80B204F80C10EB
:103440001080FE2898BF10BDECE7108010BD000072
:1034500000480040300000208800002000298189B9
:1034600014BF41F4005121F400518181704702469C
:10347000002012880A4218BF0120704710B401F0E2
:103480001F020124C1F3421304FA02F24FF0000CB0
:10349000012B04BF83891A4004D0022B0CBF038A7E
:1034A000838A1A40090A008804FA01F10840002AB8
:1034B0001CBF00284FF0010C604610BC7047C1F3E0
:1034C000421301F01F014FF0010C0CFA01F1012B26
:1034D00008BF0C3003D0022B0CBF10301430002A70
:1034E000026814BF114322EA010101607047000025
:1034F00030B50446008A85B00D46C98820F4405096
:1035000008432082A089A9882A8920F403701143E6
:103510006A8920F4A05010430843A081A08AA98999
:1035200020F440700843A0826846FFF785F9A4F1B3
:103530008040B0F588301BBFA4F18040B0F58A30E0
:1035400003980298A18911F4004F00EBC00101EB30
:103550000010296814BF49008900B0FBF1F0114A3E
:103560006FF0180CA2FB0031490909010B0903FB9C
:103570000CF300EB8300A38913F4004F4FF03203E8
:1035800014BF03EBC00003EB0010A2FB00204FEAC6
:10359000501014BF00F0070000F00F000843208116
:1035A00005B030BD1F85EB518088C0F3080070471F
:1035B000C1F3080181807047FEE703B40198410020
:1035C000009850EAC12018BF04204A0D18BF40F0EF
:1035D000010040F2FF72B2EB515F08BF40F0020001
:1035E000012808BF052002B0704730380A2801D2F0
:1035F000012070470020704710B504466FF00400AA
:10360000FFF772FA0649E00800EB40020870C2EBCF
:10361000C0104FF6FF7202EAC000488010BD0000E3
:103620006E0000204FF40771B0FBF1F2B0FBF1F334
:1036300030B401FB130012F0FF021ED012494FF408
:1036400007730024498801FB03F54FF0E0235D6117
:103650009C61196941F001011961196911F0010FAB
:1036600002D011F4803FF8D0196921F001011961ED
:103670009C61511E11F0FF02E9D1002804BF30BC4B
:10368000704730BC00F01EB86E0000200C4909786D
:1036900048434FF0E021486100238B61086940F006
:1036A00001000861086910F0010F02D010F4803F9A
:1036B000F8D0086920F0010008618B6170470000B4
:1036C0006E0000200C49498848434FF0E0214861D2
:1036D00000238B61086940F001000861086910F05F
:1036E000010F02D010F4803FF8D0086920F00100EB
:1036F00008618B61704700006E000020A820FFF772
:103700007BFF4FF4A060FEF7EDFE4FF4165000F083
:10371000FDF84FF4165000F05BF8372142F20F70BD
:10372000FFF7F6F842F2CF01C720FFF7F5FA29219B
:1037300040F2E730FEF7D2FDFEF74CFEFEF74CFA02
:10374000FEF7ACFAFEF7FEFAFEF750FBFEF71EFCA2
:10375000FEF7FDFEFEF7D0FE19A200214020FEF785
:1037600093FF1A4C2820206141426161A161E06110
:103770004FF4FA70FFF756FF4FF4FA70FFF752FF5D
:103780004FF4FA70FFF74EFF4FF4FA70FFF74AFF5D
:103790004FF4FA70FFF746FF4FF4FA70FFF742FF5D
:1037A0004FF4FA70FFF73EFF002020616061A061D6
:1037B000E061E368A26861682068FEF7CBFBF8E788
:1037C000504944205445535400000000100000208C
:1037D0002DE9F0430746012187B00805FEF7FCFFFD
:1037E00001210C20FEF7ECFFDFF8BC9008220C2131
:1037F0004846FEF79EFBDFF8B480082202214046CF
:10380000FEF797FB02258DF804504FF480508DF899
:103810000550002400908DF8064001268DF80760C1
:1038200069464846FEF736FB8DF8045004208DF8B3
:10383000055000908DF806408DF8076069464046B7
:10384000FEF728FBDFF86880012240F22551404650
:10385000FFF735FE35208DF818008DF819508DF8DA
:103860001A608DF81B6006A8FEF702FEADF8104046
:103870000C20ADF80C40ADF812000297ADF80E40E8
:10388000ADF8144002A94046FFF732FE012240F293
:1038900025514046FFF713FE01214046FFF7DEFDAC
:1038A00007B0BDE8F083000000080240000C0240B1
:1038B000005000400FB413482DE9F04107AA0699C3
:1038C000FCF728FD0F48FCF737FE05042D0C4FF0E0
:1038D000000419BF0B4E0C4FBDE8F0015DF814FB5E
:1038E00040213846FFF7C3FD0028F9D0315D384646
:1038F000FFF75EFE601C84B2AC42F1D3BDE8F0017C
:103900005DF814FB8803002000500040F0B5064627
:1039100087B001210220FEF753FF01218804FEF742
:103920005BFF234F07220A213846FEF702FB0722DE
:103930000B213846FEF7FDFA02218DF814108DF8A0
:1039400015104FF44060002404908DF816400125B6
:103950008DF8175004A93846FEF79CFA154F01223E
:1039600040F225513846FFF7AAFD27208DF81800B0
:103970008DF819508DF81A508DF81B5006A8FEF7D7
:1039800077FDADF808400C20ADF80440ADF80A0012
:103990000096ADF80640ADF80C4069463846FFF792
:1039A000A7FD01213846FFF759FD07B0F0BD000023
:1039B000000402400048004010B500290AD00878F1
:1039C000002807D005487844FCF7D6FD002801D030
:1039D000002010BD0248784410BD0000F20A00002B
:1039E000EA0A000010B500290AD00878002807D09C
:1039F00005487844FCF7C0FD002801D0002010BD28
:103A00000248784410BD0000E20A0000DA0A000013
:103A10004FF04070E1EE100A7047FDF719B9FDF75D
:103A20004DBA404042CC000000FC0404040404FCF5
:103A300000000000003F10884023190101091123F4
:103A4000C0002030AC63201800040404FC0404040B
:103A50000000226722121212404040407F40404046
:103A600040002030AC633000809292929292FE80AF
:103A70008000226722121200221448847F04081456
:103A800022000404E4040FF40404F444CF44444446
:103A9000040040407D44447D4445447C44457C4092
:103AA0004000003E22E22222223E0000F80000FFF9
:103AB00000008141310F4181413F00000F40807F74
:103AC00000002030AC632018084848487F48484828
:103AD000080022672212121200FE4242424242FEB7
:103AE0000000000000FE929292FE929292FE000070
:103AF000000044442425140C04FF040C1425244421
:103B00004400403C10FF101020108F7808F808F88F
:103B10000000020602FF0101044221184681403FD5
:103B20000000404458C0FF504C0022CC0000FF0071
:103B3000000010080601FF01060004040404FF024F
:103B4000020000FE00FC00FF00F2121AD61212F270
:103B50000200403F003F00FF804F20180710204F19
:103B600080000000FC04040414155694543414041A
:103B7000040040300F0001010141817F0101010576
:103B800003000000000000000000002F0000000003
:103B90000700070000147F147F1400242A7F2A12D4
:103BA00000626408132300364955225000000503C3
:103BB000000000001C224100000041221C000014F3
:103BC000083E08140008083E0808000000A0600035
:103BD00000080808080800006060000000201008C5
:103BE0000402003E5149453E0000427F4000004231
:103BF00061514946002141454B31001814127F1094
:103C0000002745454539003C4A49493000017109C2
:103C1000050300364949493600064949291E000076
:103C2000363600000000563600000008142241001D
:103C3000001414141414000041221408000201514D
:103C4000090600324959513E007C1211127C007F56
:103C500049494936003E41414122007F4141221CF1
:103C6000007F49494941007F09090901003E414956
:103C7000497A007F0808087F0000417F410000204A
:103C800040413F01007F08142241007F40404040F6
:103C9000007F020C027F007F0408107F003E41413C
:103CA000413E007F09090906003E4151215E007F27
:103CB000091929460046494949310001017F01019E
:103CC000003F4040403F001F2040201F003F403841
:103CD000403F006314081463000708700807006180
:103CE0005149454300007F41410000552A552A555E
:103CF000000041417F0000040201020400404040F6
:103D00004040000001020400002054545478007F19
:103D10004844443800384444442000384444487FF0
:103D200000385454541800087E0901020018A4A455
:103D3000A47C007F080404780000447D400000401B
:103D400080847D00007F102844000000417F4000F7
:103D5000007C04180478007C08040478003844448B
:103D6000443800FC242424180018242418FC007C67
:103D70000804040800485454542000043F444020E0
:103D8000003C4040207C001C2040201C003C403077
:103D9000403C004428102844001CA0A0A07C004403
:103DA00064544C4414141414141400000000000053
:103DB00000000000000000000000000000F800000B
:103DC0000000000000333000000000100C06100C52
:103DD0000600000000000000000040C07840C078ED
:103DE0004000043F04043F040400007088FC0830D5
:103DF0000000001820FF211E0000F008F000E0186D
:103E0000000000211C031E211E0000F00888700025
:103E100000001E2123241927211010160E00000077
:103E200000000000000000000000000000E0180496
:103E30000200000000071820400000020418E00003
:103E400000000040201807000000404080F0804043
:103E500040000202010F01020200000000F0000019
:103E600000000101011F010101000000000000002D
:103E7000000080B0700000000000000000000000A2
:103E8000000000010101010101010000000000002B
:103E900000000030300000000000000000008060E2
:103EA0001804006018060100000000E01008081067
:103EB000E000000F102020100F00001010F800008C
:103EC00000000020203F2020000000700808088823
:103ED00070000030282422213000003008888848F3
:103EE00030000018202020110E000000C02010F823
:103EF000000000070424243F240000F808888808F4
:103F000008000019212020110E0000E010888818F8
:103F10000000000F112020110E0000380808C838DA
:103F200008000000003F00000000007088080888BA
:103F30007000001C222121221C0000E01008081043
:103F4000E0000000312222110F00000000C0C0007C
:103F50000000000000303000000000000080000081
:103F60000000000080600000000000008040201081
:103F7000080000010204081020004040404040407A
:103F800040000404040404040400000810204080DD
:103F90000000002010080402010000704808080812
:103FA000F0000000003036010000C030C828E810E2
:103FB000E0000718272423140B000000C038E0009D
:103FC0000000203C23020227382008F888888870E7
:103FD0000000203F202020110E00C03008080808F3
:103FE0003800071820202010080008F808080810DA
:103FF000E000203F202020100F0008F88888E80803
:104000001000203F20202320180008F88888E808A6
:104010001000203F200003000000C03008080838CE
:10402000000007182020221E020008F808000008DF
:10403000F808203F210101213F20000808F8080866
:1040400000000020203F2020000000000808F808A1
:104050000800C08080807F00000008F888C0281811
:104060000800203F20012638200008F80800000042
:104070000000203F20202020300008F8F800F8F849
:104080000800203F003F003F200008F830C0000833
:10409000F808203F200007183F00E010080808102B
:1040A000E0000F10202020100F0008F80808080872
:1040B000F000203F210101010000E0100808081075
:1040C000E0000F18242438504F0008F888888888AA
:1040D0007000203F2000030C302000708808080882
:1040E00038000038202121221C00180808F8080890
:1040F00018000000203F2000000008F80800000819
:10410000F808001F202020201F000878880000C821
:104110003808000007380E010000F80800F8000811
:10412000F800033C0700073C03000818688080681B
:10413000180820302C03032C30200838C800C83859
:1041400008000000203F2000000010080808C838C0
:1041500008002038262120201800000000FE02025E
:1041600002000000007F40404000000C30C0000012
:104170000000000000010638C00000020202FE003C
:104180000000004040407F000000000004020202E6
:10419000040000000000000000000000000000001B
:1041A0000000808080808080808000020204000007
:1041B00000000000000000000000000080808080FF
:1041C00000000019242222223F2008F800808000ED
:1041D0000000003F112020110E00000000808080B0
:1041E0000000000E112020201100000000808088B7
:1041F000F800000E112020103F20000080808080F9
:104200000000001F222222221300008080F08888F4
:1042100088180020203F202000000000808080803F
:104220008000006B94949493600008F80080808074
:104230000000203F210000203F20008098980000CF
:1042400000000020203F20200000000000809898FF
:10425000000000C08080807F000008F8000080809F
:104260008000203F24022D302000000808F80000C4
:1042700000000020203F202000008080808080807F
:104280008000203F20003F20003F80800080808011
:104290000000203F210000203F200000808080801F
:1042A0000000001F202020201F0080800080800050
:1042B000000080FFA12020110E00000000808080FF
:1042C0008000000E112020A0FF8080808000808070
:1042D000800020203F21200001000000808080809D
:1042E00080000033242424241900008080E0808092
:1042F00000000000001F20200000808000000080DF
:104300008000001F202020103F208080800000803F
:10431000808000010E30080601008080008000804F
:1043200080800F300C030C300F00008080008080F4
:1043300080000020312E0E3120008080800000801F
:10434000808080818E7018060100008080808080CF
:1043500080000021302C2221300000000000807CF1
:10436000020200000000003F404000000000FF008B
:10437000000000000000FF0000000002027C80003E
:1043800000000040403F0000000000060101020262
:104390000404000000000000000004000008000009
:1043A00000000000000200010000100000000000FA
:1043B000000000003031323334353637383941426D
:1043C0004344454640305800303132333435363777
:1043D0003839616263646566403078003031323369
:1043E0003435363738396162636465667870003019
:1043F00031323334353637383941424344454658F3
:104400005000000002400000000000A0000000007A
:1044100005400000000000C8000000000C40000043
:104420000000409C00000000194000000020BCBEBD
:104430000000000034400000BFC91B8E00000004D3
:10444000B5400000504BCFD06607E2CF010000001E
:104450006C4100003E8251AADFEEA734010000004B
:10446000D9420000DCB5A0E23A301F97FFFFFFFF02
:10447000B4450000FD25A0C8E9A3C14FFFFFFFFF21
:10448000FF3F00000000008000000000FF3F000030
:104490000000008000000000E4450008000000204B
:1044A00084000000C4010008684600088400002061
:1044B000640A0000E00100081C0000004300000046
:1044C000F8FFFFFF0C0000000E0000000F000000CE
:1044D0002E0000001001000043000000F8FFFFFF65
:1044E0000040404040404040404041414141414007
:1044F00040404040404040404040404040404040BC
:10450000400502020202020202020202020202024A
:10451000022020202020202020202002020202024F
:1045200002029090909090901010101010101010A7
:1045300010101010101010101010101002020202B3
:1045400002028888888888880808080808080808F7
:1045500008080808080808080808080802020202F3
:10456000400000000000000000000000000000000B
:10457000000000000000000000000000000000003B
:10458000000000000000000000000000000000002B
:10459000000000000000000000000000000000001B
:1045A000000000000000000000000000000000000B
:1045B00000000000000000000000000000000000FB
:1045C00000000000000000000000000000000000EB
:1045D00000000000000000000000000000000000DB
:1045E00000000000000000000000000000000000CB
:1045F00000000000000000000000000000000000BB
:1046000000000000000000000000000000000000AA
:1046100000000000000000000000204100002041D8
:10462000000000000000000000000000000000008A
:10463000000000000000000000000000000000007A
:10464000000000000000000000000000000000006A
:10465000000000000000000000000102030401024D
:0846600003040607080900002D
:040000050800018965
:00000001FF
